{
  "contractName": "BalanceHolder",
  "abi": [
    {
      "constant": false,
      "inputs": [
        {
          "name": "_roles2Library",
          "type": "address"
        }
      ],
      "name": "setRoles2Library",
      "outputs": [
        {
          "name": "",
          "type": "uint256"
        }
      ],
      "payable": false,
      "stateMutability": "nonpayable",
      "type": "function"
    },
    {
      "inputs": [
        {
          "name": "_roles2Library",
          "type": "address"
        }
      ],
      "payable": false,
      "stateMutability": "nonpayable",
      "type": "constructor"
    },
    {
      "payable": true,
      "stateMutability": "payable",
      "type": "fallback"
    },
    {
      "anonymous": false,
      "inputs": [
        {
          "indexed": false,
          "name": "code",
          "type": "address"
        },
        {
          "indexed": false,
          "name": "sender",
          "type": "address"
        },
        {
          "indexed": false,
          "name": "sig",
          "type": "bytes4"
        }
      ],
      "name": "AuthFailedError",
      "type": "event"
    },
    {
      "constant": false,
      "inputs": [
        {
          "name": "_from",
          "type": "address"
        },
        {
          "name": "_value",
          "type": "uint256"
        },
        {
          "name": "_contract",
          "type": "address"
        }
      ],
      "name": "deposit",
      "outputs": [
        {
          "name": "",
          "type": "bool"
        }
      ],
      "payable": false,
      "stateMutability": "nonpayable",
      "type": "function"
    },
    {
      "constant": false,
      "inputs": [
        {
          "name": "_to",
          "type": "address"
        },
        {
          "name": "_value",
          "type": "uint256"
        },
        {
          "name": "_contract",
          "type": "address"
        }
      ],
      "name": "withdraw",
      "outputs": [
        {
          "name": "",
          "type": "bool"
        }
      ],
      "payable": false,
      "stateMutability": "nonpayable",
      "type": "function"
    },
    {
      "constant": false,
      "inputs": [
        {
          "name": "_to",
          "type": "address"
        },
        {
          "name": "_amount",
          "type": "uint256"
        }
      ],
      "name": "withdrawETH",
      "outputs": [
        {
          "name": "",
          "type": "bool"
        }
      ],
      "payable": false,
      "stateMutability": "nonpayable",
      "type": "function"
    }
  ],
  "bytecode": "0x608060405234801561001057600080fd5b506040516020806105eb833981016040525180600160a060020a038116151561003857600080fd5b60008054600160a060020a03909216600160a060020a031990921691909117905550610582806100696000396000f3006080604052600436106100615763ffffffff7c01000000000000000000000000000000000000000000000000000000006000350416632637cd7d81146100635780634782f7791461009657806369328dec146100ce578063f45346dc146100f9575b005b34801561006f57600080fd5b50610084600160a060020a0360043516610124565b60408051918252519081900360200190f35b3480156100a257600080fd5b506100ba600160a060020a03600435166024356101b0565b604080519115158252519081900360200190f35b3480156100da57600080fd5b506100ba600160a060020a036004358116906024359060443516610273565b34801561010557600080fd5b506100ba600160a060020a036004358116906024359060443516610380565b600061013c33600035600160e060020a03191661044d565b151561017f5760408051308152336020820152600160e060020a0319600035168183015290516000805160206105378339815191529181900360600190a16101ab565b506000805473ffffffffffffffffffffffffffffffffffffffff1916600160a060020a03831617905560015b919050565b60006101c833600035600160e060020a03191661044d565b151561020b5760408051308152336020820152600160e060020a0319600035168183015290516000805160206105378339815191529181900360600190a161026d565b600160a060020a038316151561022057600080fd5b30318211156102315750600061026d565b604051600160a060020a0384169083156108fc029084906000818181858888f19350505050158015610267573d6000803e3d6000fd5b50600190505b92915050565b600061028b33600035600160e060020a03191661044d565b15156102ce5760408051308152336020820152600160e060020a0319600035168183015290516000805160206105378339815191529181900360600190a1610379565b81600160a060020a031663a9059cbb85856040518363ffffffff167c01000000000000000000000000000000000000000000000000000000000281526004018083600160a060020a0316600160a060020a0316815260200182815260200192505050602060405180830381600087803b15801561034a57600080fd5b505af115801561035e573d6000803e3d6000fd5b505050506040513d602081101561037457600080fd5b505190505b9392505050565b600061039833600035600160e060020a03191661044d565b15156103db5760408051308152336020820152600160e060020a0319600035168183015290516000805160206105378339815191529181900360600190a1610379565b604080517f23b872dd000000000000000000000000000000000000000000000000000000008152600160a060020a038681166004830152306024830152604482018690529151918416916323b872dd916064808201926020929091908290030181600087803b15801561034a57600080fd5b6000600160a060020a0383163014156104685750600161026d565b600054600160a060020a031615156104825750600061026d565b60008054604080517fb7009613000000000000000000000000000000000000000000000000000000008152600160a060020a038781166004830152306024830152600160e060020a0319871660448301529151919092169263b700961392606480820193602093909283900390910190829087803b15801561050357600080fd5b505af1158015610517573d6000803e3d6000fd5b505050506040513d602081101561052d57600080fd5b5051939250505056005133a133185f1023427a2e90f18506b27db994977ce0c0faafd514a7dd109ae0a165627a7a72305820f2e426ece42696b735229ce1e71ae4929a2cacccda11a9b0593beac6217b54490029",
  "source": "/**\n * Copyright 2017–2018, LaborX PTY\n * Licensed under the AGPL Version 3 license.\n */\n\npragma solidity ^0.4.21;\n\n\nimport \"solidity-shared-lib/contracts/ERC20Interface.sol\";\nimport \"solidity-roles-lib/contracts/Roles2LibraryAdapter.sol\";\n\ncontract BalanceHolder is Roles2LibraryAdapter {\n\n    constructor(address _roles2Library)\n    Roles2LibraryAdapter(_roles2Library)\n    public\n    {\n    }\n\n    function deposit(address _from, uint _value, ERC20Interface _contract)\n    external\n    auth\n    returns (bool)\n    {\n        return _contract.transferFrom(_from, this, _value);\n    }\n\n    function withdraw(address _to, uint _value, ERC20Interface _contract)\n    external\n    auth\n    returns (bool)\n    {\n        return _contract.transfer(_to, _value);\n    }\n\n    function withdrawETH(address _to, uint _amount)\n    external\n    auth\n    returns (bool)\n    {\n        require(_to != address(0));\n\n        if(_amount > address(this).balance) {\n            return false;\n        }\n\n        _to.transfer(_amount);\n        return true;\n    }\n\n    function ()\n    public\n    payable\n    {        \n    }\n}\n",
  "sourcePath": "/Users/alesanro/Documents/Projects/ChronoBank/LX-SC/contracts/BalanceHolder.sol",
  "compiler": {
    "name": "solc",
    "version": "0.4.24+commit.e67f0147.Emscripten.clang"
  },
  "schemaVersion": "2.0.1",
  "updatedAt": "2018-07-20T10:51:35.300Z"
}