{
  "contractName": "BoardController",
  "abi": [
    {
      "constant": false,
      "inputs": [
        {
          "name": "_roles2Library",
          "type": "address"
        }
      ],
      "name": "setRoles2Library",
      "outputs": [
        {
          "name": "",
          "type": "uint256"
        }
      ],
      "payable": false,
      "stateMutability": "nonpayable",
      "type": "function"
    },
    {
      "constant": true,
      "inputs": [],
      "name": "version",
      "outputs": [
        {
          "name": "",
          "type": "string"
        }
      ],
      "payable": false,
      "stateMutability": "view",
      "type": "function"
    },
    {
      "constant": false,
      "inputs": [
        {
          "name": "_errorCode",
          "type": "uint256"
        }
      ],
      "name": "emitErrorCode",
      "outputs": [],
      "payable": false,
      "stateMutability": "nonpayable",
      "type": "function"
    },
    {
      "constant": true,
      "inputs": [],
      "name": "getEventsHistory",
      "outputs": [
        {
          "name": "",
          "type": "address"
        }
      ],
      "payable": false,
      "stateMutability": "view",
      "type": "function"
    },
    {
      "inputs": [
        {
          "name": "_store",
          "type": "address"
        },
        {
          "name": "_crate",
          "type": "bytes32"
        },
        {
          "name": "_roles2Library",
          "type": "address"
        }
      ],
      "payable": false,
      "stateMutability": "nonpayable",
      "type": "constructor"
    },
    {
      "anonymous": false,
      "inputs": [
        {
          "indexed": true,
          "name": "self",
          "type": "address"
        },
        {
          "indexed": true,
          "name": "boardId",
          "type": "uint256"
        },
        {
          "indexed": false,
          "name": "creator",
          "type": "address"
        },
        {
          "indexed": false,
          "name": "boardTags",
          "type": "uint256"
        },
        {
          "indexed": false,
          "name": "boardTagsArea",
          "type": "uint256"
        },
        {
          "indexed": false,
          "name": "boardTagsCategory",
          "type": "uint256"
        },
        {
          "indexed": false,
          "name": "boardIpfsHash",
          "type": "bytes32"
        },
        {
          "indexed": false,
          "name": "status",
          "type": "bool"
        }
      ],
      "name": "BoardCreated",
      "type": "event"
    },
    {
      "anonymous": false,
      "inputs": [
        {
          "indexed": true,
          "name": "self",
          "type": "address"
        },
        {
          "indexed": true,
          "name": "boardId",
          "type": "uint256"
        },
        {
          "indexed": false,
          "name": "jobId",
          "type": "uint256"
        },
        {
          "indexed": false,
          "name": "status",
          "type": "bool"
        }
      ],
      "name": "JobBinded",
      "type": "event"
    },
    {
      "anonymous": false,
      "inputs": [
        {
          "indexed": true,
          "name": "self",
          "type": "address"
        },
        {
          "indexed": true,
          "name": "boardId",
          "type": "uint256"
        },
        {
          "indexed": false,
          "name": "user",
          "type": "address"
        },
        {
          "indexed": false,
          "name": "status",
          "type": "bool"
        }
      ],
      "name": "UserBinded",
      "type": "event"
    },
    {
      "anonymous": false,
      "inputs": [
        {
          "indexed": true,
          "name": "self",
          "type": "address"
        },
        {
          "indexed": true,
          "name": "boardId",
          "type": "uint256"
        },
        {
          "indexed": false,
          "name": "status",
          "type": "bool"
        }
      ],
      "name": "BoardClosed",
      "type": "event"
    },
    {
      "anonymous": false,
      "inputs": [
        {
          "indexed": false,
          "name": "code",
          "type": "address"
        },
        {
          "indexed": false,
          "name": "sender",
          "type": "address"
        },
        {
          "indexed": false,
          "name": "sig",
          "type": "bytes4"
        }
      ],
      "name": "AuthFailedError",
      "type": "event"
    },
    {
      "anonymous": false,
      "inputs": [
        {
          "indexed": true,
          "name": "self",
          "type": "address"
        },
        {
          "indexed": false,
          "name": "errorCode",
          "type": "uint256"
        }
      ],
      "name": "ErrorCode",
      "type": "event"
    },
    {
      "constant": false,
      "inputs": [
        {
          "name": "_jobsDataProvider",
          "type": "address"
        }
      ],
      "name": "setJobsDataProvider",
      "outputs": [
        {
          "name": "",
          "type": "uint256"
        }
      ],
      "payable": false,
      "stateMutability": "nonpayable",
      "type": "function"
    },
    {
      "constant": false,
      "inputs": [
        {
          "name": "_eventsHistory",
          "type": "address"
        }
      ],
      "name": "setupEventsHistory",
      "outputs": [
        {
          "name": "",
          "type": "uint256"
        }
      ],
      "payable": false,
      "stateMutability": "nonpayable",
      "type": "function"
    },
    {
      "constant": true,
      "inputs": [],
      "name": "getBoardsCount",
      "outputs": [
        {
          "name": "",
          "type": "uint256"
        }
      ],
      "payable": false,
      "stateMutability": "view",
      "type": "function"
    },
    {
      "constant": true,
      "inputs": [
        {
          "name": "_boardId",
          "type": "uint256"
        }
      ],
      "name": "getBoardStatus",
      "outputs": [
        {
          "name": "",
          "type": "bool"
        }
      ],
      "payable": false,
      "stateMutability": "view",
      "type": "function"
    },
    {
      "constant": true,
      "inputs": [
        {
          "name": "_boardId",
          "type": "uint256"
        },
        {
          "name": "_jobId",
          "type": "uint256"
        }
      ],
      "name": "getJobStatus",
      "outputs": [
        {
          "name": "",
          "type": "bool"
        }
      ],
      "payable": false,
      "stateMutability": "view",
      "type": "function"
    },
    {
      "constant": true,
      "inputs": [
        {
          "name": "_boardId",
          "type": "uint256"
        },
        {
          "name": "_user",
          "type": "address"
        }
      ],
      "name": "getUserStatus",
      "outputs": [
        {
          "name": "",
          "type": "bool"
        }
      ],
      "payable": false,
      "stateMutability": "view",
      "type": "function"
    },
    {
      "constant": true,
      "inputs": [
        {
          "name": "_jobId",
          "type": "uint256"
        }
      ],
      "name": "getJobsBoard",
      "outputs": [
        {
          "name": "",
          "type": "uint256"
        }
      ],
      "payable": false,
      "stateMutability": "view",
      "type": "function"
    },
    {
      "constant": true,
      "inputs": [
        {
          "name": "_jobId",
          "type": "uint256"
        }
      ],
      "name": "getBoardIpfsHash",
      "outputs": [
        {
          "name": "",
          "type": "bytes32"
        }
      ],
      "payable": false,
      "stateMutability": "view",
      "type": "function"
    },
    {
      "constant": true,
      "inputs": [
        {
          "name": "_ids",
          "type": "uint256[]"
        }
      ],
      "name": "getBoardsByIds",
      "outputs": [
        {
          "name": "_gotIds",
          "type": "uint256[]"
        },
        {
          "name": "_creators",
          "type": "address[]"
        },
        {
          "name": "_ipfs",
          "type": "bytes32[]"
        },
        {
          "name": "_tags",
          "type": "uint256[]"
        },
        {
          "name": "_tagsAreas",
          "type": "uint256[]"
        },
        {
          "name": "_tagsCategories",
          "type": "uint256[]"
        },
        {
          "name": "_status",
          "type": "bool[]"
        }
      ],
      "payable": false,
      "stateMutability": "view",
      "type": "function"
    },
    {
      "constant": true,
      "inputs": [
        {
          "name": "_tags",
          "type": "uint256"
        },
        {
          "name": "_tagsArea",
          "type": "uint256"
        },
        {
          "name": "_tagsCategory",
          "type": "uint256"
        },
        {
          "name": "_fromId",
          "type": "uint256"
        },
        {
          "name": "_maxLen",
          "type": "uint256"
        }
      ],
      "name": "getBoards",
      "outputs": [
        {
          "name": "_ids",
          "type": "uint256[]"
        }
      ],
      "payable": false,
      "stateMutability": "view",
      "type": "function"
    },
    {
      "constant": true,
      "inputs": [
        {
          "name": "_user",
          "type": "address"
        },
        {
          "name": "_tags",
          "type": "uint256"
        },
        {
          "name": "_tagsArea",
          "type": "uint256"
        },
        {
          "name": "_tagsCategory",
          "type": "uint256"
        }
      ],
      "name": "getBoardsForUser",
      "outputs": [
        {
          "name": "_ids",
          "type": "uint256[]"
        }
      ],
      "payable": false,
      "stateMutability": "view",
      "type": "function"
    },
    {
      "constant": true,
      "inputs": [
        {
          "name": "_boardId",
          "type": "uint256"
        }
      ],
      "name": "getJobsInBoardCount",
      "outputs": [
        {
          "name": "",
          "type": "uint256"
        }
      ],
      "payable": false,
      "stateMutability": "view",
      "type": "function"
    },
    {
      "constant": true,
      "inputs": [
        {
          "name": "_boardId",
          "type": "uint256"
        },
        {
          "name": "_jobState",
          "type": "uint256"
        },
        {
          "name": "_fromIdx",
          "type": "uint256"
        },
        {
          "name": "_maxLen",
          "type": "uint256"
        }
      ],
      "name": "getJobsInBoard",
      "outputs": [
        {
          "name": "_ids",
          "type": "uint256[]"
        }
      ],
      "payable": false,
      "stateMutability": "view",
      "type": "function"
    },
    {
      "constant": false,
      "inputs": [
        {
          "name": "_tags",
          "type": "uint256"
        },
        {
          "name": "_tagsArea",
          "type": "uint256"
        },
        {
          "name": "_tagsCategory",
          "type": "uint256"
        },
        {
          "name": "_ipfsHash",
          "type": "bytes32"
        }
      ],
      "name": "createBoard",
      "outputs": [
        {
          "name": "",
          "type": "uint256"
        }
      ],
      "payable": false,
      "stateMutability": "nonpayable",
      "type": "function"
    },
    {
      "constant": false,
      "inputs": [
        {
          "name": "_boardId",
          "type": "uint256"
        },
        {
          "name": "_jobId",
          "type": "uint256"
        }
      ],
      "name": "bindJobWithBoard",
      "outputs": [
        {
          "name": "",
          "type": "uint256"
        }
      ],
      "payable": false,
      "stateMutability": "nonpayable",
      "type": "function"
    },
    {
      "constant": false,
      "inputs": [
        {
          "name": "_boardId",
          "type": "uint256"
        },
        {
          "name": "_user",
          "type": "address"
        }
      ],
      "name": "bindUserWithBoard",
      "outputs": [
        {
          "name": "",
          "type": "uint256"
        }
      ],
      "payable": false,
      "stateMutability": "nonpayable",
      "type": "function"
    },
    {
      "constant": false,
      "inputs": [
        {
          "name": "_boardId",
          "type": "uint256"
        },
        {
          "name": "_user",
          "type": "address"
        }
      ],
      "name": "unbindUserFromBoard",
      "outputs": [
        {
          "name": "",
          "type": "uint256"
        }
      ],
      "payable": false,
      "stateMutability": "nonpayable",
      "type": "function"
    },
    {
      "constant": false,
      "inputs": [
        {
          "name": "_boardId",
          "type": "uint256"
        }
      ],
      "name": "closeBoard",
      "outputs": [
        {
          "name": "",
          "type": "uint256"
        }
      ],
      "payable": false,
      "stateMutability": "nonpayable",
      "type": "function"
    },
    {
      "constant": false,
      "inputs": [
        {
          "name": "_boardId",
          "type": "uint256"
        },
        {
          "name": "_creator",
          "type": "address"
        },
        {
          "name": "_tags",
          "type": "uint256"
        },
        {
          "name": "_tagsArea",
          "type": "uint256"
        },
        {
          "name": "_tagsCategory",
          "type": "uint256"
        },
        {
          "name": "_ipfsHash",
          "type": "bytes32"
        },
        {
          "name": "_boardStatus",
          "type": "bool"
        }
      ],
      "name": "emitBoardCreated",
      "outputs": [],
      "payable": false,
      "stateMutability": "nonpayable",
      "type": "function"
    },
    {
      "constant": false,
      "inputs": [
        {
          "name": "_boardId",
          "type": "uint256"
        },
        {
          "name": "_jobId",
          "type": "uint256"
        },
        {
          "name": "_status",
          "type": "bool"
        }
      ],
      "name": "emitJobBinded",
      "outputs": [],
      "payable": false,
      "stateMutability": "nonpayable",
      "type": "function"
    },
    {
      "constant": false,
      "inputs": [
        {
          "name": "_boardId",
          "type": "uint256"
        },
        {
          "name": "_user",
          "type": "address"
        },
        {
          "name": "_status",
          "type": "bool"
        }
      ],
      "name": "emitUserBinded",
      "outputs": [],
      "payable": false,
      "stateMutability": "nonpayable",
      "type": "function"
    },
    {
      "constant": false,
      "inputs": [
        {
          "name": "_boardId",
          "type": "uint256"
        },
        {
          "name": "_status",
          "type": "bool"
        }
      ],
      "name": "emitBoardClosed",
      "outputs": [],
      "payable": false,
      "stateMutability": "nonpayable",
      "type": "function"
    }
  ],
  "bytecode": "0x60c0604052600660808190527f76302e302e31000000000000000000000000000000000000000000000000000060a0908152620000409160139190620005a7565b503480156200004e57600080fd5b5060405160608062002b728339810160409081528151602083015191909201518083836200008d600083836401000000006200228f6200035782021704565b5050600160a060020a0381161515620000a557600080fd5b60038054600160a060020a031916600160a060020a03929092169190911790556200010060047f6a6f62734461746150726f7669646572000000000000000000000000000000006401000000006200037d8102620022c21704565b6200013b60057f626f61726473436f756e74000000000000000000000000000000000000000000640100000000620022c26200037d82021704565b6200017660067f626f61726443726561746f720000000000000000000000000000000000000000640100000000620022de6200039882021704565b620001b160087f626f617264546167734172656100000000000000000000000000000000000000640100000000620022de6200039882021704565b620001ec60097f626f6172645461677343617465676f7279000000000000000000000000000000640100000000620022de6200039882021704565b62000227600a7f626f617264546167730000000000000000000000000000000000000000000000640100000000620022de6200039882021704565b62000262600c7f6a6f6273426f6172640000000000000000000000000000000000000000000000640100000000620022de6200039882021704565b6200029d600b7f626f617264537461747573000000000000000000000000000000000000000000640100000000620022de6200039882021704565b620002d860077f626f617264497066734861736800000000000000000000000000000000000000640100000000620022de6200039882021704565b62000313600d7f75736572426f61726473000000000000000000000000000000000000000000006401000000006200230a620003b182021704565b6200034e60107f626f756e644a6f6273496e426f617264000000000000000000000000000000006401000000006200230a620003b182021704565b5050506200064c565b8254600160a060020a031916600160a060020a0392909216919091178255600190910155565b8154620003949082640100000000620003c6810204565b9055565b620003ad82826401000000006200037d810204565b5050565b620003ad8282640100000000620003de810204565b81151580620003d3575080155b15620003ad57600080fd5b620003ad8282640100000000620003f3810204565b6040805160208082018490527f636f756e7400000000000000000000000000000000000000000000000000000082840152825160258184030181526045909201928390528151620004af93869392909182918401908083835b602083106200046d5780518252601f1990920191602091820191016200044c565b6001836020036101000a03801982511681845116808217855250505050505090500191505060405180910390206200037d640100000000026401000000009004565b6040805160208082018490527f696e646578657300000000000000000000000000000000000000000000000000828401528251602781840301815260479092019283905281516200052b9360018701939290918291840190808383602083106200046d5780518252601f1990920191602091820191016200044c565b6040805160208082018490527f76616c756573000000000000000000000000000000000000000000000000000082840152825160268184030181526046909201928390528151620003ad9360028701939290918291840190808383602083106200046d5780518252601f1990920191602091820191016200044c565b828054600181600116156101000203166002900490600052602060002090601f016020900481019282601f10620005ea57805160ff19168380011785556200061a565b828001600101855582156200061a579182015b828111156200061a578251825591602001919060010190620005fd565b50620006289291506200062c565b5090565b6200064991905b8082111562000628576000815560010162000633565b90565b612516806200065c6000396000f30060806040526004361061013a5763ffffffff60e060020a60003504166302927d20811461013f57806318caa857146101725780631d13270214610194578063210c1f29146101b55780632637cd7d146101cd5780633e7d081a146101ee57806354fd4d501461020b5780635d1a1be81461029557806366c31f121461030f5780636aa084d7146103385780637db83ae4146103645780638834277e146103995780638c0ec2ac146103b1578063a2dcb5d4146103d2578063ad61ebea146103f6578063b1852c721461040e578063b1bf051014610426578063bde842ac1461043e578063c4e9311b14610459578063cf62dd6114610474578063dd2b749314610498578063e575df72146104b9578063e92c58a2146104dd578063f4d44b7214610724578063f69191b214610739578063fff10aba1461075d575b600080fd5b34801561014b57600080fd5b50610160600160a060020a036004351661078e565b60408051918252519081900360200190f35b34801561017e57600080fd5b506101926004356024356044351515610812565b005b3480156101a057600080fd5b50610160600435602435604435606435610869565b3480156101c157600080fd5b506101606004356109e5565b3480156101d957600080fd5b50610160600160a060020a0360043516610a9b565b3480156101fa57600080fd5b506101926004356024351515610b28565b34801561021757600080fd5b50610220610b77565b6040805160208082528351818301528351919283929083019185019080838360005b8381101561025a578181015183820152602001610242565b50505050905090810190601f1680156102875780820380516001836020036101000a031916815260200191505b509250505060405180910390f35b3480156102a157600080fd5b506102bf600160a060020a0360043516602435604435606435610c05565b60408051602080825283518183015283519192839290830191858101910280838360005b838110156102fb5781810151838201526020016102e3565b505050509050019250505060405180910390f35b34801561031b57600080fd5b50610192600435600160a060020a03602435166044351515610cc2565b34801561034457600080fd5b50610350600435610d19565b604080519115158252519081900360200190f35b34801561037057600080fd5b50610192600435600160a060020a036024351660443560643560843560a43560c4351515610d33565b3480156103a557600080fd5b50610192600435610daa565b3480156103bd57600080fd5b506102bf600435602435604435606435610df5565b3480156103de57600080fd5b50610160600435600160a060020a0360243516610f61565b34801561040257600080fd5b50610160600435610fe3565b34801561041a57600080fd5b50610160600435610ff7565b34801561043257600080fd5b5061016060043561100b565b34801561044a57600080fd5b5061035060043560243561101f565b34801561046557600080fd5b5061016060043560243561103b565b34801561048057600080fd5b50610160600435600160a060020a03602435166110bc565b3480156104a457600080fd5b50610160600160a060020a0360043516611112565b3480156104c557600080fd5b50610350600435600160a060020a0360243516611188565b3480156104e957600080fd5b5060408051602060048035808201358381028086018501909652808552610532953695939460249493850192918291850190849080828437509497506111a69650505050505050565b604051808060200180602001806020018060200180602001806020018060200188810388528f818151815260200191508051906020019060200280838360005b8381101561058a578181015183820152602001610572565b5050505090500188810387528e818151815260200191508051906020019060200280838360005b838110156105c95781810151838201526020016105b1565b5050505090500188810386528d818151815260200191508051906020019060200280838360005b838110156106085781810151838201526020016105f0565b5050505090500188810385528c818151815260200191508051906020019060200280838360005b8381101561064757818101518382015260200161062f565b5050505090500188810384528b818151815260200191508051906020019060200280838360005b8381101561068657818101518382015260200161066e565b5050505090500188810383528a818151815260200191508051906020019060200280838360005b838110156106c55781810151838201526020016106ad565b50505050905001888103825289818151815260200191508051906020019060200280838360005b838110156107045781810151838201526020016106ec565b505050509050019e50505050505050505050505050505060405180910390f35b34801561073057600080fd5b50610160611415565b34801561074557600080fd5b506102bf60043560243560443560643560843561142d565b34801561076957600080fd5b506107726114b6565b60408051600160a060020a039092168252519081900360200190f35b60006107a633600035600160e060020a0319166114da565b15156107e95760408051308152336020820152600160e060020a0319600035168183015290516000805160206124cb8339815191529181900360600190a161080d565b600160a060020a03821615156107fe57600080fd5b610807826115c0565b50600190505b919050565b8261081b6115f1565b6040805185815284151560208201528151600160a060020a0393909316927f0d7a6068901e5d084e217c5d1cb95a043d68ba086fb08b63cf78a444ad53c3c0929181900390910190a3505050565b60008061088233600035600160e060020a0319166114da565b15156108c55760408051308152336020820152600160e060020a0319600035168183015290516000805160206124cb8339815191529181900360600190a16109dc565b846108cf816115f5565b15806108e157506108df8161160c565b155b156108eb576109da565b846108f5816115f5565b158061090757506109058161160c565b155b15610911576109d8565b8780151561091e576109d6565b6109306000600563ffffffff61163216565b6001019350610948600060058663ffffffff6116a616565b61095c60006006863363ffffffff61173e16565b61097060006008868b63ffffffff61175916565b61098460006009868a63ffffffff61175916565b6109986000600a868c63ffffffff61175916565b6109ad6000600b86600163ffffffff61176516565b6109c160006007868963ffffffff61175916565b6109d184338b8b8b8b6001611771565b600194505b505b505b505b50949350505050565b60006109fd33600035600160e060020a0319166114da565b1515610a405760408051308152336020820152600160e060020a0319600035168183015290516000805160206124cb8339815191529181900360600190a161080d565b816000610a5581600b8463ffffffff61182a16565b1515610a7257610a66612afc61183f565b90508060005260206000f35b610a866000600b868263ffffffff61176516565b610a918460006118af565b5060019392505050565b6000610ab333600035600160e060020a0319166114da565b1515610af65760408051308152336020820152600160e060020a0319600035168183015290516000805160206124cb8339815191529181900360600190a161080d565b5060038054600160a060020a03831673ffffffffffffffffffffffffffffffffffffffff199091161790556001919050565b81610b316115f1565b6040805184151581529051600160a060020a0392909216917fd446dbede0f6a2859d1fee85f220959b0d3421ac2a84baf4f8ae9f3ad43369b69181900360200190a35050565b6013805460408051602060026001851615610100026000190190941693909304601f81018490048402820184019092528181529291830182828015610bfd5780601f10610bd257610100808354040283529160200191610bfd565b820191906000526020600020905b815481529060010190602001808311610be057829003601f168201915b505050505081565b60606000808080610c2781600d600160a060020a038c1663ffffffff61192716565b935083604051908082528060200260200182016040528015610c53578160200160208202803883390190505b50945060009250600091505b8382116109d657610c836000600d600160a060020a038c168563ffffffff61193416565b9050610c918189898961194b565b15610cb757808584815181101515610ca557fe5b60209081029091010152600192909201915b816001019150610c5f565b82610ccb6115f1565b60408051600160a060020a038681168252851515602083015282519316927f59607a2b26de9cec195f2d07833fd103d142795d3d3b8eff92a531e1094e76a3929181900390910190a3505050565b6000610d2d81600b8463ffffffff61182a16565b92915050565b86610d3c6115f1565b60408051600160a060020a038a81168252602082018a9052818301899052606082018890526080820187905285151560a0830152915192909116917f6d8832dbab0e20cb68b282a7823d527b4fa6c776574a29acb36d50ce70cd52e09181900360c00190a350505050505050565b610db26115f1565b600160a060020a03167f09e0713b45664e161c202b19bb4574ee83dfa056f9bfdee56847b3971d968221826040518082815260200191505060405180910390a250565b6060600080808080610e0f8160108c63ffffffff61192716565b9450848810610e1d57600080fd5b8487890110610e2e57878503610e30565b865b9650610e446000600463ffffffff6119ae16565b935086604051908082528060200260200182016040528015610e70578160200160208202803883390190505b509550600092508791505b8787018211610f5457610e98600060108c8563ffffffff61193416565b9050600160a060020a0384161580610f2357508884600160a060020a03166353bc1c12836040518263ffffffff1660e060020a02815260040180828152602001915050602060405180830381600087803b158015610ef557600080fd5b505af1158015610f09573d6000803e3d6000fd5b505050506040513d6020811015610f1f57600080fd5b5051145b15610f4957808684815181101515610f3757fe5b60209081029091010152600192909201915b816001019150610e7b565b5050505050949350505050565b600082826000610f718383611188565b151560011415610f8657610a66612afa61183f565b856000610f9b81600b8463ffffffff61182a16565b1515610fac57610a66612afc61183f565b610fc96000600d600160a060020a038a168b63ffffffff611a2216565b610fd588886001611a2e565b506001979650505050505050565b6000610d2d8160078463ffffffff611aaa16565b6000610d2d8160108463ffffffff61192716565b6000610d2d81600c8463ffffffff611aaa16565b6000611034816010858563ffffffff611ab716565b9392505050565b600082828261105281600c8463ffffffff611aaa16565b1561106257610a66612af961183f565b85600061107781600b8463ffffffff61182a16565b151561108857610a66612afc61183f565b61109c6000600c898b63ffffffff61175916565b6110b0600060108a8a63ffffffff611a2216565b610fd588886001611ac5565b6000828260006110cc8383611188565b15156110dd57610a66612afb61183f565b6110fa6000600d600160a060020a0388168963ffffffff611b2916565b61110686866000611a2e565b50600195945050505050565b600061112a33600035600160e060020a0319166114da565b151561116d5760408051308152336020820152600160e060020a0319600035168183015290516000805160206124cb8339815191529181900360600190a161080d565b611180600060048463ffffffff611b3516565b506001919050565b600061103481600d600160a060020a0385168663ffffffff611ab716565b606080606080606080606060008089985089516040519080825280602002602001820160405280156111e2578160200160208202803883390190505b5097508951604051908082528060200260200182016040528015611210578160200160208202803883390190505b509650895160405190808252806020026020018201604052801561123e578160200160208202803883390190505b509550895160405190808252806020026020018201604052801561126c578160200160208202803883390190505b509450895160405190808252806020026020018201604052801561129a578160200160208202803883390190505b50935089516040519080825280602002602001820160405280156112c8578160200160208202803883390190505b509250600091505b89518210156114085789828151811015156112e757fe5b602090810290910101519050611306600060068363ffffffff611aaa16565b888381518110151561131457fe5b600160a060020a0390921660209283029091019091015261133e600060078363ffffffff611aaa16565b878381518110151561134c57fe5b602090810290910101526113696000600a8363ffffffff611aaa16565b868381518110151561137757fe5b60209081029091010152611394600060088363ffffffff611aaa16565b85838151811015156113a257fe5b602090810290910101526113bf600060098363ffffffff611aaa16565b84838151811015156113cd57fe5b602090810290910101526113e081610d19565b83838151811015156113ee57fe5b9115156020928302909101909101526001909101906112d0565b5050919395979092949650565b600061142881600563ffffffff61163216565b905090565b60606000808360405190808252806020026020018201604052801561145c578160200160208202803883390190505b509250600091508490505b8385018110156114ab5761147d8189898961194b565b156114a35780838381518110151561149157fe5b60209081029091010152600191909101905b600101611467565b505095945050505050565b600254600090600160a060020a03168015156114d257306114d4565b805b91505090565b6000600160a060020a0383163014156114f557506001610d2d565b600354600160a060020a0316151561150f57506000610d2d565b600354604080517fb7009613000000000000000000000000000000000000000000000000000000008152600160a060020a038681166004830152306024830152600160e060020a0319861660448301529151919092169163b70096139160648083019260209291908290030181600087803b15801561158d57600080fd5b505af11580156115a1573d6000803e3d6000fd5b505050506040513d60208110156115b757600080fd5b50519392505050565b60028054600160a060020a03831673ffffffffffffffffffffffffffffffffffffffff199091161790556001919050565b3390565b60008115801590610d2d5750506000198101161590565b7faaaaaaaaaaaaaaaaaaaaaaaaaaaaaaaaaaaaaaaaaaaaaaaaaaaaaaaaaaaaaaaa161590565b815460018301548254604080517f53aa3f5e0000000000000000000000000000000000000000000000000000000081526004810193909352602483019190915251600092600160a060020a0316916353aa3f5e91604480830192602092919082900301818787803b15801561158d57600080fd5b825460018401548354604080517f53e7168b000000000000000000000000000000000000000000000000000000008152600481019390935260248301919091526044820184905251600160a060020a03909216916353e7168b9160648082019260009290919082900301818387803b15801561172157600080fd5b505af1158015611735573d6000803e3d6000fd5b50505050505050565b611753848484600160a060020a038516611bb1565b50505050565b61175384848484611bb1565b61175384848484611cb4565b6117796114b6565b604080517f7db83ae4000000000000000000000000000000000000000000000000000000008152600481018a9052600160a060020a03898116602483015260448201899052606482018890526084820187905260a4820186905284151560c483015291519290911691637db83ae49160e48082019260009290919082900301818387803b15801561180957600080fd5b505af115801561181d573d6000803e3d6000fd5b5050505050505050505050565b6000611837848484611d9a565b949350505050565b60006118496114b6565b600160a060020a0316638834277e836040518263ffffffff1660e060020a02815260040180828152602001915050600060405180830381600087803b15801561189157600080fd5b505af11580156118a5573d6000803e3d6000fd5b5093949350505050565b6118b76114b6565b600160a060020a0316633e7d081a83836040518363ffffffff1660e060020a028152600401808381526020018215151515815260200192505050600060405180830381600087803b15801561190b57600080fd5b505af115801561191f573d6000803e3d6000fd5b505050505050565b6000611837848484611eaa565b600061194285858585611eb7565b95945050505050565b600061196861196282600a8863ffffffff611aaa16565b85611ec5565b801561198b575061198b611985600060088863ffffffff611aaa16565b84611ec5565b801561194257506119426119a8600060098863ffffffff611aaa16565b83611ec5565b815460018301548254604080517fd3a396860000000000000000000000000000000000000000000000000000000081526004810193909352602483019190915251600092600160a060020a03169163d3a3968691604480830192602092919082900301818787803b15801561158d57600080fd5b61175384848484611ecb565b611a366114b6565b604080517f66c31f1200000000000000000000000000000000000000000000000000000000815260048101869052600160a060020a0385811660248301528415156044830152915192909116916366c31f129160648082019260009290919082900301818387803b15801561172157600080fd5b6000611837848484611ed7565b600061194285858585611f44565b611acd6114b6565b600160a060020a03166318caa8578484846040518463ffffffff1660e060020a02815260040180848152602001838152602001821515151581526020019350505050600060405180830381600087803b15801561172157600080fd5b61175384848484611f52565b825460018401548354604080517f79a7cfee00000000000000000000000000000000000000000000000000000000815260048101939093526024830191909152600160a060020a03848116604484015290519216916379a7cfee9160648082019260009290919082900301818387803b15801561172157600080fd5b835460018501548454604080516020808201939093528082018790528151808203830181526060909101918290528051600160a060020a039095169463a14ff85794939192918291908401908083835b60208310611c205780518252601f199092019160209182019101611c01565b5181516020939093036101000a60001901801990911692169190911790526040805191909301819003812063ffffffff881660e060020a02825260048201969096526024810195909552506044840187905251606480850194600094509192509082900301818387803b158015611c9657600080fd5b505af1158015611caa573d6000803e3d6000fd5b5050505050505050565b835460018501548454604080516020808201939093528082018790528151808203830181526060909101918290528051600160a060020a039095169463f0f53ee494939192918291908401908083835b60208310611d235780518252601f199092019160209182019101611d04565b5181516020939093036101000a60001901801990911692169190911790526040805191909301819003812063ffffffff881660e060020a0282526004820196909652602481019590955250861515604485015251606480850194600094509192509082900301818387803b158015611c9657600080fd5b825460018401548354604080516020808201939093528082018690528151808203830181526060909101918290528051600095600160a060020a0316946398eaf11c9490939182918401908083835b60208310611e085780518252601f199092019160209182019101611de9565b51815160209384036101000a60001901801990921691161790526040805192909401829003822063ffffffff891660e060020a028352600483019790975260248201969096529151604480840196955090935091839003909101905081600087803b158015611e7657600080fd5b505af1158015611e8a573d6000803e3d6000fd5b505050506040513d6020811015611ea057600080fd5b5051949350505050565b6000611837848484611f5e565b600061194285858585611f6b565b16151590565b61175384848484611f7f565b825460018401548354604080516020808201939093528082018690528151808203830181526060909101918290528051600095600160a060020a0316946337d9d7fc94909391829184019080838360208310611e085780518252601f199092019160209182019101611de9565b600061194285858585611fda565b61175384848484611ff6565b600061183784848461209b565b600061194285600286018560018601612108565b6000611f8d85858585611fda565b15611f9757611fd3565b611fa2858585611f5e565b6001019050611fb78560028601858486612196565b611fc78560018601858585612196565b611fd385858584612221565b5050505050565b6000611feb85856001018585612108565b151595945050505050565b600080600061200787878787611fda565b151561201257611735565b61201d878787611f5e565b925061202e87600288018786612108565b915061203f87876001018787612108565b905082811015612069576120598760018801878585612196565b6120698760028801878486612196565b61207a876001880187876000612196565b61208b876002880187866000612196565b6117358787876000198701612221565b825460018401548354604080516020808201939093528082018690528151808203830181526060909101918290528051600095600160a060020a0316946353aa3f5e94909391829184019080838360208310611e085780518252601f199092019160209182019101611de9565b6040805160208082018590528183018490528251808303840181526060909201928390528151600093611942938993899391929182918401908083835b602083106121645780518252601f199092019160209182019101612145565b6001836020036101000a0380198251168184511680821785525050505050509050019150506040518091039020611ed7565b6040805160208082018690528183018590528251808303840181526060909201928390528151611fd39389938993909282918401908083835b602083106121ee5780518252601f1990920191602091820191016121cf565b6001836020036101000a038019825116818451168082178552505050505050905001915050604051809103902084611bb1565b835460018501548454604080516020808201939093528082018790528151808203830181526060909101918290528051600160a060020a03909516946353e7168b949391929182919084019080838360208310611c205780518252601f199092019160209182019101611c01565b825473ffffffffffffffffffffffffffffffffffffffff1916600160a060020a0392909216919091178255600190910155565b81546122ce9082612314565b9055565b81546122ce9082612314565b6122e882826122c2565b5050565b6122e882826122c2565b6122e882826122c2565b6122e882826122c2565b6122e8828261232a565b81151580612320575080155b156122e857600080fd5b6122e882826040805160208082018490527f636f756e74000000000000000000000000000000000000000000000000000000828401528251602581840301815260459092019283905281516123d893869392909182918401908083835b602083106123a65780518252601f199092019160209182019101612387565b6001836020036101000a03801982511681845116808217855250505050505090500191505060405180910390206122c2565b6040805160208082018490527f696e646578657300000000000000000000000000000000000000000000000000828401528251602781840301815260479092019283905281516124519360018701939290918291840190808383602083106123a65780518252601f199092019160209182019101612387565b6040805160208082018490527f76616c7565730000000000000000000000000000000000000000000000000000828401528251602681840301815260469092019283905281516122e89360028701939290918291840190808383602083106123a65780518252601f19909201916020918201910161238756005133a133185f1023427a2e90f18506b27db994977ce0c0faafd514a7dd109ae0a165627a7a72305820c84796f3d81ca69ab349ece3b1d896bbf20c226ad32b6ac0a7179bef1404daa30029",
  "source": "/**\n * Copyright 20172018, LaborX PTY\n * Licensed under the AGPL Version 3 license.\n */\n\npragma solidity ^0.4.21;\n\n\nimport \"solidity-storage-lib/contracts/StorageAdapter.sol\";\nimport \"solidity-roles-lib/contracts/Roles2LibraryAdapter.sol\";\nimport \"solidity-eventshistory-lib/contracts/MultiEventsHistoryAdapter.sol\";\nimport \"./base/BitOps.sol\";\nimport \"./JobsDataProvider.sol\";\n\n\ncontract BoardController is StorageAdapter, MultiEventsHistoryAdapter, Roles2LibraryAdapter, BitOps {\n\n    uint constant BOARD_CONTROLLER_SCOPE = 11000;\n    uint constant BOARD_CONTROLLER_JOB_IS_ALREADY_BINDED = BOARD_CONTROLLER_SCOPE + 1;\n    uint constant BOARD_CONTROLLER_USER_IS_ALREADY_BINDED = BOARD_CONTROLLER_SCOPE + 2;\n    uint constant BOARD_CONTROLLER_USER_IS_NOT_BINDED = BOARD_CONTROLLER_SCOPE + 3;\n    uint constant BOARD_CONTROLLER_BOARD_IS_CLOSED = BOARD_CONTROLLER_SCOPE + 4;\n\n    event BoardCreated(\n        address indexed self,\n        uint indexed boardId,\n        address creator,\n        uint boardTags,\n        uint boardTagsArea,\n        uint boardTagsCategory,\n        bytes32 boardIpfsHash,\n        bool status\n    );\n    event JobBinded(address indexed self, uint indexed boardId, uint jobId, bool status);\n    event UserBinded(address indexed self, uint indexed boardId, address user, bool status);\n    event BoardClosed(address indexed self, uint indexed boardId, bool status);\n\n    /// @dev Jobs Data Provider address. Read-only!\n    StorageInterface.Address jobsDataProvider;\n    StorageInterface.UInt boardsCount;\n\n    StorageInterface.UIntAddressMapping boardCreator;\n    StorageInterface.UIntBytes32Mapping boardIpfsHash;\n\n    StorageInterface.UIntUIntMapping boardTagsArea;\n    StorageInterface.UIntUIntMapping boardTagsCategory;\n    StorageInterface.UIntUIntMapping boardTags;\n\n    StorageInterface.UIntBoolMapping boardStatus;\n    StorageInterface.UIntUIntMapping jobsBoard;\n    \n    /// @dev mapping(user address => set(board ids))\n    StorageInterface.UIntSetMapping userBoards;\n    /// @dev mapping(board id => set(job ids))\n    StorageInterface.UIntSetMapping boundJobsInBoard;\n\n    string public version = \"v0.0.1\";\n\n    modifier notBindedJobYet(uint _boardId, uint _jobId) {\n        if (store.get(jobsBoard, _jobId) != 0) {\n            uint _resultCode = _emitErrorCode(BOARD_CONTROLLER_JOB_IS_ALREADY_BINDED);\n            assembly {\n                mstore(0, _resultCode)\n                return(0, 32)\n            }\n        }\n        _;\n    }\n\n    modifier notBindedUserYet(uint _boardId, address _user) {\n        if (getUserStatus(_boardId, _user) == true) {\n            uint _resultCode = _emitErrorCode(BOARD_CONTROLLER_USER_IS_ALREADY_BINDED);\n            assembly {\n                mstore(0, _resultCode)\n                return(0, 32)\n            }\n        }\n        _;\n    }\n\n    modifier onlyBoundUser(uint _boardId, address _user) {\n        if (getUserStatus(_boardId, _user) == false) {\n            uint _resultCode = _emitErrorCode(BOARD_CONTROLLER_USER_IS_NOT_BINDED);\n            assembly {\n                mstore(0, _resultCode)\n                return(0, 32)\n            }\n        }\n        _;\n    }\n\n    modifier notClosed(uint _boardId) {\n        if (store.get(boardStatus, _boardId) == false) {\n            uint _resultCode = _emitErrorCode(BOARD_CONTROLLER_BOARD_IS_CLOSED);\n            assembly {\n                mstore(0, _resultCode)\n                return(0, 32)\n            }\n        }\n        _;\n    }\n\n    constructor(\n        Storage _store,\n        bytes32 _crate,\n        address _roles2Library\n    )\n    StorageAdapter(_store, _crate)\n    Roles2LibraryAdapter(_roles2Library)\n    public\n    {\n        jobsDataProvider.init(\"jobsDataProvider\");\n        \n        boardsCount.init(\"boardsCount\");\n\n        boardCreator.init(\"boardCreator\");\n\n        boardTagsArea.init(\"boardTagsArea\");\n        boardTagsCategory.init(\"boardTagsCategory\");\n        boardTags.init(\"boardTags\");\n\n        jobsBoard.init(\"jobsBoard\");\n        boardStatus.init(\"boardStatus\");\n\n        boardIpfsHash.init(\"boardIpfsHash\");\n        \n        userBoards.init(\"userBoards\");\n        boundJobsInBoard.init(\"boundJobsInBoard\");\n    }\n\n    function setJobsDataProvider(address _jobsDataProvider) auth external returns (uint) {\n        store.set(jobsDataProvider, _jobsDataProvider);\n        return OK;\n    }\n\n    function setupEventsHistory(address _eventsHistory) auth external returns (uint) {\n        require(_eventsHistory != 0x0);\n\n        _setEventsHistory(_eventsHistory);\n        return OK;\n    }\n\n    function getBoardsCount() public view returns (uint) {\n        return store.get(boardsCount);\n    }\n\n    function getBoardStatus(uint _boardId) public view returns (bool) {\n        return store.get(boardStatus, _boardId);\n    }\n\n    function getJobStatus(uint _boardId, uint _jobId) public view returns (bool) {\n        return store.includes(boundJobsInBoard, bytes32(_boardId), _jobId);\n    }\n\n    function getUserStatus(uint _boardId, address _user) public view returns (bool) {\n        return store.includes(userBoards, bytes32(_user), _boardId);\n    }\n\n    function getJobsBoard(uint _jobId) public view returns (uint) {\n        return store.get(jobsBoard, _jobId);\n    }\n\n    function getBoardIpfsHash(uint _jobId) public view returns (bytes32) {\n        return store.get(boardIpfsHash, _jobId);\n    }\n\n    function getBoardsByIds(uint[] _ids)\n    public\n    view \n    returns (\n        uint[] _gotIds,\n        address[] _creators,\n        bytes32[] _ipfs,\n        uint[] _tags,\n        uint[] _tagsAreas,\n        uint[] _tagsCategories,\n        bool[] _status\n    ) {\n        _gotIds = _ids;\n        _creators = new address[](_ids.length);\n        _ipfs = new bytes32[](_ids.length);\n        _tags = new uint[](_ids.length);\n        _tagsAreas = new uint[](_ids.length);\n        _tagsCategories = new uint[](_ids.length);\n        _status = new bool[](_ids.length);\n\n        for (uint _idIdx = 0; _idIdx < _ids.length; ++_idIdx) {\n            uint _id = _ids[_idIdx];\n            _creators[_idIdx] = store.get(boardCreator, _id);\n            _ipfs[_idIdx] = store.get(boardIpfsHash, _id);\n            _tags[_idIdx] = store.get(boardTags, _id);\n            _tagsAreas[_idIdx] = store.get(boardTagsArea, _id);\n            _tagsCategories[_idIdx] = store.get(boardTagsCategory, _id);\n            _status[_idIdx] = getBoardStatus(_id);\n        }\n    }\n\n    /// @notice Gets filtered list of boards' ids in paginated way across all created boards\n    function getBoards(\n        uint _tags, \n        uint _tagsArea, \n        uint _tagsCategory, \n        uint _fromId, \n        uint _maxLen\n    ) \n    public \n    view \n    returns (uint[] _ids) \n    {\n        _ids = new uint[](_maxLen);\n        uint _pointer = 0;\n        for (uint _id = _fromId; _id < _fromId + _maxLen; ++_id) {\n            if (_filterBoard(_id, _tags, _tagsArea, _tagsCategory)) {\n                _ids[_pointer] = _id;\n                _pointer += 1;\n            }\n        }\n    }\n\n    /// @notice Gets filtered boards for bound user \n    /// where boards have provided properties (tags, \n    /// tags area, tags category)\n    function getBoardsForUser(\n        address _user, \n        uint _tags, \n        uint _tagsArea, \n        uint _tagsCategory\n    )  \n    public \n    view \n    returns (uint[] _ids) \n    {\n        uint _count = store.count(userBoards, bytes32(_user));\n        _ids = new uint[](_count);\n        uint _pointer = 0;\n        for (uint _boardIdx = 0; _boardIdx <= _count; ++_boardIdx) {\n            uint _boardId = store.get(userBoards, bytes32(_user), _boardIdx);\n            if (_filterBoard(_boardId, _tags, _tagsArea, _tagsCategory)) {\n                _ids[_pointer] = _boardId;\n                _pointer += 1;\n            }\n        }\n    }\n\n    function _filterBoard(\n        uint _boardId,\n        uint _tags, \n        uint _tagsArea, \n        uint _tagsCategory \n    ) \n    private \n    view \n    returns (bool) \n    {\n        return _hasFlag(store.get(boardTags, _boardId), _tags) &&\n            _hasFlag(store.get(boardTagsArea, _boardId), _tagsArea) &&\n            _hasFlag(store.get(boardTagsCategory, _boardId), _tagsCategory);   \n    }\n    \n    function getJobsInBoardCount(uint _boardId) public view returns (uint) {\n        return store.count(boundJobsInBoard, bytes32(_boardId));\n    }\n\n    /// @notice Gets jobs ids that a binded with a provided board\n    /// in a paginated way\n    function getJobsInBoard(\n        uint _boardId, \n        uint _jobState, \n        uint _fromIdx, \n        uint _maxLen\n    )\n    public\n    view\n    returns (uint[] _ids) {\n        uint _count = store.count(boundJobsInBoard, bytes32(_boardId));\n        require(_fromIdx < _count);\n        _maxLen = (_fromIdx + _maxLen < _count) ? _maxLen : (_count - _fromIdx);\n        JobsDataProvider _jobsDataProvider = JobsDataProvider(store.get(jobsDataProvider));\n        _ids = new uint[](_maxLen);\n        uint _pointer = 0;\n        for (uint _jobIdx = _fromIdx; _jobIdx <= _fromIdx + _maxLen; ++_jobIdx) {\n            uint _jobId = store.get(boundJobsInBoard, bytes32(_boardId), _jobIdx);\n            if (address(_jobsDataProvider) == 0x0 || \n                _jobsDataProvider.getJobState(_jobId) == _jobState\n            ) {\n                _ids[_pointer] = _jobId;\n                _pointer += 1;\n            }\n        }\n    }\n\n    function createBoard(\n        uint _tags,\n        uint _tagsArea,\n        uint _tagsCategory,\n        bytes32 _ipfsHash\n    )\n    auth\n    singleOddFlag(_tagsArea)\n    singleOddFlag(_tagsCategory)\n    hasFlags(_tags)\n    external\n    returns (uint)\n    {\n        uint boardId = store.get(boardsCount) + 1;\n        store.set(boardsCount, boardId);\n        store.set(boardCreator, boardId, msg.sender);\n        store.set(boardTagsArea, boardId, _tagsArea);\n        store.set(boardTagsCategory, boardId, _tagsCategory);\n        store.set(boardTags, boardId, _tags);\n        store.set(boardStatus, boardId, true);\n        store.set(boardIpfsHash, boardId, _ipfsHash);\n        _emitBoardCreated(boardId, msg.sender, _tags, _tagsArea, _tagsCategory, _ipfsHash, true);\n        return OK;\n    }\n\n    function bindJobWithBoard(\n        uint _boardId,\n        uint _jobId\n    )\n    notBindedJobYet(_boardId, _jobId)\n    notClosed(_boardId)\n    public\n    returns (uint)\n    {\n        store.set(jobsBoard, _jobId, _boardId);\n        store.add(boundJobsInBoard, bytes32(_boardId), _jobId);\n        _emitJobBinded(_boardId, _jobId, true);\n        return OK;\n    }\n\n    function bindUserWithBoard(\n        uint _boardId,\n        address _user\n    )\n    notBindedUserYet(_boardId, _user)\n    notClosed(_boardId)\n    public\n    returns (uint)\n    {\n        store.add(userBoards, bytes32(_user), _boardId);\n        _emitUserBinded(_boardId, _user, true);\n        return OK;\n    }\n\n    function unbindUserFromBoard(\n        uint _boardId,\n        address _user\n    )\n    onlyBoundUser(_boardId, _user)\n    public \n    returns (uint) \n    {\n        store.remove(userBoards, bytes32(_user), _boardId);\n        _emitUserBinded(_boardId, _user, false);\n        return OK;\n    }\n\n    function closeBoard(\n        uint _boardId\n    )\n    auth\n    notClosed(_boardId)\n    external\n    returns (uint)\n    {\n        store.set(boardStatus, _boardId, false);\n        _emitBoardClosed(_boardId, false);\n        return OK;\n    }\n\n    function _emitBoardCreated(\n        uint _boardId,\n        address _creator,\n        uint _tags,\n        uint _tagsArea,\n        uint _tagsCategory,\n        bytes32 _ipfsHash,\n        bool _boardStatus\n    )\n    internal\n    {\n        BoardController(getEventsHistory()).emitBoardCreated(\n            _boardId,\n            _creator,\n            _tags,\n            _tagsArea,\n            _tagsCategory,\n            _ipfsHash,\n            _boardStatus\n        );\n    }\n\n    function emitBoardCreated(\n        uint _boardId,\n        address _creator,\n        uint _tags,\n        uint _tagsArea,\n        uint _tagsCategory,\n        bytes32 _ipfsHash,\n        bool _boardStatus\n    )\n    public\n    {\n        emit BoardCreated(\n            _self(),\n            _boardId,\n            _creator,\n            _tags,\n            _tagsArea,\n            _tagsCategory,\n            _ipfsHash,\n            _boardStatus\n        );\n    }\n\n    function emitJobBinded(uint _boardId, uint _jobId, bool _status) public {\n        emit JobBinded(_self(), _boardId, _jobId, _status);\n    }\n\n    function emitUserBinded(uint _boardId, address _user, bool _status) public {\n        emit UserBinded(_self(), _boardId, _user, _status);\n    }\n\n    function emitBoardClosed(uint _boardId, bool _status) public {\n        emit BoardClosed(_self(), _boardId, _status);\n    }\n\n    /* INTERNAL */\n\n    function _emitJobBinded(uint _boardId, uint _jobId, bool _status) internal {\n        BoardController(getEventsHistory()).emitJobBinded(_boardId, _jobId, _status);\n    }\n\n    function _emitUserBinded(uint _boardId, address _user, bool _status) internal {\n        BoardController(getEventsHistory()).emitUserBinded(_boardId, _user, _status);\n    }\n\n    function _emitBoardClosed(uint _boardId, bool _status) internal {\n        BoardController(getEventsHistory()).emitBoardClosed(_boardId, _status);\n    }\n}\n",
  "sourcePath": "/Users/alesanro/Documents/Projects/ChronoBank/LX-SC/contracts/BoardController.sol",
  "compiler": {
    "name": "solc",
    "version": "0.4.24+commit.e67f0147.Emscripten.clang"
  },
  "schemaVersion": "2.0.1",
  "updatedAt": "2018-07-20T10:51:35.571Z"
}