{
  "contractName": "ContractsManager",
  "abi": [
    {
      "constant": false,
      "inputs": [
        {
          "name": "_roles2Library",
          "type": "address"
        }
      ],
      "name": "setRoles2Library",
      "outputs": [
        {
          "name": "",
          "type": "uint256"
        }
      ],
      "payable": false,
      "stateMutability": "nonpayable",
      "type": "function"
    },
    {
      "constant": false,
      "inputs": [],
      "name": "claimContractOwnership",
      "outputs": [
        {
          "name": "",
          "type": "bool"
        }
      ],
      "payable": false,
      "stateMutability": "nonpayable",
      "type": "function"
    },
    {
      "constant": true,
      "inputs": [],
      "name": "version",
      "outputs": [
        {
          "name": "",
          "type": "string"
        }
      ],
      "payable": false,
      "stateMutability": "view",
      "type": "function"
    },
    {
      "constant": false,
      "inputs": [
        {
          "name": "_to",
          "type": "address"
        }
      ],
      "name": "changeContractOwnership",
      "outputs": [
        {
          "name": "",
          "type": "bool"
        }
      ],
      "payable": false,
      "stateMutability": "nonpayable",
      "type": "function"
    },
    {
      "constant": true,
      "inputs": [],
      "name": "pendingContractOwner",
      "outputs": [
        {
          "name": "",
          "type": "address"
        }
      ],
      "payable": false,
      "stateMutability": "view",
      "type": "function"
    },
    {
      "constant": false,
      "inputs": [
        {
          "name": "tokens",
          "type": "address[]"
        }
      ],
      "name": "withdrawTokens",
      "outputs": [],
      "payable": false,
      "stateMutability": "nonpayable",
      "type": "function"
    },
    {
      "constant": false,
      "inputs": [],
      "name": "withdrawEther",
      "outputs": [],
      "payable": false,
      "stateMutability": "nonpayable",
      "type": "function"
    },
    {
      "constant": true,
      "inputs": [],
      "name": "contractOwner",
      "outputs": [
        {
          "name": "",
          "type": "address"
        }
      ],
      "payable": false,
      "stateMutability": "view",
      "type": "function"
    },
    {
      "constant": false,
      "inputs": [
        {
          "name": "newOwner",
          "type": "address"
        }
      ],
      "name": "transferOwnership",
      "outputs": [
        {
          "name": "",
          "type": "bool"
        }
      ],
      "payable": false,
      "stateMutability": "nonpayable",
      "type": "function"
    },
    {
      "inputs": [
        {
          "name": "_store",
          "type": "address"
        },
        {
          "name": "_crate",
          "type": "bytes32"
        },
        {
          "name": "_roles2Library",
          "type": "address"
        }
      ],
      "payable": false,
      "stateMutability": "nonpayable",
      "type": "constructor"
    },
    {
      "anonymous": false,
      "inputs": [
        {
          "indexed": true,
          "name": "contractAddress",
          "type": "address"
        },
        {
          "indexed": false,
          "name": "t",
          "type": "bytes32"
        }
      ],
      "name": "ContractsManagerAddContract",
      "type": "event"
    },
    {
      "anonymous": false,
      "inputs": [
        {
          "indexed": true,
          "name": "contractAddress",
          "type": "address"
        }
      ],
      "name": "ContractsManagerRemoveContract",
      "type": "event"
    },
    {
      "anonymous": false,
      "inputs": [
        {
          "indexed": true,
          "name": "self",
          "type": "address"
        },
        {
          "indexed": false,
          "name": "errorCode",
          "type": "uint256"
        }
      ],
      "name": "Error",
      "type": "event"
    },
    {
      "anonymous": false,
      "inputs": [
        {
          "indexed": false,
          "name": "code",
          "type": "address"
        },
        {
          "indexed": false,
          "name": "sender",
          "type": "address"
        },
        {
          "indexed": false,
          "name": "sig",
          "type": "bytes4"
        }
      ],
      "name": "AuthFailedError",
      "type": "event"
    },
    {
      "anonymous": false,
      "inputs": [
        {
          "indexed": true,
          "name": "previousOwner",
          "type": "address"
        },
        {
          "indexed": true,
          "name": "newOwner",
          "type": "address"
        }
      ],
      "name": "OwnershipTransferred",
      "type": "event"
    },
    {
      "constant": false,
      "inputs": [
        {
          "name": "_contract",
          "type": "address"
        },
        {
          "name": "_type",
          "type": "bytes32"
        }
      ],
      "name": "addContract",
      "outputs": [
        {
          "name": "",
          "type": "uint256"
        }
      ],
      "payable": false,
      "stateMutability": "nonpayable",
      "type": "function"
    },
    {
      "constant": false,
      "inputs": [
        {
          "name": "_contract",
          "type": "address"
        }
      ],
      "name": "removeContract",
      "outputs": [
        {
          "name": "",
          "type": "uint256"
        }
      ],
      "payable": false,
      "stateMutability": "nonpayable",
      "type": "function"
    },
    {
      "constant": true,
      "inputs": [],
      "name": "getContractAddresses",
      "outputs": [
        {
          "name": "",
          "type": "address[]"
        }
      ],
      "payable": false,
      "stateMutability": "view",
      "type": "function"
    },
    {
      "constant": true,
      "inputs": [
        {
          "name": "_type",
          "type": "bytes32"
        }
      ],
      "name": "getContractAddressByType",
      "outputs": [
        {
          "name": "contractAddress",
          "type": "address"
        }
      ],
      "payable": false,
      "stateMutability": "view",
      "type": "function"
    },
    {
      "constant": true,
      "inputs": [
        {
          "name": "_contract",
          "type": "address"
        }
      ],
      "name": "isExists",
      "outputs": [
        {
          "name": "",
          "type": "bool"
        }
      ],
      "payable": false,
      "stateMutability": "view",
      "type": "function"
    }
  ],
  "bytecode": "0x60c0604052600660808190527f76302e302e31000000000000000000000000000000000000000000000000000060a090815262000040916009919062000391565b503480156200004e57600080fd5b506040516060806200193183398101604090815281516020830151919092015160008054600160a060020a031916331790558083836200009f60028383640100000000620012b76200015682021704565b5050600160a060020a0381161515620000b757600080fd5b60048054600160a060020a031916600160a060020a03929092169190911790556200011260057f636f6e74726163747300000000000000000000000000000000000000000000006401000000006200017c8102620012ea1704565b6200014d60087f636f6e7472616374547970657300000000000000000000000000000000000000640100000000620012f46200019582021704565b50505062000436565b8254600160a060020a031916600160a060020a0392909216919091178255600190910155565b620001918282640100000000620001aa810204565b5050565b6200019182826401000000006200035e810204565b6040805160208082018490527f636f756e74000000000000000000000000000000000000000000000000000000828401528251602581840301815260459092019283905281516200026693869392909182918401908083835b60208310620002245780518252601f19909201916020918201910162000203565b6001836020036101000a03801982511681845116808217855250505050505090500191505060405180910390206200035e640100000000026401000000009004565b6040805160208082018490527f696e64657865730000000000000000000000000000000000000000000000000082840152825160278184030181526047909201928390528151620002e2936001870193929091829184019080838360208310620002245780518252601f19909201916020918201910162000203565b6040805160208082018490527f76616c75657300000000000000000000000000000000000000000000000000008284015282516026818403018152604690920192839052815162000191936002870193929091829184019080838360208310620002245780518252601f19909201916020918201910162000203565b815462000375908264010000000062000379810204565b9055565b8115158062000386575080155b156200019157600080fd5b828054600181600116156101000203166002900490600052602060002090601f016020900481019282601f10620003d457805160ff191683800117855562000404565b8280016001018555821562000404579182015b8281111562000404578251825591602001919060010190620003e7565b506200041292915062000416565b5090565b6200043391905b808211156200041257600081556001016200041d565b90565b6114eb80620004466000396000f3006080604052600436106100b65763ffffffff60e060020a6000350416632637cd7d81146100bb5780634592cd1d146100ee57806354fd4d5014610117578063557f4bc9146101a15780635aa77d3c146101c25780635ecb16cd146101f35780637362377b1461024a578063953874d21461025f578063b7c46cd5146102c4578063bc657927146102e8578063c375c2ef14610300578063ce606ee014610321578063e0d4f1c314610336578063f2fde38b14610357575b600080fd5b3480156100c757600080fd5b506100dc600160a060020a0360043516610378565b60408051918252519081900360200190f35b3480156100fa57600080fd5b50610103610416565b604080519115158252519081900360200190f35b34801561012357600080fd5b5061012c6104a7565b6040805160208082528351818301528351919283929083019185019080838360005b8381101561016657818101518382015260200161014e565b50505050905090810190601f1680156101935780820380516001836020036101000a031916815260200191505b509250505060405180910390f35b3480156101ad57600080fd5b50610103600160a060020a0360043516610535565b3480156101ce57600080fd5b506101d7610591565b60408051600160a060020a039092168252519081900360200190f35b3480156101ff57600080fd5b5060408051602060048035808201358381028086018501909652808552610248953695939460249493850192918291850190849080828437509497506105a09650505050505050565b005b34801561025657600080fd5b50610248610726565b34801561026b57600080fd5b50610274610784565b60408051602080825283518183015283519192839290830191858101910280838360005b838110156102b0578181015183820152602001610298565b505050509050019250505060405180910390f35b3480156102d057600080fd5b506100dc600160a060020a036004351660243561079d565b3480156102f457600080fd5b506101d760043561089a565b34801561030c57600080fd5b506100dc600160a060020a03600435166108af565b34801561032d57600080fd5b506101d761098c565b34801561034257600080fd5b50610103600160a060020a036004351661099b565b34801561036357600080fd5b50610103600160a060020a03600435166109b0565b600061039033600035600160e060020a031916610a4f565b15156103e55760408051308152336020820152600160e060020a0319600035168183015290517f5133a133185f1023427a2e90f18506b27db994977ce0c0faafd514a7dd109ae09181900360600190a1610411565b506004805473ffffffffffffffffffffffffffffffffffffffff1916600160a060020a03831617905560015b919050565b600154600090600160a060020a03163314610433575060006104a4565b60015460008054604051600160a060020a0393841693909116917f8be0079c531659141344cd1fd0a4f28419497f9722a3daafe3b4186f6b6457e091a350600180546000805473ffffffffffffffffffffffffffffffffffffffff19908116600160a060020a038416179091551681555b90565b6009805460408051602060026001851615610100026000190190941693909304601f8101849004840282018401909252818152929183018282801561052d5780601f106105025761010080835404028352916020019161052d565b820191906000526020600020905b81548152906001019060200180831161051057829003601f168201915b505050505081565b60008054600160a060020a031633141561041157600160a060020a038216151561056157506000610411565b5060018054600160a060020a03831673ffffffffffffffffffffffffffffffffffffffff19909116178155919050565b600154600160a060020a031681565b60008054819081908190600160a060020a031633141561071f5760008054600160a060020a0316945092505b845183101561071f5784838151811015156105e357fe5b6020908102909101810151604080517f70a082310000000000000000000000000000000000000000000000000000000081523060048201529051919450600160a060020a038516926370a08231926024808401938290030181600087803b15801561064d57600080fd5b505af1158015610661573d6000803e3d6000fd5b505050506040513d602081101561067757600080fd5b5051905060008111156107145781600160a060020a031663a9059cbb85836040518363ffffffff1660e060020a0281526004018083600160a060020a0316600160a060020a0316815260200182815260200192505050602060405180830381600087803b1580156106e757600080fd5b505af11580156106fb573d6000803e3d6000fd5b505050506040513d602081101561071157600080fd5b50505b6001909201916105cc565b5050505050565b60008054600160a060020a03163314156107815750303160008111156107815760008054604051600160a060020a039091169183156108fc02918491818181858888f1935050505015801561077f573d6000803e3d6000fd5b505b50565b60606107986002600563ffffffff610b3916565b905090565b60006107b533600035600160e060020a031916610a4f565b151561080a5760408051308152336020820152600160e060020a0319600035168183015290517f5133a133185f1023427a2e90f18506b27db994977ce0c0faafd514a7dd109ae09181900360600190a1610894565b6108138361099b565b1561082a57610823612710610b54565b9050610894565b61083d600260058563ffffffff610b9016565b61085160026008848663ffffffff610ba916565b604080518381529051600160a060020a038516917ff42ffc9f05349eb942072e43a552548d1e4eb637b572f7dca6b587b765cde0cf919081900360200190a25060015b92915050565b6000610894600260088463ffffffff610bc416565b60006108c733600035600160e060020a031916610a4f565b151561091c5760408051308152336020820152600160e060020a0319600035168183015290517f5133a133185f1023427a2e90f18506b27db994977ce0c0faafd514a7dd109ae09181900360600190a1610411565b6109258261099b565b151561093d57610936612711610b54565b9050610411565b610950600260058463ffffffff610bd916565b604051600160a060020a038316907f68a27b527d37d02ca3b29959f3a3adf9e3aa95c2b8670455f61c953c5ae722b390600090a2506001919050565b600054600160a060020a031681565b6000610894600260058463ffffffff610bed16565b60008054600160a060020a031633141561041157600160a060020a03821615156109dc57506000610411565b60008054604051600160a060020a03808616939216917f8be0079c531659141344cd1fd0a4f28419497f9722a3daafe3b4186f6b6457e091a35060008054600160a060020a03831673ffffffffffffffffffffffffffffffffffffffff1991821617909155600180549091168155919050565b6000600160a060020a038316301415610a6a57506001610894565b600454600160a060020a03161515610a8457506000610894565b60048054604080517fb7009613000000000000000000000000000000000000000000000000000000008152600160a060020a0387811694820194909452306024820152600160e060020a0319861660448201529051929091169163b7009613916064808201926020929091908290030181600087803b158015610b0657600080fd5b505af1158015610b1a573d6000803e3d6000fd5b505050506040513d6020811015610b3057600080fd5b50519392505050565b6060610b4d610b488484610c03565b610c19565b9392505050565b60408051828152905160009133917f9cf38cf2dbf9139f5c32639950507b10775fbbe0421f3e168bc2d1bb1ae3208c9181900360200190a25090565b610ba48383600160a060020a038416610ca6565b505050565b610bbe848484600160a060020a038516610cbb565b50505050565b6000610bd1848484610dbe565b949350505050565b610ba48383600160a060020a038416610ece565b6000610bd18484600160a060020a038516610ee3565b6060610b4d838360ea60020a621cd95d02610efa565b60608060008351604051908082528060200260200182016040528015610c49578160200160208202803883390190505b509150600090505b8351811015610c9f578381815181101515610c6857fe5b602090810290910101518251839083908110610c8057fe5b600160a060020a03909216602092830290910190910152600101610c51565b5092915050565b610ba4838360ea60020a621cd95d0284610f7b565b835460018501548454604080516020808201939093528082018790528151808203830181526060909101918290528051600160a060020a039095169463a14ff85794939192918291908401908083835b60208310610d2a5780518252601f199092019160209182019101610d0b565b5181516020939093036101000a60001901801990911692169190911790526040805191909301819003812063ffffffff881660e060020a02825260048201969096526024810195909552506044840187905251606480850194600094509192509082900301818387803b158015610da057600080fd5b505af1158015610db4573d6000803e3d6000fd5b5050505050505050565b825460018401548354604080516020808201939093528082018690528151808203830181526060909101918290528051600095600160a060020a0316946337d9d7fc9490939182918401908083835b60208310610e2c5780518252601f199092019160209182019101610e0d565b51815160209384036101000a60001901801990921691161790526040805192909401829003822063ffffffff891660e060020a028352600483019790975260248201969096529151604480840196955090935091839003909101905081600087803b158015610e9a57600080fd5b505af1158015610eae573d6000803e3d6000fd5b505050506040513d6020811015610ec457600080fd5b5051949350505050565b610ba4838360ea60020a621cd95d0284610fcf565b6000610bd1848460ea60020a621cd95d028561107d565b6060600080610f0a868686611099565b915081604051908082528060200260200182016040528015610f36578160200160208202803883390190505b509250600090505b81811015610f7257610f52868686846110a6565b8382815181101515610f6057fe5b60209081029091010152600101610f3e565b50509392505050565b6000610f898585858561107d565b15610f935761071f565b610f9e858585611099565b6001019050610fb385600286018584866110c3565b610fc385600186018585856110c3565b61071f8585858461114e565b6000806000610fe08787878761107d565b1515610feb57611074565b610ff6878787611099565b9250611007876002880187866111bc565b9150611018878760010187876111bc565b9050828110156110425761103287600188018785856110c3565b61104287600288018784866110c3565b6110538760018801878760006110c3565b6110648760028801878660006110c3565b611074878787600019870161114e565b50505050505050565b600061108e858560010185856111bc565b151595945050505050565b6000610bd184848461124a565b60006110ba856002860185600186016111bc565b95945050505050565b604080516020808201869052818301859052825180830384018152606090920192839052815161071f9389938993909282918401908083835b6020831061111b5780518252601f1990920191602091820191016110fc565b6001836020036101000a038019825116818451168082178552505050505050905001915050604051809103902084610cbb565b835460018501548454604080516020808201939093528082018790528151808203830181526060909101918290528051600160a060020a03909516946353e7168b949391929182919084019080838360208310610d2a5780518252601f199092019160209182019101610d0b565b60408051602080820185905281830184905282518083038401815260609092019283905281516000936110ba938993899391929182918401908083835b602083106112185780518252601f1990920191602091820191016111f9565b6001836020036101000a0380198251168184511680821785525050505050509050019150506040518091039020610dbe565b825460018401548354604080516020808201939093528082018690528151808203830181526060909101918290528051600095600160a060020a0316946353aa3f5e94909391829184019080838360208310610e2c5780518252601f199092019160209182019101610e0d565b825473ffffffffffffffffffffffffffffffffffffffff1916600160a060020a0392909216919091178255600190910155565b61077f82826112fe565b61077f8282611499565b6040805160208082018490527f636f756e74000000000000000000000000000000000000000000000000000000828401528251602581840301815260459092019283905281516113a793869392909182918401908083835b602083106113755780518252601f199092019160209182019101611356565b6001836020036101000a0380198251168184511680821785525050505050509050019150506040518091039020611499565b6040805160208082018490527f696e646578657300000000000000000000000000000000000000000000000000828401528251602781840301815260479092019283905281516114209360018701939290918291840190808383602083106113755780518252601f199092019160209182019101611356565b6040805160208082018490527f76616c75657300000000000000000000000000000000000000000000000000008284015282516026818403018152604690920192839052815161077f9360028701939290918291840190808383602083106113755780518252601f199092019160209182019101611356565b81546114a590826114a9565b9055565b811515806114b5575080155b1561077f57600080fd00a165627a7a723058207ab2d774183db69eafd4f24dc229c77efde854f4ae3b089f200c72674133a86f0029",
  "source": "/**\n* Copyright 2017–2018, LaborX PTY\n* Licensed under the AGPL Version 3 license.\n*/\n\npragma solidity ^0.4.21;\n\nimport \"solidity-shared-lib/contracts/Owned.sol\";\nimport \"solidity-storage-lib/contracts/StorageAdapter.sol\";\nimport \"solidity-roles-lib/contracts/Roles2LibraryAdapter.sol\";\n\n/**\n*  @title ContractsManager\n*/\ncontract ContractsManager is Owned, StorageAdapter, Roles2LibraryAdapter {\n    uint constant OK = 1;\n    uint constant ERROR_CONTRACT_EXISTS = 10000;\n    uint constant ERROR_CONTRACT_NOT_EXISTS = 10001;\n\n    StorageInterface.AddressesSet contractsAddresses;\n    StorageInterface.Bytes32AddressMapping contractsTypes;\n\n    string public version = \"v0.0.1\";\n\n    event ContractsManagerAddContract(address indexed contractAddress, bytes32 t);\n    event ContractsManagerRemoveContract(address indexed contractAddress);\n    event Error(address indexed self, uint errorCode);\n\n    /**\n    *  @notice Constructor that sets `storage` and `crate` to given values.\n    */\n    constructor(Storage _store, bytes32 _crate, address _roles2Library)\n    public\n    StorageAdapter(_store, _crate)\n    Roles2LibraryAdapter(_roles2Library)\n    {\n        contractsAddresses.init(\"contracts\");\n        contractsTypes.init(\"contractTypes\");\n    }\n\n    /**\n    *  @dev Allow owner to add new contract\n    *\n    *  @param _contract contacts address\n    *  @param _type contracts type\n    *\n    *  @return result code, 1 if success, otherwise error code\n    */\n    function addContract(address _contract, bytes32 _type)\n    public\n    auth()\n    returns (uint)\n    {\n        if (isExists(_contract)) {\n            return emitError(ERROR_CONTRACT_EXISTS);\n        }\n\n        store.add(contractsAddresses, _contract);\n        store.set(contractsTypes, _type, _contract);\n\n        emit ContractsManagerAddContract(_contract, _type);\n        return OK;\n    }\n\n    /**\n    *  @dev Allow owner to add new contract\n    *\n    *  @param _contract contacts address\n    *\n    *  @return result code, 1 if success, otherwise error code\n    */\n    function removeContract(address _contract)\n    public\n    auth()\n    returns (uint)\n    {\n        if (!isExists(_contract)) {\n            return emitError(ERROR_CONTRACT_NOT_EXISTS);\n        }\n\n        store.remove(contractsAddresses, _contract);\n        // TODO\n        //store.remove(contractsTypes, _type, _contract);\n\n        emit ContractsManagerRemoveContract(_contract);\n        return OK;\n    }\n\n    /**\n    *   @dev Returns an array containing all contracts addresses.\n    *   @return Array of token addresses.\n    */\n    function getContractAddresses()\n    public\n    view\n    returns (address[])\n    {\n        return store.get(contractsAddresses);\n    }\n\n    /**\n    *   @dev Returns a contracts address by given type.\n    *   @return contractAddress\n    */\n    function getContractAddressByType(bytes32 _type)\n    public\n    view\n    returns (address contractAddress)\n    {\n        return store.get(contractsTypes, _type);\n    }\n\n    /**\n    *  @dev Tells whether a contract wit a given address exists.\n    *\n    *  @return `true` if a contract has been registers, otherwise `false`\n    */\n    function isExists(address _contract)\n    public\n    view\n    returns (bool)\n    {\n        return store.includes(contractsAddresses, _contract);\n    }\n\n    /**\n    *  @dev Util function which throws error event with a given error\n    */\n    function emitError(uint e)\n    private\n    returns (uint)\n    {\n        emit Error(msg.sender, e);\n        return e;\n    }\n}\n",
  "sourcePath": "/Users/alesanro/Documents/Projects/ChronoBank/LX-SC/contracts/ContractsManager.sol",
  "compiler": {
    "name": "solc",
    "version": "0.4.24+commit.e67f0147.Emscripten.clang"
  },
  "schemaVersion": "2.0.1",
  "updatedAt": "2018-09-18T15:43:05.230Z"
}