{
  "contractName": "IPFSLibrary",
  "abi": [
    {
      "constant": false,
      "inputs": [
        {
          "name": "_roles2Library",
          "type": "address"
        }
      ],
      "name": "setRoles2Library",
      "outputs": [
        {
          "name": "",
          "type": "uint256"
        }
      ],
      "payable": false,
      "stateMutability": "nonpayable",
      "type": "function"
    },
    {
      "constant": true,
      "inputs": [],
      "name": "version",
      "outputs": [
        {
          "name": "",
          "type": "string"
        }
      ],
      "payable": false,
      "stateMutability": "view",
      "type": "function"
    },
    {
      "constant": false,
      "inputs": [
        {
          "name": "_errorCode",
          "type": "uint256"
        }
      ],
      "name": "emitErrorCode",
      "outputs": [],
      "payable": false,
      "stateMutability": "nonpayable",
      "type": "function"
    },
    {
      "constant": true,
      "inputs": [],
      "name": "getEventsHistory",
      "outputs": [
        {
          "name": "",
          "type": "address"
        }
      ],
      "payable": false,
      "stateMutability": "view",
      "type": "function"
    },
    {
      "inputs": [
        {
          "name": "_store",
          "type": "address"
        },
        {
          "name": "_crate",
          "type": "bytes32"
        },
        {
          "name": "_roles2Library",
          "type": "address"
        }
      ],
      "payable": false,
      "stateMutability": "nonpayable",
      "type": "constructor"
    },
    {
      "anonymous": false,
      "inputs": [
        {
          "indexed": true,
          "name": "self",
          "type": "address"
        },
        {
          "indexed": true,
          "name": "setter",
          "type": "address"
        },
        {
          "indexed": true,
          "name": "key",
          "type": "bytes32"
        },
        {
          "indexed": false,
          "name": "hash",
          "type": "bytes32"
        }
      ],
      "name": "HashSet",
      "type": "event"
    },
    {
      "anonymous": false,
      "inputs": [
        {
          "indexed": false,
          "name": "code",
          "type": "address"
        },
        {
          "indexed": false,
          "name": "sender",
          "type": "address"
        },
        {
          "indexed": false,
          "name": "sig",
          "type": "bytes4"
        }
      ],
      "name": "AuthFailedError",
      "type": "event"
    },
    {
      "anonymous": false,
      "inputs": [
        {
          "indexed": true,
          "name": "self",
          "type": "address"
        },
        {
          "indexed": false,
          "name": "errorCode",
          "type": "uint256"
        }
      ],
      "name": "ErrorCode",
      "type": "event"
    },
    {
      "constant": false,
      "inputs": [
        {
          "name": "_eventsHistory",
          "type": "address"
        }
      ],
      "name": "setupEventsHistory",
      "outputs": [
        {
          "name": "",
          "type": "uint256"
        }
      ],
      "payable": false,
      "stateMutability": "nonpayable",
      "type": "function"
    },
    {
      "constant": true,
      "inputs": [
        {
          "name": "_from",
          "type": "address"
        },
        {
          "name": "_itemName",
          "type": "bytes32"
        }
      ],
      "name": "getHash",
      "outputs": [
        {
          "name": "",
          "type": "bytes32"
        }
      ],
      "payable": false,
      "stateMutability": "view",
      "type": "function"
    },
    {
      "constant": false,
      "inputs": [
        {
          "name": "_itemName",
          "type": "bytes32"
        },
        {
          "name": "_itemHash",
          "type": "bytes32"
        }
      ],
      "name": "setHash",
      "outputs": [
        {
          "name": "",
          "type": "uint256"
        }
      ],
      "payable": false,
      "stateMutability": "nonpayable",
      "type": "function"
    },
    {
      "constant": false,
      "inputs": [
        {
          "name": "_from",
          "type": "address"
        },
        {
          "name": "_itemName",
          "type": "bytes32"
        },
        {
          "name": "_itemHash",
          "type": "bytes32"
        }
      ],
      "name": "emitHashSet",
      "outputs": [],
      "payable": false,
      "stateMutability": "nonpayable",
      "type": "function"
    }
  ],
  "bytecode": "0x60c0604052600660808190527f76302e302e31000000000000000000000000000000000000000000000000000060a09081526200004091600591906200017b565b503480156200004e57600080fd5b5060405160608062000cb98339810160409081528151602083015191909201518083836200008d60008383640100000000620009f66200010982021704565b5050600160a060020a0381161515620000a557600080fd5b60038054600160a060020a031916600160a060020a03929092169190911790556200010060047f69706673486173686573000000000000000000000000000000000000000000006401000000006200012f810262000a291704565b50505062000220565b8254600160a060020a031916600160a060020a0392909216919091178255600190910155565b62000144828264010000000062000148810204565b5050565b81546200015f908264010000000062000163810204565b9055565b8115158062000170575080155b156200014457600080fd5b828054600181600116156101000203166002900490600052602060002090601f016020900481019282601f10620001be57805160ff1916838001178555620001ee565b82800160010185558215620001ee579182015b82811115620001ee578251825591602001919060010190620001d1565b50620001fc92915062000200565b5090565b6200021d91905b80821115620001fc576000815560010162000207565b90565b610a8980620002306000396000f3006080604052600436106100745763ffffffff60e060020a60003504166302927d208114610079578063060f919b146100ac5780632637cd7d146100d057806354fd4d50146100f15780638834277e1461017b578063a8af6e0514610195578063d7fa1007146101bc578063fff10aba146101d7575b600080fd5b34801561008557600080fd5b5061009a600160a060020a0360043516610208565b60408051918252519081900360200190f35b3480156100b857600080fd5b5061009a600160a060020a036004351660243561029e565b3480156100dc57600080fd5b5061009a600160a060020a03600435166102bc565b3480156100fd57600080fd5b5061010661035b565b6040805160208082528351818301528351919283929083019185019080838360005b83811015610140578181015183820152602001610128565b50505050905090810190601f16801561016d5780820380516001836020036101000a031916815260200191505b509250505060405180910390f35b34801561018757600080fd5b506101936004356103e9565b005b3480156101a157600080fd5b50610193600160a060020a0360043516602435604435610434565b3480156101c857600080fd5b5061009a60043560243561048c565b3480156101e357600080fd5b506101ec6104b6565b60408051600160a060020a039092168252519081900360200190f35b600061022033600035600160e060020a0319166104da565b15156102755760408051308152336020820152600160e060020a0319600035168183015290517f5133a133185f1023427a2e90f18506b27db994977ce0c0faafd514a7dd109ae09181900360600190a1610299565b600160a060020a038216151561028a57600080fd5b610293826105c0565b50600190505b919050565b60006102b3816004858563ffffffff6105f116565b90505b92915050565b60006102d433600035600160e060020a0319166104da565b15156103295760408051308152336020820152600160e060020a0319600035168183015290517f5133a133185f1023427a2e90f18506b27db994977ce0c0faafd514a7dd109ae09181900360600190a1610299565b5060038054600160a060020a03831673ffffffffffffffffffffffffffffffffffffffff199091161790556001919050565b6005805460408051602060026001851615610100026000190190941693909304601f810184900484028201840190925281815292918301828280156103e15780601f106103b6576101008083540402835291602001916103e1565b820191906000526020600020905b8154815290600101906020018083116103c457829003601f168201915b505050505081565b6103f1610611565b600160a060020a03167f09e0713b45664e161c202b19bb4574ee83dfa056f9bfdee56847b3971d968221826040518082815260200191505060405180910390a250565b81600160a060020a038416610447610611565b604080518581529051600160a060020a0392909216917f34935cf0eba24872804820d07214042d03d4807a8ad7fda0736f9084524e2d199181900360200190a4505050565b60006104a281600433868663ffffffff61061516565b6104ad338484610632565b50600192915050565b600254600090600160a060020a03168015156104d257306104d4565b805b91505090565b6000600160a060020a0383163014156104f5575060016102b6565b600354600160a060020a0316151561050f575060006102b6565b600354604080517fb7009613000000000000000000000000000000000000000000000000000000008152600160a060020a038681166004830152306024830152600160e060020a0319861660448301529151919092169163b70096139160648083019260209291908290030181600087803b15801561058d57600080fd5b505af11580156105a1573d6000803e3d6000fd5b505050506040513d60208110156105b757600080fd5b50519392505050565b60028054600160a060020a03831673ffffffffffffffffffffffffffffffffffffffff199091161790556001919050565b60006106088585600160a060020a038616856106ca565b95945050505050565b3390565b61062b8585600160a060020a0386168585610758565b5050505050565b61063a6104b6565b604080517fa8af6e05000000000000000000000000000000000000000000000000000000008152600160a060020a03868116600483015260248201869052604482018590529151929091169163a8af6e059160648082019260009290919082900301818387803b1580156106ad57600080fd5b505af11580156106c1573d6000803e3d6000fd5b50505050505050565b6040805160208082018590528183018490528251808303840181526060909201928390528151600093610608938993899391929182918401908083835b602083106107265780518252601f199092019160209182019101610707565b6001836020036101000a03801982511681845116808217855250505050505090500191505060405180910390206107e3565b604080516020808201869052818301859052825180830384018152606090920192839052815161062b9389938993909282918401908083835b602083106107b05780518252601f199092019160209182019101610791565b6001836020036101000a0380198251168184511680821785525050505050509050019150506040518091039020846108f3565b825460018401548354604080516020808201939093528082018690528151808203830181526060909101918290528051600095600160a060020a0316946337d9d7fc9490939182918401908083835b602083106108515780518252601f199092019160209182019101610832565b51815160209384036101000a60001901801990921691161790526040805192909401829003822063ffffffff891660e060020a028352600483019790975260248201969096529151604480840196955090935091839003909101905081600087803b1580156108bf57600080fd5b505af11580156108d3573d6000803e3d6000fd5b505050506040513d60208110156108e957600080fd5b5051949350505050565b835460018501548454604080516020808201939093528082018790528151808203830181526060909101918290528051600160a060020a039095169463a14ff85794939192918291908401908083835b602083106109625780518252601f199092019160209182019101610943565b5181516020939093036101000a60001901801990911692169190911790526040805191909301819003812063ffffffff881660e060020a02825260048201969096526024810195909552506044840187905251606480850194600094509192509082900301818387803b1580156109d857600080fd5b505af11580156109ec573d6000803e3d6000fd5b5050505050505050565b825473ffffffffffffffffffffffffffffffffffffffff1916600160a060020a0392909216919091178255600190910155565b610a338282610a37565b5050565b8154610a439082610a47565b9055565b81151580610a53575080155b15610a3357600080fd00a165627a7a723058206d9945ed3c287835b8002f6a0b4c2c55a7ef87ddfa7d1c8d601a19cf49924b680029",
  "source": "/**\n * Copyright 2017–2018, LaborX PTY\n * Licensed under the AGPL Version 3 license.\n */\n\npragma solidity ^0.4.21;\n\n\nimport \"solidity-storage-lib/contracts/StorageAdapter.sol\";\nimport \"solidity-roles-lib/contracts/Roles2LibraryAdapter.sol\";\nimport \"solidity-eventshistory-lib/contracts/MultiEventsHistoryAdapter.sol\";\n\n\ncontract IPFSLibrary is StorageAdapter, MultiEventsHistoryAdapter, Roles2LibraryAdapter {\n\n    event HashSet(address indexed self, address indexed setter, bytes32 indexed key, bytes32 hash);\n\n    StorageInterface.AddressBytes32Bytes32Mapping ipfsHashes;\n\n    string public version = \"v0.0.1\";\n\n    constructor(\n        Storage _store,\n        bytes32 _crate,\n        address _roles2Library\n    )\n    StorageAdapter(_store, _crate)\n    Roles2LibraryAdapter(_roles2Library)\n    public\n    {\n        ipfsHashes.init(\"ipfsHashes\");\n    }\n\n    function setupEventsHistory(address _eventsHistory) auth external returns (uint) {\n        require(_eventsHistory != 0x0);\n\n        _setEventsHistory(_eventsHistory);\n        return OK;\n    }\n\n    function getHash(address _from, bytes32 _itemName) public view returns(bytes32) {\n        return store.get(ipfsHashes, _from, _itemName);\n    }\n\n    function setHash(bytes32 _itemName, bytes32 _itemHash) public returns (uint) {\n        store.set(ipfsHashes, msg.sender, _itemName, _itemHash);\n        _emitHashSet(msg.sender, _itemName, _itemHash);\n        return OK;\n    }\n\n    function emitHashSet(address _from, bytes32 _itemName, bytes32 _itemHash) public {\n        emit HashSet(_self(), _from, _itemName, _itemHash);\n    }\n\n    function _emitHashSet(address _from, bytes32 _itemName, bytes32 _itemHash) internal {\n        IPFSLibrary(getEventsHistory()).emitHashSet(_from, _itemName, _itemHash);\n    }\n}\n",
  "sourcePath": "/Users/alesanro/Documents/Projects/ChronoBank/LX-SC/contracts/IPFSLibrary.sol",
  "compiler": {
    "name": "solc",
    "version": "0.4.24+commit.e67f0147.Emscripten.clang"
  },
  "schemaVersion": "2.0.1",
  "updatedAt": "2018-09-18T15:43:05.237Z"
}