{
  "contractName": "JobController",
  "abi": [
    {
      "constant": true,
      "inputs": [],
      "name": "jobsDataProvider",
      "outputs": [
        {
          "name": "",
          "type": "address"
        }
      ],
      "payable": false,
      "stateMutability": "view",
      "type": "function"
    },
    {
      "constant": false,
      "inputs": [
        {
          "name": "_jobId",
          "type": "uint256"
        },
        {
          "name": "_at",
          "type": "uint256"
        }
      ],
      "name": "emitWorkAccepted",
      "outputs": [],
      "payable": false,
      "stateMutability": "nonpayable",
      "type": "function"
    },
    {
      "constant": false,
      "inputs": [
        {
          "name": "_jobId",
          "type": "uint256"
        },
        {
          "name": "_worker",
          "type": "address"
        },
        {
          "name": "_rate",
          "type": "uint256"
        },
        {
          "name": "_estimate",
          "type": "uint256"
        },
        {
          "name": "_ontop",
          "type": "uint256"
        }
      ],
      "name": "emitJobOfferPosted",
      "outputs": [],
      "payable": false,
      "stateMutability": "nonpayable",
      "type": "function"
    },
    {
      "constant": false,
      "inputs": [
        {
          "name": "_roles2Library",
          "type": "address"
        }
      ],
      "name": "setRoles2Library",
      "outputs": [
        {
          "name": "",
          "type": "uint256"
        }
      ],
      "payable": false,
      "stateMutability": "nonpayable",
      "type": "function"
    },
    {
      "constant": false,
      "inputs": [
        {
          "name": "_jobId",
          "type": "uint256"
        },
        {
          "name": "_flowType",
          "type": "uint256"
        },
        {
          "name": "_client",
          "type": "address"
        },
        {
          "name": "_skillsArea",
          "type": "uint256"
        },
        {
          "name": "_skillsCategory",
          "type": "uint256"
        },
        {
          "name": "_skills",
          "type": "uint256"
        },
        {
          "name": "_defaultPay",
          "type": "uint256"
        },
        {
          "name": "_detailsIPFSHash",
          "type": "bytes32"
        },
        {
          "name": "_bindStatus",
          "type": "bool"
        }
      ],
      "name": "emitJobPosted",
      "outputs": [],
      "payable": false,
      "stateMutability": "nonpayable",
      "type": "function"
    },
    {
      "constant": true,
      "inputs": [],
      "name": "version",
      "outputs": [
        {
          "name": "",
          "type": "string"
        }
      ],
      "payable": false,
      "stateMutability": "view",
      "type": "function"
    },
    {
      "constant": false,
      "inputs": [
        {
          "name": "_jobId",
          "type": "uint256"
        },
        {
          "name": "_worker",
          "type": "address"
        }
      ],
      "name": "emitJobOfferAccepted",
      "outputs": [],
      "payable": false,
      "stateMutability": "nonpayable",
      "type": "function"
    },
    {
      "constant": false,
      "inputs": [
        {
          "name": "_errorCode",
          "type": "uint256"
        }
      ],
      "name": "emitErrorCode",
      "outputs": [],
      "payable": false,
      "stateMutability": "nonpayable",
      "type": "function"
    },
    {
      "constant": false,
      "inputs": [
        {
          "name": "_jobId",
          "type": "uint256"
        },
        {
          "name": "_at",
          "type": "uint256"
        }
      ],
      "name": "emitWorkRejected",
      "outputs": [],
      "payable": false,
      "stateMutability": "nonpayable",
      "type": "function"
    },
    {
      "constant": false,
      "inputs": [
        {
          "name": "_jobId",
          "type": "uint256"
        },
        {
          "name": "_at",
          "type": "uint256"
        }
      ],
      "name": "emitWorkDistputeResolved",
      "outputs": [],
      "payable": false,
      "stateMutability": "nonpayable",
      "type": "function"
    },
    {
      "constant": false,
      "inputs": [
        {
          "name": "_jobId",
          "type": "uint256"
        }
      ],
      "name": "emitJobCanceled",
      "outputs": [],
      "payable": false,
      "stateMutability": "nonpayable",
      "type": "function"
    },
    {
      "constant": false,
      "inputs": [
        {
          "name": "_jobId",
          "type": "uint256"
        },
        {
          "name": "_at",
          "type": "uint256"
        }
      ],
      "name": "emitEndWorkRequested",
      "outputs": [],
      "payable": false,
      "stateMutability": "nonpayable",
      "type": "function"
    },
    {
      "constant": false,
      "inputs": [
        {
          "name": "_jobId",
          "type": "uint256"
        },
        {
          "name": "_time",
          "type": "uint256"
        }
      ],
      "name": "emitTimeRequestRejected",
      "outputs": [],
      "payable": false,
      "stateMutability": "nonpayable",
      "type": "function"
    },
    {
      "constant": true,
      "inputs": [],
      "name": "userLibrary",
      "outputs": [
        {
          "name": "",
          "type": "address"
        }
      ],
      "payable": false,
      "stateMutability": "view",
      "type": "function"
    },
    {
      "constant": false,
      "inputs": [
        {
          "name": "_jobId",
          "type": "uint256"
        },
        {
          "name": "_at",
          "type": "uint256"
        }
      ],
      "name": "emitWorkResumed",
      "outputs": [],
      "payable": false,
      "stateMutability": "nonpayable",
      "type": "function"
    },
    {
      "constant": false,
      "inputs": [
        {
          "name": "_jobId",
          "type": "uint256"
        },
        {
          "name": "_at",
          "type": "uint256"
        }
      ],
      "name": "emitWorkStarted",
      "outputs": [],
      "payable": false,
      "stateMutability": "nonpayable",
      "type": "function"
    },
    {
      "constant": false,
      "inputs": [
        {
          "name": "_jobId",
          "type": "uint256"
        },
        {
          "name": "_time",
          "type": "uint256"
        }
      ],
      "name": "emitTimeRequestAccepted",
      "outputs": [],
      "payable": false,
      "stateMutability": "nonpayable",
      "type": "function"
    },
    {
      "constant": false,
      "inputs": [
        {
          "name": "_jobId",
          "type": "uint256"
        },
        {
          "name": "_at",
          "type": "uint256"
        }
      ],
      "name": "emitWorkPaused",
      "outputs": [],
      "payable": false,
      "stateMutability": "nonpayable",
      "type": "function"
    },
    {
      "constant": false,
      "inputs": [
        {
          "name": "_jobId",
          "type": "uint256"
        },
        {
          "name": "_time",
          "type": "uint256"
        }
      ],
      "name": "emitTimeRequestSubmitted",
      "outputs": [],
      "payable": false,
      "stateMutability": "nonpayable",
      "type": "function"
    },
    {
      "constant": false,
      "inputs": [
        {
          "name": "_jobId",
          "type": "uint256"
        }
      ],
      "name": "emitPaymentReleased",
      "outputs": [],
      "payable": false,
      "stateMutability": "nonpayable",
      "type": "function"
    },
    {
      "constant": false,
      "inputs": [
        {
          "name": "_jobId",
          "type": "uint256"
        },
        {
          "name": "_at",
          "type": "uint256"
        }
      ],
      "name": "emitStartWorkRequested",
      "outputs": [],
      "payable": false,
      "stateMutability": "nonpayable",
      "type": "function"
    },
    {
      "constant": false,
      "inputs": [
        {
          "name": "_jobId",
          "type": "uint256"
        },
        {
          "name": "_worker",
          "type": "address"
        },
        {
          "name": "_price",
          "type": "uint256"
        }
      ],
      "name": "emitJobOfferPosted",
      "outputs": [],
      "payable": false,
      "stateMutability": "nonpayable",
      "type": "function"
    },
    {
      "constant": true,
      "inputs": [],
      "name": "paymentProcessor",
      "outputs": [
        {
          "name": "",
          "type": "address"
        }
      ],
      "payable": false,
      "stateMutability": "view",
      "type": "function"
    },
    {
      "constant": true,
      "inputs": [],
      "name": "getEventsHistory",
      "outputs": [
        {
          "name": "",
          "type": "address"
        }
      ],
      "payable": false,
      "stateMutability": "view",
      "type": "function"
    },
    {
      "inputs": [
        {
          "name": "_store",
          "type": "address"
        },
        {
          "name": "_crate",
          "type": "bytes32"
        },
        {
          "name": "_roles2Library",
          "type": "address"
        }
      ],
      "payable": false,
      "stateMutability": "nonpayable",
      "type": "constructor"
    },
    {
      "anonymous": false,
      "inputs": [
        {
          "indexed": true,
          "name": "self",
          "type": "address"
        },
        {
          "indexed": true,
          "name": "jobId",
          "type": "uint256"
        },
        {
          "indexed": false,
          "name": "flowType",
          "type": "bytes32"
        },
        {
          "indexed": false,
          "name": "client",
          "type": "address"
        },
        {
          "indexed": false,
          "name": "skillsArea",
          "type": "uint256"
        },
        {
          "indexed": false,
          "name": "skillsCategory",
          "type": "uint256"
        },
        {
          "indexed": false,
          "name": "skills",
          "type": "uint256"
        },
        {
          "indexed": false,
          "name": "defaultPay",
          "type": "uint256"
        },
        {
          "indexed": false,
          "name": "detailsIPFSHash",
          "type": "bytes32"
        },
        {
          "indexed": false,
          "name": "bindStatus",
          "type": "bool"
        }
      ],
      "name": "JobPosted",
      "type": "event"
    },
    {
      "anonymous": false,
      "inputs": [
        {
          "indexed": true,
          "name": "self",
          "type": "address"
        },
        {
          "indexed": true,
          "name": "jobId",
          "type": "uint256"
        },
        {
          "indexed": false,
          "name": "worker",
          "type": "address"
        },
        {
          "indexed": false,
          "name": "rate",
          "type": "uint256"
        },
        {
          "indexed": false,
          "name": "estimate",
          "type": "uint256"
        },
        {
          "indexed": false,
          "name": "ontop",
          "type": "uint256"
        }
      ],
      "name": "JobOfferPosted",
      "type": "event"
    },
    {
      "anonymous": false,
      "inputs": [
        {
          "indexed": true,
          "name": "self",
          "type": "address"
        },
        {
          "indexed": true,
          "name": "jobId",
          "type": "uint256"
        },
        {
          "indexed": false,
          "name": "worker",
          "type": "address"
        },
        {
          "indexed": false,
          "name": "price",
          "type": "uint256"
        }
      ],
      "name": "JobOfferPosted",
      "type": "event"
    },
    {
      "anonymous": false,
      "inputs": [
        {
          "indexed": true,
          "name": "self",
          "type": "address"
        },
        {
          "indexed": true,
          "name": "jobId",
          "type": "uint256"
        },
        {
          "indexed": false,
          "name": "worker",
          "type": "address"
        }
      ],
      "name": "JobOfferAccepted",
      "type": "event"
    },
    {
      "anonymous": false,
      "inputs": [
        {
          "indexed": true,
          "name": "self",
          "type": "address"
        },
        {
          "indexed": true,
          "name": "jobId",
          "type": "uint256"
        },
        {
          "indexed": false,
          "name": "at",
          "type": "uint256"
        }
      ],
      "name": "StartWorkRequested",
      "type": "event"
    },
    {
      "anonymous": false,
      "inputs": [
        {
          "indexed": true,
          "name": "self",
          "type": "address"
        },
        {
          "indexed": true,
          "name": "jobId",
          "type": "uint256"
        },
        {
          "indexed": false,
          "name": "at",
          "type": "uint256"
        }
      ],
      "name": "WorkStarted",
      "type": "event"
    },
    {
      "anonymous": false,
      "inputs": [
        {
          "indexed": true,
          "name": "self",
          "type": "address"
        },
        {
          "indexed": true,
          "name": "jobId",
          "type": "uint256"
        },
        {
          "indexed": false,
          "name": "time",
          "type": "uint256"
        }
      ],
      "name": "TimeRequestSubmitted",
      "type": "event"
    },
    {
      "anonymous": false,
      "inputs": [
        {
          "indexed": true,
          "name": "self",
          "type": "address"
        },
        {
          "indexed": true,
          "name": "jobId",
          "type": "uint256"
        },
        {
          "indexed": false,
          "name": "time",
          "type": "uint256"
        }
      ],
      "name": "TimeRequestAccepted",
      "type": "event"
    },
    {
      "anonymous": false,
      "inputs": [
        {
          "indexed": true,
          "name": "self",
          "type": "address"
        },
        {
          "indexed": true,
          "name": "jobId",
          "type": "uint256"
        },
        {
          "indexed": false,
          "name": "time",
          "type": "uint256"
        }
      ],
      "name": "TimeRequestRejected",
      "type": "event"
    },
    {
      "anonymous": false,
      "inputs": [
        {
          "indexed": true,
          "name": "self",
          "type": "address"
        },
        {
          "indexed": true,
          "name": "jobId",
          "type": "uint256"
        },
        {
          "indexed": false,
          "name": "at",
          "type": "uint256"
        }
      ],
      "name": "WorkPaused",
      "type": "event"
    },
    {
      "anonymous": false,
      "inputs": [
        {
          "indexed": true,
          "name": "self",
          "type": "address"
        },
        {
          "indexed": true,
          "name": "jobId",
          "type": "uint256"
        },
        {
          "indexed": false,
          "name": "at",
          "type": "uint256"
        }
      ],
      "name": "WorkResumed",
      "type": "event"
    },
    {
      "anonymous": false,
      "inputs": [
        {
          "indexed": true,
          "name": "self",
          "type": "address"
        },
        {
          "indexed": true,
          "name": "jobId",
          "type": "uint256"
        },
        {
          "indexed": false,
          "name": "at",
          "type": "uint256"
        }
      ],
      "name": "EndWorkRequested",
      "type": "event"
    },
    {
      "anonymous": false,
      "inputs": [
        {
          "indexed": true,
          "name": "self",
          "type": "address"
        },
        {
          "indexed": true,
          "name": "jobId",
          "type": "uint256"
        },
        {
          "indexed": false,
          "name": "at",
          "type": "uint256"
        }
      ],
      "name": "WorkAccepted",
      "type": "event"
    },
    {
      "anonymous": false,
      "inputs": [
        {
          "indexed": true,
          "name": "self",
          "type": "address"
        },
        {
          "indexed": true,
          "name": "jobId",
          "type": "uint256"
        },
        {
          "indexed": false,
          "name": "at",
          "type": "uint256"
        }
      ],
      "name": "WorkRejected",
      "type": "event"
    },
    {
      "anonymous": false,
      "inputs": [
        {
          "indexed": true,
          "name": "self",
          "type": "address"
        },
        {
          "indexed": true,
          "name": "jobId",
          "type": "uint256"
        },
        {
          "indexed": false,
          "name": "at",
          "type": "uint256"
        }
      ],
      "name": "WorkDisputeResolved",
      "type": "event"
    },
    {
      "anonymous": false,
      "inputs": [
        {
          "indexed": true,
          "name": "self",
          "type": "address"
        },
        {
          "indexed": true,
          "name": "jobId",
          "type": "uint256"
        }
      ],
      "name": "PaymentReleased",
      "type": "event"
    },
    {
      "anonymous": false,
      "inputs": [
        {
          "indexed": true,
          "name": "self",
          "type": "address"
        },
        {
          "indexed": true,
          "name": "jobId",
          "type": "uint256"
        }
      ],
      "name": "JobCanceled",
      "type": "event"
    },
    {
      "anonymous": false,
      "inputs": [
        {
          "indexed": true,
          "name": "self",
          "type": "address"
        },
        {
          "indexed": false,
          "name": "errorCode",
          "type": "uint256"
        }
      ],
      "name": "ErrorCode",
      "type": "event"
    },
    {
      "anonymous": false,
      "inputs": [
        {
          "indexed": false,
          "name": "code",
          "type": "address"
        },
        {
          "indexed": false,
          "name": "sender",
          "type": "address"
        },
        {
          "indexed": false,
          "name": "sig",
          "type": "bytes4"
        }
      ],
      "name": "AuthFailedError",
      "type": "event"
    },
    {
      "constant": false,
      "inputs": [],
      "name": "init",
      "outputs": [
        {
          "name": "",
          "type": "uint256"
        }
      ],
      "payable": false,
      "stateMutability": "nonpayable",
      "type": "function"
    },
    {
      "constant": false,
      "inputs": [
        {
          "name": "_eventsHistory",
          "type": "address"
        }
      ],
      "name": "setupEventsHistory",
      "outputs": [
        {
          "name": "",
          "type": "uint256"
        }
      ],
      "payable": false,
      "stateMutability": "nonpayable",
      "type": "function"
    },
    {
      "constant": false,
      "inputs": [
        {
          "name": "_boardController",
          "type": "address"
        }
      ],
      "name": "setBoardController",
      "outputs": [
        {
          "name": "",
          "type": "uint256"
        }
      ],
      "payable": false,
      "stateMutability": "nonpayable",
      "type": "function"
    },
    {
      "constant": false,
      "inputs": [
        {
          "name": "_paymentProcessor",
          "type": "address"
        }
      ],
      "name": "setPaymentProcessor",
      "outputs": [
        {
          "name": "",
          "type": "uint256"
        }
      ],
      "payable": false,
      "stateMutability": "nonpayable",
      "type": "function"
    },
    {
      "constant": false,
      "inputs": [
        {
          "name": "_userLibrary",
          "type": "address"
        }
      ],
      "name": "setUserLibrary",
      "outputs": [
        {
          "name": "",
          "type": "uint256"
        }
      ],
      "payable": false,
      "stateMutability": "nonpayable",
      "type": "function"
    },
    {
      "constant": false,
      "inputs": [
        {
          "name": "_jobsDataProvider",
          "type": "address"
        }
      ],
      "name": "setJobsDataProvider",
      "outputs": [
        {
          "name": "",
          "type": "uint256"
        }
      ],
      "payable": false,
      "stateMutability": "nonpayable",
      "type": "function"
    },
    {
      "constant": false,
      "inputs": [
        {
          "name": "_initiationControllerLib",
          "type": "address"
        },
        {
          "name": "_processControllerLib",
          "type": "address"
        },
        {
          "name": "_acceptanceControllerLib",
          "type": "address"
        }
      ],
      "name": "linkJobLibs",
      "outputs": [
        {
          "name": "",
          "type": "uint256"
        }
      ],
      "payable": false,
      "stateMutability": "nonpayable",
      "type": "function"
    },
    {
      "constant": false,
      "inputs": [
        {
          "name": "_flowType",
          "type": "uint256"
        },
        {
          "name": "_area",
          "type": "uint256"
        },
        {
          "name": "_category",
          "type": "uint256"
        },
        {
          "name": "_skills",
          "type": "uint256"
        },
        {
          "name": "_defaultPay",
          "type": "uint256"
        },
        {
          "name": "_detailsIPFSHash",
          "type": "bytes32"
        }
      ],
      "name": "postJob",
      "outputs": [
        {
          "name": "",
          "type": "uint256"
        }
      ],
      "payable": false,
      "stateMutability": "nonpayable",
      "type": "function"
    },
    {
      "constant": false,
      "inputs": [
        {
          "name": "_jobId",
          "type": "uint256"
        },
        {
          "name": "_rate",
          "type": "uint256"
        },
        {
          "name": "_estimate",
          "type": "uint256"
        },
        {
          "name": "_ontop",
          "type": "uint256"
        }
      ],
      "name": "postJobOffer",
      "outputs": [
        {
          "name": "",
          "type": "uint256"
        }
      ],
      "payable": false,
      "stateMutability": "nonpayable",
      "type": "function"
    },
    {
      "constant": false,
      "inputs": [
        {
          "name": "_jobId",
          "type": "uint256"
        },
        {
          "name": "_price",
          "type": "uint256"
        }
      ],
      "name": "postJobOfferWithPrice",
      "outputs": [
        {
          "name": "",
          "type": "uint256"
        }
      ],
      "payable": false,
      "stateMutability": "nonpayable",
      "type": "function"
    },
    {
      "constant": false,
      "inputs": [
        {
          "name": "_jobId",
          "type": "uint256"
        },
        {
          "name": "_worker",
          "type": "address"
        }
      ],
      "name": "acceptOffer",
      "outputs": [
        {
          "name": "_resultCode",
          "type": "uint256"
        }
      ],
      "payable": true,
      "stateMutability": "payable",
      "type": "function"
    },
    {
      "constant": false,
      "inputs": [
        {
          "name": "_jobId",
          "type": "uint256"
        }
      ],
      "name": "startWork",
      "outputs": [
        {
          "name": "",
          "type": "uint256"
        }
      ],
      "payable": false,
      "stateMutability": "nonpayable",
      "type": "function"
    },
    {
      "constant": false,
      "inputs": [
        {
          "name": "_jobId",
          "type": "uint256"
        }
      ],
      "name": "confirmStartWork",
      "outputs": [
        {
          "name": "",
          "type": "uint256"
        }
      ],
      "payable": false,
      "stateMutability": "nonpayable",
      "type": "function"
    },
    {
      "constant": false,
      "inputs": [
        {
          "name": "_jobId",
          "type": "uint256"
        }
      ],
      "name": "pauseWork",
      "outputs": [
        {
          "name": "",
          "type": "uint256"
        }
      ],
      "payable": false,
      "stateMutability": "nonpayable",
      "type": "function"
    },
    {
      "constant": false,
      "inputs": [
        {
          "name": "_jobId",
          "type": "uint256"
        }
      ],
      "name": "resumeWork",
      "outputs": [
        {
          "name": "_resultCode",
          "type": "uint256"
        }
      ],
      "payable": false,
      "stateMutability": "nonpayable",
      "type": "function"
    },
    {
      "constant": false,
      "inputs": [
        {
          "name": "_jobId",
          "type": "uint256"
        },
        {
          "name": "_additionalTime",
          "type": "uint16"
        }
      ],
      "name": "submitAdditionalTimeRequest",
      "outputs": [
        {
          "name": "",
          "type": "uint256"
        }
      ],
      "payable": false,
      "stateMutability": "nonpayable",
      "type": "function"
    },
    {
      "constant": false,
      "inputs": [
        {
          "name": "_jobId",
          "type": "uint256"
        },
        {
          "name": "_additionalTime",
          "type": "uint16"
        }
      ],
      "name": "acceptAdditionalTimeRequest",
      "outputs": [
        {
          "name": "",
          "type": "uint256"
        }
      ],
      "payable": true,
      "stateMutability": "payable",
      "type": "function"
    },
    {
      "constant": false,
      "inputs": [
        {
          "name": "_jobId",
          "type": "uint256"
        }
      ],
      "name": "rejectAdditionalTimeRequest",
      "outputs": [
        {
          "name": "",
          "type": "uint256"
        }
      ],
      "payable": false,
      "stateMutability": "nonpayable",
      "type": "function"
    },
    {
      "constant": false,
      "inputs": [
        {
          "name": "_jobId",
          "type": "uint256"
        }
      ],
      "name": "endWork",
      "outputs": [
        {
          "name": "",
          "type": "uint256"
        }
      ],
      "payable": false,
      "stateMutability": "nonpayable",
      "type": "function"
    },
    {
      "constant": false,
      "inputs": [
        {
          "name": "_jobId",
          "type": "uint256"
        }
      ],
      "name": "cancelJob",
      "outputs": [
        {
          "name": "_resultCode",
          "type": "uint256"
        }
      ],
      "payable": false,
      "stateMutability": "nonpayable",
      "type": "function"
    },
    {
      "constant": false,
      "inputs": [
        {
          "name": "_jobId",
          "type": "uint256"
        }
      ],
      "name": "acceptWorkResults",
      "outputs": [
        {
          "name": "",
          "type": "uint256"
        }
      ],
      "payable": false,
      "stateMutability": "nonpayable",
      "type": "function"
    },
    {
      "constant": false,
      "inputs": [
        {
          "name": "_jobId",
          "type": "uint256"
        }
      ],
      "name": "rejectWorkResults",
      "outputs": [
        {
          "name": "_resultCode",
          "type": "uint256"
        }
      ],
      "payable": false,
      "stateMutability": "nonpayable",
      "type": "function"
    },
    {
      "constant": false,
      "inputs": [
        {
          "name": "_jobId",
          "type": "uint256"
        },
        {
          "name": "_workerPaycheck",
          "type": "uint256"
        },
        {
          "name": "_penaltyFee",
          "type": "uint256"
        }
      ],
      "name": "resolveWorkDispute",
      "outputs": [
        {
          "name": "_resultCode",
          "type": "uint256"
        }
      ],
      "payable": false,
      "stateMutability": "nonpayable",
      "type": "function"
    },
    {
      "constant": false,
      "inputs": [
        {
          "name": "_jobId",
          "type": "uint256"
        }
      ],
      "name": "releasePayment",
      "outputs": [
        {
          "name": "_resultCode",
          "type": "uint256"
        }
      ],
      "payable": false,
      "stateMutability": "nonpayable",
      "type": "function"
    }
  ],
  "bytecode": "0x60c0604052600660808190527f76302e302e31000000000000000000000000000000000000000000000000000060a0908152620000409160299190620000f8565b503480156200004e57600080fd5b5060405160608062001ead8339810160409081528151602083015191909201518282818184600160a060020a03811615156200008957600080fd5b60008054600160a060020a031916600160a060020a0392909216919091179055620000c560028383640100000000620000d2810262001c8e1704565b505050505050506200019d565b8254600160a060020a031916600160a060020a0392909216919091178255600190910155565b828054600181600116156101000203166002900490600052602060002090601f016020900481019282601f106200013b57805160ff19168380011785556200016b565b828001600101855582156200016b579182015b828111156200016b5782518255916020019190600101906200014e565b50620001799291506200017d565b5090565b6200019a91905b8082111562000179576000815560010162000184565b90565b611d0080620001ad6000396000f3006080604052600436106102455763ffffffff7c010000000000000000000000000000000000000000000000000000000060003504166302927d20811461024a57806303a250f91461027d578063061986a414610295578063088b0d75146102c65780630a3d1ca4146102e75780631972b464146103045780631c62f853146103315780631dffa3dc146103585780632637cd7d146103705780632caef765146103915780633de035bf1461027d5780633f22299b146103b257806342565482146103d157806354fd4d501461040d57806358b5f92a146104975780636a3bff971461027d5780638680e52d146104b85780638834277e146104dc57806388685cd9146103585780638db210dc146104f45780638dfa95f41461050f578063918d407d1461052a578063933610781461027d5780639c6e1d4614610541578063a34f74bd14610559578063aaf2fc0814610574578063b3ec8cb81461058f578063b44ccd3c146105a4578063b633d272146105c2578063b7d8b1d9146105dd578063bdeeea55146105f8578063c26d0c2c14610613578063c50e59f41461062e578063c540fbb514610358578063cc8b29cd14610649578063d649567614610676578063d906be6e14610358578063dd2b74931461068e578063e1c7392a146106af578063e46f49ae146106c4578063ec2b50bf146106df578063eca5276714610700578063f1c6bdf814610727578063f737acff1461073c578063f7de5c4614610757578063f839dc621461027d578063fd03d7621461027d578063fff10aba14610769575b600080fd5b34801561025657600080fd5b5061026b600160a060020a036004351661077e565b60408051918252519081900360200190f35b34801561028957600080fd5b5061026b600435610802565b3480156102a157600080fd5b506102aa61081a565b60408051600160a060020a039092168252519081900360200190f35b3480156102d257600080fd5b5061026b600160a060020a0360043516610829565b3480156102f357600080fd5b506103026004356024356108a9565b005b34801561031057600080fd5b50610302600435600160a060020a03602435166044356064356084356108f6565b34801561033d57600080fd5b5061026b60043560243560443560643560843560a43561095c565b34801561036457600080fd5b5061026b60043561097e565b34801561037c57600080fd5b5061026b600160a060020a0360043516610996565b34801561039d57600080fd5b5061026b600160a060020a0360043516610a16565b3480156103be57600080fd5b5061026b60043561ffff60243516610a8c565b3480156103dd57600080fd5b50610302600435602435600160a060020a036044351660643560843560a43560c43560e435610104351515610aaa565b34801561041957600080fd5b50610422610b30565b6040805160208082528351818301528351919283929083019185019080838360005b8381101561045c578181015183820152602001610444565b50505050905090810190601f1680156104895780820380516001836020036101000a031916815260200191505b509250505060405180910390f35b3480156104a357600080fd5b5061026b600435602435604435606435610bbe565b3480156104c457600080fd5b50610302600435600160a060020a0360243516610bde565b3480156104e857600080fd5b50610302600435610c2d565b34801561050057600080fd5b50610302600435602435610c78565b34801561051b57600080fd5b50610302600435602435610cc5565b61026b600435600160a060020a0360243516610d12565b34801561054d57600080fd5b50610302600435610d2a565b34801561056557600080fd5b50610302600435602435610d6b565b34801561058057600080fd5b50610302600435602435610db8565b34801561059b57600080fd5b506102aa610e05565b3480156105b057600080fd5b5061026b600435602435604435610e14565b3480156105ce57600080fd5b50610302600435602435610e33565b3480156105e957600080fd5b50610302600435602435610e80565b34801561060457600080fd5b50610302600435602435610ecd565b34801561061f57600080fd5b50610302600435602435610f1a565b34801561063a57600080fd5b50610302600435602435610f67565b34801561065557600080fd5b5061026b600160a060020a0360043581169060243581169060443516610fb4565b34801561068257600080fd5b50610302600435611052565b34801561069a57600080fd5b5061026b600160a060020a0360043516611093565b3480156106bb57600080fd5b5061026b611113565b3480156106d057600080fd5b5061030260043560243561117c565b3480156106eb57600080fd5b5061026b600160a060020a03600435166111c9565b34801561070c57600080fd5b50610302600435600160a060020a0360243516604435611249565b34801561073357600080fd5b506102aa61129f565b34801561074857600080fd5b5061026b600435602435610d12565b61026b60043561ffff60243516610a8c565b34801561077557600080fd5b506102aa6112ae565b600061079633600035600160e060020a0319166112d2565b15156107d95760408051308152336020820152600160e060020a031960003516818301529051600080516020611cb58339815191529181900360600190a16107fd565b600160a060020a03821615156107ee57600080fd5b6107f7826113bb565b50600190505b919050565b602e546000906107fd90600160a060020a03166113dd565b602c54600160a060020a031681565b600061084133600035600160e060020a0319166112d2565b15156108845760408051308152336020820152600160e060020a031960003516818301529051600080516020611cb58339815191529181900360600190a16107fd565b50602a8054600160a060020a038316600160a060020a03199091161790556001919050565b816108b261141c565b600160a060020a03167fe5358c187d063c360e67321606a0a2dd8d7fe426d9aa68bb9e853fcf2851d938836040518082815260200191505060405180910390a35050565b846108ff61141c565b60408051600160a060020a0388811682526020820188905281830187905260608201869052915192909116917fa3bc0f53ddeedcb11a232f5b24300a8fe43af2c2dcc30b46dbc64476e762a1869181900360800190a35050505050565b602d5460009061097490600160a060020a03166113dd565b9695505050505050565b602f546000906107fd90600160a060020a03166113dd565b60006109ae33600035600160e060020a0319166112d2565b15156109f15760408051308152336020820152600160e060020a031960003516818301529051600080516020611cb58339815191529181900360600190a16107fd565b5060008054600160a060020a038316600160a060020a03199091161790556001919050565b6000610a2e33600035600160e060020a0319166112d2565b1515610a715760408051308152336020820152600160e060020a031960003516818301529051600080516020611cb58339815191529181900360600190a16107fd565b610a84600260048463ffffffff61142016565b506001919050565b602e54600090610aa490600160a060020a03166113dd565b92915050565b88610ab361141c565b604080518b8152600160a060020a038b811660208301528183018b9052606082018a90526080820189905260a0820188905260c0820187905285151560e0830152915192909116917ebe90d46e792dd8139c7fa5fc3c5094a4617b29079275876030fafdfd99790a918190036101000190a3505050505050505050565b6029805460408051602060026001851615610100026000190190941693909304601f81018490048402820184019092528181529291830182828015610bb65780601f10610b8b57610100808354040283529160200191610bb6565b820191906000526020600020905b815481529060010190602001808311610b9957829003601f168201915b505050505081565b602d54600090610bd690600160a060020a03166113dd565b949350505050565b81610be761141c565b60408051600160a060020a038581168252915192909116917fcd1a96dff5c14af15cc6cc02bc309e3abef75468ceced0d0435f20bef5a9db3a9181900360200190a35050565b610c3561141c565b600160a060020a03167f09e0713b45664e161c202b19bb4574ee83dfa056f9bfdee56847b3971d968221826040518082815260200191505060405180910390a250565b81610c8161141c565b600160a060020a03167fd3395eea11df9ed3451acb381c8e8220231eaa3b2ebc7c2cd1e1ab6302f3314f836040518082815260200191505060405180910390a35050565b81610cce61141c565b600160a060020a03167f572dddcf2d7a6a168606d76d97cac3799945fdd877c6710aa9f283fcd8a42866836040518082815260200191505060405180910390a35050565b602d54600090610aa490600160a060020a03166113dd565b80610d3361141c565b600160a060020a03167fc81a87bb9e1f6f23054c21dd9959f8aa3b2f86077a49ccac452fadff6731304c60405160405180910390a350565b81610d7461141c565b600160a060020a03167f0548c7325a5164931df3aa9329c011dae1da4d2a8d8f263d85a69e5bbf59539e836040518082815260200191505060405180910390a35050565b81610dc161141c565b600160a060020a03167fe7a7f3d15b44bc59d2ec1229ddb620195d46a685ebddae6745ecb2384115b876836040518082815260200191505060405180910390a35050565b602b54600160a060020a031681565b602f54600090610e2c90600160a060020a03166113dd565b9392505050565b81610e3c61141c565b600160a060020a03167f799a32325be3cd39f977d4cc026272cc3dd97d9dd46c5751c7c9900d9f1ffcdf836040518082815260200191505060405180910390a35050565b81610e8961141c565b600160a060020a03167f63efc44d4747c4669c8be4f317453622684e7daab7cf5772795e6413a40c26dd836040518082815260200191505060405180910390a35050565b81610ed661141c565b600160a060020a03167f79a83e3beb9634ee6139429283222d680b93ea043c2ff1871edefcacafc06283836040518082815260200191505060405180910390a35050565b81610f2361141c565b600160a060020a03167f8cd445c80d0841aae8f229eddbed0de5befd5ff6fc2ca0510ee0621f5d6d5bef836040518082815260200191505060405180910390a35050565b81610f7061141c565b600160a060020a03167fe633624d3f31882d5f69373f4eaf1fc339ca5f5d499f1940cd2c9adde1d0c031836040518082815260200191505060405180910390a35050565b6000610fcc33600035600160e060020a0319166112d2565b151561100f5760408051308152336020820152600160e060020a031960003516818301529051600080516020611cb58339815191529181900360600190a1610e2c565b50602d8054600160a060020a03948516600160a060020a031991821617909155602e805493851693821693909317909255602f8054919093169116179055600190565b8061105b61141c565b600160a060020a03167fdf20fd1e76bc69d672e4814fafb2c449bba3a5369d8359adf9e05e6fde87b05660405160405180910390a350565b60006110ab33600035600160e060020a0319166112d2565b15156110ee5760408051308152336020820152600160e060020a031960003516818301529051600080516020611cb58339815191529181900360600190a16107fd565b50602c8054600160a060020a038316600160a060020a03199091161790556001919050565b600061112b33600035600160e060020a0319166112d2565b151561116e5760408051308152336020820152600160e060020a031960003516818301529051600080516020611cb58339815191529181900360600190a1611179565b6111766114b9565b90505b90565b8161118561141c565b600160a060020a03167fd2672b89fe222769587124bc5274449842976e105b59c8769578bd1cd4da72e4836040518082815260200191505060405180910390a35050565b60006111e133600035600160e060020a0319166112d2565b15156112245760408051308152336020820152600160e060020a031960003516818301529051600080516020611cb58339815191529181900360600190a16107fd565b50602b8054600160a060020a038316600160a060020a03199091161790556001919050565b8261125261141c565b60408051600160a060020a0386811682526020820186905282519316927f271fcf1e587075053a24de13909c1c666d6b58fae99f299cfbc3fb1696bc2c1a929181900390910190a3505050565b602a54600160a060020a031681565b600154600090600160a060020a03168015156112ca57306112cc565b805b91505090565b6000600160a060020a0383163014156112ed57506001610aa4565b600054600160a060020a0316151561130757506000610aa4565b60008054604080517fb7009613000000000000000000000000000000000000000000000000000000008152600160a060020a038781166004830152306024830152600160e060020a0319871660448301529151919092169263b700961392606480820193602093909283900390910190829087803b15801561138857600080fd5b505af115801561139c573d6000803e3d6000fd5b505050506040513d60208110156113b257600080fd5b50519392505050565b60018054600160a060020a038316600160a060020a0319909116178155919050565b600081905060405136810160405236600082376000803683856127105a03f46040513d81016040523d6000823e816001811461141857600080fd5b3d82f35b3390565b825460018401548354604080517f79a7cfee00000000000000000000000000000000000000000000000000000000815260048101939093526024830191909152600160a060020a03848116604484015290519216916379a7cfee9160648082019260009290919082900301818387803b15801561149c57600080fd5b505af11580156114b0573d6000803e3d6000fd5b50505050505050565b60006114ec60047f626f617264436f6e74726f6c6c6572000000000000000000000000000000000063ffffffff611ab016565b61151d60057f657363726f77416464726573730000000000000000000000000000000000000063ffffffff611ab016565b61154e60067f6a6f6273436f756e74000000000000000000000000000000000000000000000063ffffffff611ab016565b61157f60077f6a6f62537461746500000000000000000000000000000000000000000000000063ffffffff611ac016565b6115b060087f6a6f62436c69656e74000000000000000000000000000000000000000000000063ffffffff611ac016565b6115e160097f6a6f62576f726b6572000000000000000000000000000000000000000000000063ffffffff611ac016565b611612600a7f6a6f6244657461696c734950465348617368000000000000000000000000000063ffffffff611ac016565b611643600b7f6a6f62536b696c6c73417265610000000000000000000000000000000000000063ffffffff611ac016565b611674600c7f6a6f62536b696c6c7343617465676f727900000000000000000000000000000063ffffffff611ac016565b6116a5600d7f6a6f62536b696c6c73000000000000000000000000000000000000000000000063ffffffff611ac016565b6116d6600e7f6a6f62437265617465644174000000000000000000000000000000000000000063ffffffff611ac016565b611707600f7f6a6f62416363657074656441740000000000000000000000000000000000000063ffffffff611ac016565b61173860107f6a6f6250656e64696e675374617274417400000000000000000000000000000063ffffffff611ac016565b61176960117f6a6f62537461727454696d65000000000000000000000000000000000000000063ffffffff611ac016565b61179a60127f6a6f6250656e64696e6746696e6973684174000000000000000000000000000063ffffffff611ac016565b6117cb60137f6a6f6246696e69736854696d650000000000000000000000000000000000000063ffffffff611ac016565b6117fc60147f6a6f62506175736564000000000000000000000000000000000000000000000063ffffffff611ac016565b61182d60157f6a6f62506175736564417400000000000000000000000000000000000000000063ffffffff611ac016565b61185e60167f6a6f62506175736564466f72000000000000000000000000000000000000000063ffffffff611ac016565b61188f60177f6a6f62576f726b666c6f7754797065000000000000000000000000000000000063ffffffff611ac016565b6118c060187f6a6f6252657175657374656454696d650000000000000000000000000000000063ffffffff611ac016565b6118f160197f6a6f6244656661756c745061790000000000000000000000000000000000000063ffffffff611ac016565b611922601a7f6a6f624f6666657252617465000000000000000000000000000000000000000063ffffffff611ac016565b611953601b7f6a6f624f66666572457374696d6174650000000000000000000000000000000063ffffffff611ac016565b611984601c7f6a6f624f666665724f6e746f700000000000000000000000000000000000000063ffffffff611ac016565b6119b560287f6a6f6246696e616c697a6564417400000000000000000000000000000000000063ffffffff611ac016565b6119e6601d7f636c69656e744a6f62730000000000000000000000000000000000000000000063ffffffff611ace16565b611a1760207f776f726b65724a6f62730000000000000000000000000000000000000000000063ffffffff611ace16565b611a4860237f6a6f624f6666657273000000000000000000000000000000000000000000000063ffffffff611ace16565b611a7960267f6a6f624f66666572506f7374656441740000000000000000000000000000000063ffffffff611ac016565b611aaa60277f62696e645374617475730000000000000000000000000000000000000000000063ffffffff611ac016565b50600190565b8154611abc9082611ad8565b9055565b611aca8282611ab0565b5050565b611aca8282611aee565b81151580611ae4575080155b15611aca57600080fd5b611aca82826040805160208082018490527f636f756e7400000000000000000000000000000000000000000000000000000082840152825160258184030181526045909201928390528151611b9c93869392909182918401908083835b60208310611b6a5780518252601f199092019160209182019101611b4b565b6001836020036101000a0380198251168184511680821785525050505050509050019150506040518091039020611ab0565b6040805160208082018490527f696e64657865730000000000000000000000000000000000000000000000000082840152825160278184030181526047909201928390528151611c15936001870193929091829184019080838360208310611b6a5780518252601f199092019160209182019101611b4b565b6040805160208082018490527f76616c756573000000000000000000000000000000000000000000000000000082840152825160268184030181526046909201928390528151611aca936002870193929091829184019080838360208310611b6a5780518252601f199092019160209182019101611b4b565b8254600160a060020a031916600160a060020a039290921691909117825560019091015556005133a133185f1023427a2e90f18506b27db994977ce0c0faafd514a7dd109ae0a165627a7a723058201f4e1712726c42fef7a23ee61af0781453a44eeb2794cb10e070b7e66e681e1d0029",
  "source": "/**\n * Copyright 20172018, LaborX PTY\n * Licensed under the AGPL Version 3 license.\n */\n\npragma solidity ^0.4.21;\n\n\nimport \"solidity-roles-lib/contracts/Roles2LibraryAdapter.sol\";\nimport \"./base/DelegateRouter.sol\";\nimport \"./jobs/JobControllerAbstract.sol\";\n\n\ncontract JobController is Roles2LibraryAdapter, JobControllerAbstract, DelegateRouter {\n\n    address internal initiationControllerLib;\n    address internal processControllerLib;\n    address internal acceptanceControllerLib;\n\n    constructor(\n        Storage _store,\n        bytes32 _crate,\n        address _roles2Library\n    )\n    Roles2LibraryAdapter(_roles2Library)\n    JobDataCore(_store, _crate)\n    public\n    {\n    }\n\n    function init() auth external returns (uint) {\n        return JobDataCore._init();\n    }\n\n    function setupEventsHistory(address _eventsHistory) auth external returns (uint) {\n        require(_eventsHistory != 0x0);\n\n        _setEventsHistory(_eventsHistory);\n        return OK;\n    }\n\n    /// @notice Sets contract address that satisfies BoardControllerAccessor interface\n    function setBoardController(address _boardController) auth external returns (uint) {\n        store.set(boardController, _boardController);\n        return OK;\n    }\n\n    function setPaymentProcessor(PaymentProcessorInterface _paymentProcessor) auth external returns (uint) {\n        paymentProcessor = _paymentProcessor;\n        return OK;\n    }\n\n    function setUserLibrary(UserLibraryInterface _userLibrary) auth external returns (uint) {\n        userLibrary = _userLibrary;\n        return OK;\n    }\n\n    function setJobsDataProvider(JobsDataProvider _jobsDataProvider) auth external returns (uint) {\n        jobsDataProvider = _jobsDataProvider;\n        return OK;\n    }\n\n    function linkJobLibs(\n        address _initiationControllerLib, \n        address _processControllerLib, \n        address _acceptanceControllerLib\n    ) \n    external \n    auth \n    returns (uint) \n    {\n        initiationControllerLib = _initiationControllerLib;\n        processControllerLib = _processControllerLib;\n        acceptanceControllerLib = _acceptanceControllerLib;\n        return OK;\n    }\n\n    /// @notice Creates and posts a new job to a job marketplace\n    /// @param _flowType see WorkflowType\n    function postJob(\n        uint _flowType,\n        uint _area,\n        uint _category,\n        uint _skills,\n        uint _defaultPay,\n        bytes32 _detailsIPFSHash\n    )\n    public\n    returns (uint)\n    {\n        _delegateCall(initiationControllerLib);\n    }\n\n    function postJobOffer(\n        uint _jobId,\n        uint _rate,\n        uint _estimate,\n        uint _ontop\n    )\n    public\n    returns (uint)\n    {\n        _delegateCall(initiationControllerLib);\n    }\n\n    function postJobOfferWithPrice(\n        uint _jobId,\n        uint _price\n    )\n    external\n    returns (uint) {\n        _delegateCall(initiationControllerLib);\n    }\n\n    function acceptOffer(\n        uint _jobId,\n        address _worker\n    )\n    external\n    payable\n    returns (uint _resultCode)\n    {\n        _delegateCall(initiationControllerLib);\n    }\n\n    function startWork(\n        uint _jobId\n    )\n    external\n    returns (uint)\n    {\n        _delegateCall(processControllerLib);\n    }\n\n    function confirmStartWork(\n        uint _jobId\n    )\n    external\n    returns (uint)\n    {\n        _delegateCall(processControllerLib);\n    }\n\n    function pauseWork(\n        uint _jobId\n    )\n    external\n    returns (uint)\n    {\n        _delegateCall(processControllerLib);\n    }\n\n    function resumeWork(\n        uint _jobId\n    )\n    external\n    returns (uint _resultCode)\n    {\n        _delegateCall(processControllerLib);\n    }\n\n    function submitAdditionalTimeRequest(\n        uint _jobId,\n        uint16 _additionalTime\n    )\n    external\n    returns (uint)\n    {\n        _delegateCall(processControllerLib);\n    }\n\n    function acceptAdditionalTimeRequest(\n        uint _jobId,\n        uint16 _additionalTime\n    )\n    external\n    payable\n    returns (uint)\n    {\n        _delegateCall(processControllerLib);\n    }\n\n    function rejectAdditionalTimeRequest(\n        uint _jobId\n    )\n    external\n    returns (uint)\n    {\n        _delegateCall(processControllerLib);\n    }\n\n    function endWork(\n        uint _jobId\n    )\n    external\n    returns (uint)\n    {\n        _delegateCall(processControllerLib);\n    }\n\n    function cancelJob(\n        uint _jobId\n    )\n    external\n    returns (uint _resultCode)\n    {\n        _delegateCall(acceptanceControllerLib);\n    }\n\n    function acceptWorkResults(uint _jobId)\n    external\n    returns (uint) \n    {\n        _delegateCall(acceptanceControllerLib);\n    }\n\n    function rejectWorkResults(uint _jobId)\n    external\n    returns (uint _resultCode) \n    {\n        _delegateCall(acceptanceControllerLib);\n    }\n\n    function resolveWorkDispute(\n        uint _jobId,\n        uint _workerPaycheck,\n        uint _penaltyFee\n    )\n    external\n    returns (uint _resultCode) {\n        _delegateCall(acceptanceControllerLib);\n    }\n\n    function releasePayment(\n        uint _jobId\n    )\n    public\n    returns (uint _resultCode)\n    {\n        _delegateCall(acceptanceControllerLib);\n    }\n}\n\n",
  "sourcePath": "/Users/alesanro/Documents/Projects/ChronoBank/LX-SC/contracts/JobController.sol",
  "compiler": {
    "name": "solc",
    "version": "0.4.24+commit.e67f0147.Emscripten.clang"
  },
  "schemaVersion": "2.0.1",
  "updatedAt": "2018-09-18T15:43:05.266Z"
}