{
  "contractName": "JobController",
  "abi": [
    {
      "constant": false,
      "inputs": [
        {
          "name": "_roles2Library",
          "type": "address"
        }
      ],
      "name": "setRoles2Library",
      "outputs": [
        {
          "name": "",
          "type": "uint256"
        }
      ],
      "payable": false,
      "stateMutability": "nonpayable",
      "type": "function"
    },
    {
      "constant": true,
      "inputs": [],
      "name": "version",
      "outputs": [
        {
          "name": "",
          "type": "string"
        }
      ],
      "payable": false,
      "stateMutability": "view",
      "type": "function"
    },
    {
      "constant": false,
      "inputs": [
        {
          "name": "_errorCode",
          "type": "uint256"
        }
      ],
      "name": "emitErrorCode",
      "outputs": [],
      "payable": false,
      "stateMutability": "nonpayable",
      "type": "function"
    },
    {
      "constant": true,
      "inputs": [],
      "name": "userLibrary",
      "outputs": [
        {
          "name": "",
          "type": "address"
        }
      ],
      "payable": false,
      "stateMutability": "view",
      "type": "function"
    },
    {
      "constant": true,
      "inputs": [],
      "name": "paymentProcessor",
      "outputs": [
        {
          "name": "",
          "type": "address"
        }
      ],
      "payable": false,
      "stateMutability": "view",
      "type": "function"
    },
    {
      "constant": true,
      "inputs": [],
      "name": "getEventsHistory",
      "outputs": [
        {
          "name": "",
          "type": "address"
        }
      ],
      "payable": false,
      "stateMutability": "view",
      "type": "function"
    },
    {
      "inputs": [
        {
          "name": "_store",
          "type": "address"
        },
        {
          "name": "_crate",
          "type": "bytes32"
        },
        {
          "name": "_roles2Library",
          "type": "address"
        }
      ],
      "payable": false,
      "stateMutability": "nonpayable",
      "type": "constructor"
    },
    {
      "anonymous": false,
      "inputs": [
        {
          "indexed": true,
          "name": "self",
          "type": "address"
        },
        {
          "indexed": true,
          "name": "jobId",
          "type": "uint256"
        },
        {
          "indexed": false,
          "name": "flowType",
          "type": "bytes32"
        },
        {
          "indexed": false,
          "name": "client",
          "type": "address"
        },
        {
          "indexed": false,
          "name": "skillsArea",
          "type": "uint256"
        },
        {
          "indexed": false,
          "name": "skillsCategory",
          "type": "uint256"
        },
        {
          "indexed": false,
          "name": "skills",
          "type": "uint256"
        },
        {
          "indexed": false,
          "name": "defaultPay",
          "type": "uint256"
        },
        {
          "indexed": false,
          "name": "detailsIPFSHash",
          "type": "bytes32"
        },
        {
          "indexed": false,
          "name": "bindStatus",
          "type": "bool"
        }
      ],
      "name": "JobPosted",
      "type": "event"
    },
    {
      "anonymous": false,
      "inputs": [
        {
          "indexed": true,
          "name": "self",
          "type": "address"
        },
        {
          "indexed": true,
          "name": "jobId",
          "type": "uint256"
        },
        {
          "indexed": false,
          "name": "worker",
          "type": "address"
        },
        {
          "indexed": false,
          "name": "rate",
          "type": "uint256"
        },
        {
          "indexed": false,
          "name": "estimate",
          "type": "uint256"
        },
        {
          "indexed": false,
          "name": "ontop",
          "type": "uint256"
        }
      ],
      "name": "JobOfferPosted",
      "type": "event"
    },
    {
      "anonymous": false,
      "inputs": [
        {
          "indexed": true,
          "name": "self",
          "type": "address"
        },
        {
          "indexed": true,
          "name": "jobId",
          "type": "uint256"
        },
        {
          "indexed": false,
          "name": "worker",
          "type": "address"
        },
        {
          "indexed": false,
          "name": "price",
          "type": "uint256"
        }
      ],
      "name": "JobOfferPosted",
      "type": "event"
    },
    {
      "anonymous": false,
      "inputs": [
        {
          "indexed": true,
          "name": "self",
          "type": "address"
        },
        {
          "indexed": true,
          "name": "jobId",
          "type": "uint256"
        },
        {
          "indexed": false,
          "name": "worker",
          "type": "address"
        }
      ],
      "name": "JobOfferAccepted",
      "type": "event"
    },
    {
      "anonymous": false,
      "inputs": [
        {
          "indexed": true,
          "name": "self",
          "type": "address"
        },
        {
          "indexed": true,
          "name": "jobId",
          "type": "uint256"
        },
        {
          "indexed": false,
          "name": "at",
          "type": "uint256"
        }
      ],
      "name": "StartWorkRequested",
      "type": "event"
    },
    {
      "anonymous": false,
      "inputs": [
        {
          "indexed": true,
          "name": "self",
          "type": "address"
        },
        {
          "indexed": true,
          "name": "jobId",
          "type": "uint256"
        },
        {
          "indexed": false,
          "name": "at",
          "type": "uint256"
        }
      ],
      "name": "WorkStarted",
      "type": "event"
    },
    {
      "anonymous": false,
      "inputs": [
        {
          "indexed": true,
          "name": "self",
          "type": "address"
        },
        {
          "indexed": true,
          "name": "jobId",
          "type": "uint256"
        },
        {
          "indexed": false,
          "name": "time",
          "type": "uint256"
        }
      ],
      "name": "TimeRequestSubmitted",
      "type": "event"
    },
    {
      "anonymous": false,
      "inputs": [
        {
          "indexed": true,
          "name": "self",
          "type": "address"
        },
        {
          "indexed": true,
          "name": "jobId",
          "type": "uint256"
        },
        {
          "indexed": false,
          "name": "time",
          "type": "uint256"
        }
      ],
      "name": "TimeRequestAccepted",
      "type": "event"
    },
    {
      "anonymous": false,
      "inputs": [
        {
          "indexed": true,
          "name": "self",
          "type": "address"
        },
        {
          "indexed": true,
          "name": "jobId",
          "type": "uint256"
        },
        {
          "indexed": false,
          "name": "time",
          "type": "uint256"
        }
      ],
      "name": "TimeRequestRejected",
      "type": "event"
    },
    {
      "anonymous": false,
      "inputs": [
        {
          "indexed": true,
          "name": "self",
          "type": "address"
        },
        {
          "indexed": true,
          "name": "jobId",
          "type": "uint256"
        },
        {
          "indexed": false,
          "name": "at",
          "type": "uint256"
        }
      ],
      "name": "WorkPaused",
      "type": "event"
    },
    {
      "anonymous": false,
      "inputs": [
        {
          "indexed": true,
          "name": "self",
          "type": "address"
        },
        {
          "indexed": true,
          "name": "jobId",
          "type": "uint256"
        },
        {
          "indexed": false,
          "name": "at",
          "type": "uint256"
        }
      ],
      "name": "WorkResumed",
      "type": "event"
    },
    {
      "anonymous": false,
      "inputs": [
        {
          "indexed": true,
          "name": "self",
          "type": "address"
        },
        {
          "indexed": true,
          "name": "jobId",
          "type": "uint256"
        },
        {
          "indexed": false,
          "name": "at",
          "type": "uint256"
        }
      ],
      "name": "EndWorkRequested",
      "type": "event"
    },
    {
      "anonymous": false,
      "inputs": [
        {
          "indexed": true,
          "name": "self",
          "type": "address"
        },
        {
          "indexed": true,
          "name": "jobId",
          "type": "uint256"
        },
        {
          "indexed": false,
          "name": "at",
          "type": "uint256"
        }
      ],
      "name": "WorkFinished",
      "type": "event"
    },
    {
      "anonymous": false,
      "inputs": [
        {
          "indexed": true,
          "name": "self",
          "type": "address"
        },
        {
          "indexed": true,
          "name": "jobId",
          "type": "uint256"
        },
        {
          "indexed": false,
          "name": "at",
          "type": "uint256"
        }
      ],
      "name": "WorkAccepted",
      "type": "event"
    },
    {
      "anonymous": false,
      "inputs": [
        {
          "indexed": true,
          "name": "self",
          "type": "address"
        },
        {
          "indexed": true,
          "name": "jobId",
          "type": "uint256"
        },
        {
          "indexed": false,
          "name": "at",
          "type": "uint256"
        }
      ],
      "name": "WorkRejected",
      "type": "event"
    },
    {
      "anonymous": false,
      "inputs": [
        {
          "indexed": true,
          "name": "self",
          "type": "address"
        },
        {
          "indexed": true,
          "name": "jobId",
          "type": "uint256"
        },
        {
          "indexed": false,
          "name": "at",
          "type": "uint256"
        }
      ],
      "name": "WorkDisputeResolved",
      "type": "event"
    },
    {
      "anonymous": false,
      "inputs": [
        {
          "indexed": true,
          "name": "self",
          "type": "address"
        },
        {
          "indexed": true,
          "name": "jobId",
          "type": "uint256"
        }
      ],
      "name": "PaymentReleased",
      "type": "event"
    },
    {
      "anonymous": false,
      "inputs": [
        {
          "indexed": true,
          "name": "self",
          "type": "address"
        },
        {
          "indexed": true,
          "name": "jobId",
          "type": "uint256"
        }
      ],
      "name": "JobCanceled",
      "type": "event"
    },
    {
      "anonymous": false,
      "inputs": [
        {
          "indexed": false,
          "name": "code",
          "type": "address"
        },
        {
          "indexed": false,
          "name": "sender",
          "type": "address"
        },
        {
          "indexed": false,
          "name": "sig",
          "type": "bytes4"
        }
      ],
      "name": "AuthFailedError",
      "type": "event"
    },
    {
      "anonymous": false,
      "inputs": [
        {
          "indexed": true,
          "name": "self",
          "type": "address"
        },
        {
          "indexed": false,
          "name": "errorCode",
          "type": "uint256"
        }
      ],
      "name": "ErrorCode",
      "type": "event"
    },
    {
      "constant": false,
      "inputs": [],
      "name": "init",
      "outputs": [
        {
          "name": "",
          "type": "uint256"
        }
      ],
      "payable": false,
      "stateMutability": "nonpayable",
      "type": "function"
    },
    {
      "constant": false,
      "inputs": [
        {
          "name": "_eventsHistory",
          "type": "address"
        }
      ],
      "name": "setupEventsHistory",
      "outputs": [
        {
          "name": "",
          "type": "uint256"
        }
      ],
      "payable": false,
      "stateMutability": "nonpayable",
      "type": "function"
    },
    {
      "constant": false,
      "inputs": [
        {
          "name": "_boardController",
          "type": "address"
        }
      ],
      "name": "setBoardController",
      "outputs": [
        {
          "name": "",
          "type": "uint256"
        }
      ],
      "payable": false,
      "stateMutability": "nonpayable",
      "type": "function"
    },
    {
      "constant": false,
      "inputs": [
        {
          "name": "_paymentProcessor",
          "type": "address"
        }
      ],
      "name": "setPaymentProcessor",
      "outputs": [
        {
          "name": "",
          "type": "uint256"
        }
      ],
      "payable": false,
      "stateMutability": "nonpayable",
      "type": "function"
    },
    {
      "constant": false,
      "inputs": [
        {
          "name": "_userLibrary",
          "type": "address"
        }
      ],
      "name": "setUserLibrary",
      "outputs": [
        {
          "name": "",
          "type": "uint256"
        }
      ],
      "payable": false,
      "stateMutability": "nonpayable",
      "type": "function"
    },
    {
      "constant": true,
      "inputs": [
        {
          "name": "worker",
          "type": "address"
        },
        {
          "name": "_jobId",
          "type": "uint256"
        },
        {
          "name": "_time",
          "type": "uint256"
        },
        {
          "name": "_onTop",
          "type": "uint256"
        }
      ],
      "name": "calculateLock",
      "outputs": [
        {
          "name": "",
          "type": "uint256"
        }
      ],
      "payable": false,
      "stateMutability": "view",
      "type": "function"
    },
    {
      "constant": true,
      "inputs": [
        {
          "name": "_jobId",
          "type": "uint256"
        }
      ],
      "name": "calculateLockAmount",
      "outputs": [
        {
          "name": "",
          "type": "uint256"
        }
      ],
      "payable": false,
      "stateMutability": "view",
      "type": "function"
    },
    {
      "constant": true,
      "inputs": [
        {
          "name": "worker",
          "type": "address"
        },
        {
          "name": "_jobId",
          "type": "uint256"
        }
      ],
      "name": "calculateLockAmountFor",
      "outputs": [
        {
          "name": "",
          "type": "uint256"
        }
      ],
      "payable": false,
      "stateMutability": "view",
      "type": "function"
    },
    {
      "constant": true,
      "inputs": [
        {
          "name": "_jobId",
          "type": "uint256"
        }
      ],
      "name": "calculatePaycheck",
      "outputs": [
        {
          "name": "",
          "type": "uint256"
        }
      ],
      "payable": false,
      "stateMutability": "view",
      "type": "function"
    },
    {
      "constant": false,
      "inputs": [
        {
          "name": "_flowType",
          "type": "uint256"
        },
        {
          "name": "_area",
          "type": "uint256"
        },
        {
          "name": "_category",
          "type": "uint256"
        },
        {
          "name": "_skills",
          "type": "uint256"
        },
        {
          "name": "_defaultPay",
          "type": "uint256"
        },
        {
          "name": "_detailsIPFSHash",
          "type": "bytes32"
        }
      ],
      "name": "postJob",
      "outputs": [
        {
          "name": "",
          "type": "uint256"
        }
      ],
      "payable": false,
      "stateMutability": "nonpayable",
      "type": "function"
    },
    {
      "constant": false,
      "inputs": [
        {
          "name": "_jobId",
          "type": "uint256"
        },
        {
          "name": "_rate",
          "type": "uint256"
        },
        {
          "name": "_estimate",
          "type": "uint256"
        },
        {
          "name": "_ontop",
          "type": "uint256"
        }
      ],
      "name": "postJobOffer",
      "outputs": [
        {
          "name": "",
          "type": "uint256"
        }
      ],
      "payable": false,
      "stateMutability": "nonpayable",
      "type": "function"
    },
    {
      "constant": false,
      "inputs": [
        {
          "name": "_jobId",
          "type": "uint256"
        },
        {
          "name": "_price",
          "type": "uint256"
        }
      ],
      "name": "postJobOfferWithPrice",
      "outputs": [
        {
          "name": "",
          "type": "uint256"
        }
      ],
      "payable": false,
      "stateMutability": "nonpayable",
      "type": "function"
    },
    {
      "constant": false,
      "inputs": [
        {
          "name": "_jobId",
          "type": "uint256"
        },
        {
          "name": "_worker",
          "type": "address"
        }
      ],
      "name": "acceptOffer",
      "outputs": [
        {
          "name": "_resultCode",
          "type": "uint256"
        }
      ],
      "payable": true,
      "stateMutability": "payable",
      "type": "function"
    },
    {
      "constant": false,
      "inputs": [
        {
          "name": "_jobId",
          "type": "uint256"
        }
      ],
      "name": "startWork",
      "outputs": [
        {
          "name": "",
          "type": "uint256"
        }
      ],
      "payable": false,
      "stateMutability": "nonpayable",
      "type": "function"
    },
    {
      "constant": false,
      "inputs": [
        {
          "name": "_jobId",
          "type": "uint256"
        }
      ],
      "name": "confirmStartWork",
      "outputs": [
        {
          "name": "",
          "type": "uint256"
        }
      ],
      "payable": false,
      "stateMutability": "nonpayable",
      "type": "function"
    },
    {
      "constant": false,
      "inputs": [
        {
          "name": "_jobId",
          "type": "uint256"
        }
      ],
      "name": "pauseWork",
      "outputs": [
        {
          "name": "",
          "type": "uint256"
        }
      ],
      "payable": false,
      "stateMutability": "nonpayable",
      "type": "function"
    },
    {
      "constant": false,
      "inputs": [
        {
          "name": "_jobId",
          "type": "uint256"
        }
      ],
      "name": "resumeWork",
      "outputs": [
        {
          "name": "_resultCode",
          "type": "uint256"
        }
      ],
      "payable": false,
      "stateMutability": "nonpayable",
      "type": "function"
    },
    {
      "constant": false,
      "inputs": [
        {
          "name": "_jobId",
          "type": "uint256"
        },
        {
          "name": "_additionalTime",
          "type": "uint16"
        }
      ],
      "name": "submitAdditionalTimeRequest",
      "outputs": [
        {
          "name": "",
          "type": "uint256"
        }
      ],
      "payable": false,
      "stateMutability": "nonpayable",
      "type": "function"
    },
    {
      "constant": false,
      "inputs": [
        {
          "name": "_jobId",
          "type": "uint256"
        },
        {
          "name": "_additionalTime",
          "type": "uint16"
        }
      ],
      "name": "acceptAdditionalTimeRequest",
      "outputs": [
        {
          "name": "",
          "type": "uint256"
        }
      ],
      "payable": true,
      "stateMutability": "payable",
      "type": "function"
    },
    {
      "constant": false,
      "inputs": [
        {
          "name": "_jobId",
          "type": "uint256"
        }
      ],
      "name": "rejectAdditionalTimeRequest",
      "outputs": [
        {
          "name": "",
          "type": "uint256"
        }
      ],
      "payable": false,
      "stateMutability": "nonpayable",
      "type": "function"
    },
    {
      "constant": false,
      "inputs": [
        {
          "name": "_jobId",
          "type": "uint256"
        }
      ],
      "name": "endWork",
      "outputs": [
        {
          "name": "",
          "type": "uint256"
        }
      ],
      "payable": false,
      "stateMutability": "nonpayable",
      "type": "function"
    },
    {
      "constant": false,
      "inputs": [
        {
          "name": "_jobId",
          "type": "uint256"
        }
      ],
      "name": "confirmEndWork",
      "outputs": [
        {
          "name": "",
          "type": "uint256"
        }
      ],
      "payable": false,
      "stateMutability": "nonpayable",
      "type": "function"
    },
    {
      "constant": false,
      "inputs": [
        {
          "name": "_jobId",
          "type": "uint256"
        }
      ],
      "name": "cancelJob",
      "outputs": [
        {
          "name": "_resultCode",
          "type": "uint256"
        }
      ],
      "payable": false,
      "stateMutability": "nonpayable",
      "type": "function"
    },
    {
      "constant": false,
      "inputs": [
        {
          "name": "_jobId",
          "type": "uint256"
        }
      ],
      "name": "acceptWorkResults",
      "outputs": [
        {
          "name": "",
          "type": "uint256"
        }
      ],
      "payable": false,
      "stateMutability": "nonpayable",
      "type": "function"
    },
    {
      "constant": false,
      "inputs": [
        {
          "name": "_jobId",
          "type": "uint256"
        }
      ],
      "name": "rejectWorkResults",
      "outputs": [
        {
          "name": "_resultCode",
          "type": "uint256"
        }
      ],
      "payable": false,
      "stateMutability": "nonpayable",
      "type": "function"
    },
    {
      "constant": false,
      "inputs": [
        {
          "name": "_jobId",
          "type": "uint256"
        },
        {
          "name": "_workerPaycheck",
          "type": "uint256"
        },
        {
          "name": "_penaltyFee",
          "type": "uint256"
        }
      ],
      "name": "resolveWorkDispute",
      "outputs": [
        {
          "name": "_resultCode",
          "type": "uint256"
        }
      ],
      "payable": false,
      "stateMutability": "nonpayable",
      "type": "function"
    },
    {
      "constant": false,
      "inputs": [
        {
          "name": "_jobId",
          "type": "uint256"
        }
      ],
      "name": "releasePayment",
      "outputs": [
        {
          "name": "_resultCode",
          "type": "uint256"
        }
      ],
      "payable": false,
      "stateMutability": "nonpayable",
      "type": "function"
    },
    {
      "constant": false,
      "inputs": [
        {
          "name": "_jobId",
          "type": "uint256"
        },
        {
          "name": "_flowType",
          "type": "uint256"
        },
        {
          "name": "_client",
          "type": "address"
        },
        {
          "name": "_skillsArea",
          "type": "uint256"
        },
        {
          "name": "_skillsCategory",
          "type": "uint256"
        },
        {
          "name": "_skills",
          "type": "uint256"
        },
        {
          "name": "_defaultPay",
          "type": "uint256"
        },
        {
          "name": "_detailsIPFSHash",
          "type": "bytes32"
        },
        {
          "name": "_bindStatus",
          "type": "bool"
        }
      ],
      "name": "emitJobPosted",
      "outputs": [],
      "payable": false,
      "stateMutability": "nonpayable",
      "type": "function"
    },
    {
      "constant": false,
      "inputs": [
        {
          "name": "_jobId",
          "type": "uint256"
        },
        {
          "name": "_worker",
          "type": "address"
        },
        {
          "name": "_price",
          "type": "uint256"
        }
      ],
      "name": "emitJobOfferPosted",
      "outputs": [],
      "payable": false,
      "stateMutability": "nonpayable",
      "type": "function"
    },
    {
      "constant": false,
      "inputs": [
        {
          "name": "_jobId",
          "type": "uint256"
        },
        {
          "name": "_worker",
          "type": "address"
        },
        {
          "name": "_rate",
          "type": "uint256"
        },
        {
          "name": "_estimate",
          "type": "uint256"
        },
        {
          "name": "_ontop",
          "type": "uint256"
        }
      ],
      "name": "emitJobOfferPosted",
      "outputs": [],
      "payable": false,
      "stateMutability": "nonpayable",
      "type": "function"
    },
    {
      "constant": false,
      "inputs": [
        {
          "name": "_jobId",
          "type": "uint256"
        },
        {
          "name": "_worker",
          "type": "address"
        }
      ],
      "name": "emitJobOfferAccepted",
      "outputs": [],
      "payable": false,
      "stateMutability": "nonpayable",
      "type": "function"
    },
    {
      "constant": false,
      "inputs": [
        {
          "name": "_jobId",
          "type": "uint256"
        },
        {
          "name": "_at",
          "type": "uint256"
        }
      ],
      "name": "emitStartWorkRequested",
      "outputs": [],
      "payable": false,
      "stateMutability": "nonpayable",
      "type": "function"
    },
    {
      "constant": false,
      "inputs": [
        {
          "name": "_jobId",
          "type": "uint256"
        },
        {
          "name": "_at",
          "type": "uint256"
        }
      ],
      "name": "emitWorkStarted",
      "outputs": [],
      "payable": false,
      "stateMutability": "nonpayable",
      "type": "function"
    },
    {
      "constant": false,
      "inputs": [
        {
          "name": "_jobId",
          "type": "uint256"
        },
        {
          "name": "_at",
          "type": "uint256"
        }
      ],
      "name": "emitWorkPaused",
      "outputs": [],
      "payable": false,
      "stateMutability": "nonpayable",
      "type": "function"
    },
    {
      "constant": false,
      "inputs": [
        {
          "name": "_jobId",
          "type": "uint256"
        },
        {
          "name": "_at",
          "type": "uint256"
        }
      ],
      "name": "emitWorkResumed",
      "outputs": [],
      "payable": false,
      "stateMutability": "nonpayable",
      "type": "function"
    },
    {
      "constant": false,
      "inputs": [
        {
          "name": "_jobId",
          "type": "uint256"
        },
        {
          "name": "_time",
          "type": "uint256"
        }
      ],
      "name": "emitTimeRequestSubmitted",
      "outputs": [],
      "payable": false,
      "stateMutability": "nonpayable",
      "type": "function"
    },
    {
      "constant": false,
      "inputs": [
        {
          "name": "_jobId",
          "type": "uint256"
        },
        {
          "name": "_time",
          "type": "uint256"
        }
      ],
      "name": "emitTimeRequestAccepted",
      "outputs": [],
      "payable": false,
      "stateMutability": "nonpayable",
      "type": "function"
    },
    {
      "constant": false,
      "inputs": [
        {
          "name": "_jobId",
          "type": "uint256"
        },
        {
          "name": "_time",
          "type": "uint256"
        }
      ],
      "name": "emitTimeRequestRejected",
      "outputs": [],
      "payable": false,
      "stateMutability": "nonpayable",
      "type": "function"
    },
    {
      "constant": false,
      "inputs": [
        {
          "name": "_jobId",
          "type": "uint256"
        },
        {
          "name": "_at",
          "type": "uint256"
        }
      ],
      "name": "emitEndWorkRequested",
      "outputs": [],
      "payable": false,
      "stateMutability": "nonpayable",
      "type": "function"
    },
    {
      "constant": false,
      "inputs": [
        {
          "name": "_jobId",
          "type": "uint256"
        },
        {
          "name": "_at",
          "type": "uint256"
        }
      ],
      "name": "emitWorkFinished",
      "outputs": [],
      "payable": false,
      "stateMutability": "nonpayable",
      "type": "function"
    },
    {
      "constant": false,
      "inputs": [
        {
          "name": "_jobId",
          "type": "uint256"
        },
        {
          "name": "_at",
          "type": "uint256"
        }
      ],
      "name": "emitWorkAccepted",
      "outputs": [],
      "payable": false,
      "stateMutability": "nonpayable",
      "type": "function"
    },
    {
      "constant": false,
      "inputs": [
        {
          "name": "_jobId",
          "type": "uint256"
        },
        {
          "name": "_at",
          "type": "uint256"
        }
      ],
      "name": "emitWorkRejected",
      "outputs": [],
      "payable": false,
      "stateMutability": "nonpayable",
      "type": "function"
    },
    {
      "constant": false,
      "inputs": [
        {
          "name": "_jobId",
          "type": "uint256"
        },
        {
          "name": "_at",
          "type": "uint256"
        }
      ],
      "name": "emitWorkDistputeResolved",
      "outputs": [],
      "payable": false,
      "stateMutability": "nonpayable",
      "type": "function"
    },
    {
      "constant": false,
      "inputs": [
        {
          "name": "_jobId",
          "type": "uint256"
        }
      ],
      "name": "emitPaymentReleased",
      "outputs": [],
      "payable": false,
      "stateMutability": "nonpayable",
      "type": "function"
    },
    {
      "constant": false,
      "inputs": [
        {
          "name": "_jobId",
          "type": "uint256"
        }
      ],
      "name": "emitJobCanceled",
      "outputs": [],
      "payable": false,
      "stateMutability": "nonpayable",
      "type": "function"
    }
  ],
  "bytecode": "0x60c0604052600660808190527f76302e302e31000000000000000000000000000000000000000000000000000060a0908152620000409160279190620000f9565b503480156200004e57600080fd5b5060405160608062004d0183398101604090815281516020830151919092015180838381816200008f6000838364010000000062004ad4620000d382021704565b50505050600160a060020a0381161515620000a957600080fd5b60298054600160a060020a031916600160a060020a0392909216919091179055506200019e915050565b8254600160a060020a031916600160a060020a0392909216919091178255600190910155565b828054600181600116156101000203166002900490600052602060002090601f016020900481019282601f106200013c57805160ff19168380011785556200016c565b828001600101855582156200016c579182015b828111156200016c5782518255916020019190600101906200014f565b506200017a9291506200017e565b5090565b6200019b91905b808211156200017a576000815560010162000185565b90565b614b5380620001ae6000396000f30060806040526004361061024d5763ffffffff60e060020a60003504166302927d20811461025257806303a250f9146102855780630419d0e41461029d578063088b0d75146102c15780630a3d1ca4146102e25780631972b464146102ff5780631c62f8531461032c5780631dffa3dc146103535780632637cd7d1461036b5780632caef7651461038c5780633de035bf146103ad5780633f22299b146103c557806342565482146103e457806354fd4d501461042057806358b5f92a146104aa578063596fab6c146104cb5780636a3bff97146104e35780638680e52d146104fb5780638834277e1461051f57806388685cd91461053757806389c29b611461054f5780638db210dc146105675780638dfa95f414610582578063918d407d1461059d57806393361078146105b45780639c6e1d46146105cc578063a34f74bd146105e4578063aaf2fc08146105ff578063aea1935b1461061a578063b3ec8cb814610632578063b44ccd3c14610663578063b633d27214610681578063b7d8b1d91461069c578063bdeeea55146106b7578063c04944f1146106d2578063c26d0c2c146106fc578063c50e59f414610717578063c540fbb514610732578063d64956761461074a578063d906be6e14610762578063e1c7392a1461077a578063e46f49ae1461078f578063ec2b50bf146107aa578063eca52767146107cb578063ef29a7e5146107f2578063f1c6bdf81461080d578063f737acff14610822578063f7de5c461461083d578063f839dc621461084f578063fd03d76214610867578063fff10aba1461087f575b600080fd5b34801561025e57600080fd5b50610273600160a060020a0360043516610894565b60408051918252519081900360200190f35b34801561029157600080fd5b50610273600435610918565b3480156102a957600080fd5b50610273600160a060020a0360043516602435610a2e565b3480156102cd57600080fd5b50610273600160a060020a0360043516610ac3565b3480156102ee57600080fd5b506102fd600435602435610b50565b005b34801561030b57600080fd5b506102fd600435600160a060020a0360243516604435606435608435610b9d565b34801561033857600080fd5b5061027360043560243560443560643560843560a435610c03565b34801561035f57600080fd5b50610273600435610e60565b34801561037757600080fd5b50610273600160a060020a03600435166110a9565b34801561039857600080fd5b50610273600160a060020a0360043516611136565b3480156103b957600080fd5b506102736004356111ac565b3480156103d157600080fd5b5061027360043561ffff602435166112d4565b3480156103f057600080fd5b506102fd600435602435600160a060020a036044351660643560843560a43560c43560e435610104351515611420565b34801561042c57600080fd5b506104356114a6565b6040805160208082528351818301528351919283929083019185019080838360005b8381101561046f578181015183820152602001610457565b50505050905090810190601f16801561049c5780820380516001836020036101000a031916815260200191505b509250505060405180910390f35b3480156104b657600080fd5b50610273600435602435604435606435611534565b3480156104d757600080fd5b506102736004356116eb565b3480156104ef57600080fd5b50610273600435611715565b34801561050757600080fd5b506102fd600435600160a060020a0360243516611892565b34801561052b57600080fd5b506102fd6004356118e1565b34801561054357600080fd5b5061027360043561192c565b34801561055b57600080fd5b50610273600435611b10565b34801561057357600080fd5b506102fd600435602435611b60565b34801561058e57600080fd5b506102fd600435602435611bad565b610273600435600160a060020a0360243516611bfa565b3480156105c057600080fd5b50610273600435611e10565b3480156105d857600080fd5b506102fd600435611f11565b3480156105f057600080fd5b506102fd600435602435611f52565b34801561060b57600080fd5b506102fd600435602435611f9f565b34801561062657600080fd5b50610273600435611fec565b34801561063e57600080fd5b506106476120ed565b60408051600160a060020a039092168252519081900360200190f35b34801561066f57600080fd5b506102736004356024356044356120fc565b34801561068d57600080fd5b506102fd600435602435612443565b3480156106a857600080fd5b506102fd600435602435612490565b3480156106c357600080fd5b506102fd6004356024356124dd565b3480156106de57600080fd5b50610273600160a060020a036004351660243560443560643561252a565b34801561070857600080fd5b506102fd600435602435612557565b34801561072357600080fd5b506102fd6004356024356125a4565b34801561073e57600080fd5b506102736004356125f1565b34801561075657600080fd5b506102fd6004356126f2565b34801561076e57600080fd5b50610273600435612733565b34801561078657600080fd5b50610273612834565b34801561079b57600080fd5b506102fd60043560243561289d565b3480156107b657600080fd5b50610273600160a060020a03600435166128ea565b3480156107d757600080fd5b506102fd600435600160a060020a0360243516604435612977565b3480156107fe57600080fd5b506102fd6004356024356129cd565b34801561081957600080fd5b50610647612a1a565b34801561082e57600080fd5b50610273600435602435612a29565b61027360043561ffff60243516612b97565b34801561085b57600080fd5b50610273600435612d43565b34801561087357600080fd5b50610273600435612e65565b34801561088b57600080fd5b50610647612ef8565b60006108ac33600035600160e060020a031916612f1c565b15156108ef5760408051308152336020820152600160e060020a031960003516818301529051600080516020614b088339815191529181900360600190a1610913565b600160a060020a038216151561090457600080fd5b61090d82613004565b50600190505b919050565b6000813361092e8360078463ffffffff61303516565b600160a060020a031614610954576109476132d061304a565b506132d060005260206000f35b8260028061096b600060058563ffffffff61303516565b146109885761097b6132cb61304a565b506132cb60005260206000f35b61099c6000600e874263ffffffff61308b16565b6109b16000600587600463ffffffff61308b16565b6109b961309d565b600160a060020a031663e46f49ae86426040518363ffffffff1660e060020a0281526004018083815260200182815260200192505050600060405180830381600087803b158015610a0957600080fd5b505af1158015610a1d573d6000803e3d6000fd5b50505050600193505b505050919050565b60008080610a448160158663ffffffff61303516565b9150610a518260016130a7565b15610a9557610a6a6000601a868863ffffffff6130ad16565b9050610a8e8585610a8560006019838563ffffffff6130ad16565b603c018461252a565b9250610abb565b610aa08260026130a7565b15610ab957610a8e60006018868863ffffffff6130ad16565bfe5b505092915050565b6000610adb33600035600160e060020a031916612f1c565b1515610b1e5760408051308152336020820152600160e060020a031960003516818301529051600080516020614b088339815191529181900360600190a1610913565b50602a8054600160a060020a03831673ffffffffffffffffffffffffffffffffffffffff199091161790556001919050565b81610b596130cd565b600160a060020a03167fe5358c187d063c360e67321606a0a2dd8d7fe426d9aa68bb9e853fcf2851d938836040518082815260200191505060405180910390a35050565b84610ba66130cd565b60408051600160a060020a0388811682526020820188905281830187905260608201869052915192909116917fa3bc0f53ddeedcb11a232f5b24300a8fe43af2c2dcc30b46dbc64476e762a1869181900360800190a35050505050565b60008087610c10816130d1565b1515610c2e57610c216132cf61304a565b506132cf60005260206000f35b87610c3881613175565b1580610c4a5750610c488161318c565b155b15610c5457610e53565b87610c5e81613175565b1580610c705750610c6e8161318c565b155b15610c7a57610e51565b87801515610c8757610e4f565b610c996000600463ffffffff6131b216565b6001019450610cb260006025878263ffffffff61322616565b610cc5600060048763ffffffff61323216565b610cd96000600c874263ffffffff61308b16565b610cee6000600587600163ffffffff61308b16565b610d0260006015878f63ffffffff61308b16565b610d1660006006873363ffffffff6132ca16565b610d2a60006009878e63ffffffff61308b16565b610d3e6000600a878d63ffffffff61308b16565b610d526000600b878c63ffffffff61308b16565b610d6660006017878b63ffffffff61308b16565b610d7a60006008878a63ffffffff61308b16565b610d8e6000601b338863ffffffff6132df16565b610d9661309d565b604080517f4256548200000000000000000000000000000000000000000000000000000000815260048101889052602481018f9052336044820152606481018e9052608481018d905260a481018c905260c481018b905260e481018a9052600061010482018190529151600160a060020a0393909316926342565482926101248084019391929182900301818387803b158015610e3257600080fd5b505af1158015610e46573d6000803e3d6000fd5b50505050600195505b505b505b5050509695505050505050565b6000808080808533610e7a8360068463ffffffff61303516565b600160a060020a031614610e93576109476132d061304a565b866001610eb2610eac600060158563ffffffff61303516565b826130a7565b1515610ec357610c216132cf61304a565b610ecc896132eb565b9650610ee1600060158b63ffffffff61303516565b9550610eed86886132ff565b1515610f0557610efe6132cb61304a565b975061109d565b610f0e89611b10565b9450610f23600060078b63ffffffff61303516565b602a54909450600160a060020a03166355f0b76e8a8688610f4d600060068563ffffffff61303516565b6040805160e060020a63ffffffff88160281526004810195909552600160a060020a0393841660248601526044850192909252909116606483015260848201899052600060a48301819052905160c4808401936020939083900390910190829087803b158015610fbc57600080fd5b505af1158015610fd0573d6000803e3d6000fd5b505050506040513d6020811015610fe657600080fd5b5051975060018814610ffb57610efe8861304a565b61101a60268a61100a8c6132eb565b600092919063ffffffff61308b16565b611030600060058b61010063ffffffff61308b16565b61103861309d565b600160a060020a0316639c6e1d468a6040518263ffffffff1660e060020a02815260040180828152602001915050600060405180830381600087803b15801561108057600080fd5b505af1158015611094573d6000803e3d6000fd5b50505050600197505b50505050505050919050565b60006110c133600035600160e060020a031916612f1c565b15156111045760408051308152336020820152600160e060020a031960003516818301529051600080516020614b088339815191529181900360600190a1610913565b5060298054600160a060020a03831673ffffffffffffffffffffffffffffffffffffffff199091161790556001919050565b600061114e33600035600160e060020a031916612f1c565b15156111915760408051308152336020820152600160e060020a031960003516818301529051600080516020614b088339815191529181900360600190a1610913565b6111a4600060028463ffffffff61336116565b506001919050565b600081336111c28360078463ffffffff61303516565b600160a060020a0316146111db576109476132d061304a565b826000806111f18160158563ffffffff61303516565b9150611206600060058563ffffffff61303516565b905061121282826133dd565b15156112235761097b6132cb61304a565b61122c86613429565b5061124160006010884263ffffffff61308b16565b6112566000600588601063ffffffff61308b16565b61125e61309d565b600160a060020a031663a34f74bd87426040518363ffffffff1660e060020a0281526004018083815260200182815260200192505050600060405180830381600087803b1580156112ae57600080fd5b505af11580156112c2573d6000803e3d6000fd5b50505050600194505b50505050919050565b600082336112ea8360078463ffffffff61303516565b600160a060020a031614611303576109476132d061304a565b83600161131c610eac600060158563ffffffff61303516565b151561132d57610c216132cf61304a565b856000806113438160158563ffffffff61303516565b9150611358600060058563ffffffff61303516565b905061136482826133dd565b15156113755761097b6132cb61304a565b61ffff8816151561138557600080fd5b61139d600060168b61ffff8c1663ffffffff61308b16565b6113a561309d565b600160a060020a031663c50e59f48a8a6040518363ffffffff1660e060020a028152600401808381526020018261ffff16815260200192505050600060405180830381600087803b1580156113f957600080fd5b505af115801561140d573d6000803e3d6000fd5b5060019c9b505050505050505050505050565b886114296130cd565b604080518b8152600160a060020a038b811660208301528183018b9052606082018a90526080820189905260a0820188905260c0820187905285151560e0830152915192909116917ebe90d46e792dd8139c7fa5fc3c5094a4617b29079275876030fafdfd99790a918190036101000190a3505050505050505050565b6027805460408051602060026001851615610100026000190190941693909304601f8101849004840282018401909252818152929183018282801561152c5780601f106115015761010080835404028352916020019161152c565b820191906000526020600020905b81548152906001019060200180831161150f57829003601f168201915b505050505081565b6000843361154a8360068463ffffffff61303516565b600160a060020a03161415611564576109476132d061304a565b85600161157d610eac600060158563ffffffff61303516565b151561158e57610c216132cf61304a565b876001806115a5600060058563ffffffff61303516565b146115b55761097b6132cb61304a565b6115c0898989613517565b15156115d8576115d16132c961304a565b95506116de565b6115e18a61357f565b15156115f2576115d16132ca61304a565b611607600060188c338d63ffffffff61365e16565b61161c600060198c338c63ffffffff61365e16565b6116316000601a8c338b63ffffffff61365e16565b61163a8a61367b565b61164261309d565b604080517f1972b464000000000000000000000000000000000000000000000000000000008152600481018d9052336024820152604481018c9052606481018b9052608481018a90529051600160a060020a039290921691631972b4649160a48082019260009290919082900301818387803b1580156116c157600080fd5b505af11580156116d5573d6000803e3d6000fd5b50505050600195505b5050505050949350505050565b6000806117008160078563ffffffff61303516565b905061170c8184610a2e565b91505b50919050565b600080823361172c8360068463ffffffff61303516565b600160a060020a031614611745576109476132d061304a565b83600161175e610eac600060158563ffffffff61303516565b151561176f57610c216132cf61304a565b856000806117858160158563ffffffff61303516565b915061179a600060058563ffffffff61303516565b90506117a682826133dd565b15156117b75761097b6132cb61304a565b886117cb600060168363ffffffff61303516565b15156117e9576117dc6132d161304a565b506132d160005260206000f35b6117fc600060168c63ffffffff61303516565b9750611812600060168c8263ffffffff61308b16565b61181a61309d565b600160a060020a031663aaf2fc088b8a6040518363ffffffff1660e060020a0281526004018083815260200182815260200192505050600060405180830381600087803b15801561186a57600080fd5b505af115801561187e573d6000803e3d6000fd5b5060019d9c50505050505050505050505050565b8161189b6130cd565b60408051600160a060020a038581168252915192909116917fcd1a96dff5c14af15cc6cc02bc309e3abef75468ceced0d0435f20bef5a9db3a9181900360200190a35050565b6118e96130cd565b600160a060020a03167f09e0713b45664e161c202b19bb4574ee83dfa056f9bfdee56847b3971d968221826040518082815260200191505060405180910390a250565b600080808381806119458160158563ffffffff61303516565b915061195a600060058563ffffffff61303516565b905061196682826136bb565b15156119775761097b6132cb61304a565b61198087611b10565b9450611995600060078963ffffffff61303516565b602a54909450600160a060020a03166355f0b76e8886886119bf600060068563ffffffff61303516565b6040805160e060020a63ffffffff88160281526004810195909552600160a060020a0393841660248601526044850192909252909116606483015260848201899052600060a48301819052905160c4808401936020939083900390910190829087803b158015611a2e57600080fd5b505af1158015611a42573d6000803e3d6000fd5b505050506040513d6020811015611a5857600080fd5b5051955060018614611a7457611a6d8661304a565b9550611b06565b611a8360268861100a8a6132eb565b611a99600060058961010063ffffffff61308b16565b611aa161309d565b600160a060020a031663d6495676886040518263ffffffff1660e060020a02815260040180828152602001915050600060405180830381600087803b158015611ae957600080fd5b505af1158015611afd573d6000803e3d6000fd5b50505050600195505b5050505050919050565b600080611b258160158563ffffffff61303516565b9050611b328160016130a7565b15611b4757611b408361374e565b915061170f565b611b528160026130a7565b15610ab957611b4083613995565b81611b696130cd565b600160a060020a03167fd3395eea11df9ed3451acb381c8e8220231eaa3b2ebc7c2cd1e1ab6302f3314f836040518082815260200191505060405180910390a35050565b81611bb66130cd565b600160a060020a03167f572dddcf2d7a6a168606d76d97cac3799945fdd877c6710aa9f283fcd8a42866836040518082815260200191505060405180910390a35050565b60008233611c108360068463ffffffff61303516565b600160a060020a031614611c29576109476132d061304a565b83600180611c40600060058563ffffffff61303516565b14611c505761097b6132cb61304a565b611c6460006018888863ffffffff6130ad16565b1515611c7c57611c756132cc61304a565b9350611e07565b611c9060006007888863ffffffff6132ca16565b611c99866116eb565b3414611ca457600080fd5b602a54604080517fdecfd51b000000000000000000000000000000000000000000000000000000008152600481018990523360248201529051600160a060020a039092169163decfd51b913491604480830192602092919082900301818588803b158015611d1157600080fd5b505af1158015611d25573d6000803e3d6000fd5b50505050506040513d6020811015611d3c57600080fd5b5051935060018414611d4d57600080fd5b611d616000600d884263ffffffff61308b16565b611d766000600588600263ffffffff61308b16565b611d8086866139df565b611d8861309d565b600160a060020a0316638680e52d87876040518363ffffffff1660e060020a0281526004018083815260200182600160a060020a0316600160a060020a0316815260200192505050600060405180830381600087803b158015611dea57600080fd5b505af1158015611dfe573d6000803e3d6000fd5b50505050600193505b50505092915050565b60008133611e268360068463ffffffff61303516565b600160a060020a031614611e3f576109476132d061304a565b826001611e58610eac600060158563ffffffff61303516565b1515611e6957610c216132cf61304a565b84600480611e80600060058563ffffffff61303516565b14611e905761097b6132cb61304a565b611ea56000600589600863ffffffff61308b16565b611eb96000600f894263ffffffff61308b16565b611ec161309d565b600160a060020a031663b7d8b1d988426040518363ffffffff1660e060020a0281526004018083815260200182815260200192505050600060405180830381600087803b158015611ae957600080fd5b80611f1a6130cd565b600160a060020a03167fc81a87bb9e1f6f23054c21dd9959f8aa3b2f86077a49ccac452fadff6731304c60405160405180910390a350565b81611f5b6130cd565b600160a060020a03167f0548c7325a5164931df3aa9329c011dae1da4d2a8d8f263d85a69e5bbf59539e836040518082815260200191505060405180910390a35050565b81611fa86130cd565b600160a060020a03167fe7a7f3d15b44bc59d2ec1229ddb620195d46a685ebddae6745ecb2384115b876836040518082815260200191505060405180910390a35050565b600081336120028360068463ffffffff61303516565b600160a060020a03161461201b576109476132d061304a565b826001612034610eac600060158563ffffffff61303516565b151561204557610c216132cf61304a565b8460108061205c600060058563ffffffff61303516565b1461206c5761097b6132cb61304a565b61208060006011894263ffffffff61308b16565b6120956000600589602063ffffffff61308b16565b61209d61309d565b600160a060020a031663ef29a7e588426040518363ffffffff1660e060020a0281526004018083815260200182815260200192505050600060405180830381600087803b158015611ae957600080fd5b602b54600160a060020a031681565b60008060008061211833600035600160e060020a031916612f1c565b151561215b5760408051308152336020820152600160e060020a031960003516818301529051600080516020614b088339815191529181900360600190a1612439565b866002612174610eac600060158563ffffffff61303516565b151561218557610c216132cf61304a565b8860808061219c600060058563ffffffff61303516565b146121ac5761097b6132cb61304a565b6121bf600060078d63ffffffff61303516565b96506121d5600060188d8a63ffffffff6130ad16565b95506121ea600060068d63ffffffff61303516565b945060008a11156122ce57602a54604080517f55f0b76e000000000000000000000000000000000000000000000000000000008152600481018e9052600160a060020a038a81166024830152604482018e9052888116606483015260006084830181905260a483018e905292519316926355f0b76e9260c480840193602093929083900390910190829087803b15801561228357600080fd5b505af1158015612297573d6000803e3d6000fd5b505050506040513d60208110156122ad57600080fd5b50519750600188146122c9576122c28861304a565b9750612434565b61239a565b602a54604080517f55f0b76e000000000000000000000000000000000000000000000000000000008152600481018e9052600160a060020a0388811660248301819052604483018b9052606483015260006084830181905260a483018e905292519316926355f0b76e9260c480840193602093929083900390910190829087803b15801561235b57600080fd5b505af115801561236f573d6000803e3d6000fd5b505050506040513d602081101561238557600080fd5b505197506001881461239a576122c28861304a565b6123a960268c61100a8e6132eb565b6123bf600060058d61010063ffffffff61308b16565b6123c761309d565b600160a060020a0316638dfa95f48c426040518363ffffffff1660e060020a0281526004018083815260200182815260200192505050600060405180830381600087803b15801561241757600080fd5b505af115801561242b573d6000803e3d6000fd5b50505050600197505b505050505b5050509392505050565b8161244c6130cd565b600160a060020a03167f799a32325be3cd39f977d4cc026272cc3dd97d9dd46c5751c7c9900d9f1ffcdf836040518082815260200191505060405180910390a35050565b816124996130cd565b600160a060020a03167f63efc44d4747c4669c8be4f317453622684e7daab7cf5772795e6413a40c26dd836040518082815260200191505060405180910390a35050565b816124e66130cd565b600160a060020a03167f79a83e3beb9634ee6139429283222d680b93ea043c2ff1871edefcacafc06283836040518082815260200191505060405180910390a35050565b600080612540816018878963ffffffff6130ad16565b9050600a600b858302850102049695505050505050565b816125606130cd565b600160a060020a03167f8cd445c80d0841aae8f229eddbed0de5befd5ff6fc2ca0510ee0621f5d6d5bef836040518082815260200191505060405180910390a35050565b816125ad6130cd565b600160a060020a03167fe633624d3f31882d5f69373f4eaf1fc339ca5f5d499f1940cd2c9adde1d0c031836040518082815260200191505060405180910390a35050565b600081336126078360068463ffffffff61303516565b600160a060020a031614612620576109476132d061304a565b826002612639610eac600060158563ffffffff61303516565b151561264a57610c216132cf61304a565b84601080612661600060058563ffffffff61303516565b146126715761097b6132cb61304a565b61268560006011894263ffffffff61308b16565b61269a6000600589604063ffffffff61308b16565b6126a261309d565b600160a060020a0316630a3d1ca488426040518363ffffffff1660e060020a0281526004018083815260200182815260200192505050600060405180830381600087803b158015611ae957600080fd5b806126fb6130cd565b600160a060020a03167fdf20fd1e76bc69d672e4814fafb2c449bba3a5369d8359adf9e05e6fde87b05660405160405180910390a350565b600081336127498360068463ffffffff61303516565b600160a060020a031614612762576109476132d061304a565b82600261277b610eac600060158563ffffffff61303516565b151561278c57610c216132cf61304a565b846010806127a3600060058563ffffffff61303516565b146127b35761097b6132cb61304a565b6127c760006011894263ffffffff61308b16565b6127dc6000600589608063ffffffff61308b16565b6127e461309d565b600160a060020a0316638db210dc88426040518363ffffffff1660e060020a0281526004018083815260200182815260200192505050600060405180830381600087803b158015611ae957600080fd5b600061284c33600035600160e060020a031916612f1c565b151561288f5760408051308152336020820152600160e060020a031960003516818301529051600080516020614b088339815191529181900360600190a161289a565b612897613a55565b90505b90565b816128a66130cd565b600160a060020a03167fd2672b89fe222769587124bc5274449842976e105b59c8769578bd1cd4da72e4836040518082815260200191505060405180910390a35050565b600061290233600035600160e060020a031916612f1c565b15156129455760408051308152336020820152600160e060020a031960003516818301529051600080516020614b088339815191529181900360600190a1610913565b50602b8054600160a060020a03831673ffffffffffffffffffffffffffffffffffffffff199091161790556001919050565b826129806130cd565b60408051600160a060020a0386811682526020820186905282519316927f271fcf1e587075053a24de13909c1c666d6b58fae99f299cfbc3fb1696bc2c1a929181900390910190a3505050565b816129d66130cd565b600160a060020a03167fca4a8dc0f20a95e32a83e0e73d9c75cbbdd5d691b99484161abb77f788d2f8d9836040518082815260200191505060405180910390a35050565b602a54600160a060020a031681565b60008233612a3f8360068463ffffffff61303516565b600160a060020a03161415612a59576109476132d061304a565b836002612a72610eac600060158563ffffffff61303516565b1515612a8357610c216132cf61304a565b85600180612a9a600060058563ffffffff61303516565b14612aaa5761097b6132cb61304a565b60008711612ab757600080fd5b612ac08861357f565b1515612ad857612ad16132ca61304a565b9550612b8c565b612aed600060188a338b63ffffffff61365e16565b612af68861367b565b612afe61309d565b604080517feca52767000000000000000000000000000000000000000000000000000000008152600481018b9052336024820152604481018a90529051600160a060020a03929092169163eca527679160648082019260009290919082900301818387803b158015612b6f57600080fd5b505af1158015612b83573d6000803e3d6000fd5b50505050600195505b505050505092915050565b6000808333612bae8360068463ffffffff61303516565b600160a060020a031614612bc7576109476132d061304a565b846001612be0610eac600060158563ffffffff61303516565b1515612bf157610c216132cf61304a565b86600080612c078160158563ffffffff61303516565b9150612c1c600060058563ffffffff61303516565b9050612c2882826133dd565b1515612c395761097b6132cb61304a565b89612c4d600060168363ffffffff61303516565b1515612c5e576117dc6132d161304a565b612c71600060168d63ffffffff61303516565b975061ffff808916908b1614612c9357612c8c6132d261304a565b9850612d35565b612c9d8b8b61404c565b1515612ca857600080fd5b612cbc600060168d8263ffffffff61308b16565b612cc461309d565b600160a060020a031663bdeeea558c8c6040518363ffffffff1660e060020a028152600401808381526020018261ffff16815260200192505050600060405180830381600087803b158015612d1857600080fd5b505af1158015612d2c573d6000803e3d6000fd5b50505050600198505b505050505050505092915050565b60008133612d598360078463ffffffff61303516565b600160a060020a031614612d72576109476132d061304a565b82600080612d888160158563ffffffff61303516565b9150612d9d600060058563ffffffff61303516565b9050612da982826133dd565b1515612dba5761097b6132cb61304a565b612dcd600060128863ffffffff61416e16565b15612de457612ddd6132cd61304a565b94506112cb565b612df96000601288600163ffffffff61322616565b612e0d60006013884263ffffffff61308b16565b612e1561309d565b600160a060020a031663c26d0c2c87426040518363ffffffff1660e060020a0281526004018083815260200182815260200192505050600060405180830381600087803b1580156112ae57600080fd5b60008133612e7b8360078463ffffffff61303516565b600160a060020a031614612e94576109476132d061304a565b82600080612eaa8160158563ffffffff61303516565b9150612ebf600060058563ffffffff61303516565b9050612ecb82826133dd565b1515612edc5761097b6132cb61304a565b612ee586613429565b9450600185146112cb57612ddd8561304a565b602854600090600160a060020a0316801515612f145730612f16565b805b91505090565b6000600160a060020a038316301415612f3757506001612ffe565b602954600160a060020a03161515612f5157506000612ffe565b602954604080517fb7009613000000000000000000000000000000000000000000000000000000008152600160a060020a038681166004830152306024830152600160e060020a0319861660448301529151919092169163b70096139160648083019260209291908290030181600087803b158015612fcf57600080fd5b505af1158015612fe3573d6000803e3d6000fd5b505050506040513d6020811015612ff957600080fd5b505190505b92915050565b60288054600160a060020a03831673ffffffffffffffffffffffffffffffffffffffff199091161790556001919050565b600061304284848461417b565b949350505050565b6000803411156130825760405133903480156108fc02916000818181858888f19350505050158015613080573d6000803e3d6000fd5b505b612ffe8261428b565b613097848484846142fb565b50505050565b6000612897612ef8565b16151590565b60006130c4858585600160a060020a0386166143fe565b95945050505050565b3390565b60007f7fffffffffffffffffffffffffffffffffffffffffffffffffffffffffffffff821660ff60020a83168261310783613175565b8015613114575060028311155b15156131235760009350610a26565b82600114801561313c575061313c60ff60020a8361448c565b806131585750826002148015613158575061315860008361448c565b905080151561316a5760009350610a26565b506001949350505050565b60008115801590612ffe5750506000198101161590565b7faaaaaaaaaaaaaaaaaaaaaaaaaaaaaaaaaaaaaaaaaaaaaaaaaaaaaaaaaaaaaaaa161590565b815460018301548254604080517f53aa3f5e0000000000000000000000000000000000000000000000000000000081526004810193909352602483019190915251600092600160a060020a0316916353aa3f5e91604480830192602092919082900301818787803b158015612fcf57600080fd5b61309784848484614493565b825460018401548354604080517f53e7168b000000000000000000000000000000000000000000000000000000008152600481019390935260248301919091526044820184905251600160a060020a03909216916353e7168b9160648082019260009290919082900301818387803b1580156132ad57600080fd5b505af11580156132c1573d6000803e3d6000fd5b50505050505050565b613097848484600160a060020a0385166142fb565b61309784848484614579565b6000612ffe8160058463ffffffff61303516565b6000806002831415613314576001915061335a565b6004831415613326576001915061335a565b6008831415613338576001915061335a565b5060ff60020a83161580159081906133505750601083145b1561335a57600191505b5092915050565b825460018401548354604080517f79a7cfee00000000000000000000000000000000000000000000000000000000815260048101939093526024830191909152600160a060020a03848116604484015290519216916379a7cfee9160648082019260009290919082900301818387803b1580156132ad57600080fd5b600060ff60020a83161580159081906133f65750600883145b15613404576001915061335a565b80158015613350575060048314806133505750600883141561335a576001915061335a565b600061343d8160128463ffffffff61416e16565b151561344c57506132ce610913565b61346060006012848263ffffffff61322616565b61349f601483613479600060138363ffffffff61303516565b420361348e600060148863ffffffff61303516565b60009392910163ffffffff61308b16565b6134a761309d565b600160a060020a031663b633d27283426040518363ffffffff1660e060020a0281526004018083815260200182815260200192505050600060405180830381600087803b1580156134f757600080fd5b505af115801561350b573d6000803e3d6000fd5b50600195945050505050565b6000808080861580613527575085155b156135355760009350612439565b60009250600191505b603c8601821161356857508186018281101561355d5760009350612439565b91506001018161353e565b82600a86820104600b021193505050509392505050565b602b54600090600160a060020a0316631e0b8c87336135a68460098763ffffffff61303516565b6135b96000600a8863ffffffff61303516565b6135cc6000600b8963ffffffff61303516565b6040518563ffffffff1660e060020a0281526004018085600160a060020a0316600160a060020a03168152602001848152602001838152602001828152602001945050505050602060405180830381600087803b15801561362c57600080fd5b505af1158015613640573d6000803e3d6000fd5b505050506040513d602081101561365657600080fd5b505192915050565b613674858585600160a060020a03861685614585565b5050505050565b61368f6000601e338463ffffffff6132df16565b6136a360006021833363ffffffff61461016565b6136b86000602483334263ffffffff61365e16565b50565b600060ff60020a831615157f7fffffffffffffffffffffffffffffffffffffffffffffffffffffffffffffff84166001811415613733578180156136ff5750602084145b1561370d5760019250610abb565b81158015613725575060108414806137255750602084145b156137335760019250610abb565b6002811415610abb576040841415610abb5760019250610abb565b60008080808080806137688160078a63ffffffff61303516565b9550613773886132eb565b9450613788600060158a63ffffffff61303516565b935060ff60020a84161515925061379f84866136bb565b156138f4576137b8600060198a8963ffffffff6130ad16565b603c90810192506137d2600060148b63ffffffff61303516565b846137ef576137ea6000600e8c63ffffffff61303516565b613802565b6138026000600f8c63ffffffff61303516565b8561381f5761381a600060108d63ffffffff61303516565b613832565b613832600060118d63ffffffff61303516565b030381151561383d57fe5b049050603c811180156138505750818111155b15613887576138696000601a8a8963ffffffff6130ad16565b61387d600060188b8a63ffffffff6130ad16565b820201965061398a565b818111156138c1576138a36000601a8a8963ffffffff6130ad16565b6138b7600060188b8a63ffffffff6130ad16565b830201965061398a565b6138d56000601a8a8963ffffffff6130ad16565b6138e9600060188b8a63ffffffff6130ad16565b603c0201965061398a565b600885148061390c57508215801561390c5750600485145b8061391f575082801561391f5750601085145b1561395757613938600060188a8963ffffffff6130ad16565b603c0261394f6000601a8b8a63ffffffff6130ad16565b01965061398a565b600285148061396e575082801561396e5750600485145b1561398a576139876000601a8a8963ffffffff6130ad16565b96505b505050505050919050565b600080806139ab8160078663ffffffff61303516565b91506139b6846132eb565b905060408114156139d8576139d560006018868563ffffffff6130ad16565b92505b5050919050565b600080806139f58160218763ffffffff61462516565b9250600091505b8282101561367457613a1860006021878563ffffffff61463216565b9050600160a060020a0380821690851614613a4a57613a4a6000601e600160a060020a0384168863ffffffff61464016565b8160010191506139fc565b6000613a8860027f626f617264436f6e74726f6c6c6572000000000000000000000000000000000063ffffffff61464c16565b613ab960037f657363726f77416464726573730000000000000000000000000000000000000063ffffffff61464c16565b613aea60047f6a6f6273436f756e74000000000000000000000000000000000000000000000063ffffffff61464c16565b613b1b60057f6a6f62537461746500000000000000000000000000000000000000000000000063ffffffff61465c16565b613b4c60067f6a6f62436c69656e74000000000000000000000000000000000000000000000063ffffffff61465c16565b613b7d60077f6a6f62576f726b6572000000000000000000000000000000000000000000000063ffffffff61465c16565b613bae60087f6a6f6244657461696c734950465348617368000000000000000000000000000063ffffffff61465c16565b613bdf60097f6a6f62536b696c6c73417265610000000000000000000000000000000000000063ffffffff61465c16565b613c10600a7f6a6f62536b696c6c7343617465676f727900000000000000000000000000000063ffffffff61465c16565b613c41600b7f6a6f62536b696c6c73000000000000000000000000000000000000000000000063ffffffff61465c16565b613c72600c7f6a6f62437265617465644174000000000000000000000000000000000000000063ffffffff61465c16565b613ca3600d7f6a6f62416363657074656441740000000000000000000000000000000000000063ffffffff61465c16565b613cd4600e7f6a6f6250656e64696e675374617274417400000000000000000000000000000063ffffffff61465c16565b613d05600f7f6a6f62537461727454696d65000000000000000000000000000000000000000063ffffffff61465c16565b613d3660107f6a6f6250656e64696e6746696e6973684174000000000000000000000000000063ffffffff61465c16565b613d6760117f6a6f6246696e69736854696d650000000000000000000000000000000000000063ffffffff61465c16565b613d9860127f6a6f62506175736564000000000000000000000000000000000000000000000063ffffffff61465c16565b613dc960137f6a6f62506175736564417400000000000000000000000000000000000000000063ffffffff61465c16565b613dfa60147f6a6f62506175736564466f72000000000000000000000000000000000000000063ffffffff61465c16565b613e2b60157f6a6f62576f726b666c6f7754797065000000000000000000000000000000000063ffffffff61465c16565b613e5c60167f6a6f6252657175657374656454696d650000000000000000000000000000000063ffffffff61465c16565b613e8d60177f6a6f6244656661756c745061790000000000000000000000000000000000000063ffffffff61465c16565b613ebe60187f6a6f624f6666657252617465000000000000000000000000000000000000000063ffffffff61465c16565b613eef60197f6a6f624f66666572457374696d6174650000000000000000000000000000000063ffffffff61465c16565b613f20601a7f6a6f624f666665724f6e746f700000000000000000000000000000000000000063ffffffff61465c16565b613f5160267f6a6f6246696e616c697a6564417400000000000000000000000000000000000063ffffffff61465c16565b613f82601b7f636c69656e744a6f62730000000000000000000000000000000000000000000063ffffffff61466a16565b613fb3601e7f776f726b65724a6f62730000000000000000000000000000000000000000000063ffffffff61466a16565b613fe460217f6a6f624f6666657273000000000000000000000000000000000000000000000063ffffffff61466a16565b61401560247f6a6f624f66666572506f7374656441740000000000000000000000000000000063ffffffff61465c16565b61404660257f62696e645374617475730000000000000000000000000000000000000000000063ffffffff61465c16565b50600190565b600080614058846116eb565b90506140b3601985614073600060078363ffffffff61303516565b61ffff87166140a160198a614091600060078363ffffffff61303516565b600092919063ffffffff6130ad16565b6000949392910163ffffffff61365e16565b34816140be866116eb565b03146140c957600080fd5b602a54604080517fdecfd51b000000000000000000000000000000000000000000000000000000008152600481018790523360248201529051600160a060020a039092169163decfd51b913491604480830192602092919082900301818588803b15801561413657600080fd5b505af115801561414a573d6000803e3d6000fd5b50505050506040513d602081101561416157600080fd5b5051600114949350505050565b6000613042848484614674565b825460018401548354604080516020808201939093528082018690528151808203830181526060909101918290528051600095600160a060020a0316946337d9d7fc9490939182918401908083835b602083106141e95780518252601f1990920191602091820191016141ca565b51815160209384036101000a60001901801990921691161790526040805192909401829003822063ffffffff891660e060020a028352600483019790975260248201969096529151604480840196955090935091839003909101905081600087803b15801561425757600080fd5b505af115801561426b573d6000803e3d6000fd5b505050506040513d602081101561428157600080fd5b5051949350505050565b6000614295612ef8565b600160a060020a0316638834277e836040518263ffffffff1660e060020a02815260040180828152602001915050600060405180830381600087803b1580156142dd57600080fd5b505af11580156142f1573d6000803e3d6000fd5b5093949350505050565b835460018501548454604080516020808201939093528082018790528151808203830181526060909101918290528051600160a060020a039095169463a14ff85794939192918291908401908083835b6020831061436a5780518252601f19909201916020918201910161434b565b5181516020939093036101000a60001901801990911692169190911790526040805191909301819003812063ffffffff881660e060020a02825260048201969096526024810195909552506044840187905251606480850194600094509192509082900301818387803b1580156143e057600080fd5b505af11580156143f4573d6000803e3d6000fd5b5050505050505050565b60408051602080820185905281830184905282518083038401815260609092019283905281516000936130c4938993899391929182918401908083835b6020831061445a5780518252601f19909201916020918201910161443b565b6001836020036101000a038019825116818451168082178552505050505050905001915050604051809103902061417b565b9081161490565b835460018501548454604080516020808201939093528082018790528151808203830181526060909101918290528051600160a060020a039095169463f0f53ee494939192918291908401908083835b602083106145025780518252601f1990920191602091820191016144e3565b5181516020939093036101000a60001901801990911692169190911790526040805191909301819003812063ffffffff881660e060020a0282526004820196909652602481019590955250861515604485015251606480850194600094509192509082900301818387803b1580156143e057600080fd5b613097848484846146e1565b60408051602080820186905281830185905282518083038401815260609092019283905281516136749389938993909282918401908083835b602083106145dd5780518252601f1990920191602091820191016145be565b6001836020036101000a0380198251168184511680821785525050505050509050019150506040518091039020846142fb565b613097848484600160a060020a038516614579565b6000613042848484614735565b60006130c485858585614742565b61309784848484614750565b8154614658908261475c565b9055565b614666828261464c565b5050565b6146668282614772565b825460018401548354604080516020808201939093528082018690528151808203830181526060909101918290528051600095600160a060020a0316946398eaf11c949093918291840190808383602083106141e95780518252601f1990920191602091820191016141ca565b60006146ef8585858561477c565b156146f957613674565b614704858585614798565b60010190506147198560028601858486614585565b6147298560018601858585614585565b613674858585846147a5565b6000613042848484614798565b60006130c485858585614813565b61309784848484614827565b81151580614768575080155b1561466657600080fd5b61466682826148cc565b600061478d858560010185856143fe565b151595945050505050565b6000613042848484614a67565b835460018501548454604080516020808201939093528082018790528151808203830181526060909101918290528051600160a060020a03909516946353e7168b94939192918291908401908083836020831061436a5780518252601f19909201916020918201910161434b565b60006130c4856002860185600186016143fe565b60008060006148388787878761477c565b1515614843576132c1565b61484e878787614798565b925061485f876002880187866143fe565b9150614870878760010187876143fe565b90508281101561489a5761488a8760018801878585614585565b61489a8760028801878486614585565b6148ab876001880187876000614585565b6148bc876002880187866000614585565b6132c187878760001987016147a5565b6040805160208082018490527f636f756e740000000000000000000000000000000000000000000000000000008284015282516025818403018152604590920192839052815161497593869392909182918401908083835b602083106149435780518252601f199092019160209182019101614924565b6001836020036101000a038019825116818451168082178552505050505050905001915050604051809103902061464c565b6040805160208082018490527f696e646578657300000000000000000000000000000000000000000000000000828401528251602781840301815260479092019283905281516149ee9360018701939290918291840190808383602083106149435780518252601f199092019160209182019101614924565b6040805160208082018490527f76616c7565730000000000000000000000000000000000000000000000000000828401528251602681840301815260469092019283905281516146669360028701939290918291840190808383602083106149435780518252601f199092019160209182019101614924565b825460018401548354604080516020808201939093528082018690528151808203830181526060909101918290528051600095600160a060020a0316946353aa3f5e949093918291840190808383602083106141e95780518252601f1990920191602091820191016141ca565b825473ffffffffffffffffffffffffffffffffffffffff1916600160a060020a039290921691909117825560019091015556005133a133185f1023427a2e90f18506b27db994977ce0c0faafd514a7dd109ae0a165627a7a723058208d1a5fa89be19a6660db6990f6fcfa8201d102ee14c740d801f97cffb67356a10029",
  "source": "/**\n * Copyright 20172018, LaborX PTY\n * Licensed under the AGPL Version 3 license.\n */\n\npragma solidity ^0.4.21;\n\n\nimport \"solidity-storage-lib/contracts/StorageAdapter.sol\";\nimport \"solidity-roles-lib/contracts/Roles2LibraryAdapter.sol\";\nimport \"solidity-eventshistory-lib/contracts/MultiEventsHistoryAdapter.sol\";\nimport \"./base/BitOps.sol\";\nimport \"./JobDataCore.sol\";\n\n\ncontract UserLibraryInterface {\n    function hasSkills(address _user, uint _area, uint _category, uint _skills) public view returns (bool);\n}\n\n\ncontract PaymentProcessorInterface {\n    function lockPayment(bytes32 _operationId, address _from) public payable returns (uint);\n    function releasePayment(\n        bytes32 _operationId, \n        address _to, \n        uint _value, \n        address _change, \n        uint _feeFromValue, \n        uint _additionalFee\n        ) \n        public \n        returns (uint);\n}\n\n\ncontract JobController is JobDataCore, MultiEventsHistoryAdapter, Roles2LibraryAdapter {\n\n    uint constant JOB_CONTROLLER_SCOPE = 13000;\n    uint constant JOB_CONTROLLER_INVALID_ESTIMATE = JOB_CONTROLLER_SCOPE + 1;\n    uint constant JOB_CONTROLLER_INVALID_SKILLS = JOB_CONTROLLER_SCOPE + 2;\n    uint constant JOB_CONTROLLER_INVALID_STATE = JOB_CONTROLLER_SCOPE + 3;\n    uint constant JOB_CONTROLLER_WORKER_RATE_NOT_SET = JOB_CONTROLLER_SCOPE + 4;\n    uint constant JOB_CONTROLLER_WORK_IS_ALREADY_PAUSED = JOB_CONTROLLER_SCOPE + 5;\n    uint constant JOB_CONTROLLER_WORK_IS_NOT_PAUSED = JOB_CONTROLLER_SCOPE + 6;\n    uint constant JOB_CONTROLLER_INVALID_WORKFLOW_TYPE = JOB_CONTROLLER_SCOPE + 7;\n    uint constant JOB_CONTROLLER_INVALID_ROLE = JOB_CONTROLLER_SCOPE + 8;\n    uint constant JOB_CONTROLLER_NO_TIME_REQUEST_SUBMITTED = JOB_CONTROLLER_SCOPE + 9;\n    uint constant JOB_CONTROLLER_INCORRECT_TIME_PROVIDED = JOB_CONTROLLER_SCOPE + 10;\n\n\n    event JobPosted(address indexed self, uint indexed jobId, bytes32 flowType, address client, uint skillsArea, uint skillsCategory, uint skills, uint defaultPay, bytes32 detailsIPFSHash, bool bindStatus);\n    event JobOfferPosted(address indexed self, uint indexed jobId, address worker, uint rate, uint estimate, uint ontop);\n    event JobOfferPosted(address indexed self, uint indexed jobId, address worker, uint price);\n    event JobOfferAccepted(address indexed self, uint indexed jobId, address worker);\n    event StartWorkRequested(address indexed self, uint indexed jobId, uint at);\n    event WorkStarted(address indexed self, uint indexed jobId, uint at);\n    event TimeRequestSubmitted(address indexed self, uint indexed jobId, uint time);  // Additional `time` in minutes\n    event TimeRequestAccepted(address indexed self, uint indexed jobId, uint time);\n    event TimeRequestRejected(address indexed self, uint indexed jobId, uint time);\n    event WorkPaused(address indexed self, uint indexed jobId, uint at);\n    event WorkResumed(address indexed self, uint indexed jobId, uint at);\n    event EndWorkRequested(address indexed self, uint indexed jobId, uint at);\n    event WorkFinished(address indexed self, uint indexed jobId, uint at);\n    event WorkAccepted(address indexed self, uint indexed jobId, uint at);\n    event WorkRejected(address indexed self, uint indexed jobId, uint at);\n    event WorkDisputeResolved(address indexed self, uint indexed jobId, uint at);\n    event PaymentReleased(address indexed self, uint indexed jobId);\n    event JobCanceled(address indexed self, uint indexed jobId);\n\n    PaymentProcessorInterface public paymentProcessor;\n    UserLibraryInterface public userLibrary;\n\n    modifier onlyClient(uint _jobId) {\n        if (store.get(jobClient, _jobId) != msg.sender) {\n            _emitErrorCode(JOB_CONTROLLER_INVALID_ROLE);\n            assembly {\n                mstore(0, 13008) // JOB_CONTROLLER_INVALID_ROLE\n                return(0, 32)\n            }\n        }\n        _;\n    }\n\n    modifier onlyWorker(uint _jobId) {\n        if (store.get(jobWorker, _jobId) != msg.sender) {\n            _emitErrorCode(JOB_CONTROLLER_INVALID_ROLE);\n            assembly {\n                mstore(0, 13008) // JOB_CONTROLLER_INVALID_ROLE\n                return(0, 32)\n            }\n        }\n        _;\n    }\n\n    modifier onlyNotClient(uint _jobId) {\n        if (store.get(jobClient, _jobId) == msg.sender) {\n            _emitErrorCode(JOB_CONTROLLER_INVALID_ROLE);\n            assembly {\n                mstore(0, 13008) // JOB_CONTROLLER_INVALID_ROLE\n                return(0, 32)\n            }\n        }\n        _;\n    }\n\n    modifier onlyJobState(uint _jobId, uint _jobState) {\n        if (store.get(jobState, _jobId) != _jobState) {\n            _emitErrorCode(JOB_CONTROLLER_INVALID_STATE);\n            assembly {\n                mstore(0, 13003) // JOB_CONTROLLER_INVALID_STATE\n                return(0, 32)\n            }\n        }\n        _;\n    }\n\n    modifier onlyValidWorkflow(uint _flowType) {\n        if (!_isValidFlow(_flowType)) {\n            _emitErrorCode(JOB_CONTROLLER_INVALID_WORKFLOW_TYPE);\n            assembly {\n                mstore(0, 13007) // JOB_CONTROLLER_INVALID_WORKFLOW_TYPE\n                return(0, 32)\n            }\n        }\n        _;\n    }\n\n    modifier onlyFlow(uint _jobId, uint _flowTypeGroup) {\n        _flowTypeGroup = _flowTypeGroup & ~WORKFLOW_FEATURE_FLAGS;\n        if (!_hasFlag(store.get(jobWorkflowType, _jobId), _flowTypeGroup)) {\n            _emitErrorCode(JOB_CONTROLLER_INVALID_WORKFLOW_TYPE);\n            assembly {\n                mstore(0, 13007) // JOB_CONTROLLER_INVALID_WORKFLOW_TYPE\n                return(0, 32)\n            }\n        }\n        _;\n    }\n\n    modifier onlyStartedState(uint _jobId) {\n        uint _flow = store.get(jobWorkflowType, _jobId);\n        uint _jobState = store.get(jobState, _jobId);\n        if (!_isStartedStateForFlow(_flow, _jobState)) {\n            _emitErrorCode(JOB_CONTROLLER_INVALID_STATE);\n            assembly {\n                mstore(0, 13003) // JOB_CONTROLLER_INVALID_STATE\n                return(0, 32)\n            }\n        }\n\n        _;\n    }\n\n    modifier onlyFinishedState(uint _jobId) {\n        uint _flow = store.get(jobWorkflowType, _jobId);\n        uint _jobState = store.get(jobState, _jobId);\n        if (!_isFinishedStateForFlow(_flow, _jobState)) {\n            _emitErrorCode(JOB_CONTROLLER_INVALID_STATE);\n            assembly {\n                mstore(0, 13003) // JOB_CONTROLLER_INVALID_STATE\n                return(0, 32)\n            }\n        }\n        _;\n    }\n\n    modifier onlyWithSubmittedRequest(uint _jobId) {\n        if (store.get(jobRequestedAdditionalTime, _jobId) == 0) {\n            _emitErrorCode(JOB_CONTROLLER_NO_TIME_REQUEST_SUBMITTED);\n            assembly {\n                mstore(0, 13009) // JOB_CONTROLLER_NO_TIME_REQUEST_SUBMITTED\n                return(0, 32)\n            }\n        }\n        _;\n    }\n\n    constructor(\n        Storage _store,\n        bytes32 _crate,\n        address _roles2Library\n    )\n    JobDataCore(_store, _crate)\n    Roles2LibraryAdapter(_roles2Library)\n    public\n    {\n    }\n\n    function init() auth external returns (uint) {\n        return JobDataCore._init();\n    }\n\n    function setupEventsHistory(address _eventsHistory) auth external returns (uint) {\n        require(_eventsHistory != 0x0);\n\n        _setEventsHistory(_eventsHistory);\n        return OK;\n    }\n\n    /// @notice Sets contract address that satisfies BoardControllerAccessor interface\n    function setBoardController(address _boardController) auth external returns (uint) {\n        store.set(boardController, _boardController);\n        return OK;\n    }\n\n    function setPaymentProcessor(PaymentProcessorInterface _paymentProcessor) auth external returns (uint) {\n        paymentProcessor = _paymentProcessor;\n        return OK;\n    }\n\n    function setUserLibrary(UserLibraryInterface _userLibrary) auth external returns (uint) {\n        userLibrary = _userLibrary;\n        return OK;\n    }\n\n    function calculateLock(address worker, uint _jobId, uint _time, uint _onTop) public view returns (uint) {\n        // Lock additional working hour + 10% of resulting amount\n        uint rate = store.get(jobOfferRate, _jobId, worker);\n        return ((rate * (_time) + _onTop) * 11) / 10;\n    }\n\n    function calculateLockAmount(uint _jobId) public view returns (uint) {\n        address worker = store.get(jobWorker, _jobId);\n        // Lock additional working hour + 10% of resulting amount\n        return calculateLockAmountFor(worker, _jobId);\n    }\n\n    function calculateLockAmountFor(address worker, uint _jobId) public view returns (uint) {\n        uint _flow = store.get(jobWorkflowType, _jobId);\n        if (_hasFlag(_flow, WORKFLOW_TM)) {\n            uint onTop = store.get(jobOfferOntop, _jobId, worker);\n            return calculateLock(worker, _jobId, store.get(jobOfferEstimate, _jobId, worker) + 60, onTop);\n        } else if (_hasFlag(_flow, WORKFLOW_FIXED_PRICE)) {\n            return store.get(jobOfferRate, _jobId, worker);\n        }\n\n        assert(false); // NOTE: need to update; other types of workflow is not supported right now\n    }\n\n    function calculatePaycheck(uint _jobId) public view returns (uint) {\n        uint _flow = store.get(jobWorkflowType, _jobId);\n\n        if (_hasFlag(_flow, WORKFLOW_TM)) {\n            return _calculatePaycheckForTM(_jobId);\n        } else if (_hasFlag(_flow, WORKFLOW_FIXED_PRICE)) {\n            return _calculatePaycheckForFixedPrice(_jobId);\n        }\n\n        assert(false); /// NOTE: need to update; other types of workflow is not supported right now\n    }\n\n    function _calculatePaycheckForTM(uint _jobId) private view returns (uint) {\n        address worker = store.get(jobWorker, _jobId);\n        uint _jobState = _getJobState(_jobId);\n        uint _flow = store.get(jobWorkflowType, _jobId);\n        bool _needsConfirmation = (_flow & WORKFLOW_CONFIRMATION_NEEDED_FLAG) != 0;\n        if (_isFinishedStateForFlow(_flow, _jobState)) {\n            // Means that participants have agreed on job completion,\n            // reward should be calculated depending on worker's time spent.\n            uint maxEstimatedTime = store.get(jobOfferEstimate, _jobId, worker) + 60;\n            uint timeSpent = ((_needsConfirmation ? store.get(jobFinishTime, _jobId) : store.get(jobPendingFinishAt, _jobId)) -\n                            (_needsConfirmation ? store.get(jobStartTime, _jobId) : store.get(jobPendingStartAt, _jobId)) -\n                            store.get(jobPausedFor, _jobId)) / 60;\n            if (timeSpent > 60 && timeSpent <= maxEstimatedTime) {\n                // Worker was doing the job for more than an hour, but less then\n                // maximum estimated working time. Release money for the time\n                // he has actually worked + \"on top\" expenses.\n                return timeSpent * store.get(jobOfferRate, _jobId, worker) +\n                       store.get(jobOfferOntop, _jobId, worker);\n\n            } else if (timeSpent > maxEstimatedTime) {\n                // Means worker has gone over maximum estimated time and hasnt't\n                // requested more time, which is his personal responsibility, since\n                // we're already giving workers additional working hour from start.\n                // So we release money for maximum estimated working time + \"on top\".\n                return maxEstimatedTime * store.get(jobOfferRate, _jobId, worker) +\n                       store.get(jobOfferOntop, _jobId, worker);\n\n            } else {\n                // Worker has completed the job within just an hour, so we\n                // release money for the minumum 1 working hour + \"on top\".\n                return 60 * store.get(jobOfferRate, _jobId, worker) +\n                       store.get(jobOfferOntop, _jobId, worker);\n            }\n        } else if (\n            _jobState == JOB_STATE_STARTED ||\n            (!_needsConfirmation && _jobState == JOB_STATE_PENDING_START) ||\n            (_needsConfirmation && _jobState == JOB_STATE_PENDING_FINISH)\n        ) {\n            // Job has been canceled right after start or right before completion,\n            // minimum of 1 working hour + \"on top\" should be released.\n            return store.get(jobOfferOntop, _jobId, worker) +\n                   store.get(jobOfferRate, _jobId, worker) * 60;\n        } else if (\n            _jobState == JOB_STATE_OFFER_ACCEPTED ||\n            (_needsConfirmation && _jobState == JOB_STATE_PENDING_START)\n        ) {\n            // Job hasn't even started yet, but has been accepted,\n            // release just worker \"on top\" expenses.\n            return store.get(jobOfferOntop, _jobId, worker);\n        }\n    }\n\n    function _calculatePaycheckForFixedPrice(uint _jobId) private view returns (uint) {\n        address worker = store.get(jobWorker, _jobId);\n        uint _jobState = _getJobState(_jobId);\n\n        if (_jobState == JOB_STATE_WORK_ACCEPTED) {\n            return store.get(jobOfferRate, _jobId, worker);\n        }\n    }\n\n    function _isValidEstimate(uint _rate, uint _estimate, uint _ontop) internal pure returns (bool) {\n        if (_rate == 0 || _estimate == 0) {\n            return false;\n        }\n        uint prev = 0;\n        for (uint i = 1; i <= _estimate + 60; i++) {\n            uint curr = prev + _rate;\n            if (curr < prev) {\n                return false;\n            }\n            prev = curr;\n        }\n        return ((prev + _ontop) / 10) * 11 > prev;\n    }\n\n    /// @notice Creates and posts a new job to a job marketplace\n    /// @param _flowType see WorkflowType\n    function postJob(\n        uint _flowType,\n        uint _area,\n        uint _category,\n        uint _skills,\n        uint _defaultPay,\n        bytes32 _detailsIPFSHash\n    )\n    onlyValidWorkflow(_flowType)\n    singleOddFlag(_area)\n    singleOddFlag(_category)\n    hasFlags(_skills)\n    public\n    returns (uint)\n    {\n        uint jobId = store.get(jobsCount) + 1;\n        store.set(bindStatus, jobId, false);\n        store.set(jobsCount, jobId);\n        store.set(jobCreatedAt, jobId, now);\n        store.set(jobState, jobId, JOB_STATE_CREATED);\n        store.set(jobWorkflowType, jobId, _flowType);\n        store.set(jobClient, jobId, msg.sender);\n        store.set(jobSkillsArea, jobId, _area);\n        store.set(jobSkillsCategory, jobId, _category);\n        store.set(jobSkills, jobId, _skills);\n        store.set(jobDefaultPay, jobId, _defaultPay);\n        store.set(jobDetailsIPFSHash, jobId, _detailsIPFSHash);\n        store.add(clientJobs, bytes32(msg.sender), jobId);\n\n        _emitter().emitJobPosted(jobId, _flowType, msg.sender, _area, _category, _skills, _defaultPay, _detailsIPFSHash, false);\n        return OK;\n    }\n\n    function postJobOffer(\n        uint _jobId,\n        uint _rate,\n        uint _estimate,\n        uint _ontop\n    )\n    onlyNotClient(_jobId)\n    onlyFlow(_jobId, WORKFLOW_TM)\n    onlyJobState(_jobId, JOB_STATE_CREATED)\n    public\n    returns (uint)\n    {\n        if (!_isValidEstimate(_rate, _estimate, _ontop)) {\n            return _emitErrorCode(JOB_CONTROLLER_INVALID_ESTIMATE);\n        }\n\n        if (!_hasSkillsCheck(_jobId)) {\n            return _emitErrorCode(JOB_CONTROLLER_INVALID_SKILLS);\n        }\n\n        store.set(jobOfferRate, _jobId, msg.sender, _rate);\n        store.set(jobOfferEstimate, _jobId, msg.sender, _estimate);\n        store.set(jobOfferOntop, _jobId, msg.sender, _ontop);\n        _addJobOffer(_jobId);\n\n        _emitter().emitJobOfferPosted(_jobId, msg.sender, _rate, _estimate, _ontop);\n        return OK;\n    }\n\n    function postJobOfferWithPrice(\n        uint _jobId,\n        uint _price\n    )\n    onlyNotClient(_jobId)\n    onlyFlow(_jobId, WORKFLOW_FIXED_PRICE)\n    onlyJobState(_jobId, JOB_STATE_CREATED)\n    external\n    returns (uint) {\n        require(_price > 0);\n\n        if (!_hasSkillsCheck(_jobId)) {\n            return _emitErrorCode(JOB_CONTROLLER_INVALID_SKILLS);\n        }\n\n        store.set(jobOfferRate, _jobId, msg.sender, _price);\n        _addJobOffer(_jobId);\n\n        _emitter().emitJobOfferPosted(_jobId, msg.sender, _price);\n\n        return OK;\n    }\n\n    function _hasSkillsCheck(uint _jobId) internal view returns (bool) {\n        return userLibrary.hasSkills(\n            msg.sender,\n            store.get(jobSkillsArea, _jobId),\n            store.get(jobSkillsCategory, _jobId),\n            store.get(jobSkills, _jobId)\n        );\n    }\n\n    function _addJobOffer(uint _jobId) private {\n        store.add(workerJobs, bytes32(msg.sender), _jobId);\n        store.add(jobOffers, bytes32(_jobId), msg.sender);\n        store.set(jobOfferPostedAt, _jobId, msg.sender, now);\n    }\n\n    function acceptOffer(\n        uint _jobId,\n        address _worker\n    )\n    onlyClient(_jobId)\n    onlyJobState(_jobId, JOB_STATE_CREATED)\n    external\n    payable\n    returns (uint _resultCode)\n    {\n        if (store.get(jobOfferRate, _jobId, _worker) == 0) {\n            return _emitErrorCode(JOB_CONTROLLER_WORKER_RATE_NOT_SET);\n        }\n\n        // Maybe incentivize by locking some money from worker?\n        store.set(jobWorker, _jobId, _worker);\n\n        require(msg.value == calculateLockAmount(_jobId));\n\n        _resultCode = paymentProcessor.lockPayment.value(msg.value)(bytes32(_jobId), msg.sender);\n        if (_resultCode != OK) {\n            revert();\n        }\n\n        store.set(jobAcceptedAt, _jobId, now);\n        store.set(jobState, _jobId, JOB_STATE_OFFER_ACCEPTED);\n        _cleanupJobOffers(_jobId, _worker);\n\n        _emitter().emitJobOfferAccepted(_jobId, _worker);\n        return OK;\n    }\n\n    function _cleanupJobOffers(uint _jobId, address _acceptedOffer) private {\n        uint _offersCount = store.count(jobOffers, bytes32(_jobId));\n        for (uint _offerIdx = 0; _offerIdx < _offersCount; ++_offerIdx) {\n            address _offer = store.get(jobOffers, bytes32(_jobId), _offerIdx);\n            if (_offer != _acceptedOffer) {\n                store.remove(workerJobs, bytes32(_offer), _jobId);\n            }\n        }\n    }\n\n    function startWork(\n        uint _jobId\n    )\n    onlyWorker(_jobId)\n    onlyJobState(_jobId, JOB_STATE_OFFER_ACCEPTED)\n    external\n    returns (uint)\n    {\n        store.set(jobPendingStartAt, _jobId, now);\n        store.set(jobState, _jobId, JOB_STATE_PENDING_START);\n\n        _emitter().emitStartWorkRequested(_jobId, now);\n        return OK;\n    }\n\n    function confirmStartWork(\n        uint _jobId\n    )\n    onlyClient(_jobId)\n    onlyFlow(_jobId, WORKFLOW_TM)\n    onlyJobState(_jobId, JOB_STATE_PENDING_START)\n    external\n    returns (uint)\n    {\n        store.set(jobState, _jobId, JOB_STATE_STARTED);\n        store.set(jobStartTime, _jobId, now);\n\n        _emitter().emitWorkStarted(_jobId, now);\n        return OK;\n    }\n\n    function pauseWork(\n        uint _jobId\n    )\n    onlyWorker(_jobId)\n    onlyStartedState(_jobId)\n    external\n    returns (uint)\n    {\n        if (store.get(jobPaused, _jobId)) {\n            return _emitErrorCode(JOB_CONTROLLER_WORK_IS_ALREADY_PAUSED);\n        }\n\n        store.set(jobPaused, _jobId, true);\n        store.set(jobPausedAt, _jobId, now);\n\n        _emitter().emitWorkPaused(_jobId, now);\n        return OK;\n    }\n\n    function resumeWork(\n        uint _jobId\n    )\n    onlyWorker(_jobId)\n    onlyStartedState(_jobId)\n    external\n    returns (uint _resultCode)\n    {\n        _resultCode = _resumeWork(_jobId);\n        if (_resultCode != OK) {\n            return _emitErrorCode(_resultCode);\n        }\n    }\n\n    function _resumeWork(uint _jobId) internal returns (uint) {\n        if (!store.get(jobPaused, _jobId)) {\n            return JOB_CONTROLLER_WORK_IS_NOT_PAUSED;\n        }\n        store.set(jobPaused, _jobId, false);\n        store.set(jobPausedFor, _jobId, store.get(jobPausedFor, _jobId) + (now - store.get(jobPausedAt, _jobId)));\n\n        _emitter().emitWorkResumed(_jobId, now);\n        return OK;\n    }\n\n    function submitAdditionalTimeRequest(\n        uint _jobId,\n        uint16 _additionalTime\n    )\n    onlyWorker(_jobId)\n    onlyFlow(_jobId, WORKFLOW_TM)\n    onlyStartedState(_jobId)\n    external\n    returns (uint)\n    {\n        require(_additionalTime != 0);\n\n        store.set(jobRequestedAdditionalTime, _jobId, uint(_additionalTime));\n\n        _emitter().emitTimeRequestSubmitted(_jobId, _additionalTime);\n        return OK;\n    }\n\n    function acceptAdditionalTimeRequest(\n        uint _jobId,\n        uint16 _additionalTime\n    )\n    onlyClient(_jobId)\n    onlyFlow(_jobId, WORKFLOW_TM)\n    onlyStartedState(_jobId)\n    onlyWithSubmittedRequest(_jobId)\n    external\n    payable\n    returns (uint)\n    {\n        // ensure that no raised condition were met and client knows exactly how much time is actually requested\n        uint16 _storedAdditionalTime = uint16(store.get(jobRequestedAdditionalTime, _jobId));\n        if (_storedAdditionalTime != _additionalTime) {\n            return _emitErrorCode(JOB_CONTROLLER_INCORRECT_TIME_PROVIDED);\n        }\n\n        if (!_setNewEstimate(_jobId, _additionalTime)) {\n            revert();\n        }\n\n        store.set(jobRequestedAdditionalTime, _jobId, 0);\n\n        _emitter().emitTimeRequestAccepted(_jobId, _additionalTime);\n        return OK;\n    }\n\n    function rejectAdditionalTimeRequest(\n        uint _jobId\n    )\n    onlyClient(_jobId)\n    onlyFlow(_jobId, WORKFLOW_TM)\n    onlyStartedState(_jobId)\n    onlyWithSubmittedRequest(_jobId)\n    external\n    returns (uint)\n    {\n        uint _additionalTime = store.get(jobRequestedAdditionalTime, _jobId);\n        store.set(jobRequestedAdditionalTime, _jobId, 0);\n\n        _emitter().emitTimeRequestRejected(_jobId, _additionalTime);\n        return OK;\n    }\n\n    function _setNewEstimate(uint _jobId, uint16 _additionalTime)\n    internal\n    returns (bool)\n    {\n        uint jobPaymentLocked = calculateLockAmount(_jobId);\n        store.set(\n            jobOfferEstimate,\n            _jobId,\n            store.get(jobWorker, _jobId),\n            store.get(jobOfferEstimate, _jobId, store.get(jobWorker, _jobId)) + _additionalTime\n        );\n\n        require(calculateLockAmount(_jobId) - jobPaymentLocked == msg.value);\n\n        return OK == paymentProcessor.lockPayment.value(msg.value)(bytes32(_jobId), msg.sender);\n    }\n\n    function endWork(\n        uint _jobId\n    )\n    onlyWorker(_jobId)\n    onlyStartedState(_jobId)\n    external\n    returns (uint)\n    {\n        _resumeWork(_jobId);  // In case worker have forgotten about paused timer\n        store.set(jobPendingFinishAt, _jobId, now);\n        store.set(jobState, _jobId, JOB_STATE_PENDING_FINISH);\n\n        _emitter().emitEndWorkRequested(_jobId, now);\n        return OK;\n    }\n\n    function confirmEndWork(\n        uint _jobId\n    )\n    onlyClient(_jobId)\n    onlyFlow(_jobId, WORKFLOW_TM)\n    onlyJobState(_jobId, JOB_STATE_PENDING_FINISH)\n    external\n    returns (uint)\n    {\n        store.set(jobFinishTime, _jobId, now);\n        store.set(jobState, _jobId, JOB_STATE_FINISHED);\n\n        _emitter().emitWorkFinished(_jobId, now);\n        return OK;\n    }\n\n    function cancelJob(\n        uint _jobId\n    )\n    onlyClient(_jobId)\n    onlyFlow(_jobId, WORKFLOW_TM)\n    external\n    returns (uint _resultCode)\n    {\n        uint _jobState = _getJobState(_jobId);\n        uint _flow = store.get(jobWorkflowType, _jobId);\n\n        if (!_isActiveStateForFlow(_flow, _jobState)) {\n            return _emitErrorCode(JOB_CONTROLLER_INVALID_STATE);\n        }\n\n        uint payCheck = calculatePaycheck(_jobId);\n        address worker = store.get(jobWorker, _jobId);\n\n        _resultCode = paymentProcessor.releasePayment(\n            bytes32(_jobId),\n            worker,\n            payCheck,\n            store.get(jobClient, _jobId),\n            payCheck,\n            0\n        );\n        if (_resultCode != OK) {\n            return _emitErrorCode(_resultCode);\n        }\n\n        store.set(jobFinalizedAt, _jobId, _getJobState(_jobId));\n        store.set(jobState, _jobId, JOB_STATE_FINALIZED);\n\n        _emitter().emitJobCanceled(_jobId);\n        return OK;\n    }\n\n    function acceptWorkResults(uint _jobId)\n    external\n    onlyClient(_jobId)\n    onlyFlow(_jobId, WORKFLOW_FIXED_PRICE)\n    onlyJobState(_jobId, JOB_STATE_PENDING_FINISH)\n    returns (uint) \n    {\n        store.set(jobFinishTime, _jobId, now);\n        store.set(jobState, _jobId, JOB_STATE_WORK_ACCEPTED);\n\n        _emitter().emitWorkAccepted(_jobId, now);\n        return OK;\n    }\n\n    function rejectWorkResults(uint _jobId)\n    external\n    onlyClient(_jobId)\n    onlyFlow(_jobId, WORKFLOW_FIXED_PRICE)\n    onlyJobState(_jobId, JOB_STATE_PENDING_FINISH)\n    returns (uint _resultCode) \n    {\n        store.set(jobFinishTime, _jobId, now);\n        store.set(jobState, _jobId, JOB_STATE_WORK_REJECTED);\n\n        _emitter().emitWorkRejected(_jobId, now);\n        return OK;\n    }\n\n    function resolveWorkDispute(\n        uint _jobId,\n        uint _workerPaycheck,\n        uint _penaltyFee\n    )\n    external\n    auth\n    onlyFlow(_jobId, WORKFLOW_FIXED_PRICE)\n    onlyJobState(_jobId, JOB_STATE_WORK_REJECTED)\n    returns (uint _resultCode) {\n        address worker = store.get(jobWorker, _jobId);\n        uint payCheck = store.get(jobOfferRate, _jobId, worker);\n        address client = store.get(jobClient, _jobId);\n        if (_workerPaycheck > 0) {\n            _resultCode = paymentProcessor.releasePayment(\n                bytes32(_jobId),\n                worker,\n                _workerPaycheck,\n                client,\n                0,\n                _penaltyFee\n            );\n            if (_resultCode != OK) {\n                return _emitErrorCode(_resultCode);\n            }\n        } else {\n            _resultCode = paymentProcessor.releasePayment(\n                bytes32(_jobId),\n                client,\n                payCheck,\n                client,\n                0,\n                _penaltyFee\n            );\n            if (_resultCode != OK) {\n                return _emitErrorCode(_resultCode);\n            }\n        }\n\n        store.set(jobFinalizedAt, _jobId, _getJobState(_jobId));\n        store.set(jobState, _jobId, JOB_STATE_FINALIZED);\n\n        _emitter().emitWorkDistputeResolved(_jobId, now);\n        return OK;\n    }\n\n    function releasePayment(\n        uint _jobId\n    )\n    onlyFinishedState(_jobId)\n    public\n    returns (uint _resultCode)\n    {\n        uint payCheck = calculatePaycheck(_jobId);\n        address worker = store.get(jobWorker, _jobId);\n\n        _resultCode = paymentProcessor.releasePayment(\n            bytes32(_jobId),\n            worker,\n            payCheck,\n            store.get(jobClient, _jobId),\n            payCheck,\n            0\n        );\n        if (_resultCode != OK) {\n            return _emitErrorCode(_resultCode);\n        }\n\n        store.set(jobFinalizedAt, _jobId, _getJobState(_jobId));\n        store.set(jobState, _jobId, JOB_STATE_FINALIZED);\n\n        _emitter().emitPaymentReleased(_jobId);\n        return OK;\n    }\n\n    function emitJobPosted(\n        uint _jobId,\n        uint _flowType,\n        address _client,\n        uint _skillsArea,\n        uint _skillsCategory,\n        uint _skills,\n        uint _defaultPay,\n        bytes32 _detailsIPFSHash,\n        bool _bindStatus\n    )\n    public\n    {\n        emit JobPosted(_self(), _jobId, bytes32(_flowType), _client, _skillsArea, _skillsCategory, _skills, _defaultPay, _detailsIPFSHash, _bindStatus);\n    }\n\n    function emitJobOfferPosted(uint _jobId, address _worker, uint _rate, uint _estimate, uint _ontop) public {\n        emit JobOfferPosted(_self(), _jobId, _worker, _rate, _estimate, _ontop);\n    }\n\n    function emitJobOfferPosted(uint _jobId, address _worker, uint _price) public {\n        emit JobOfferPosted(_self(), _jobId, _worker, _price);\n    }\n\n    function emitJobOfferAccepted(uint _jobId, address _worker) public {\n        emit JobOfferAccepted(_self(), _jobId, _worker);\n    }\n\n    function emitStartWorkRequested(uint _jobId, uint _at) public {\n        emit StartWorkRequested(_self(), _jobId, _at);\n    }\n\n    function emitWorkStarted(uint _jobId, uint _at) public {\n        emit WorkStarted(_self(), _jobId, _at);\n    }\n\n    function emitWorkPaused(uint _jobId, uint _at) public {\n        emit WorkPaused(_self(), _jobId, _at);\n    }\n\n    function emitWorkResumed(uint _jobId, uint _at) public {\n        emit WorkResumed(_self(), _jobId, _at);\n    }\n\n    function emitTimeRequestSubmitted(uint _jobId, uint _time) public {\n        emit TimeRequestSubmitted(_self(), _jobId, _time);\n    }\n\n    function emitTimeRequestAccepted(uint _jobId, uint _time) public {\n        emit TimeRequestAccepted(_self(), _jobId, _time);\n    }\n\n    function emitTimeRequestRejected(uint _jobId, uint _time) public {\n        emit TimeRequestRejected(_self(), _jobId, _time);\n    }\n\n    function emitEndWorkRequested(uint _jobId, uint _at) public {\n        emit EndWorkRequested(_self(), _jobId, _at);\n    }\n\n    function emitWorkFinished(uint _jobId, uint _at) public {\n        emit WorkFinished(_self(), _jobId, _at);\n    }\n\n    function emitWorkAccepted(uint _jobId, uint _at) public {\n        emit WorkAccepted(_self(), _jobId, _at);\n    }\n\n    function emitWorkRejected(uint _jobId, uint _at) public {\n        emit WorkRejected(_self(), _jobId, _at);\n    }\n\n    function emitWorkDistputeResolved(uint _jobId, uint _at) public {\n        emit WorkDisputeResolved(_self(), _jobId, _at);\n    }\n\n    function emitPaymentReleased(uint _jobId) public {\n        emit PaymentReleased(_self(), _jobId);\n    }\n\n    function emitJobCanceled(uint _jobId) public {\n        emit JobCanceled(_self(), _jobId);\n    }\n\n    function _getJobState(uint _jobId) private view returns (uint) {\n        return uint(store.get(jobState, _jobId));\n    }\n\n    function _isFinishedStateForFlow(uint _flow, uint _jobState) internal pure returns (bool) {\n        bool _needsConfirmation = (_flow & WORKFLOW_CONFIRMATION_NEEDED_FLAG) != 0;\n        uint _flowType = _flow & ~WORKFLOW_FEATURE_FLAGS;\n        if (_flowType == WORKFLOW_TM) {\n            if (_needsConfirmation && _jobState == JOB_STATE_FINISHED) {\n                return true;\n            }\n            \n            if (!_needsConfirmation &&\n                (_jobState == JOB_STATE_PENDING_FINISH || _jobState == JOB_STATE_FINISHED)\n            ) {\n                return true;\n            }\n        }\n\n        if (_flowType == WORKFLOW_FIXED_PRICE) {\n            if (_jobState == JOB_STATE_WORK_ACCEPTED) {\n                return true;\n            }\n        }\n    }\n\n    function _isStartedStateForFlow(uint _flow, uint _jobState) internal pure returns (bool) {\n        bool _needsConfirmation = (_flow & WORKFLOW_CONFIRMATION_NEEDED_FLAG) != 0;\n        if (_needsConfirmation && \n        _jobState == JOB_STATE_STARTED) {\n            return true;\n        }\n\n        if (!_needsConfirmation &&\n            (_jobState == JOB_STATE_PENDING_START || _jobState == JOB_STATE_STARTED)\n        ) {\n            return true;\n        }\n    }\n\n    function _isActiveStateForFlow(uint _flow, uint _jobState) internal pure returns (bool) {\n        if (_jobState == JOB_STATE_OFFER_ACCEPTED) {\n            return true;\n        }\n        \n        if (_jobState == JOB_STATE_PENDING_START) {\n            return true;\n        }\n\n        if (_jobState == JOB_STATE_STARTED) {\n            return true;\n        }\n\n        bool _needsConfirmation = (_flow & WORKFLOW_CONFIRMATION_NEEDED_FLAG) != 0;\n        if (_needsConfirmation && _jobState == JOB_STATE_PENDING_FINISH) {\n            return true;\n        }\n    }\n\n    function _emitErrorCode(uint _errorCode) internal returns (uint) {\n        if (msg.value > 0) {\n            msg.sender.transfer(msg.value);\n        }\n        return super._emitErrorCode(_errorCode);\n    }\n\n    function _emitter() private view returns (JobController) {\n        return JobController(getEventsHistory());\n    }\n}\n\n",
  "sourcePath": "/Users/alesanro/Documents/Projects/ChronoBank/LX-SC/contracts/JobController.sol",
  "compiler": {
    "name": "solc",
    "version": "0.4.24+commit.e67f0147.Emscripten.clang"
  },
  "schemaVersion": "2.0.1",
  "updatedAt": "2018-07-20T10:51:35.489Z"
}