{
  "contractName": "JobDataCore",
  "abi": [
    {
      "constant": true,
      "inputs": [],
      "name": "version",
      "outputs": [
        {
          "name": "",
          "type": "string"
        }
      ],
      "payable": false,
      "stateMutability": "view",
      "type": "function"
    },
    {
      "inputs": [
        {
          "name": "_store",
          "type": "address"
        },
        {
          "name": "_crate",
          "type": "bytes32"
        }
      ],
      "payable": false,
      "stateMutability": "nonpayable",
      "type": "constructor"
    }
  ],
  "bytecode": "0x60c0604052600660808190527f76302e302e31000000000000000000000000000000000000000000000000000060a090815261003e91602791906100ae565b5034801561004b57600080fd5b50604051604080610321833981016040528051602090910151818161007f6000838364010000000061015d61008882021704565b50505050610149565b8254600160a060020a031916600160a060020a0392909216919091178255600190910155565b828054600181600116156101000203166002900490600052602060002090601f016020900481019282601f106100ef57805160ff191683800117855561011c565b8280016001018555821561011c579182015b8281111561011c578251825591602001919060010190610101565b5061012892915061012c565b5090565b61014691905b808211156101285760008155600101610132565b90565b6101c9806101586000396000f3006080604052600436106100405763ffffffff7c010000000000000000000000000000000000000000000000000000000060003504166354fd4d508114610045575b600080fd5b34801561005157600080fd5b5061005a6100cf565b6040805160208082528351818301528351919283929083019185019080838360005b8381101561009457818101518382015260200161007c565b50505050905090810190601f1680156100c15780820380516001836020036101000a031916815260200191505b509250505060405180910390f35b6027805460408051602060026001851615610100026000190190941693909304601f810184900484028201840190925281815292918301828280156101555780601f1061012a57610100808354040283529160200191610155565b820191906000526020600020905b81548152906001019060200180831161013857829003601f168201915b505050505081565b825473ffffffffffffffffffffffffffffffffffffffff191673ffffffffffffffffffffffffffffffffffffffff929092169190911782556001909101555600a165627a7a7230582049d10ec78dd19cb807a962a55427005f4253fd70d13084eb50c0af77826925b50029",
  "source": "/**\n * Copyright 2017–2018, LaborX PTY\n * Licensed under the AGPL Version 3 license.\n */\n\npragma solidity ^0.4.18;\n\n\nimport \"solidity-storage-lib/contracts/StorageAdapter.sol\";\nimport \"./base/BitOps.sol\";\n\n\ncontract JobDataCore is StorageAdapter, BitOps {\n\n    /* JobState */\n    \n    uint constant JOB_STATE_NOT_SET = 0;\n    uint constant JOB_STATE_CREATED = 0x001;        // 00000000001\n    uint constant JOB_STATE_OFFER_ACCEPTED = 0x002; // 00000000010\n    uint constant JOB_STATE_PENDING_START = 0x004;  // 00000000100\n    uint constant JOB_STATE_STARTED = 0x008;        // 00000001000\n    uint constant JOB_STATE_PENDING_FINISH = 0x010; // 00000010000\n    uint constant JOB_STATE_FINISHED = 0x020;       // 00000100000\n    uint constant JOB_STATE_WORK_ACCEPTED = 0x040;  // 00001000000\n    uint constant JOB_STATE_WORK_REJECTED = 0x080;  // 00010000000\n    uint constant JOB_STATE_FINALIZED = 0x100;      // 00100000000\n\n    uint constant OK = 1;\n\n    /// Defines a set of masks that define different groups of workflows\n    uint constant WORKFLOW_TM = 1;\n    uint constant WORKFLOW_FIXED_PRICE = 2;\n\n    uint constant WORKFLOW_MAX = WORKFLOW_FIXED_PRICE;\n\n    uint constant WORKFLOW_TM_FEATURES_ALLOWED = WORKFLOW_CONFIRMATION_NEEDED_FLAG;\n    uint constant WORKFLOW_FIXED_PRICE_FEATURES_ALLOWED = 0;\n\n    uint constant WORKFLOW_CONFIRMATION_ALLOWED = WORKFLOW_TM;\n\n    uint constant WORKFLOW_CONFIRMATION_NEEDED_FLAG = 0x8000000000000000000000000000000000000000000000000000000000000000;\n\n    uint constant WORKFLOW_FEATURE_FLAGS = WORKFLOW_CONFIRMATION_NEEDED_FLAG;\n\n    StorageInterface.Address boardController;\n    /// @dev Escrow address for FIXED_PRICE dispute\n    StorageInterface.Address escrowAddress;\n\n    StorageInterface.UInt jobsCount;\n\n    StorageInterface.UIntUIntMapping jobState;\n    StorageInterface.UIntAddressMapping jobClient;  // jobId => jobClient\n    StorageInterface.UIntAddressMapping jobWorker;  // jobId => jobWorker\n    StorageInterface.UIntBytes32Mapping jobDetailsIPFSHash;\n\n    StorageInterface.UIntUIntMapping jobSkillsArea;  // jobId => jobSkillsArea\n    StorageInterface.UIntUIntMapping jobSkillsCategory;  // jobId => jobSkillsCategory\n    StorageInterface.UIntUIntMapping jobSkills;  // jobId => jobSkills\n\n    StorageInterface.UIntUIntMapping jobCreatedAt;\n    StorageInterface.UIntUIntMapping jobAcceptedAt;\n    StorageInterface.UIntUIntMapping jobPendingStartAt;\n    StorageInterface.UIntUIntMapping jobStartTime;\n    StorageInterface.UIntUIntMapping jobPendingFinishAt;\n    StorageInterface.UIntUIntMapping jobFinishTime;\n    StorageInterface.UIntBoolMapping jobPaused;\n    StorageInterface.UIntUIntMapping jobPausedAt;\n    StorageInterface.UIntUIntMapping jobPausedFor;\n\n    /// @dev Workflow type for a job\n    StorageInterface.UIntUIntMapping jobWorkflowType;  // jobId => workflow type\n\n    /// @dev Requested amount of time a worker needs to complete a job\n    StorageInterface.UIntUIntMapping jobRequestedAdditionalTime; // In minutes\n\n    /// @dev Default pay for a posted job that are recommended for offers\n    StorageInterface.UIntUIntMapping jobDefaultPay;  // jobId => default pay size\n    StorageInterface.UIntAddressUIntMapping jobOfferRate; // Per minute.\n    StorageInterface.UIntAddressUIntMapping jobOfferEstimate; // In minutes.\n    StorageInterface.UIntAddressUIntMapping jobOfferOntop; // Getting to the workplace, etc.\n\n    /// @dev mapping(client address => set(job ids))\n    StorageInterface.UIntSetMapping clientJobs;\n    /// @dev mapping(worker's address => set(job ids))\n    StorageInterface.UIntSetMapping workerJobs;\n    /// @dev mapping(posted offer job id => set(worker addresses))\n    StorageInterface.AddressesSetMapping jobOffers;\n    /// @dev mapping(posted offer job id => mapping(worker => post date))\n    StorageInterface.UIntAddressUIntMapping jobOfferPostedAt;\n\n    StorageInterface.UIntBoolMapping bindStatus;\n\n    // At which state job has been marked as FINALIZED\n    StorageInterface.UIntUIntMapping jobFinalizedAt;\n\n    string public version = \"v0.0.1\";\n\n    constructor(\n        Storage _store,\n        bytes32 _crate\n    )\n    StorageAdapter(_store, _crate)\n    public\n    {\n    }\n\n    function _init() internal returns (uint) {\n        boardController.init(\"boardController\");\n        escrowAddress.init(\"escrowAddress\");\n\n        jobsCount.init(\"jobsCount\");\n\n        jobState.init(\"jobState\");\n        jobClient.init(\"jobClient\");\n        jobWorker.init(\"jobWorker\");\n        jobDetailsIPFSHash.init(\"jobDetailsIPFSHash\");\n\n        jobSkillsArea.init(\"jobSkillsArea\");\n        jobSkillsCategory.init(\"jobSkillsCategory\");\n        jobSkills.init(\"jobSkills\");\n\n        jobCreatedAt.init(\"jobCreatedAt\");\n        jobAcceptedAt.init(\"jobAcceptedAt\");\n        jobPendingStartAt.init(\"jobPendingStartAt\");\n        jobStartTime.init(\"jobStartTime\");\n        jobPendingFinishAt.init(\"jobPendingFinishAt\");\n        jobFinishTime.init(\"jobFinishTime\");\n        jobPaused.init(\"jobPaused\");\n        jobPausedAt.init(\"jobPausedAt\");\n        jobPausedFor.init(\"jobPausedFor\");\n\n        jobWorkflowType.init(\"jobWorkflowType\");\n        jobRequestedAdditionalTime.init(\"jobRequestedTime\");\n        jobDefaultPay.init(\"jobDefaultPay\");\n        jobOfferRate.init(\"jobOfferRate\");\n        jobOfferEstimate.init(\"jobOfferEstimate\");\n        jobOfferOntop.init(\"jobOfferOntop\");\n\n        jobFinalizedAt.init(\"jobFinalizedAt\");\n\n        clientJobs.init(\"clientJobs\");\n        workerJobs.init(\"workerJobs\");\n        jobOffers.init(\"jobOffers\");\n        jobOfferPostedAt.init(\"jobOfferPostedAt\");\n\n        bindStatus.init(\"bindStatus\");\n            \n        return OK;\n    }\n\n    function _isValidFlow(uint _flow) internal pure returns (bool) {\n        uint _flowType = _flow & ~WORKFLOW_FEATURE_FLAGS;\n        uint _featureFlags = _flow & WORKFLOW_FEATURE_FLAGS;\n        if (!(_isSingleFlag(_flowType) && _flowType <= WORKFLOW_MAX)) {\n            return false;\n        }\n\n        bool _featuresApproved = \n            (WORKFLOW_TM == _flowType && _hasFlags(WORKFLOW_TM_FEATURES_ALLOWED, _featureFlags)) ||\n            (WORKFLOW_FIXED_PRICE == _flowType && _hasFlags(WORKFLOW_FIXED_PRICE_FEATURES_ALLOWED, _featureFlags));\n        if (!_featuresApproved) {\n            return false;\n        }\n\n        return true;\n    }\n\n    function _isFinishedStateForFlow(uint _flow, uint _jobState) internal pure returns (bool) {\n        bool _needsConfirmation = (_flow & WORKFLOW_CONFIRMATION_NEEDED_FLAG) != 0;\n        uint _flowType = _flow & ~WORKFLOW_FEATURE_FLAGS;\n        if (_flowType == WORKFLOW_TM) {\n            if (_needsConfirmation && _jobState == JOB_STATE_WORK_ACCEPTED) {\n                return true;\n            }\n            \n            if (!_needsConfirmation &&\n                (_jobState == JOB_STATE_PENDING_FINISH || _jobState == JOB_STATE_WORK_ACCEPTED)\n            ) {\n                return true;\n            }\n        }\n\n        if (_flowType == WORKFLOW_FIXED_PRICE) {\n            if (_jobState == JOB_STATE_WORK_ACCEPTED) {\n                return true;\n            }\n        }\n    }\n\n    function _isStartedStateForFlow(uint _flow, uint _jobState) internal pure returns (bool) {\n        bool _needsConfirmation = (_flow & WORKFLOW_CONFIRMATION_NEEDED_FLAG) != 0;\n        if (_needsConfirmation && \n        _jobState == JOB_STATE_STARTED) {\n            return true;\n        }\n\n        if (!_needsConfirmation &&\n            (_jobState == JOB_STATE_PENDING_START || _jobState == JOB_STATE_STARTED)\n        ) {\n            return true;\n        }\n    }\n\n    function _isActiveStateForFlow(uint _flow, uint _jobState) internal pure returns (bool) {\n        if (_jobState == JOB_STATE_OFFER_ACCEPTED) {\n            return true;\n        }\n        \n        if (_jobState == JOB_STATE_PENDING_START) {\n            return true;\n        }\n\n        if (_jobState == JOB_STATE_STARTED) {\n            return true;\n        }\n\n        bool _needsConfirmation = (_flow & WORKFLOW_CONFIRMATION_NEEDED_FLAG) != 0;\n        if (_needsConfirmation && _jobState == JOB_STATE_PENDING_FINISH) {\n            return true;\n        }\n    }\n}\n",
  "sourcePath": "/Users/alesanro/Documents/Projects/ChronoBank/LX-SC/contracts/JobDataCore.sol",
  "compiler": {
    "name": "solc",
    "version": "0.4.24+commit.e67f0147.Emscripten.clang"
  },
  "schemaVersion": "2.0.1",
  "updatedAt": "2018-09-18T15:37:37.154Z"
}