{
  "contractName": "JobsDataProvider",
  "abi": [
    {
      "constant": true,
      "inputs": [],
      "name": "version",
      "outputs": [
        {
          "name": "",
          "type": "string"
        }
      ],
      "payable": false,
      "stateMutability": "view",
      "type": "function"
    },
    {
      "inputs": [
        {
          "name": "_store",
          "type": "address"
        },
        {
          "name": "_crate",
          "type": "bytes32"
        }
      ],
      "payable": false,
      "stateMutability": "nonpayable",
      "type": "constructor"
    },
    {
      "constant": true,
      "inputs": [
        {
          "name": "_jobState",
          "type": "uint256"
        },
        {
          "name": "_skillsArea",
          "type": "uint256"
        },
        {
          "name": "_skillsCategory",
          "type": "uint256"
        },
        {
          "name": "_skills",
          "type": "uint256"
        },
        {
          "name": "_paused",
          "type": "uint256"
        },
        {
          "name": "_fromId",
          "type": "uint256"
        },
        {
          "name": "_maxLen",
          "type": "uint256"
        }
      ],
      "name": "getJobs",
      "outputs": [
        {
          "name": "_ids",
          "type": "uint256[]"
        }
      ],
      "payable": false,
      "stateMutability": "view",
      "type": "function"
    },
    {
      "constant": true,
      "inputs": [
        {
          "name": "_client",
          "type": "address"
        }
      ],
      "name": "getJobForClientCount",
      "outputs": [
        {
          "name": "",
          "type": "uint256"
        }
      ],
      "payable": false,
      "stateMutability": "view",
      "type": "function"
    },
    {
      "constant": true,
      "inputs": [
        {
          "name": "_client",
          "type": "address"
        },
        {
          "name": "_jobState",
          "type": "uint256"
        },
        {
          "name": "_skillsArea",
          "type": "uint256"
        },
        {
          "name": "_skillsCategory",
          "type": "uint256"
        },
        {
          "name": "_skills",
          "type": "uint256"
        },
        {
          "name": "_paused",
          "type": "uint256"
        },
        {
          "name": "_fromIdx",
          "type": "uint256"
        },
        {
          "name": "_maxLen",
          "type": "uint256"
        }
      ],
      "name": "getJobsForClient",
      "outputs": [
        {
          "name": "_ids",
          "type": "uint256[]"
        }
      ],
      "payable": false,
      "stateMutability": "view",
      "type": "function"
    },
    {
      "constant": true,
      "inputs": [
        {
          "name": "_worker",
          "type": "address"
        }
      ],
      "name": "getJobForWorkerCount",
      "outputs": [
        {
          "name": "",
          "type": "uint256"
        }
      ],
      "payable": false,
      "stateMutability": "view",
      "type": "function"
    },
    {
      "constant": true,
      "inputs": [
        {
          "name": "_worker",
          "type": "address"
        },
        {
          "name": "_jobState",
          "type": "uint256"
        },
        {
          "name": "_skillsArea",
          "type": "uint256"
        },
        {
          "name": "_skillsCategory",
          "type": "uint256"
        },
        {
          "name": "_skills",
          "type": "uint256"
        },
        {
          "name": "_paused",
          "type": "uint256"
        },
        {
          "name": "_fromIdx",
          "type": "uint256"
        },
        {
          "name": "_maxLen",
          "type": "uint256"
        }
      ],
      "name": "getJobForWorker",
      "outputs": [
        {
          "name": "_ids",
          "type": "uint256[]"
        }
      ],
      "payable": false,
      "stateMutability": "view",
      "type": "function"
    },
    {
      "constant": true,
      "inputs": [],
      "name": "getJobsCount",
      "outputs": [
        {
          "name": "",
          "type": "uint256"
        }
      ],
      "payable": false,
      "stateMutability": "view",
      "type": "function"
    },
    {
      "constant": true,
      "inputs": [
        {
          "name": "_jobIds",
          "type": "uint256[]"
        }
      ],
      "name": "getJobsByIds",
      "outputs": [
        {
          "name": "_results",
          "type": "bytes32[]"
        }
      ],
      "payable": false,
      "stateMutability": "view",
      "type": "function"
    },
    {
      "constant": true,
      "inputs": [
        {
          "name": "_jobId",
          "type": "uint256"
        }
      ],
      "name": "getJobOffersCount",
      "outputs": [
        {
          "name": "",
          "type": "uint256"
        }
      ],
      "payable": false,
      "stateMutability": "view",
      "type": "function"
    },
    {
      "constant": true,
      "inputs": [
        {
          "name": "_jobId",
          "type": "uint256"
        },
        {
          "name": "_fromIdx",
          "type": "uint256"
        },
        {
          "name": "_maxLen",
          "type": "uint256"
        }
      ],
      "name": "getJobOffers",
      "outputs": [
        {
          "name": "_id",
          "type": "uint256"
        },
        {
          "name": "_workers",
          "type": "address[]"
        },
        {
          "name": "_rates",
          "type": "uint256[]"
        },
        {
          "name": "_estimates",
          "type": "uint256[]"
        },
        {
          "name": "_onTops",
          "type": "uint256[]"
        },
        {
          "name": "_offerPostedAt",
          "type": "uint256[]"
        }
      ],
      "payable": false,
      "stateMutability": "view",
      "type": "function"
    },
    {
      "constant": true,
      "inputs": [
        {
          "name": "_jobId",
          "type": "uint256"
        }
      ],
      "name": "getJobClient",
      "outputs": [
        {
          "name": "",
          "type": "address"
        }
      ],
      "payable": false,
      "stateMutability": "view",
      "type": "function"
    },
    {
      "constant": true,
      "inputs": [
        {
          "name": "_jobId",
          "type": "uint256"
        }
      ],
      "name": "getJobWorker",
      "outputs": [
        {
          "name": "",
          "type": "address"
        }
      ],
      "payable": false,
      "stateMutability": "view",
      "type": "function"
    },
    {
      "constant": true,
      "inputs": [
        {
          "name": "_jobId",
          "type": "uint256"
        },
        {
          "name": "_jobState",
          "type": "uint256"
        }
      ],
      "name": "isActivatedState",
      "outputs": [
        {
          "name": "",
          "type": "bool"
        }
      ],
      "payable": false,
      "stateMutability": "view",
      "type": "function"
    },
    {
      "constant": true,
      "inputs": [
        {
          "name": "_jobId",
          "type": "uint256"
        }
      ],
      "name": "getJobSkillsArea",
      "outputs": [
        {
          "name": "",
          "type": "uint256"
        }
      ],
      "payable": false,
      "stateMutability": "view",
      "type": "function"
    },
    {
      "constant": true,
      "inputs": [
        {
          "name": "_jobId",
          "type": "uint256"
        }
      ],
      "name": "getJobSkillsCategory",
      "outputs": [
        {
          "name": "",
          "type": "uint256"
        }
      ],
      "payable": false,
      "stateMutability": "view",
      "type": "function"
    },
    {
      "constant": true,
      "inputs": [
        {
          "name": "_jobId",
          "type": "uint256"
        }
      ],
      "name": "getJobSkills",
      "outputs": [
        {
          "name": "",
          "type": "uint256"
        }
      ],
      "payable": false,
      "stateMutability": "view",
      "type": "function"
    },
    {
      "constant": true,
      "inputs": [
        {
          "name": "_jobId",
          "type": "uint256"
        }
      ],
      "name": "getJobDetailsIPFSHash",
      "outputs": [
        {
          "name": "",
          "type": "bytes32"
        }
      ],
      "payable": false,
      "stateMutability": "view",
      "type": "function"
    },
    {
      "constant": true,
      "inputs": [
        {
          "name": "_jobId",
          "type": "uint256"
        }
      ],
      "name": "getJobDefaultPay",
      "outputs": [
        {
          "name": "",
          "type": "uint256"
        }
      ],
      "payable": false,
      "stateMutability": "view",
      "type": "function"
    },
    {
      "constant": true,
      "inputs": [
        {
          "name": "_jobId",
          "type": "uint256"
        }
      ],
      "name": "getJobState",
      "outputs": [
        {
          "name": "",
          "type": "uint256"
        }
      ],
      "payable": false,
      "stateMutability": "view",
      "type": "function"
    },
    {
      "constant": true,
      "inputs": [
        {
          "name": "_jobId",
          "type": "uint256"
        }
      ],
      "name": "getFinalState",
      "outputs": [
        {
          "name": "",
          "type": "uint256"
        }
      ],
      "payable": false,
      "stateMutability": "view",
      "type": "function"
    }
  ],
  "bytecode": "0x60c0604052600660808190527f76302e302e31000000000000000000000000000000000000000000000000000060a090815262000040916027919062000a3d565b503480156200004e57600080fd5b5060405160408062002af883398101604052805160209091015181818181620000886000838364010000000062001797620000bf82021704565b50505050620000aa620000e564010000000002620017ca176401000000009004565b600114620000b757600080fd5b505062000adf565b8254600160a060020a031916600160a060020a0392909216919091178255600190910155565b60006200012260027f626f617264436f6e74726f6c6c6572000000000000000000000000000000000064010000000062001dc16200081382021704565b6200015d60037f657363726f77416464726573730000000000000000000000000000000000000064010000000062001dc16200081382021704565b6200019860047f6a6f6273436f756e74000000000000000000000000000000000000000000000064010000000062001dc16200081382021704565b620001d360057f6a6f62537461746500000000000000000000000000000000000000000000000064010000000062001ddd6200082e82021704565b6200020e60067f6a6f62436c69656e74000000000000000000000000000000000000000000000064010000000062001ddd6200082e82021704565b6200024960077f6a6f62576f726b6572000000000000000000000000000000000000000000000064010000000062001ddd6200082e82021704565b6200028460087f6a6f6244657461696c734950465348617368000000000000000000000000000064010000000062001ddd6200082e82021704565b620002bf60097f6a6f62536b696c6c73417265610000000000000000000000000000000000000064010000000062001ddd6200082e82021704565b620002fa600a7f6a6f62536b696c6c7343617465676f727900000000000000000000000000000064010000000062001ddd6200082e82021704565b62000335600b7f6a6f62536b696c6c73000000000000000000000000000000000000000000000064010000000062001ddd6200082e82021704565b62000370600c7f6a6f62437265617465644174000000000000000000000000000000000000000064010000000062001ddd6200082e82021704565b620003ab600d7f6a6f62416363657074656441740000000000000000000000000000000000000064010000000062001ddd6200082e82021704565b620003e6600e7f6a6f6250656e64696e675374617274417400000000000000000000000000000064010000000062001ddd6200082e82021704565b62000421600f7f6a6f62537461727454696d65000000000000000000000000000000000000000064010000000062001ddd6200082e82021704565b6200045c60107f6a6f6250656e64696e6746696e6973684174000000000000000000000000000064010000000062001ddd6200082e82021704565b6200049760117f6a6f6246696e69736854696d650000000000000000000000000000000000000064010000000062001ddd6200082e82021704565b620004d260127f6a6f62506175736564000000000000000000000000000000000000000000000064010000000062001ddd6200082e82021704565b6200050d60137f6a6f62506175736564417400000000000000000000000000000000000000000064010000000062001ddd6200082e82021704565b6200054860147f6a6f62506175736564466f72000000000000000000000000000000000000000064010000000062001ddd6200082e82021704565b6200058360157f6a6f62576f726b666c6f7754797065000000000000000000000000000000000064010000000062001ddd6200082e82021704565b620005be60167f6a6f6252657175657374656454696d650000000000000000000000000000000064010000000062001ddd6200082e82021704565b620005f960177f6a6f6244656661756c745061790000000000000000000000000000000000000064010000000062001ddd6200082e82021704565b6200063460187f6a6f624f6666657252617465000000000000000000000000000000000000000064010000000062001ddd6200082e82021704565b6200066f60197f6a6f624f66666572457374696d6174650000000000000000000000000000000064010000000062001ddd6200082e82021704565b620006aa601a7f6a6f624f666665724f6e746f700000000000000000000000000000000000000064010000000062001ddd6200082e82021704565b620006e560267f6a6f6246696e616c697a6564417400000000000000000000000000000000000064010000000062001ddd6200082e82021704565b62000720601b7f636c69656e744a6f62730000000000000000000000000000000000000000000064010000000062001e136200084782021704565b6200075b601e7f776f726b65724a6f62730000000000000000000000000000000000000000000064010000000062001e136200084782021704565b6200079660217f6a6f624f6666657273000000000000000000000000000000000000000000000064010000000062001e136200084782021704565b620007d160247f6a6f624f66666572506f7374656441740000000000000000000000000000000064010000000062001ddd6200082e82021704565b6200080c60257f62696e645374617475730000000000000000000000000000000000000000000064010000000062001ddd6200082e82021704565b5060015b90565b81546200082a90826401000000006200085c810204565b9055565b62000843828264010000000062000813810204565b5050565b62000843828264010000000062000874810204565b8115158062000869575080155b156200084357600080fd5b62000843828264010000000062000889810204565b6040805160208082018490527f636f756e74000000000000000000000000000000000000000000000000000000828401528251602581840301815260459092019283905281516200094593869392909182918401908083835b60208310620009035780518252601f199092019160209182019101620008e2565b6001836020036101000a038019825116818451168082178552505050505050905001915050604051809103902062000813640100000000026401000000009004565b6040805160208082018490527f696e64657865730000000000000000000000000000000000000000000000000082840152825160278184030181526047909201928390528151620009c1936001870193929091829184019080838360208310620009035780518252601f199092019160209182019101620008e2565b6040805160208082018490527f76616c75657300000000000000000000000000000000000000000000000000008284015282516026818403018152604690920192839052815162000843936002870193929091829184019080838360208310620009035780518252601f199092019160209182019101620008e2565b828054600181600116156101000203166002900490600052602060002090601f016020900481019282601f1062000a8057805160ff191683800117855562000ab0565b8280016001018555821562000ab0579182015b8281111562000ab057825182559160200191906001019062000a93565b5062000abe92915062000ac2565b5090565b6200081091905b8082111562000abe576000815560010162000ac9565b6120098062000aef6000396000f3006080604052600436106100f85763ffffffff60e060020a6000350416630d9f281781146100fd5780630e1a9e3f1461012757806310fdf2171461013f57806314f608811461015757806322d20bac1461018b578063286ccd8b146101ac57806332c514d51461023257806336dd20a71461024a57806340637ba71461026257806353bc1c121461029157806354fd4d50146102a95780637b6845841461033357806387c0e1ff14610369578063aa7862f51461038a578063af405bfe146103b4578063c63adb0a14610409578063cb56dd7914610421578063d07e9f9014610439578063dce722dd1461044e578063fb51a63814610466575b600080fd5b34801561010957600080fd5b506101156004356105f3565b60408051918252519081900360200190f35b34801561013357600080fd5b5061011560043561060d565b34801561014b57600080fd5b50610115600435610621565b34801561016357600080fd5b5061016f600435610635565b60408051600160a060020a039092168252519081900360200190f35b34801561019757600080fd5b50610115600160a060020a0360043516610649565b3480156101b857600080fd5b506101e2600160a060020a036004351660243560443560643560843560a43560c43560e435610666565b60408051602080825283518183015283519192839290830191858101910280838360005b8381101561021e578181015183820152602001610206565b505050509050019250505060405180910390f35b34801561023e57600080fd5b5061011560043561074c565b34801561025657600080fd5b5061016f600435610760565b34801561026e57600080fd5b5061027d600435602435610774565b604080519115158252519081900360200190f35b34801561029d57600080fd5b506101156004356107f0565b3480156102b557600080fd5b506102be610804565b6040805160208082528351818301528351919283929083019185019080838360005b838110156102f85781810151838201526020016102e0565b50505050905090810190601f1680156103255780820380516001836020036101000a031916815260200191505b509250505060405180910390f35b34801561033f57600080fd5b506101e2600160a060020a036004351660243560443560643560843560a43560c43560e435610892565b34801561037557600080fd5b50610115600160a060020a0360043516610968565b34801561039657600080fd5b506101e260043560243560443560643560843560a43560c435610985565b3480156103c057600080fd5b50604080516020600480358082013583810280860185019096528085526101e295369593946024949385019291829185019084908082843750949750610a0e9650505050505050565b34801561041557600080fd5b50610115600435610fc7565b34801561042d57600080fd5b50610115600435610fdb565b34801561044557600080fd5b50610115610fef565b34801561045a57600080fd5b50610115600435611007565b34801561047257600080fd5b5061048460043560243560443561101b565b60405180878152602001806020018060200180602001806020018060200186810386528b818151815260200191508051906020019060200280838360005b838110156104da5781810151838201526020016104c2565b5050505090500186810385528a818151815260200191508051906020019060200280838360005b83811015610519578181015183820152602001610501565b50505050905001868103845289818151815260200191508051906020019060200280838360005b83811015610558578181015183820152602001610540565b50505050905001868103835288818151815260200191508051906020019060200280838360005b8381101561059757818101518382015260200161057f565b50505050905001868103825287818151815260200191508051906020019060200280838360005b838110156105d65781810151838201526020016105be565b505050509050019b50505050505050505050505060405180910390f35b600061060781600a8463ffffffff61128316565b92915050565b60006106078160098463ffffffff61128316565b60006106078160178463ffffffff61128316565b60006106078160068463ffffffff61128316565b600061060781601b600160a060020a03851663ffffffff61129816565b60606000806000806106778d610968565b935083871061068557600080fd5b83868801111561069757868403610699565b855b9550856040519080825280602002602001820160405280156106c5578160200160208202803883390190505b5094508691505b85870182101561073c576106fb601e8e600160a060020a03166001028460006112a5909392919063ffffffff16565b905061070b818d8d8d8d8d6112bc565b156107315780858481518110151561071f57fe5b60209081029091010152600192909201915b8160010191506106cc565b5050505098975050505050505050565b60006106078160088463ffffffff61128316565b60006106078160078463ffffffff61128316565b6000808061078a8160158763ffffffff61128316565b9150507f800000000000000000000000000000000000000000000000000000000000000081161580159081906107c1575060088410155b156107cf57600192506107e8565b801580156107de575060048410155b156107e857600192505b505092915050565b60006106078160058463ffffffff61128316565b6027805460408051602060026001851615610100026000190190941693909304601f8101849004840282018401909252818152929183018282801561088a5780601f1061085f5761010080835404028352916020019161088a565b820191906000526020600020905b81548152906001019060200180831161086d57829003601f168201915b505050505081565b60606000806000806108a38d610649565b93508387106108b157600080fd5b8386880111156108c3578684036108c5565b855b9550856040519080825280602002602001820160405280156108f1578160200160208202803883390190505b5094508691505b85870182101561073c57610927601b8e600160a060020a03166001028460006112a5909392919063ffffffff16565b9050610937818d8d8d8d8d6112bc565b1561095d5780858481518110151561094b57fe5b60209081029091010152600192909201915b8160010191506108f8565b600061060781601e600160a060020a03851663ffffffff61129816565b6060600080836040519080825280602002602001820160405280156109b4578160200160208202803883390190505b5092508490505b838501811015610a01576109d3818b8b8b8b8b6112bc565b156109f9578083838151811015156109e757fe5b60209081029091010152600191909101905b6001016109bb565b5050979650505050505050565b6060600080610a2481600263ffffffff61138516565b9150601660ff16845102604051908082528060200260200182016040528015610a57578160200160208202803883390190505b509250600090505b8351811015610fc0578381815181101515610a7657fe5b602090810290910101518351849060168402908110610a9157fe5b602090810290910101528351610ac990600690869084908110610ab057fe5b602090810290910101516000919063ffffffff61128316565b600160a060020a031660010283601660ff168302600201815181101515610aec57fe5b602090810290910101528351610b0b90600790869084908110610ab057fe5b600160a060020a031660010283601660ff168302600301815181101515610b2e57fe5b602090810290910101528351610b4d90600990869084908110610ab057fe5b8351849060046016850201908110610b6157fe5b602090810290910101528351610b8090600a90869084908110610ab057fe5b8351849060056016850201908110610b9457fe5b602090810290910101528351610bb390600b90869084908110610ab057fe5b8351849060066016850201908110610bc757fe5b602090810290910101528351610be690600890869084908110610ab057fe5b8351849060076016850201908110610bfa57fe5b602090810290910101528351610c1990600590869084908110610ab057fe5b8351849060086016850201908110610c2d57fe5b602090810290910101528351610c4c90601590869084908110610ab057fe5b8351849060096016850201908110610c6057fe5b602090810290910101528351610c9890601290869084908110610c7f57fe5b602090810290910101516000919063ffffffff61142c16565b610ca3576000610ca6565b60015b60ff1660010283601660ff168302600a01815181101515610cc357fe5b602090810290910101528351610ce290601790869084908110610ab057fe5b83518490600b6016850201908110610cf657fe5b602090810290910101528351610d1590600c90869084908110610ab057fe5b83518490600c6016850201908110610d2957fe5b602090810290910101528351610d4890600d90869084908110610ab057fe5b83518490600d6016850201908110610d5c57fe5b602090810290910101528351610d7b90600e90869084908110610ab057fe5b83518490600e6016850201908110610d8f57fe5b602090810290910101528351610dae90600f90869084908110610ab057fe5b83518490600f6016850201908110610dc257fe5b602090810290910101528351610de190601390869084908110610ab057fe5b8351849060106016850201908110610df557fe5b602090810290910101528351610e1490601490869084908110610ab057fe5b8351849060116016850201908110610e2857fe5b602090810290910101528351610e4790601090869084908110610ab057fe5b8351849060126016850201908110610e5b57fe5b602090810290910101528351610e7a90601190869084908110610ab057fe5b8351849060136016850201908110610e8e57fe5b602090810290910101528351610ead90602690869084908110610ab057fe5b8351849060146016850201908110610ec157fe5b602090810290910101528351610ee090601690869084908110610ab057fe5b8351849060156016850201908110610ef457fe5b60209081029091010152600160a060020a03821615610fb85781600160a060020a031663b1bf05108583815181101515610f2a57fe5b906020019060200201516040518263ffffffff1660e060020a02815260040180828152602001915050602060405180830381600087803b158015610f6d57600080fd5b505af1158015610f81573d6000803e3d6000fd5b505050506040513d6020811015610f9757600080fd5b50518351849060168402600101908110610fad57fe5b602090810290910101525b600101610a5f565b5050919050565b60006106078160218463ffffffff61129816565b60006106078160268463ffffffff61128316565b600061100281600463ffffffff61143916565b905090565b600061060781600b8463ffffffff61128316565b6000606080606080606060008060006110338c610fc7565b9250828b111561104257611274565b828a8c011115611054578a8303611056565b895b99508b985089604051908082528060200260200182016040528015611085578160200160208202803883390190505b509750896040519080825280602002602001820160405280156110b2578160200160208202803883390190505b509650896040519080825280602002602001820160405280156110df578160200160208202803883390190505b5095508960405190808252806020026020018201604052801561110c578160200160208202803883390190505b50945089604051908082528060200260200182016040528015611139578160200160208202803883390190505b509350600091508a90505b898b0181101561127457611162600060218e8463ffffffff6112a516565b888381518110151561117057fe5b90602001906020020190600160a060020a03169081600160a060020a0316815250506111c060188d8a858151811015156111a657fe5b60209081029091010151600092919063ffffffff6114ad16565b87838151811015156111ce57fe5b90602001906020020181815250506111f060198d8a858151811015156111a657fe5b86838151811015156111fe57fe5b9060200190602002018181525050611220601a8d8a858151811015156111a657fe5b858381518110151561122e57fe5b906020019060200201818152505061125060248d8a858151811015156111a657fe5b848381518110151561125e57fe5b6020908102909101015260019182019101611144565b50505093975093979195509350565b60006112908484846114c4565b949350505050565b60006112908484846115d4565b60006112b3858585856115e1565b95945050505050565b60006112d96112d38260058a63ffffffff61128316565b876115ef565b801561131157506001821161130e576112fb600060128963ffffffff61142c16565b1515611306836115f5565b151514611311565b60015b8015611334575061133461132e600060098a63ffffffff61128316565b866115ef565b801561135757506113576113516000600a8a63ffffffff61128316565b856115ef565b801561137a575061137a6113746000600b8a63ffffffff61128316565b846115ef565b979650505050505050565b815460018301548254604080517fd3a396860000000000000000000000000000000000000000000000000000000081526004810193909352602483019190915251600092600160a060020a03169163d3a3968691604480830192602092919082900301818787803b1580156113f957600080fd5b505af115801561140d573d6000803e3d6000fd5b505050506040513d602081101561142357600080fd5b50519392505050565b600061129084848461160e565b815460018301548254604080517f53aa3f5e0000000000000000000000000000000000000000000000000000000081526004810193909352602483019190915251600092600160a060020a0316916353aa3f5e91604480830192602092919082900301818787803b1580156113f957600080fd5b60006112b3858585600160a060020a03861661167b565b825460018401548354604080516020808201939093528082018690528151808203830181526060909101918290528051600095600160a060020a0316946337d9d7fc9490939182918401908083835b602083106115325780518252601f199092019160209182019101611513565b51815160209384036101000a60001901801990921691161790526040805192909401829003822063ffffffff891660e060020a028352600483019790975260248201969096529151604480840196955090935091839003909101905081600087803b1580156115a057600080fd5b505af11580156115b4573d6000803e3d6000fd5b505050506040513d60208110156115ca57600080fd5b5051949350505050565b6000611290848484611709565b60006112b385858585611716565b16151590565b600081600114611606576000610607565b506001919050565b825460018401548354604080516020808201939093528082018690528151808203830181526060909101918290528051600095600160a060020a0316946398eaf11c949093918291840190808383602083106115325780518252601f199092019160209182019101611513565b60408051602080820185905281830184905282518083038401815260609092019283905281516000936112b3938993899391929182918401908083835b602083106116d75780518252601f1990920191602091820191016116b8565b6001836020036101000a03801982511681845116808217855250505050505090500191505060405180910390206114c4565b600061129084848461172a565b60006112b38560028601856001860161167b565b825460018401548354604080516020808201939093528082018690528151808203830181526060909101918290528051600095600160a060020a0316946353aa3f5e949093918291840190808383602083106115325780518252601f199092019160209182019101611513565b825473ffffffffffffffffffffffffffffffffffffffff1916600160a060020a0392909216919091178255600190910155565b60006117fd60027f626f617264436f6e74726f6c6c6572000000000000000000000000000000000063ffffffff611dc116565b61182e60037f657363726f77416464726573730000000000000000000000000000000000000063ffffffff611dc116565b61185f60047f6a6f6273436f756e74000000000000000000000000000000000000000000000063ffffffff611dc116565b61189060057f6a6f62537461746500000000000000000000000000000000000000000000000063ffffffff611ddd16565b6118c160067f6a6f62436c69656e74000000000000000000000000000000000000000000000063ffffffff611ddd16565b6118f260077f6a6f62576f726b6572000000000000000000000000000000000000000000000063ffffffff611ddd16565b61192360087f6a6f6244657461696c734950465348617368000000000000000000000000000063ffffffff611ddd16565b61195460097f6a6f62536b696c6c73417265610000000000000000000000000000000000000063ffffffff611ddd16565b611985600a7f6a6f62536b696c6c7343617465676f727900000000000000000000000000000063ffffffff611ddd16565b6119b6600b7f6a6f62536b696c6c73000000000000000000000000000000000000000000000063ffffffff611ddd16565b6119e7600c7f6a6f62437265617465644174000000000000000000000000000000000000000063ffffffff611ddd16565b611a18600d7f6a6f62416363657074656441740000000000000000000000000000000000000063ffffffff611ddd16565b611a49600e7f6a6f6250656e64696e675374617274417400000000000000000000000000000063ffffffff611ddd16565b611a7a600f7f6a6f62537461727454696d65000000000000000000000000000000000000000063ffffffff611ddd16565b611aab60107f6a6f6250656e64696e6746696e6973684174000000000000000000000000000063ffffffff611ddd16565b611adc60117f6a6f6246696e69736854696d650000000000000000000000000000000000000063ffffffff611ddd16565b611b0d60127f6a6f62506175736564000000000000000000000000000000000000000000000063ffffffff611ddd16565b611b3e60137f6a6f62506175736564417400000000000000000000000000000000000000000063ffffffff611ddd16565b611b6f60147f6a6f62506175736564466f72000000000000000000000000000000000000000063ffffffff611ddd16565b611ba060157f6a6f62576f726b666c6f7754797065000000000000000000000000000000000063ffffffff611ddd16565b611bd160167f6a6f6252657175657374656454696d650000000000000000000000000000000063ffffffff611ddd16565b611c0260177f6a6f6244656661756c745061790000000000000000000000000000000000000063ffffffff611ddd16565b611c3360187f6a6f624f6666657252617465000000000000000000000000000000000000000063ffffffff611ddd16565b611c6460197f6a6f624f66666572457374696d6174650000000000000000000000000000000063ffffffff611ddd16565b611c95601a7f6a6f624f666665724f6e746f700000000000000000000000000000000000000063ffffffff611ddd16565b611cc660267f6a6f6246696e616c697a6564417400000000000000000000000000000000000063ffffffff611ddd16565b611cf7601b7f636c69656e744a6f62730000000000000000000000000000000000000000000063ffffffff611e1316565b611d28601e7f776f726b65724a6f62730000000000000000000000000000000000000000000063ffffffff611e1316565b611d5960217f6a6f624f6666657273000000000000000000000000000000000000000000000063ffffffff611e1316565b611d8a60247f6a6f624f66666572506f7374656441740000000000000000000000000000000063ffffffff611ddd16565b611dbb60257f62696e645374617475730000000000000000000000000000000000000000000063ffffffff611ddd16565b50600190565b8154611dcd9082611e27565b9055565b8154611dcd9082611e27565b611de78282611dc1565b5050565b611de78282611dc1565b611de78282611dc1565b611de78282611dc1565b611de78282611dc1565b611de78282611e3d565b611de78282611e3d565b81151580611e33575080155b15611de757600080fd5b611de782826040805160208082018490527f636f756e7400000000000000000000000000000000000000000000000000000082840152825160258184030181526045909201928390528151611eeb93869392909182918401908083835b60208310611eb95780518252601f199092019160209182019101611e9a565b6001836020036101000a0380198251168184511680821785525050505050509050019150506040518091039020611dc1565b6040805160208082018490527f696e64657865730000000000000000000000000000000000000000000000000082840152825160278184030181526047909201928390528151611f64936001870193929091829184019080838360208310611eb95780518252601f199092019160209182019101611e9a565b6040805160208082018490527f76616c756573000000000000000000000000000000000000000000000000000082840152825160268184030181526046909201928390528151611de7936002870193929091829184019080838360208310611eb95780518252601f199092019160209182019101611e9a5600a165627a7a723058201e3751312e30a60cd64f32b1b2225e037be3e551524a00885c0423e4a30b047a0029",
  "source": "/**\n * Copyright 20172018, LaborX PTY\n * Licensed under the AGPL Version 3 license.\n */\n\npragma solidity ^0.4.18;\n\n\nimport \"./base/BitOps.sol\";\nimport \"./JobDataCore.sol\";\n\n\ninterface BoardControllerAccessor {\n    function getJobsBoard(uint _jobId) external view returns (uint);\n}\n\n\ncontract JobsDataProvider is JobDataCore {\n\n    constructor(\n        Storage _store,\n        bytes32 _crate\n    )\n    JobDataCore(_store, _crate)\n    public\n    {\n        require(OK == JobDataCore._init());\n    }\n\n    /// @notice Gets filtered list of jobs ids that fulfill provided parameters\n    /// in a paginated way.\n    function getJobs(\n        uint _jobState,\n        uint _skillsArea,\n        uint _skillsCategory,\n        uint _skills,\n        uint _paused,\n        uint _fromId,\n        uint _maxLen\n    )\n    public\n    view\n    returns (uint[] _ids)\n    {\n        _ids = new uint[](_maxLen);\n        uint _pointer;\n        for (uint _jobId = _fromId; _jobId < _fromId + _maxLen; ++_jobId) {\n            if (_filterJob(_jobId, _jobState, _skillsArea, _skillsCategory, _skills, _paused)) {\n                _ids[_pointer] = _jobId;\n                _pointer += 1;\n            }\n        }\n    }\n\n    function getJobForClientCount(address _client) public view returns (uint) {\n        return store.count(clientJobs, bytes32(_client));\n    }\n\n    /// @notice Gets filtered jobs ids for a client where jobs have provided properties\n    /// (job state, skills area, skills category, skills, paused)\n    function getJobsForClient(\n        address _client,\n        uint _jobState,\n        uint _skillsArea,\n        uint _skillsCategory,\n        uint _skills,\n        uint _paused,\n        uint _fromIdx,\n        uint _maxLen\n    )\n    public\n    view\n    returns (uint[] _ids)\n    {\n        uint _count = getJobForClientCount(_client);\n        require(_fromIdx < _count);\n        _maxLen = (_fromIdx + _maxLen <= _count) ? _maxLen : (_count - _fromIdx);\n        _ids = new uint[](_maxLen);\n        uint _pointer;\n        for (uint _idx = _fromIdx; _idx < _fromIdx + _maxLen; ++_idx) {\n            uint _jobId = store.get(clientJobs, bytes32(_client), _idx);\n            if (_filterJob(_jobId, _jobState, _skillsArea, _skillsCategory, _skills, _paused)) {\n                _ids[_pointer] = _jobId;\n                _pointer += 1;\n            }\n        }\n    }\n\n    function getJobForWorkerCount(address _worker) public view returns (uint) {\n        return store.count(workerJobs, bytes32(_worker));\n    }\n\n    /// @notice Gets filtered jobs for a worker\n    /// Doesn't inlcude jobs for which a worker had posted an offer but\n    /// other worker got the job\n    /// @param _jobState a bitmask, job's state; if INT.MAX then jobs with any state will be included in output\n    /// @param _paused if job should be paused or not, convertible to bool; if greater than '1' then output includes both states\n    function getJobForWorker(\n        address _worker,\n        uint _jobState,\n        uint _skillsArea,\n        uint _skillsCategory,\n        uint _skills,\n        uint _paused,\n        uint _fromIdx,\n        uint _maxLen\n    )\n    public\n    view\n    returns (uint[] _ids)\n    {\n        uint _count = getJobForWorkerCount(_worker);\n        require(_fromIdx < _count);\n        _maxLen = (_fromIdx + _maxLen <= _count) ? _maxLen : (_count - _fromIdx);\n        _ids = new uint[](_maxLen);\n        uint _pointer;\n        for (uint _idx = _fromIdx; _idx < _fromIdx + _maxLen; ++_idx) {\n            uint _jobId = store.get(workerJobs, bytes32(_worker), _idx);\n            if (_filterJob(_jobId, _jobState, _skillsArea, _skillsCategory, _skills, _paused)) {\n                _ids[_pointer] = _jobId;\n                _pointer += 1;\n            }\n        }\n    }\n\n    function _filterJob(\n        uint _jobId,\n        uint _jobState,\n        uint _skillsArea,\n        uint _skillsCategory,\n        uint _skills,\n        uint _paused\n    )\n    private\n    view\n    returns (bool)\n    {\n        return _hasFlag(store.get(jobState, _jobId), _jobState) &&\n            (_paused > 1 ? true : (_toBool(_paused) == store.get(jobPaused, _jobId))) &&\n            _hasFlag(store.get(jobSkillsArea, _jobId), _skillsArea) &&\n            _hasFlag(store.get(jobSkillsCategory, _jobId), _skillsCategory) &&\n            _hasFlag(store.get(jobSkills, _jobId), _skills);\n    }\n\n    function _toBool(uint _value) private pure returns (bool) {\n        return _value == 1 ? true : false;\n    }\n\n    function getJobsCount() public view returns (uint) {\n        return store.get(jobsCount);\n    }\n\n    uint8 constant JOBS_RESULT_OFFSET = 22;\n\n    /// @notice Gets jobs details in an archived way (too little stack size\n    /// for such amount of return values)\n    /// @return {\n    ///     \"_gotIds\": \"`uint` identifier\",\n    ///     \"_boardId\": \"`uint` board identifier where job was pinned, '0' if no such board\",\n    ///     \"_client\": \"client's address\",\n    ///     \"_worker\": \"worker's address\",\n    ///     \"_skillsArea\": \"`uint` skills area mask\",\n    ///     \"_skillsCategory\": \"`uint` skills category mask\",\n    ///     \"_skills\": \"`uint` skills mask\",\n    ///     \"_detailsIpfs\": \"`bytes32` details hash\",\n    ///     \"_state\": \"`uint` job's state, see JobState\",\n    ///     \"_flowType\": \"`uint` job's workflow type, see WorkflowType enum\",\n    ///     \"_paused\": \"`bool` paused or not, '1' - paused, '0' - running\",\n    ///     \"_defaultPay\": \"`uint` job's default pay size for job seekers\",\n    ///     \"_createdAt\": \"`uint` publishing (creation) timestamp\",\n    ///     \"_acceptedAt\": \"`uint` an offer has been accepted timestamp\",\n    ///     \"_pendingStartAt\": \"`uint` pending started timestamp\",\n    ///     \"_startedAt\": \"`uint` work started timestamp\",\n    ///     \"_pausedAt\": \"`uint` work's pause timestamp\",\n    ///     \"_pausedFor\": \"`uint` work's pause duration\",\n    ///     \"_pendingFinishAt\": \"`uint` pending finish timestamp\",\n    ///     \"_finishedAt\": \"`uint` work finished timestamp\",\n    ///     \"_finalizedAt\": \"`uint` paycheck finalized timestamp\",\n    ///     \"_timeRequested\": \"`uint` additional time requested by a worker, must be accepted/rejected by a client\",\n    /// }\n    function getJobsByIds(uint[] _jobIds) public view returns (\n        bytes32[] _results\n    ) {\n        BoardControllerAccessor _boardController = BoardControllerAccessor(store.get(boardController));\n        _results = new bytes32[](_jobIds.length * JOBS_RESULT_OFFSET);\n        for (uint _idx = 0; _idx < _jobIds.length; ++_idx) {\n            _results[_idx * JOBS_RESULT_OFFSET + 0] = bytes32(_jobIds[_idx]);\n            _results[_idx * JOBS_RESULT_OFFSET + 2] = bytes32(store.get(jobClient, _jobIds[_idx]));\n            _results[_idx * JOBS_RESULT_OFFSET + 3] = bytes32(store.get(jobWorker, _jobIds[_idx]));\n            _results[_idx * JOBS_RESULT_OFFSET + 4] = bytes32(store.get(jobSkillsArea, _jobIds[_idx]));\n            _results[_idx * JOBS_RESULT_OFFSET + 5] = bytes32(store.get(jobSkillsCategory, _jobIds[_idx]));\n            _results[_idx * JOBS_RESULT_OFFSET + 6] = bytes32(store.get(jobSkills, _jobIds[_idx]));\n            _results[_idx * JOBS_RESULT_OFFSET + 7] = store.get(jobDetailsIPFSHash, _jobIds[_idx]);\n            _results[_idx * JOBS_RESULT_OFFSET + 8] = bytes32(store.get(jobState, _jobIds[_idx]));\n            _results[_idx * JOBS_RESULT_OFFSET + 9] = bytes32(store.get(jobWorkflowType, _jobIds[_idx]));\n            _results[_idx * JOBS_RESULT_OFFSET + 10] = bytes32(store.get(jobPaused, _jobIds[_idx]) ? 1 : 0);\n            _results[_idx * JOBS_RESULT_OFFSET + 11] = bytes32(store.get(jobDefaultPay, _jobIds[_idx]));\n            _results[_idx * JOBS_RESULT_OFFSET + 12] = bytes32(store.get(jobCreatedAt, _jobIds[_idx]));\n            _results[_idx * JOBS_RESULT_OFFSET + 13] = bytes32(store.get(jobAcceptedAt, _jobIds[_idx]));\n            _results[_idx * JOBS_RESULT_OFFSET + 14] = bytes32(store.get(jobPendingStartAt, _jobIds[_idx]));\n            _results[_idx * JOBS_RESULT_OFFSET + 15] = bytes32(store.get(jobStartTime, _jobIds[_idx]));\n            _results[_idx * JOBS_RESULT_OFFSET + 16] = bytes32(store.get(jobPausedAt, _jobIds[_idx]));\n            _results[_idx * JOBS_RESULT_OFFSET + 17] = bytes32(store.get(jobPausedFor, _jobIds[_idx]));\n            _results[_idx * JOBS_RESULT_OFFSET + 18] = bytes32(store.get(jobPendingFinishAt, _jobIds[_idx]));\n            _results[_idx * JOBS_RESULT_OFFSET + 19] = bytes32(store.get(jobFinishTime, _jobIds[_idx]));\n            _results[_idx * JOBS_RESULT_OFFSET + 20] = bytes32(store.get(jobFinalizedAt, _jobIds[_idx]));\n            _results[_idx * JOBS_RESULT_OFFSET + 21] = bytes32(store.get(jobRequestedAdditionalTime, _jobIds[_idx]));\n\n            if (address(_boardController) != 0x0) {\n                _results[_idx * JOBS_RESULT_OFFSET + 1] = bytes32(_boardController.getJobsBoard(_jobIds[_idx]));\n            }\n        }\n    }\n\n    function getJobOffersCount(uint _jobId) public view returns (uint) {\n        return store.count(jobOffers, bytes32(_jobId));\n    }\n\n    function getJobOffers(uint _jobId, uint _fromIdx, uint _maxLen) public view returns (\n        uint _id,\n        address[] _workers,\n        uint[] _rates,\n        uint[] _estimates,\n        uint[] _onTops,\n        uint[] _offerPostedAt\n    ) {\n        uint _offersCount = getJobOffersCount(_jobId);\n        if (_fromIdx > _offersCount) {\n            return;\n        }\n\n        _maxLen = (_fromIdx + _maxLen <= _offersCount) ? _maxLen : (_offersCount - _fromIdx);\n\n        _id = _jobId;\n        _workers = new address[](_maxLen);\n        _rates = new uint[](_maxLen);\n        _estimates = new uint[](_maxLen);\n        _onTops = new uint[](_maxLen);\n        _offerPostedAt = new uint[](_maxLen);\n        uint _pointer = 0;\n\n        for (uint _offerIdx = _fromIdx; _offerIdx < _fromIdx + _maxLen; ++_offerIdx) {\n            _workers[_pointer] = store.get(jobOffers, bytes32(_jobId), _offerIdx);\n            _rates[_pointer] = store.get(jobOfferRate, _jobId, _workers[_pointer]);\n            _estimates[_pointer] = store.get(jobOfferEstimate, _jobId, _workers[_pointer]);\n            _onTops[_pointer] = store.get(jobOfferOntop, _jobId, _workers[_pointer]);\n            _offerPostedAt[_pointer] = store.get(jobOfferPostedAt, _jobId, _workers[_pointer]);\n            _pointer += 1;\n        }\n    }\n\n    function getJobClient(uint _jobId) public view returns (address) {\n        return store.get(jobClient, _jobId);\n    }\n\n    function getJobWorker(uint _jobId) public view returns (address) {\n        return store.get(jobWorker, _jobId);\n    }\n\n    function isActivatedState(uint _jobId, uint _jobState) public view returns (bool) {\n        uint _flow = store.get(jobWorkflowType, _jobId);\n        bool _needsConfirmation = (_flow & WORKFLOW_CONFIRMATION_NEEDED_FLAG) != 0;\n        if (_needsConfirmation && \n        _jobState >= JOB_STATE_STARTED\n        ) {\n            return true;\n        }\n\n        if (!_needsConfirmation &&\n            _jobState >= JOB_STATE_PENDING_START\n        ) {\n            return true;\n        }\n    }\n\n    function getJobSkillsArea(uint _jobId) public view returns (uint) {\n        return store.get(jobSkillsArea, _jobId);\n    }\n\n    function getJobSkillsCategory(uint _jobId) public view returns (uint) {\n        return store.get(jobSkillsCategory, _jobId);\n    }\n\n    function getJobSkills(uint _jobId) public view returns (uint) {\n        return store.get(jobSkills, _jobId);\n    }\n\n    function getJobDetailsIPFSHash(uint _jobId) public view returns (bytes32) {\n        return store.get(jobDetailsIPFSHash, _jobId);\n    }\n\n    function getJobDefaultPay(uint _jobId) public view returns (uint) {\n        return uint(store.get(jobDefaultPay, _jobId));\n    }\n\n    function getJobState(uint _jobId) public view returns (uint) {\n        return uint(store.get(jobState, _jobId));\n    }\n\n    function getFinalState(uint _jobId) public view returns (uint) {\n        return store.get(jobFinalizedAt, _jobId);\n    }\n}\n",
  "sourcePath": "/Users/alesanro/Documents/Projects/ChronoBank/LX-SC/contracts/JobsDataProvider.sol",
  "compiler": {
    "name": "solc",
    "version": "0.4.24+commit.e67f0147.Emscripten.clang"
  },
  "schemaVersion": "2.0.1",
  "updatedAt": "2018-07-20T10:51:35.538Z"
}