{
  "contractName": "JobsDataProvider",
  "abi": [
    {
      "constant": true,
      "inputs": [],
      "name": "version",
      "outputs": [
        {
          "name": "",
          "type": "string"
        }
      ],
      "payable": false,
      "stateMutability": "view",
      "type": "function"
    },
    {
      "inputs": [
        {
          "name": "_store",
          "type": "address"
        },
        {
          "name": "_crate",
          "type": "bytes32"
        }
      ],
      "payable": false,
      "stateMutability": "nonpayable",
      "type": "constructor"
    },
    {
      "constant": true,
      "inputs": [
        {
          "name": "_jobState",
          "type": "uint256"
        },
        {
          "name": "_skillsArea",
          "type": "uint256"
        },
        {
          "name": "_skillsCategory",
          "type": "uint256"
        },
        {
          "name": "_skills",
          "type": "uint256"
        },
        {
          "name": "_paused",
          "type": "uint256"
        },
        {
          "name": "_fromId",
          "type": "uint256"
        },
        {
          "name": "_maxLen",
          "type": "uint256"
        }
      ],
      "name": "getJobs",
      "outputs": [
        {
          "name": "_ids",
          "type": "uint256[]"
        }
      ],
      "payable": false,
      "stateMutability": "view",
      "type": "function"
    },
    {
      "constant": true,
      "inputs": [
        {
          "name": "_client",
          "type": "address"
        }
      ],
      "name": "getJobForClientCount",
      "outputs": [
        {
          "name": "",
          "type": "uint256"
        }
      ],
      "payable": false,
      "stateMutability": "view",
      "type": "function"
    },
    {
      "constant": true,
      "inputs": [
        {
          "name": "_client",
          "type": "address"
        },
        {
          "name": "_jobState",
          "type": "uint256"
        },
        {
          "name": "_skillsArea",
          "type": "uint256"
        },
        {
          "name": "_skillsCategory",
          "type": "uint256"
        },
        {
          "name": "_skills",
          "type": "uint256"
        },
        {
          "name": "_paused",
          "type": "uint256"
        },
        {
          "name": "_fromIdx",
          "type": "uint256"
        },
        {
          "name": "_maxLen",
          "type": "uint256"
        }
      ],
      "name": "getJobsForClient",
      "outputs": [
        {
          "name": "_ids",
          "type": "uint256[]"
        }
      ],
      "payable": false,
      "stateMutability": "view",
      "type": "function"
    },
    {
      "constant": true,
      "inputs": [
        {
          "name": "_worker",
          "type": "address"
        }
      ],
      "name": "getJobForWorkerCount",
      "outputs": [
        {
          "name": "",
          "type": "uint256"
        }
      ],
      "payable": false,
      "stateMutability": "view",
      "type": "function"
    },
    {
      "constant": true,
      "inputs": [
        {
          "name": "_worker",
          "type": "address"
        },
        {
          "name": "_jobState",
          "type": "uint256"
        },
        {
          "name": "_skillsArea",
          "type": "uint256"
        },
        {
          "name": "_skillsCategory",
          "type": "uint256"
        },
        {
          "name": "_skills",
          "type": "uint256"
        },
        {
          "name": "_paused",
          "type": "uint256"
        },
        {
          "name": "_fromIdx",
          "type": "uint256"
        },
        {
          "name": "_maxLen",
          "type": "uint256"
        }
      ],
      "name": "getJobForWorker",
      "outputs": [
        {
          "name": "_ids",
          "type": "uint256[]"
        }
      ],
      "payable": false,
      "stateMutability": "view",
      "type": "function"
    },
    {
      "constant": true,
      "inputs": [],
      "name": "getJobsCount",
      "outputs": [
        {
          "name": "",
          "type": "uint256"
        }
      ],
      "payable": false,
      "stateMutability": "view",
      "type": "function"
    },
    {
      "constant": true,
      "inputs": [
        {
          "name": "_jobIds",
          "type": "uint256[]"
        }
      ],
      "name": "getJobsByIds",
      "outputs": [
        {
          "name": "_results",
          "type": "bytes32[]"
        }
      ],
      "payable": false,
      "stateMutability": "view",
      "type": "function"
    },
    {
      "constant": true,
      "inputs": [
        {
          "name": "_jobId",
          "type": "uint256"
        }
      ],
      "name": "getJobOffersCount",
      "outputs": [
        {
          "name": "",
          "type": "uint256"
        }
      ],
      "payable": false,
      "stateMutability": "view",
      "type": "function"
    },
    {
      "constant": true,
      "inputs": [
        {
          "name": "_jobId",
          "type": "uint256"
        },
        {
          "name": "_fromIdx",
          "type": "uint256"
        },
        {
          "name": "_maxLen",
          "type": "uint256"
        }
      ],
      "name": "getJobOffers",
      "outputs": [
        {
          "name": "_id",
          "type": "uint256"
        },
        {
          "name": "_workers",
          "type": "address[]"
        },
        {
          "name": "_rates",
          "type": "uint256[]"
        },
        {
          "name": "_estimates",
          "type": "uint256[]"
        },
        {
          "name": "_onTops",
          "type": "uint256[]"
        },
        {
          "name": "_offerPostedAt",
          "type": "uint256[]"
        }
      ],
      "payable": false,
      "stateMutability": "view",
      "type": "function"
    },
    {
      "constant": true,
      "inputs": [
        {
          "name": "_jobId",
          "type": "uint256"
        }
      ],
      "name": "getJobClient",
      "outputs": [
        {
          "name": "",
          "type": "address"
        }
      ],
      "payable": false,
      "stateMutability": "view",
      "type": "function"
    },
    {
      "constant": true,
      "inputs": [
        {
          "name": "_jobId",
          "type": "uint256"
        }
      ],
      "name": "getJobWorker",
      "outputs": [
        {
          "name": "",
          "type": "address"
        }
      ],
      "payable": false,
      "stateMutability": "view",
      "type": "function"
    },
    {
      "constant": true,
      "inputs": [
        {
          "name": "_jobId",
          "type": "uint256"
        },
        {
          "name": "_jobState",
          "type": "uint256"
        }
      ],
      "name": "isActivatedState",
      "outputs": [
        {
          "name": "",
          "type": "bool"
        }
      ],
      "payable": false,
      "stateMutability": "view",
      "type": "function"
    },
    {
      "constant": true,
      "inputs": [
        {
          "name": "_jobId",
          "type": "uint256"
        }
      ],
      "name": "getJobSkillsArea",
      "outputs": [
        {
          "name": "",
          "type": "uint256"
        }
      ],
      "payable": false,
      "stateMutability": "view",
      "type": "function"
    },
    {
      "constant": true,
      "inputs": [
        {
          "name": "_jobId",
          "type": "uint256"
        }
      ],
      "name": "getJobSkillsCategory",
      "outputs": [
        {
          "name": "",
          "type": "uint256"
        }
      ],
      "payable": false,
      "stateMutability": "view",
      "type": "function"
    },
    {
      "constant": true,
      "inputs": [
        {
          "name": "_jobId",
          "type": "uint256"
        }
      ],
      "name": "getJobSkills",
      "outputs": [
        {
          "name": "",
          "type": "uint256"
        }
      ],
      "payable": false,
      "stateMutability": "view",
      "type": "function"
    },
    {
      "constant": true,
      "inputs": [
        {
          "name": "_jobId",
          "type": "uint256"
        }
      ],
      "name": "getJobDetailsIPFSHash",
      "outputs": [
        {
          "name": "",
          "type": "bytes32"
        }
      ],
      "payable": false,
      "stateMutability": "view",
      "type": "function"
    },
    {
      "constant": true,
      "inputs": [
        {
          "name": "_jobId",
          "type": "uint256"
        }
      ],
      "name": "getJobDefaultPay",
      "outputs": [
        {
          "name": "",
          "type": "uint256"
        }
      ],
      "payable": false,
      "stateMutability": "view",
      "type": "function"
    },
    {
      "constant": true,
      "inputs": [
        {
          "name": "_jobId",
          "type": "uint256"
        }
      ],
      "name": "getJobState",
      "outputs": [
        {
          "name": "",
          "type": "uint256"
        }
      ],
      "payable": false,
      "stateMutability": "view",
      "type": "function"
    },
    {
      "constant": true,
      "inputs": [
        {
          "name": "_jobId",
          "type": "uint256"
        }
      ],
      "name": "getFinalState",
      "outputs": [
        {
          "name": "",
          "type": "uint256"
        }
      ],
      "payable": false,
      "stateMutability": "view",
      "type": "function"
    },
    {
      "constant": true,
      "inputs": [
        {
          "name": "worker",
          "type": "address"
        },
        {
          "name": "_jobId",
          "type": "uint256"
        },
        {
          "name": "_time",
          "type": "uint256"
        },
        {
          "name": "_onTop",
          "type": "uint256"
        }
      ],
      "name": "calculateLock",
      "outputs": [
        {
          "name": "",
          "type": "uint256"
        }
      ],
      "payable": false,
      "stateMutability": "view",
      "type": "function"
    },
    {
      "constant": true,
      "inputs": [
        {
          "name": "_jobId",
          "type": "uint256"
        }
      ],
      "name": "calculateLockAmount",
      "outputs": [
        {
          "name": "",
          "type": "uint256"
        }
      ],
      "payable": false,
      "stateMutability": "view",
      "type": "function"
    },
    {
      "constant": true,
      "inputs": [
        {
          "name": "worker",
          "type": "address"
        },
        {
          "name": "_jobId",
          "type": "uint256"
        }
      ],
      "name": "calculateLockAmountFor",
      "outputs": [
        {
          "name": "",
          "type": "uint256"
        }
      ],
      "payable": false,
      "stateMutability": "view",
      "type": "function"
    },
    {
      "constant": true,
      "inputs": [
        {
          "name": "_jobId",
          "type": "uint256"
        }
      ],
      "name": "calculatePaycheck",
      "outputs": [
        {
          "name": "",
          "type": "uint256"
        }
      ],
      "payable": false,
      "stateMutability": "view",
      "type": "function"
    },
    {
      "constant": true,
      "inputs": [
        {
          "name": "_rate",
          "type": "uint256"
        },
        {
          "name": "_estimate",
          "type": "uint256"
        },
        {
          "name": "_ontop",
          "type": "uint256"
        }
      ],
      "name": "isValidEstimate",
      "outputs": [
        {
          "name": "",
          "type": "bool"
        }
      ],
      "payable": false,
      "stateMutability": "pure",
      "type": "function"
    }
  ],
  "bytecode": "0x60c0604052600660808190527f76302e302e31000000000000000000000000000000000000000000000000000060a090815262000040916027919062000a3d565b503480156200004e57600080fd5b506040516040806200307183398101604052805160209091015181818181620000886000838364010000000062001d10620000bf82021704565b50505050620000aa620000e56401000000000262001d43176401000000009004565b600114620000b757600080fd5b505062000adf565b8254600160a060020a031916600160a060020a0392909216919091178255600190910155565b60006200012260027f626f617264436f6e74726f6c6c657200000000000000000000000000000000006401000000006200233a6200081382021704565b6200015d60037f657363726f7741646472657373000000000000000000000000000000000000006401000000006200233a6200081382021704565b6200019860047f6a6f6273436f756e7400000000000000000000000000000000000000000000006401000000006200233a6200081382021704565b620001d360057f6a6f625374617465000000000000000000000000000000000000000000000000640100000000620023566200082e82021704565b6200020e60067f6a6f62436c69656e740000000000000000000000000000000000000000000000640100000000620023566200082e82021704565b6200024960077f6a6f62576f726b65720000000000000000000000000000000000000000000000640100000000620023566200082e82021704565b6200028460087f6a6f6244657461696c7349504653486173680000000000000000000000000000640100000000620023566200082e82021704565b620002bf60097f6a6f62536b696c6c734172656100000000000000000000000000000000000000640100000000620023566200082e82021704565b620002fa600a7f6a6f62536b696c6c7343617465676f7279000000000000000000000000000000640100000000620023566200082e82021704565b62000335600b7f6a6f62536b696c6c730000000000000000000000000000000000000000000000640100000000620023566200082e82021704565b62000370600c7f6a6f624372656174656441740000000000000000000000000000000000000000640100000000620023566200082e82021704565b620003ab600d7f6a6f624163636570746564417400000000000000000000000000000000000000640100000000620023566200082e82021704565b620003e6600e7f6a6f6250656e64696e6753746172744174000000000000000000000000000000640100000000620023566200082e82021704565b62000421600f7f6a6f62537461727454696d650000000000000000000000000000000000000000640100000000620023566200082e82021704565b6200045c60107f6a6f6250656e64696e6746696e69736841740000000000000000000000000000640100000000620023566200082e82021704565b6200049760117f6a6f6246696e69736854696d6500000000000000000000000000000000000000640100000000620023566200082e82021704565b620004d260127f6a6f625061757365640000000000000000000000000000000000000000000000640100000000620023566200082e82021704565b6200050d60137f6a6f625061757365644174000000000000000000000000000000000000000000640100000000620023566200082e82021704565b6200054860147f6a6f62506175736564466f720000000000000000000000000000000000000000640100000000620023566200082e82021704565b6200058360157f6a6f62576f726b666c6f77547970650000000000000000000000000000000000640100000000620023566200082e82021704565b620005be60167f6a6f6252657175657374656454696d6500000000000000000000000000000000640100000000620023566200082e82021704565b620005f960177f6a6f6244656661756c7450617900000000000000000000000000000000000000640100000000620023566200082e82021704565b6200063460187f6a6f624f66666572526174650000000000000000000000000000000000000000640100000000620023566200082e82021704565b6200066f60197f6a6f624f66666572457374696d61746500000000000000000000000000000000640100000000620023566200082e82021704565b620006aa601a7f6a6f624f666665724f6e746f7000000000000000000000000000000000000000640100000000620023566200082e82021704565b620006e560267f6a6f6246696e616c697a65644174000000000000000000000000000000000000640100000000620023566200082e82021704565b62000720601b7f636c69656e744a6f6273000000000000000000000000000000000000000000006401000000006200238c6200084782021704565b6200075b601e7f776f726b65724a6f6273000000000000000000000000000000000000000000006401000000006200238c6200084782021704565b6200079660217f6a6f624f666665727300000000000000000000000000000000000000000000006401000000006200238c6200084782021704565b620007d160247f6a6f624f66666572506f73746564417400000000000000000000000000000000640100000000620023566200082e82021704565b6200080c60257f62696e6453746174757300000000000000000000000000000000000000000000640100000000620023566200082e82021704565b5060015b90565b81546200082a90826401000000006200085c810204565b9055565b62000843828264010000000062000813810204565b5050565b62000843828264010000000062000874810204565b8115158062000869575080155b156200084357600080fd5b62000843828264010000000062000889810204565b6040805160208082018490527f636f756e74000000000000000000000000000000000000000000000000000000828401528251602581840301815260459092019283905281516200094593869392909182918401908083835b60208310620009035780518252601f199092019160209182019101620008e2565b6001836020036101000a038019825116818451168082178552505050505050905001915050604051809103902062000813640100000000026401000000009004565b6040805160208082018490527f696e64657865730000000000000000000000000000000000000000000000000082840152825160278184030181526047909201928390528151620009c1936001870193929091829184019080838360208310620009035780518252601f199092019160209182019101620008e2565b6040805160208082018490527f76616c75657300000000000000000000000000000000000000000000000000008284015282516026818403018152604690920192839052815162000843936002870193929091829184019080838360208310620009035780518252601f199092019160209182019101620008e2565b828054600181600116156101000203166002900490600052602060002090601f016020900481019282601f1062000a8057805160ff191683800117855562000ab0565b8280016001018555821562000ab0579182015b8281111562000ab057825182559160200191906001019062000a93565b5062000abe92915062000ac2565b5090565b6200081091905b8082111562000abe576000815560010162000ac9565b6125828062000aef6000396000f30060806040526004361061012f5763ffffffff60e060020a6000350416630419d0e481146101345780630d9f28171461016a5780630e1a9e3f1461018257806310fdf2171461019a57806314f60881146101b257806322d20bac146101e6578063286ccd8b1461020757806332c514d51461028d57806336dd20a7146102a557806340637ba7146102bd57806353bc1c12146102ec57806354fd4d5014610304578063596fab6c1461038e5780637b684584146103a657806387c0e1ff146103dc57806389c29b61146103fd578063aa7862f514610415578063af405bfe1461043f578063c04944f114610494578063c63adb0a146104be578063cb56dd79146104d6578063d07e9f90146104ee578063d67a496c14610503578063dce722dd14610521578063fb51a63814610539575b600080fd5b34801561014057600080fd5b50610158600160a060020a03600435166024356106c6565b60408051918252519081900360200190f35b34801561017657600080fd5b5061015860043561075b565b34801561018e57600080fd5b50610158600435610775565b3480156101a657600080fd5b50610158600435610789565b3480156101be57600080fd5b506101ca60043561079d565b60408051600160a060020a039092168252519081900360200190f35b3480156101f257600080fd5b50610158600160a060020a03600435166107b1565b34801561021357600080fd5b5061023d600160a060020a036004351660243560443560643560843560a43560c43560e4356107ce565b60408051602080825283518183015283519192839290830191858101910280838360005b83811015610279578181015183820152602001610261565b505050509050019250505060405180910390f35b34801561029957600080fd5b506101586004356108b4565b3480156102b157600080fd5b506101ca6004356108c8565b3480156102c957600080fd5b506102d86004356024356108dc565b604080519115158252519081900360200190f35b3480156102f857600080fd5b50610158600435610938565b34801561031057600080fd5b5061031961094c565b6040805160208082528351818301528351919283929083019185019080838360005b8381101561035357818101518382015260200161033b565b50505050905090810190601f1680156103805780820380516001836020036101000a031916815260200191505b509250505060405180910390f35b34801561039a57600080fd5b506101586004356109da565b3480156103b257600080fd5b5061023d600160a060020a036004351660243560443560643560843560a43560c43560e435610a04565b3480156103e857600080fd5b50610158600160a060020a0360043516610ada565b34801561040957600080fd5b50610158600435610af7565b34801561042157600080fd5b5061023d60043560243560443560643560843560a43560c435610b47565b34801561044b57600080fd5b506040805160206004803580820135838102808601850190965280855261023d95369593946024949385019291829185019084908082843750949750610bd09650505050505050565b3480156104a057600080fd5b50610158600160a060020a0360043516602435604435606435611189565b3480156104ca57600080fd5b506101586004356111b6565b3480156104e257600080fd5b506101586004356111ca565b3480156104fa57600080fd5b506101586111de565b34801561050f57600080fd5b506102d86004356024356044356111f6565b34801561052d57600080fd5b5061015860043561125f565b34801561054557600080fd5b50610557600435602435604435611273565b60405180878152602001806020018060200180602001806020018060200186810386528b818151815260200191508051906020019060200280838360005b838110156105ad578181015183820152602001610595565b5050505090500186810385528a818151815260200191508051906020019060200280838360005b838110156105ec5781810151838201526020016105d4565b50505050905001868103845289818151815260200191508051906020019060200280838360005b8381101561062b578181015183820152602001610613565b50505050905001868103835288818151815260200191508051906020019060200280838360005b8381101561066a578181015183820152602001610652565b50505050905001868103825287818151815260200191508051906020019060200280838360005b838110156106a9578181015183820152602001610691565b505050509050019b50505050505050505050505060405180910390f35b600080806106dc8160158663ffffffff6114db16565b91506106e98260016114f0565b1561072d576107026000601a868863ffffffff6114f616565b9050610726858561071d60006019838563ffffffff6114f616565b603c0184611189565b9250610753565b6107388260026114f0565b156107515761072660006018868863ffffffff6114f616565bfe5b505092915050565b600061076f81600a8463ffffffff6114db16565b92915050565b600061076f8160098463ffffffff6114db16565b600061076f8160178463ffffffff6114db16565b600061076f8160068463ffffffff6114db16565b600061076f81601b600160a060020a03851663ffffffff61151616565b60606000806000806107df8d610ada565b93508387106107ed57600080fd5b8386880111156107ff57868403610801565b855b95508560405190808252806020026020018201604052801561082d578160200160208202803883390190505b5094508691505b8587018210156108a457610863601e8e600160a060020a0316600102846000611523909392919063ffffffff16565b9050610873818d8d8d8d8d611531565b156108995780858481518110151561088757fe5b60209081029091010152600192909201915b816001019150610834565b5050505098975050505050505050565b600061076f8160088463ffffffff6114db16565b600061076f8160078463ffffffff6114db16565b600080806108f28160158763ffffffff6114db16565b91505060ff60020a811615801590819061090d575060088410155b1561091b5760019250610753565b8015801561092a575060048410155b156107535760019250610753565b600061076f8160058463ffffffff6114db16565b6027805460408051602060026001851615610100026000190190941693909304601f810184900484028201840190925281815292918301828280156109d25780601f106109a7576101008083540402835291602001916109d2565b820191906000526020600020905b8154815290600101906020018083116109b557829003601f168201915b505050505081565b6000806109ef8160078563ffffffff6114db16565b90506109fb81846106c6565b91505b50919050565b6060600080600080610a158d6107b1565b9350838710610a2357600080fd5b838688011115610a3557868403610a37565b855b955085604051908082528060200260200182016040528015610a63578160200160208202803883390190505b5094508691505b8587018210156108a457610a99601b8e600160a060020a0316600102846000611523909392919063ffffffff16565b9050610aa9818d8d8d8d8d611531565b15610acf57808584815181101515610abd57fe5b60209081029091010152600192909201915b816001019150610a6a565b600061076f81601e600160a060020a03851663ffffffff61151616565b600080610b0c8160158563ffffffff6114db16565b9050610b198160016114f0565b15610b2e57610b27836115fa565b91506109fe565b610b398160026114f0565b1561075157610b2783611841565b606060008083604051908082528060200260200182016040528015610b76578160200160208202803883390190505b5092508490505b838501811015610bc357610b95818b8b8b8b8b611531565b15610bbb57808383815181101515610ba957fe5b60209081029091010152600191909101905b600101610b7d565b5050979650505050505050565b6060600080610be681600263ffffffff61188816565b9150601660ff16845102604051908082528060200260200182016040528015610c19578160200160208202803883390190505b509250600090505b8351811015611182578381815181101515610c3857fe5b602090810290910101518351849060168402908110610c5357fe5b602090810290910101528351610c8b90600690869084908110610c7257fe5b602090810290910101516000919063ffffffff6114db16565b600160a060020a031660010283601660ff168302600201815181101515610cae57fe5b602090810290910101528351610ccd90600790869084908110610c7257fe5b600160a060020a031660010283601660ff168302600301815181101515610cf057fe5b602090810290910101528351610d0f90600990869084908110610c7257fe5b8351849060046016850201908110610d2357fe5b602090810290910101528351610d4290600a90869084908110610c7257fe5b8351849060056016850201908110610d5657fe5b602090810290910101528351610d7590600b90869084908110610c7257fe5b8351849060066016850201908110610d8957fe5b602090810290910101528351610da890600890869084908110610c7257fe5b8351849060076016850201908110610dbc57fe5b602090810290910101528351610ddb90600590869084908110610c7257fe5b8351849060086016850201908110610def57fe5b602090810290910101528351610e0e90601590869084908110610c7257fe5b8351849060096016850201908110610e2257fe5b602090810290910101528351610e5a90601290869084908110610e4157fe5b602090810290910101516000919063ffffffff61192f16565b610e65576000610e68565b60015b60ff1660010283601660ff168302600a01815181101515610e8557fe5b602090810290910101528351610ea490601790869084908110610c7257fe5b83518490600b6016850201908110610eb857fe5b602090810290910101528351610ed790600c90869084908110610c7257fe5b83518490600c6016850201908110610eeb57fe5b602090810290910101528351610f0a90600d90869084908110610c7257fe5b83518490600d6016850201908110610f1e57fe5b602090810290910101528351610f3d90600e90869084908110610c7257fe5b83518490600e6016850201908110610f5157fe5b602090810290910101528351610f7090600f90869084908110610c7257fe5b83518490600f6016850201908110610f8457fe5b602090810290910101528351610fa390601390869084908110610c7257fe5b8351849060106016850201908110610fb757fe5b602090810290910101528351610fd690601490869084908110610c7257fe5b8351849060116016850201908110610fea57fe5b60209081029091010152835161100990601090869084908110610c7257fe5b835184906012601685020190811061101d57fe5b60209081029091010152835161103c90601190869084908110610c7257fe5b835184906013601685020190811061105057fe5b60209081029091010152835161106f90602690869084908110610c7257fe5b835184906014601685020190811061108357fe5b6020908102909101015283516110a290601690869084908110610c7257fe5b83518490601560168502019081106110b657fe5b60209081029091010152600160a060020a0382161561117a5781600160a060020a031663b1bf051085838151811015156110ec57fe5b906020019060200201516040518263ffffffff1660e060020a02815260040180828152602001915050602060405180830381600087803b15801561112f57600080fd5b505af1158015611143573d6000803e3d6000fd5b505050506040513d602081101561115957600080fd5b5051835184906016840260010190811061116f57fe5b602090810290910101525b600101610c21565b5050919050565b60008061119f816018878963ffffffff6114f616565b9050600a600b858302850102049695505050505050565b600061076f8160218463ffffffff61151616565b600061076f8160268463ffffffff6114db16565b60006111f181600463ffffffff61193c16565b905090565b6000808080861580611206575085155b156112145760009350611255565b60009250600191505b603c8601821161124757508186018281101561123c5760009350611255565b91506001018161121d565b82600a86820104600b021193505b5050509392505050565b600061076f81600b8463ffffffff6114db16565b60006060806060806060600080600061128b8c6111b6565b9250828b111561129a576114cc565b828a8c0111156112ac578a83036112ae565b895b99508b9850896040519080825280602002602001820160405280156112dd578160200160208202803883390190505b5097508960405190808252806020026020018201604052801561130a578160200160208202803883390190505b50965089604051908082528060200260200182016040528015611337578160200160208202803883390190505b50955089604051908082528060200260200182016040528015611364578160200160208202803883390190505b50945089604051908082528060200260200182016040528015611391578160200160208202803883390190505b509350600091508a90505b898b018110156114cc576113ba600060218e8463ffffffff61152316565b88838151811015156113c857fe5b90602001906020020190600160a060020a03169081600160a060020a03168152505061141860188d8a858151811015156113fe57fe5b60209081029091010151600092919063ffffffff6114f616565b878381518110151561142657fe5b906020019060200201818152505061144860198d8a858151811015156113fe57fe5b868381518110151561145657fe5b9060200190602002018181525050611478601a8d8a858151811015156113fe57fe5b858381518110151561148657fe5b90602001906020020181815250506114a860248d8a858151811015156113fe57fe5b84838151811015156114b657fe5b602090810290910101526001918201910161139c565b50505093975093979195509350565b60006114e88484846119b0565b949350505050565b16151590565b600061150d858585600160a060020a038616611ac0565b95945050505050565b60006114e8848484611b4e565b600061150d85858585611b5b565b600061154e6115488260058a63ffffffff6114db16565b876114f0565b801561158657506001821161158357611570600060128963ffffffff61192f16565b151561157b83611b69565b151514611586565b60015b80156115a957506115a96115a3600060098a63ffffffff6114db16565b866114f0565b80156115cc57506115cc6115c66000600a8a63ffffffff6114db16565b856114f0565b80156115ef57506115ef6115e96000600b8a63ffffffff6114db16565b846114f0565b979650505050505050565b60008080808080806116148160078a63ffffffff6114db16565b955061161f88610938565b9450611634600060158a63ffffffff6114db16565b935060ff60020a84161515925061164b8486611b82565b156117a057611664600060198a8963ffffffff6114f616565b603c908101925061167e600060148b63ffffffff6114db16565b8461169b576116966000600e8c63ffffffff6114db16565b6116ae565b6116ae6000600f8c63ffffffff6114db16565b856116cb576116c6600060108d63ffffffff6114db16565b6116de565b6116de600060118d63ffffffff6114db16565b03038115156116e957fe5b049050603c811180156116fc5750818111155b15611733576117156000601a8a8963ffffffff6114f616565b611729600060188b8a63ffffffff6114f616565b8202019650611836565b8181111561176d5761174f6000601a8a8963ffffffff6114f616565b611763600060188b8a63ffffffff6114f616565b8302019650611836565b6117816000601a8a8963ffffffff6114f616565b611795600060188b8a63ffffffff6114f616565b603c02019650611836565b60088514806117b85750821580156117b85750600485145b806117cb57508280156117cb5750601085145b15611803576117e4600060188a8963ffffffff6114f616565b603c026117fb6000601a8b8a63ffffffff6114f616565b019650611836565b600285148061181a575082801561181a5750600485145b15611836576118336000601a8a8963ffffffff6114f616565b96505b505050505050919050565b600080806118578160078663ffffffff6114db16565b915061186284610938565b905060408114156111825761188160006018868563ffffffff6114f616565b9250611182565b815460018301548254604080517fd3a396860000000000000000000000000000000000000000000000000000000081526004810193909352602483019190915251600092600160a060020a03169163d3a3968691604480830192602092919082900301818787803b1580156118fc57600080fd5b505af1158015611910573d6000803e3d6000fd5b505050506040513d602081101561192657600080fd5b50519392505050565b60006114e8848484611c15565b815460018301548254604080517f53aa3f5e0000000000000000000000000000000000000000000000000000000081526004810193909352602483019190915251600092600160a060020a0316916353aa3f5e91604480830192602092919082900301818787803b1580156118fc57600080fd5b825460018401548354604080516020808201939093528082018690528151808203830181526060909101918290528051600095600160a060020a0316946337d9d7fc9490939182918401908083835b60208310611a1e5780518252601f1990920191602091820191016119ff565b51815160209384036101000a60001901801990921691161790526040805192909401829003822063ffffffff891660e060020a028352600483019790975260248201969096529151604480840196955090935091839003909101905081600087803b158015611a8c57600080fd5b505af1158015611aa0573d6000803e3d6000fd5b505050506040513d6020811015611ab657600080fd5b5051949350505050565b604080516020808201859052818301849052825180830384018152606090920192839052815160009361150d938993899391929182918401908083835b60208310611b1c5780518252601f199092019160209182019101611afd565b6001836020036101000a03801982511681845116808217855250505050505090500191505060405180910390206119b0565b60006114e8848484611c82565b600061150d85858585611c8f565b600081600114611b7a57600061076f565b506001919050565b600060ff60020a831615157f7fffffffffffffffffffffffffffffffffffffffffffffffffffffffffffffff84166001811415611bfa57818015611bc65750604084145b15611bd45760019250610753565b81158015611bec57506010841480611bec5750604084145b15611bfa5760019250610753565b60028114156107535760408414156107535760019250610753565b825460018401548354604080516020808201939093528082018690528151808203830181526060909101918290528051600095600160a060020a0316946398eaf11c94909391829184019080838360208310611a1e5780518252601f1990920191602091820191016119ff565b60006114e8848484611ca3565b600061150d85600286018560018601611ac0565b825460018401548354604080516020808201939093528082018690528151808203830181526060909101918290528051600095600160a060020a0316946353aa3f5e94909391829184019080838360208310611a1e5780518252601f1990920191602091820191016119ff565b825473ffffffffffffffffffffffffffffffffffffffff1916600160a060020a0392909216919091178255600190910155565b6000611d7660027f626f617264436f6e74726f6c6c6572000000000000000000000000000000000063ffffffff61233a16565b611da760037f657363726f77416464726573730000000000000000000000000000000000000063ffffffff61233a16565b611dd860047f6a6f6273436f756e74000000000000000000000000000000000000000000000063ffffffff61233a16565b611e0960057f6a6f62537461746500000000000000000000000000000000000000000000000063ffffffff61235616565b611e3a60067f6a6f62436c69656e74000000000000000000000000000000000000000000000063ffffffff61235616565b611e6b60077f6a6f62576f726b6572000000000000000000000000000000000000000000000063ffffffff61235616565b611e9c60087f6a6f6244657461696c734950465348617368000000000000000000000000000063ffffffff61235616565b611ecd60097f6a6f62536b696c6c73417265610000000000000000000000000000000000000063ffffffff61235616565b611efe600a7f6a6f62536b696c6c7343617465676f727900000000000000000000000000000063ffffffff61235616565b611f2f600b7f6a6f62536b696c6c73000000000000000000000000000000000000000000000063ffffffff61235616565b611f60600c7f6a6f62437265617465644174000000000000000000000000000000000000000063ffffffff61235616565b611f91600d7f6a6f62416363657074656441740000000000000000000000000000000000000063ffffffff61235616565b611fc2600e7f6a6f6250656e64696e675374617274417400000000000000000000000000000063ffffffff61235616565b611ff3600f7f6a6f62537461727454696d65000000000000000000000000000000000000000063ffffffff61235616565b61202460107f6a6f6250656e64696e6746696e6973684174000000000000000000000000000063ffffffff61235616565b61205560117f6a6f6246696e69736854696d650000000000000000000000000000000000000063ffffffff61235616565b61208660127f6a6f62506175736564000000000000000000000000000000000000000000000063ffffffff61235616565b6120b760137f6a6f62506175736564417400000000000000000000000000000000000000000063ffffffff61235616565b6120e860147f6a6f62506175736564466f72000000000000000000000000000000000000000063ffffffff61235616565b61211960157f6a6f62576f726b666c6f7754797065000000000000000000000000000000000063ffffffff61235616565b61214a60167f6a6f6252657175657374656454696d650000000000000000000000000000000063ffffffff61235616565b61217b60177f6a6f6244656661756c745061790000000000000000000000000000000000000063ffffffff61235616565b6121ac60187f6a6f624f6666657252617465000000000000000000000000000000000000000063ffffffff61235616565b6121dd60197f6a6f624f66666572457374696d6174650000000000000000000000000000000063ffffffff61235616565b61220e601a7f6a6f624f666665724f6e746f700000000000000000000000000000000000000063ffffffff61235616565b61223f60267f6a6f6246696e616c697a6564417400000000000000000000000000000000000063ffffffff61235616565b612270601b7f636c69656e744a6f62730000000000000000000000000000000000000000000063ffffffff61238c16565b6122a1601e7f776f726b65724a6f62730000000000000000000000000000000000000000000063ffffffff61238c16565b6122d260217f6a6f624f6666657273000000000000000000000000000000000000000000000063ffffffff61238c16565b61230360247f6a6f624f66666572506f7374656441740000000000000000000000000000000063ffffffff61235616565b61233460257f62696e645374617475730000000000000000000000000000000000000000000063ffffffff61235616565b50600190565b815461234690826123a0565b9055565b815461234690826123a0565b612360828261233a565b5050565b612360828261233a565b612360828261233a565b612360828261233a565b612360828261233a565b61236082826123b6565b61236082826123b6565b811515806123ac575080155b1561236057600080fd5b61236082826040805160208082018490527f636f756e740000000000000000000000000000000000000000000000000000008284015282516025818403018152604590920192839052815161246493869392909182918401908083835b602083106124325780518252601f199092019160209182019101612413565b6001836020036101000a038019825116818451168082178552505050505050905001915050604051809103902061233a565b6040805160208082018490527f696e646578657300000000000000000000000000000000000000000000000000828401528251602781840301815260479092019283905281516124dd9360018701939290918291840190808383602083106124325780518252601f199092019160209182019101612413565b6040805160208082018490527f76616c7565730000000000000000000000000000000000000000000000000000828401528251602681840301815260469092019283905281516123609360028701939290918291840190808383602083106124325780518252601f1990920191602091820191016124135600a165627a7a72305820b1890e05e967f919edabfa4815818adaa40bc9ca9179d017b01ccfb5fb3101030029",
  "source": "/**\n * Copyright 20172018, LaborX PTY\n * Licensed under the AGPL Version 3 license.\n */\n\npragma solidity ^0.4.18;\n\n\nimport \"./base/BitOps.sol\";\nimport \"./JobDataCore.sol\";\n\n\ninterface BoardControllerAccessor {\n    function getJobsBoard(uint _jobId) external view returns (uint);\n}\n\n\ncontract JobsDataProvider is JobDataCore {\n\n    constructor(\n        Storage _store,\n        bytes32 _crate\n    )\n    JobDataCore(_store, _crate)\n    public\n    {\n        require(OK == JobDataCore._init());\n    }\n\n    /// @notice Gets filtered list of jobs ids that fulfill provided parameters\n    /// in a paginated way.\n    function getJobs(\n        uint _jobState,\n        uint _skillsArea,\n        uint _skillsCategory,\n        uint _skills,\n        uint _paused,\n        uint _fromId,\n        uint _maxLen\n    )\n    public\n    view\n    returns (uint[] _ids)\n    {\n        _ids = new uint[](_maxLen);\n        uint _pointer;\n        for (uint _jobId = _fromId; _jobId < _fromId + _maxLen; ++_jobId) {\n            if (_filterJob(_jobId, _jobState, _skillsArea, _skillsCategory, _skills, _paused)) {\n                _ids[_pointer] = _jobId;\n                _pointer += 1;\n            }\n        }\n    }\n\n    function getJobForClientCount(address _client) public view returns (uint) {\n        return store.count(clientJobs, bytes32(_client));\n    }\n\n    /// @notice Gets filtered jobs ids for a client where jobs have provided properties\n    /// (job state, skills area, skills category, skills, paused)\n    function getJobsForClient(\n        address _client,\n        uint _jobState,\n        uint _skillsArea,\n        uint _skillsCategory,\n        uint _skills,\n        uint _paused,\n        uint _fromIdx,\n        uint _maxLen\n    )\n    public\n    view\n    returns (uint[] _ids)\n    {\n        uint _count = getJobForClientCount(_client);\n        require(_fromIdx < _count);\n        _maxLen = (_fromIdx + _maxLen <= _count) ? _maxLen : (_count - _fromIdx);\n        _ids = new uint[](_maxLen);\n        uint _pointer;\n        for (uint _idx = _fromIdx; _idx < _fromIdx + _maxLen; ++_idx) {\n            uint _jobId = store.get(clientJobs, bytes32(_client), _idx);\n            if (_filterJob(_jobId, _jobState, _skillsArea, _skillsCategory, _skills, _paused)) {\n                _ids[_pointer] = _jobId;\n                _pointer += 1;\n            }\n        }\n    }\n\n    function getJobForWorkerCount(address _worker) public view returns (uint) {\n        return store.count(workerJobs, bytes32(_worker));\n    }\n\n    /// @notice Gets filtered jobs for a worker\n    /// Doesn't inlcude jobs for which a worker had posted an offer but\n    /// other worker got the job\n    /// @param _jobState a bitmask, job's state; if INT.MAX then jobs with any state will be included in output\n    /// @param _paused if job should be paused or not, convertible to bool; if greater than '1' then output includes both states\n    function getJobForWorker(\n        address _worker,\n        uint _jobState,\n        uint _skillsArea,\n        uint _skillsCategory,\n        uint _skills,\n        uint _paused,\n        uint _fromIdx,\n        uint _maxLen\n    )\n    public\n    view\n    returns (uint[] _ids)\n    {\n        uint _count = getJobForWorkerCount(_worker);\n        require(_fromIdx < _count);\n        _maxLen = (_fromIdx + _maxLen <= _count) ? _maxLen : (_count - _fromIdx);\n        _ids = new uint[](_maxLen);\n        uint _pointer;\n        for (uint _idx = _fromIdx; _idx < _fromIdx + _maxLen; ++_idx) {\n            uint _jobId = store.get(workerJobs, bytes32(_worker), _idx);\n            if (_filterJob(_jobId, _jobState, _skillsArea, _skillsCategory, _skills, _paused)) {\n                _ids[_pointer] = _jobId;\n                _pointer += 1;\n            }\n        }\n    }\n\n    function _filterJob(\n        uint _jobId,\n        uint _jobState,\n        uint _skillsArea,\n        uint _skillsCategory,\n        uint _skills,\n        uint _paused\n    )\n    private\n    view\n    returns (bool)\n    {\n        return _hasFlag(store.get(jobState, _jobId), _jobState) &&\n            (_paused > 1 ? true : (_toBool(_paused) == store.get(jobPaused, _jobId))) &&\n            _hasFlag(store.get(jobSkillsArea, _jobId), _skillsArea) &&\n            _hasFlag(store.get(jobSkillsCategory, _jobId), _skillsCategory) &&\n            _hasFlag(store.get(jobSkills, _jobId), _skills);\n    }\n\n    function _toBool(uint _value) private pure returns (bool) {\n        return _value == 1 ? true : false;\n    }\n\n    function getJobsCount() public view returns (uint) {\n        return store.get(jobsCount);\n    }\n\n    uint8 constant JOBS_RESULT_OFFSET = 22;\n\n    /// @notice Gets jobs details in an archived way (too little stack size\n    /// for such amount of return values)\n    /// @return {\n    ///     \"_gotIds\": \"`uint` identifier\",\n    ///     \"_boardId\": \"`uint` board identifier where job was pinned, '0' if no such board\",\n    ///     \"_client\": \"client's address\",\n    ///     \"_worker\": \"worker's address\",\n    ///     \"_skillsArea\": \"`uint` skills area mask\",\n    ///     \"_skillsCategory\": \"`uint` skills category mask\",\n    ///     \"_skills\": \"`uint` skills mask\",\n    ///     \"_detailsIpfs\": \"`bytes32` details hash\",\n    ///     \"_state\": \"`uint` job's state, see JobState\",\n    ///     \"_flowType\": \"`uint` job's workflow type, see WorkflowType enum\",\n    ///     \"_paused\": \"`bool` paused or not, '1' - paused, '0' - running\",\n    ///     \"_defaultPay\": \"`uint` job's default pay size for job seekers\",\n    ///     \"_createdAt\": \"`uint` publishing (creation) timestamp\",\n    ///     \"_acceptedAt\": \"`uint` an offer has been accepted timestamp\",\n    ///     \"_pendingStartAt\": \"`uint` pending started timestamp\",\n    ///     \"_startedAt\": \"`uint` work started timestamp\",\n    ///     \"_pausedAt\": \"`uint` work's pause timestamp\",\n    ///     \"_pausedFor\": \"`uint` work's pause duration\",\n    ///     \"_pendingFinishAt\": \"`uint` pending finish timestamp\",\n    ///     \"_finishedAt\": \"`uint` work finished timestamp\",\n    ///     \"_finalizedAt\": \"`uint` paycheck finalized timestamp\",\n    ///     \"_timeRequested\": \"`uint` additional time requested by a worker, must be accepted/rejected by a client\",\n    /// }\n    function getJobsByIds(uint[] _jobIds) public view returns (\n        bytes32[] _results\n    ) {\n        BoardControllerAccessor _boardController = BoardControllerAccessor(store.get(boardController));\n        _results = new bytes32[](_jobIds.length * JOBS_RESULT_OFFSET);\n        for (uint _idx = 0; _idx < _jobIds.length; ++_idx) {\n            _results[_idx * JOBS_RESULT_OFFSET + 0] = bytes32(_jobIds[_idx]);\n            _results[_idx * JOBS_RESULT_OFFSET + 2] = bytes32(store.get(jobClient, _jobIds[_idx]));\n            _results[_idx * JOBS_RESULT_OFFSET + 3] = bytes32(store.get(jobWorker, _jobIds[_idx]));\n            _results[_idx * JOBS_RESULT_OFFSET + 4] = bytes32(store.get(jobSkillsArea, _jobIds[_idx]));\n            _results[_idx * JOBS_RESULT_OFFSET + 5] = bytes32(store.get(jobSkillsCategory, _jobIds[_idx]));\n            _results[_idx * JOBS_RESULT_OFFSET + 6] = bytes32(store.get(jobSkills, _jobIds[_idx]));\n            _results[_idx * JOBS_RESULT_OFFSET + 7] = store.get(jobDetailsIPFSHash, _jobIds[_idx]);\n            _results[_idx * JOBS_RESULT_OFFSET + 8] = bytes32(store.get(jobState, _jobIds[_idx]));\n            _results[_idx * JOBS_RESULT_OFFSET + 9] = bytes32(store.get(jobWorkflowType, _jobIds[_idx]));\n            _results[_idx * JOBS_RESULT_OFFSET + 10] = bytes32(store.get(jobPaused, _jobIds[_idx]) ? 1 : 0);\n            _results[_idx * JOBS_RESULT_OFFSET + 11] = bytes32(store.get(jobDefaultPay, _jobIds[_idx]));\n            _results[_idx * JOBS_RESULT_OFFSET + 12] = bytes32(store.get(jobCreatedAt, _jobIds[_idx]));\n            _results[_idx * JOBS_RESULT_OFFSET + 13] = bytes32(store.get(jobAcceptedAt, _jobIds[_idx]));\n            _results[_idx * JOBS_RESULT_OFFSET + 14] = bytes32(store.get(jobPendingStartAt, _jobIds[_idx]));\n            _results[_idx * JOBS_RESULT_OFFSET + 15] = bytes32(store.get(jobStartTime, _jobIds[_idx]));\n            _results[_idx * JOBS_RESULT_OFFSET + 16] = bytes32(store.get(jobPausedAt, _jobIds[_idx]));\n            _results[_idx * JOBS_RESULT_OFFSET + 17] = bytes32(store.get(jobPausedFor, _jobIds[_idx]));\n            _results[_idx * JOBS_RESULT_OFFSET + 18] = bytes32(store.get(jobPendingFinishAt, _jobIds[_idx]));\n            _results[_idx * JOBS_RESULT_OFFSET + 19] = bytes32(store.get(jobFinishTime, _jobIds[_idx]));\n            _results[_idx * JOBS_RESULT_OFFSET + 20] = bytes32(store.get(jobFinalizedAt, _jobIds[_idx]));\n            _results[_idx * JOBS_RESULT_OFFSET + 21] = bytes32(store.get(jobRequestedAdditionalTime, _jobIds[_idx]));\n\n            if (address(_boardController) != 0x0) {\n                _results[_idx * JOBS_RESULT_OFFSET + 1] = bytes32(_boardController.getJobsBoard(_jobIds[_idx]));\n            }\n        }\n    }\n\n    function getJobOffersCount(uint _jobId) public view returns (uint) {\n        return store.count(jobOffers, bytes32(_jobId));\n    }\n\n    function getJobOffers(uint _jobId, uint _fromIdx, uint _maxLen) public view returns (\n        uint _id,\n        address[] _workers,\n        uint[] _rates,\n        uint[] _estimates,\n        uint[] _onTops,\n        uint[] _offerPostedAt\n    ) {\n        uint _offersCount = getJobOffersCount(_jobId);\n        if (_fromIdx > _offersCount) {\n            return;\n        }\n\n        _maxLen = (_fromIdx + _maxLen <= _offersCount) ? _maxLen : (_offersCount - _fromIdx);\n\n        _id = _jobId;\n        _workers = new address[](_maxLen);\n        _rates = new uint[](_maxLen);\n        _estimates = new uint[](_maxLen);\n        _onTops = new uint[](_maxLen);\n        _offerPostedAt = new uint[](_maxLen);\n        uint _pointer = 0;\n\n        for (uint _offerIdx = _fromIdx; _offerIdx < _fromIdx + _maxLen; ++_offerIdx) {\n            _workers[_pointer] = store.get(jobOffers, bytes32(_jobId), _offerIdx);\n            _rates[_pointer] = store.get(jobOfferRate, _jobId, _workers[_pointer]);\n            _estimates[_pointer] = store.get(jobOfferEstimate, _jobId, _workers[_pointer]);\n            _onTops[_pointer] = store.get(jobOfferOntop, _jobId, _workers[_pointer]);\n            _offerPostedAt[_pointer] = store.get(jobOfferPostedAt, _jobId, _workers[_pointer]);\n            _pointer += 1;\n        }\n    }\n\n    function getJobClient(uint _jobId) public view returns (address) {\n        return store.get(jobClient, _jobId);\n    }\n\n    function getJobWorker(uint _jobId) public view returns (address) {\n        return store.get(jobWorker, _jobId);\n    }\n\n    function isActivatedState(uint _jobId, uint _jobState) public view returns (bool) {\n        uint _flow = store.get(jobWorkflowType, _jobId);\n        bool _needsConfirmation = (_flow & WORKFLOW_CONFIRMATION_NEEDED_FLAG) != 0;\n        if (_needsConfirmation && \n        _jobState >= JOB_STATE_STARTED\n        ) {\n            return true;\n        }\n\n        if (!_needsConfirmation &&\n            _jobState >= JOB_STATE_PENDING_START\n        ) {\n            return true;\n        }\n    }\n\n    function getJobSkillsArea(uint _jobId) public view returns (uint) {\n        return store.get(jobSkillsArea, _jobId);\n    }\n\n    function getJobSkillsCategory(uint _jobId) public view returns (uint) {\n        return store.get(jobSkillsCategory, _jobId);\n    }\n\n    function getJobSkills(uint _jobId) public view returns (uint) {\n        return store.get(jobSkills, _jobId);\n    }\n\n    function getJobDetailsIPFSHash(uint _jobId) public view returns (bytes32) {\n        return store.get(jobDetailsIPFSHash, _jobId);\n    }\n\n    function getJobDefaultPay(uint _jobId) public view returns (uint) {\n        return uint(store.get(jobDefaultPay, _jobId));\n    }\n\n    function getJobState(uint _jobId) public view returns (uint) {\n        return uint(store.get(jobState, _jobId));\n    }\n\n    function getFinalState(uint _jobId) public view returns (uint) {\n        return store.get(jobFinalizedAt, _jobId);\n    }\n\n    function calculateLock(address worker, uint _jobId, uint _time, uint _onTop) public view returns (uint) {\n        // Lock additional working hour + 10% of resulting amount\n        uint rate = store.get(jobOfferRate, _jobId, worker);\n        return ((rate * (_time) + _onTop) * 11) / 10;\n    }\n\n    function calculateLockAmount(uint _jobId) public view returns (uint) {\n        address worker = store.get(jobWorker, _jobId);\n        // Lock additional working hour + 10% of resulting amount\n        return calculateLockAmountFor(worker, _jobId);\n    }\n\n    function calculateLockAmountFor(address worker, uint _jobId) public view returns (uint) {\n        uint _flow = store.get(jobWorkflowType, _jobId);\n        if (_hasFlag(_flow, WORKFLOW_TM)) {\n            uint onTop = store.get(jobOfferOntop, _jobId, worker);\n            return calculateLock(worker, _jobId, store.get(jobOfferEstimate, _jobId, worker) + 60, onTop);\n        } else if (_hasFlag(_flow, WORKFLOW_FIXED_PRICE)) {\n            return store.get(jobOfferRate, _jobId, worker);\n        }\n\n        assert(false); // NOTE: need to update; other types of workflow is not supported right now\n    }\n\n    function calculatePaycheck(uint _jobId) public view returns (uint) {\n        uint _flow = store.get(jobWorkflowType, _jobId);\n\n        if (_hasFlag(_flow, WORKFLOW_TM)) {\n            return _calculatePaycheckForTM(_jobId);\n        } else if (_hasFlag(_flow, WORKFLOW_FIXED_PRICE)) {\n            return _calculatePaycheckForFixedPrice(_jobId);\n        }\n\n        assert(false); /// NOTE: need to update; other types of workflow is not supported right now\n    }\n\n    function _calculatePaycheckForTM(uint _jobId) private view returns (uint) {\n        address worker = store.get(jobWorker, _jobId);\n        uint _jobState = getJobState(_jobId);\n        uint _flow = store.get(jobWorkflowType, _jobId);\n        bool _needsConfirmation = (_flow & WORKFLOW_CONFIRMATION_NEEDED_FLAG) != 0;\n        if (_isFinishedStateForFlow(_flow, _jobState)) {\n            // Means that participants have agreed on job completion,\n            // reward should be calculated depending on worker's time spent.\n            uint maxEstimatedTime = store.get(jobOfferEstimate, _jobId, worker) + 60;\n            uint timeSpent = ((_needsConfirmation ? store.get(jobFinishTime, _jobId) : store.get(jobPendingFinishAt, _jobId)) -\n                            (_needsConfirmation ? store.get(jobStartTime, _jobId) : store.get(jobPendingStartAt, _jobId)) -\n                            store.get(jobPausedFor, _jobId)) / 60;\n            if (timeSpent > 60 && timeSpent <= maxEstimatedTime) {\n                // Worker was doing the job for more than an hour, but less then\n                // maximum estimated working time. Release money for the time\n                // he has actually worked + \"on top\" expenses.\n                return timeSpent * store.get(jobOfferRate, _jobId, worker) +\n                       store.get(jobOfferOntop, _jobId, worker);\n\n            } else if (timeSpent > maxEstimatedTime) {\n                // Means worker has gone over maximum estimated time and hasnt't\n                // requested more time, which is his personal responsibility, since\n                // we're already giving workers additional working hour from start.\n                // So we release money for maximum estimated working time + \"on top\".\n                return maxEstimatedTime * store.get(jobOfferRate, _jobId, worker) +\n                       store.get(jobOfferOntop, _jobId, worker);\n\n            } else {\n                // Worker has completed the job within just an hour, so we\n                // release money for the minumum 1 working hour + \"on top\".\n                return 60 * store.get(jobOfferRate, _jobId, worker) +\n                       store.get(jobOfferOntop, _jobId, worker);\n            }\n        } else if (\n            _jobState == JOB_STATE_STARTED ||\n            (!_needsConfirmation && _jobState == JOB_STATE_PENDING_START) ||\n            (_needsConfirmation && _jobState == JOB_STATE_PENDING_FINISH)\n        ) {\n            // Job has been canceled right after start or right before completion,\n            // minimum of 1 working hour + \"on top\" should be released.\n            return store.get(jobOfferOntop, _jobId, worker) +\n                   store.get(jobOfferRate, _jobId, worker) * 60;\n        } else if (\n            _jobState == JOB_STATE_OFFER_ACCEPTED ||\n            (_needsConfirmation && _jobState == JOB_STATE_PENDING_START)\n        ) {\n            // Job hasn't even started yet, but has been accepted,\n            // release just worker \"on top\" expenses.\n            return store.get(jobOfferOntop, _jobId, worker);\n        }\n    }\n\n    function _calculatePaycheckForFixedPrice(uint _jobId) private view returns (uint) {\n        address worker = store.get(jobWorker, _jobId);\n        uint _jobState = getJobState(_jobId);\n\n        if (_jobState == JOB_STATE_WORK_ACCEPTED) {\n            return store.get(jobOfferRate, _jobId, worker);\n        }\n    }\n\n    function isValidEstimate(uint _rate, uint _estimate, uint _ontop) public pure returns (bool) {\n        if (_rate == 0 || _estimate == 0) {\n            return false;\n        }\n        uint prev = 0;\n        for (uint i = 1; i <= _estimate + 60; i++) {\n            uint curr = prev + _rate;\n            if (curr < prev) {\n                return false;\n            }\n            prev = curr;\n        }\n        return ((prev + _ontop) / 10) * 11 > prev;\n    }\n}\n",
  "sourcePath": "/Users/alesanro/Documents/Projects/ChronoBank/LX-SC/contracts/JobsDataProvider.sol",
  "compiler": {
    "name": "solc",
    "version": "0.4.24+commit.e67f0147.Emscripten.clang"
  },
  "schemaVersion": "2.0.1",
  "updatedAt": "2018-09-18T15:43:05.441Z"
}