{
  "contractName": "JobWorkProcessControllerLib",
  "abi": [
    {
      "constant": true,
      "inputs": [],
      "name": "jobsDataProvider",
      "outputs": [
        {
          "name": "",
          "type": "address"
        }
      ],
      "payable": false,
      "stateMutability": "view",
      "type": "function"
    },
    {
      "constant": false,
      "inputs": [
        {
          "name": "_jobId",
          "type": "uint256"
        },
        {
          "name": "_at",
          "type": "uint256"
        }
      ],
      "name": "emitWorkAccepted",
      "outputs": [],
      "payable": false,
      "stateMutability": "nonpayable",
      "type": "function"
    },
    {
      "constant": false,
      "inputs": [
        {
          "name": "_jobId",
          "type": "uint256"
        },
        {
          "name": "_worker",
          "type": "address"
        },
        {
          "name": "_rate",
          "type": "uint256"
        },
        {
          "name": "_estimate",
          "type": "uint256"
        },
        {
          "name": "_ontop",
          "type": "uint256"
        }
      ],
      "name": "emitJobOfferPosted",
      "outputs": [],
      "payable": false,
      "stateMutability": "nonpayable",
      "type": "function"
    },
    {
      "constant": false,
      "inputs": [
        {
          "name": "_roles2Library",
          "type": "address"
        }
      ],
      "name": "setRoles2Library",
      "outputs": [
        {
          "name": "",
          "type": "uint256"
        }
      ],
      "payable": false,
      "stateMutability": "nonpayable",
      "type": "function"
    },
    {
      "constant": false,
      "inputs": [
        {
          "name": "_jobId",
          "type": "uint256"
        },
        {
          "name": "_flowType",
          "type": "uint256"
        },
        {
          "name": "_client",
          "type": "address"
        },
        {
          "name": "_skillsArea",
          "type": "uint256"
        },
        {
          "name": "_skillsCategory",
          "type": "uint256"
        },
        {
          "name": "_skills",
          "type": "uint256"
        },
        {
          "name": "_defaultPay",
          "type": "uint256"
        },
        {
          "name": "_detailsIPFSHash",
          "type": "bytes32"
        },
        {
          "name": "_bindStatus",
          "type": "bool"
        }
      ],
      "name": "emitJobPosted",
      "outputs": [],
      "payable": false,
      "stateMutability": "nonpayable",
      "type": "function"
    },
    {
      "constant": true,
      "inputs": [],
      "name": "version",
      "outputs": [
        {
          "name": "",
          "type": "string"
        }
      ],
      "payable": false,
      "stateMutability": "view",
      "type": "function"
    },
    {
      "constant": false,
      "inputs": [
        {
          "name": "_jobId",
          "type": "uint256"
        },
        {
          "name": "_worker",
          "type": "address"
        }
      ],
      "name": "emitJobOfferAccepted",
      "outputs": [],
      "payable": false,
      "stateMutability": "nonpayable",
      "type": "function"
    },
    {
      "constant": false,
      "inputs": [
        {
          "name": "_errorCode",
          "type": "uint256"
        }
      ],
      "name": "emitErrorCode",
      "outputs": [],
      "payable": false,
      "stateMutability": "nonpayable",
      "type": "function"
    },
    {
      "constant": false,
      "inputs": [
        {
          "name": "_jobId",
          "type": "uint256"
        },
        {
          "name": "_at",
          "type": "uint256"
        }
      ],
      "name": "emitWorkRejected",
      "outputs": [],
      "payable": false,
      "stateMutability": "nonpayable",
      "type": "function"
    },
    {
      "constant": false,
      "inputs": [
        {
          "name": "_jobId",
          "type": "uint256"
        },
        {
          "name": "_at",
          "type": "uint256"
        }
      ],
      "name": "emitWorkDistputeResolved",
      "outputs": [],
      "payable": false,
      "stateMutability": "nonpayable",
      "type": "function"
    },
    {
      "constant": false,
      "inputs": [
        {
          "name": "_jobId",
          "type": "uint256"
        }
      ],
      "name": "emitJobCanceled",
      "outputs": [],
      "payable": false,
      "stateMutability": "nonpayable",
      "type": "function"
    },
    {
      "constant": false,
      "inputs": [
        {
          "name": "_jobId",
          "type": "uint256"
        },
        {
          "name": "_at",
          "type": "uint256"
        }
      ],
      "name": "emitEndWorkRequested",
      "outputs": [],
      "payable": false,
      "stateMutability": "nonpayable",
      "type": "function"
    },
    {
      "constant": false,
      "inputs": [
        {
          "name": "_jobId",
          "type": "uint256"
        },
        {
          "name": "_time",
          "type": "uint256"
        }
      ],
      "name": "emitTimeRequestRejected",
      "outputs": [],
      "payable": false,
      "stateMutability": "nonpayable",
      "type": "function"
    },
    {
      "constant": true,
      "inputs": [],
      "name": "userLibrary",
      "outputs": [
        {
          "name": "",
          "type": "address"
        }
      ],
      "payable": false,
      "stateMutability": "view",
      "type": "function"
    },
    {
      "constant": false,
      "inputs": [
        {
          "name": "_jobId",
          "type": "uint256"
        },
        {
          "name": "_at",
          "type": "uint256"
        }
      ],
      "name": "emitWorkResumed",
      "outputs": [],
      "payable": false,
      "stateMutability": "nonpayable",
      "type": "function"
    },
    {
      "constant": false,
      "inputs": [
        {
          "name": "_jobId",
          "type": "uint256"
        },
        {
          "name": "_at",
          "type": "uint256"
        }
      ],
      "name": "emitWorkStarted",
      "outputs": [],
      "payable": false,
      "stateMutability": "nonpayable",
      "type": "function"
    },
    {
      "constant": false,
      "inputs": [
        {
          "name": "_jobId",
          "type": "uint256"
        },
        {
          "name": "_time",
          "type": "uint256"
        }
      ],
      "name": "emitTimeRequestAccepted",
      "outputs": [],
      "payable": false,
      "stateMutability": "nonpayable",
      "type": "function"
    },
    {
      "constant": false,
      "inputs": [
        {
          "name": "_jobId",
          "type": "uint256"
        },
        {
          "name": "_at",
          "type": "uint256"
        }
      ],
      "name": "emitWorkPaused",
      "outputs": [],
      "payable": false,
      "stateMutability": "nonpayable",
      "type": "function"
    },
    {
      "constant": false,
      "inputs": [
        {
          "name": "_jobId",
          "type": "uint256"
        },
        {
          "name": "_time",
          "type": "uint256"
        }
      ],
      "name": "emitTimeRequestSubmitted",
      "outputs": [],
      "payable": false,
      "stateMutability": "nonpayable",
      "type": "function"
    },
    {
      "constant": false,
      "inputs": [
        {
          "name": "_jobId",
          "type": "uint256"
        }
      ],
      "name": "emitPaymentReleased",
      "outputs": [],
      "payable": false,
      "stateMutability": "nonpayable",
      "type": "function"
    },
    {
      "constant": false,
      "inputs": [
        {
          "name": "_jobId",
          "type": "uint256"
        },
        {
          "name": "_at",
          "type": "uint256"
        }
      ],
      "name": "emitStartWorkRequested",
      "outputs": [],
      "payable": false,
      "stateMutability": "nonpayable",
      "type": "function"
    },
    {
      "constant": false,
      "inputs": [
        {
          "name": "_jobId",
          "type": "uint256"
        },
        {
          "name": "_worker",
          "type": "address"
        },
        {
          "name": "_price",
          "type": "uint256"
        }
      ],
      "name": "emitJobOfferPosted",
      "outputs": [],
      "payable": false,
      "stateMutability": "nonpayable",
      "type": "function"
    },
    {
      "constant": true,
      "inputs": [],
      "name": "paymentProcessor",
      "outputs": [
        {
          "name": "",
          "type": "address"
        }
      ],
      "payable": false,
      "stateMutability": "view",
      "type": "function"
    },
    {
      "constant": true,
      "inputs": [],
      "name": "getEventsHistory",
      "outputs": [
        {
          "name": "",
          "type": "address"
        }
      ],
      "payable": false,
      "stateMutability": "view",
      "type": "function"
    },
    {
      "inputs": [],
      "payable": false,
      "stateMutability": "nonpayable",
      "type": "constructor"
    },
    {
      "anonymous": false,
      "inputs": [
        {
          "indexed": true,
          "name": "self",
          "type": "address"
        },
        {
          "indexed": true,
          "name": "jobId",
          "type": "uint256"
        },
        {
          "indexed": false,
          "name": "flowType",
          "type": "bytes32"
        },
        {
          "indexed": false,
          "name": "client",
          "type": "address"
        },
        {
          "indexed": false,
          "name": "skillsArea",
          "type": "uint256"
        },
        {
          "indexed": false,
          "name": "skillsCategory",
          "type": "uint256"
        },
        {
          "indexed": false,
          "name": "skills",
          "type": "uint256"
        },
        {
          "indexed": false,
          "name": "defaultPay",
          "type": "uint256"
        },
        {
          "indexed": false,
          "name": "detailsIPFSHash",
          "type": "bytes32"
        },
        {
          "indexed": false,
          "name": "bindStatus",
          "type": "bool"
        }
      ],
      "name": "JobPosted",
      "type": "event"
    },
    {
      "anonymous": false,
      "inputs": [
        {
          "indexed": true,
          "name": "self",
          "type": "address"
        },
        {
          "indexed": true,
          "name": "jobId",
          "type": "uint256"
        },
        {
          "indexed": false,
          "name": "worker",
          "type": "address"
        },
        {
          "indexed": false,
          "name": "rate",
          "type": "uint256"
        },
        {
          "indexed": false,
          "name": "estimate",
          "type": "uint256"
        },
        {
          "indexed": false,
          "name": "ontop",
          "type": "uint256"
        }
      ],
      "name": "JobOfferPosted",
      "type": "event"
    },
    {
      "anonymous": false,
      "inputs": [
        {
          "indexed": true,
          "name": "self",
          "type": "address"
        },
        {
          "indexed": true,
          "name": "jobId",
          "type": "uint256"
        },
        {
          "indexed": false,
          "name": "worker",
          "type": "address"
        },
        {
          "indexed": false,
          "name": "price",
          "type": "uint256"
        }
      ],
      "name": "JobOfferPosted",
      "type": "event"
    },
    {
      "anonymous": false,
      "inputs": [
        {
          "indexed": true,
          "name": "self",
          "type": "address"
        },
        {
          "indexed": true,
          "name": "jobId",
          "type": "uint256"
        },
        {
          "indexed": false,
          "name": "worker",
          "type": "address"
        }
      ],
      "name": "JobOfferAccepted",
      "type": "event"
    },
    {
      "anonymous": false,
      "inputs": [
        {
          "indexed": true,
          "name": "self",
          "type": "address"
        },
        {
          "indexed": true,
          "name": "jobId",
          "type": "uint256"
        },
        {
          "indexed": false,
          "name": "at",
          "type": "uint256"
        }
      ],
      "name": "StartWorkRequested",
      "type": "event"
    },
    {
      "anonymous": false,
      "inputs": [
        {
          "indexed": true,
          "name": "self",
          "type": "address"
        },
        {
          "indexed": true,
          "name": "jobId",
          "type": "uint256"
        },
        {
          "indexed": false,
          "name": "at",
          "type": "uint256"
        }
      ],
      "name": "WorkStarted",
      "type": "event"
    },
    {
      "anonymous": false,
      "inputs": [
        {
          "indexed": true,
          "name": "self",
          "type": "address"
        },
        {
          "indexed": true,
          "name": "jobId",
          "type": "uint256"
        },
        {
          "indexed": false,
          "name": "time",
          "type": "uint256"
        }
      ],
      "name": "TimeRequestSubmitted",
      "type": "event"
    },
    {
      "anonymous": false,
      "inputs": [
        {
          "indexed": true,
          "name": "self",
          "type": "address"
        },
        {
          "indexed": true,
          "name": "jobId",
          "type": "uint256"
        },
        {
          "indexed": false,
          "name": "time",
          "type": "uint256"
        }
      ],
      "name": "TimeRequestAccepted",
      "type": "event"
    },
    {
      "anonymous": false,
      "inputs": [
        {
          "indexed": true,
          "name": "self",
          "type": "address"
        },
        {
          "indexed": true,
          "name": "jobId",
          "type": "uint256"
        },
        {
          "indexed": false,
          "name": "time",
          "type": "uint256"
        }
      ],
      "name": "TimeRequestRejected",
      "type": "event"
    },
    {
      "anonymous": false,
      "inputs": [
        {
          "indexed": true,
          "name": "self",
          "type": "address"
        },
        {
          "indexed": true,
          "name": "jobId",
          "type": "uint256"
        },
        {
          "indexed": false,
          "name": "at",
          "type": "uint256"
        }
      ],
      "name": "WorkPaused",
      "type": "event"
    },
    {
      "anonymous": false,
      "inputs": [
        {
          "indexed": true,
          "name": "self",
          "type": "address"
        },
        {
          "indexed": true,
          "name": "jobId",
          "type": "uint256"
        },
        {
          "indexed": false,
          "name": "at",
          "type": "uint256"
        }
      ],
      "name": "WorkResumed",
      "type": "event"
    },
    {
      "anonymous": false,
      "inputs": [
        {
          "indexed": true,
          "name": "self",
          "type": "address"
        },
        {
          "indexed": true,
          "name": "jobId",
          "type": "uint256"
        },
        {
          "indexed": false,
          "name": "at",
          "type": "uint256"
        }
      ],
      "name": "EndWorkRequested",
      "type": "event"
    },
    {
      "anonymous": false,
      "inputs": [
        {
          "indexed": true,
          "name": "self",
          "type": "address"
        },
        {
          "indexed": true,
          "name": "jobId",
          "type": "uint256"
        },
        {
          "indexed": false,
          "name": "at",
          "type": "uint256"
        }
      ],
      "name": "WorkAccepted",
      "type": "event"
    },
    {
      "anonymous": false,
      "inputs": [
        {
          "indexed": true,
          "name": "self",
          "type": "address"
        },
        {
          "indexed": true,
          "name": "jobId",
          "type": "uint256"
        },
        {
          "indexed": false,
          "name": "at",
          "type": "uint256"
        }
      ],
      "name": "WorkRejected",
      "type": "event"
    },
    {
      "anonymous": false,
      "inputs": [
        {
          "indexed": true,
          "name": "self",
          "type": "address"
        },
        {
          "indexed": true,
          "name": "jobId",
          "type": "uint256"
        },
        {
          "indexed": false,
          "name": "at",
          "type": "uint256"
        }
      ],
      "name": "WorkDisputeResolved",
      "type": "event"
    },
    {
      "anonymous": false,
      "inputs": [
        {
          "indexed": true,
          "name": "self",
          "type": "address"
        },
        {
          "indexed": true,
          "name": "jobId",
          "type": "uint256"
        }
      ],
      "name": "PaymentReleased",
      "type": "event"
    },
    {
      "anonymous": false,
      "inputs": [
        {
          "indexed": true,
          "name": "self",
          "type": "address"
        },
        {
          "indexed": true,
          "name": "jobId",
          "type": "uint256"
        }
      ],
      "name": "JobCanceled",
      "type": "event"
    },
    {
      "anonymous": false,
      "inputs": [
        {
          "indexed": true,
          "name": "self",
          "type": "address"
        },
        {
          "indexed": false,
          "name": "errorCode",
          "type": "uint256"
        }
      ],
      "name": "ErrorCode",
      "type": "event"
    },
    {
      "anonymous": false,
      "inputs": [
        {
          "indexed": false,
          "name": "code",
          "type": "address"
        },
        {
          "indexed": false,
          "name": "sender",
          "type": "address"
        },
        {
          "indexed": false,
          "name": "sig",
          "type": "bytes4"
        }
      ],
      "name": "AuthFailedError",
      "type": "event"
    },
    {
      "constant": false,
      "inputs": [
        {
          "name": "_jobId",
          "type": "uint256"
        }
      ],
      "name": "startWork",
      "outputs": [
        {
          "name": "",
          "type": "uint256"
        }
      ],
      "payable": false,
      "stateMutability": "nonpayable",
      "type": "function"
    },
    {
      "constant": false,
      "inputs": [
        {
          "name": "_jobId",
          "type": "uint256"
        }
      ],
      "name": "confirmStartWork",
      "outputs": [
        {
          "name": "",
          "type": "uint256"
        }
      ],
      "payable": false,
      "stateMutability": "nonpayable",
      "type": "function"
    },
    {
      "constant": false,
      "inputs": [
        {
          "name": "_jobId",
          "type": "uint256"
        }
      ],
      "name": "pauseWork",
      "outputs": [
        {
          "name": "",
          "type": "uint256"
        }
      ],
      "payable": false,
      "stateMutability": "nonpayable",
      "type": "function"
    },
    {
      "constant": false,
      "inputs": [
        {
          "name": "_jobId",
          "type": "uint256"
        }
      ],
      "name": "resumeWork",
      "outputs": [
        {
          "name": "_resultCode",
          "type": "uint256"
        }
      ],
      "payable": false,
      "stateMutability": "nonpayable",
      "type": "function"
    },
    {
      "constant": false,
      "inputs": [
        {
          "name": "_jobId",
          "type": "uint256"
        },
        {
          "name": "_additionalTime",
          "type": "uint16"
        }
      ],
      "name": "submitAdditionalTimeRequest",
      "outputs": [
        {
          "name": "",
          "type": "uint256"
        }
      ],
      "payable": false,
      "stateMutability": "nonpayable",
      "type": "function"
    },
    {
      "constant": false,
      "inputs": [
        {
          "name": "_jobId",
          "type": "uint256"
        },
        {
          "name": "_additionalTime",
          "type": "uint16"
        }
      ],
      "name": "acceptAdditionalTimeRequest",
      "outputs": [
        {
          "name": "",
          "type": "uint256"
        }
      ],
      "payable": true,
      "stateMutability": "payable",
      "type": "function"
    },
    {
      "constant": false,
      "inputs": [
        {
          "name": "_jobId",
          "type": "uint256"
        }
      ],
      "name": "rejectAdditionalTimeRequest",
      "outputs": [
        {
          "name": "",
          "type": "uint256"
        }
      ],
      "payable": false,
      "stateMutability": "nonpayable",
      "type": "function"
    },
    {
      "constant": false,
      "inputs": [
        {
          "name": "_jobId",
          "type": "uint256"
        }
      ],
      "name": "endWork",
      "outputs": [
        {
          "name": "",
          "type": "uint256"
        }
      ],
      "payable": false,
      "stateMutability": "nonpayable",
      "type": "function"
    }
  ],
  "bytecode": "0x60c0604052600660808190527f76302e302e31000000000000000000000000000000000000000000000000000060a0908152620000409160299190620000ce565b503480156200004e57600080fd5b506000808080308015156200006257600080fd5b60008054600160a060020a031916600160a060020a03929092169190911790556200009e60028383640100000000620000a881026200228f1704565b5050505062000173565b8254600160a060020a031916600160a060020a0392909216919091178255600190910155565b828054600181600116156101000203166002900490600052602060002090601f016020900481019282601f106200011157805160ff191683800117855562000141565b8280016001018555821562000141579182015b828111156200014157825182559160200191906001019062000124565b506200014f92915062000153565b5090565b6200017091905b808211156200014f57600081556001016200015a565b90565b6122ee80620001836000396000f30060806040526004361061017c5763ffffffff60e060020a60003504166303a250f98114610181578063061986a4146101ab5780630a3d1ca4146101dc5780631972b464146101f95780632637cd7d146102265780633de035bf146102475780633f22299b1461025f578063425654821461027e57806354fd4d50146102ba5780636a3bff97146103445780638680e52d1461035c5780638834277e146103805780638db210dc146103985780638dfa95f4146103b357806393361078146103ce5780639c6e1d46146103e6578063a34f74bd146103fe578063aaf2fc0814610419578063b3ec8cb814610434578063b633d27214610449578063b7d8b1d914610464578063bdeeea551461047f578063c26d0c2c1461049a578063c50e59f4146104b5578063d6495676146104d0578063e46f49ae146104e8578063eca5276714610503578063f1c6bdf81461052a578063f7de5c461461053f578063f839dc6214610551578063fd03d76214610569578063fff10aba14610581575b600080fd5b34801561018d57600080fd5b50610199600435610596565b60408051918252519081900360200190f35b3480156101b757600080fd5b506101c06106aa565b60408051600160a060020a039092168252519081900360200190f35b3480156101e857600080fd5b506101f76004356024356106b9565b005b34801561020557600080fd5b506101f7600435600160a060020a0360243516604435606435608435610706565b34801561023257600080fd5b50610199600160a060020a036004351661076c565b34801561025357600080fd5b50610199600435610834565b34801561026b57600080fd5b5061019960043561ffff6024351661095e565b34801561028a57600080fd5b506101f7600435602435600160a060020a036044351660643560843560a43560c43560e435610104351515610b47565b3480156102c657600080fd5b506102cf610bcd565b6040805160208082528351818301528351919283929083019185019080838360005b838110156103095781810151838201526020016102f1565b50505050905090810190601f1680156103365780820380516001836020036101000a031916815260200191505b509250505060405180910390f35b34801561035057600080fd5b50610199600435610c5b565b34801561036857600080fd5b506101f7600435600160a060020a0360243516610ddb565b34801561038c57600080fd5b506101f7600435610e2a565b3480156103a457600080fd5b506101f7600435602435610e75565b3480156103bf57600080fd5b506101f7600435602435610ec2565b3480156103da57600080fd5b50610199600435610f0f565b3480156103f257600080fd5b506101f7600435611036565b34801561040a57600080fd5b506101f7600435602435611077565b34801561042557600080fd5b506101f76004356024356110c4565b34801561044057600080fd5b506101c0611111565b34801561045557600080fd5b506101f7600435602435611120565b34801561047057600080fd5b506101f760043560243561116d565b34801561048b57600080fd5b506101f76004356024356111ba565b3480156104a657600080fd5b506101f7600435602435611207565b3480156104c157600080fd5b506101f7600435602435611254565b3480156104dc57600080fd5b506101f76004356112a1565b3480156104f457600080fd5b506101f76004356024356112e2565b34801561050f57600080fd5b506101f7600435600160a060020a036024351660443561132f565b34801561053657600080fd5b506101c0611385565b61019960043561ffff60243516611394565b34801561055d57600080fd5b506101996004356115cb565b34801561057557600080fd5b506101996004356116ef565b34801561058d57600080fd5b506101c0611784565b600081336105ad600260098463ffffffff6117a816565b600160a060020a0316146105d3576105c66132d06117bd565b506132d060005260206000f35b826002806105e98160078563ffffffff6117a816565b14610606576105f96132cb6117bd565b506132cb60005260206000f35b61061a60026010874263ffffffff61180416565b61062f6002600787600463ffffffff61180416565b610637611816565b600160a060020a031663e46f49ae86426040518363ffffffff1660e060020a0281526004018083815260200182815260200192505050600060405180830381600087803b15801561068757600080fd5b505af115801561069b573d6000803e3d6000fd5b50600198975050505050505050565b602c54600160a060020a031681565b816106c2611825565b600160a060020a03167fe5358c187d063c360e67321606a0a2dd8d7fe426d9aa68bb9e853fcf2851d938836040518082815260200191505060405180910390a35050565b8461070f611825565b60408051600160a060020a0388811682526020820188905281830187905260608201869052915192909116917fa3bc0f53ddeedcb11a232f5b24300a8fe43af2c2dcc30b46dbc64476e762a1869181900360800190a35050505050565b6000610799336000357bffffffffffffffffffffffffffffffffffffffffffffffffffffffff1916611829565b151561080357604080513081523360208201527bffffffffffffffffffffffffffffffffffffffffffffffffffffffff19600035168183015290517f5133a133185f1023427a2e90f18506b27db994977ce0c0faafd514a7dd109ae09181900360600190a161082f565b506000805473ffffffffffffffffffffffffffffffffffffffff1916600160a060020a03831617905560015b919050565b6000813361084b600260098463ffffffff6117a816565b600160a060020a031614610864576105c66132d06117bd565b8260008061087b600260178563ffffffff6117a816565b9150610890600260078563ffffffff6117a816565b905061089c8282611927565b15156108ad576105f96132cb6117bd565b6108b686611993565b506108cb60026012884263ffffffff61180416565b6108e06002600788601063ffffffff61180416565b6108e8611816565b600160a060020a031663a34f74bd87426040518363ffffffff1660e060020a0281526004018083815260200182815260200192505050600060405180830381600087803b15801561093857600080fd5b505af115801561094c573d6000803e3d6000fd5b50505050600194505b50505050919050565b60008233610975600260098463ffffffff6117a816565b600160a060020a03161461098e576105c66132d06117bd565b8360016109ad6109a7600260178563ffffffff6117a816565b82611a83565b15156109cb576109be6132cf6117bd565b506132cf60005260206000f35b856000806109e2600260178563ffffffff6117a816565b91506109f7600260078563ffffffff6117a816565b9050610a038282611927565b1515610a14576105f96132cb6117bd565b61ffff88161515610aac57604080517f08c379a000000000000000000000000000000000000000000000000000000000815260206004820152602860248201527f4a4f425f434f4e54524f4c4c45525f54494d455f524551554553545f494e564160448201527f4c49445f54494d45000000000000000000000000000000000000000000000000606482015290519081900360840190fd5b610ac4600260188b61ffff8c1663ffffffff61180416565b610acc611816565b600160a060020a031663c50e59f48a8a6040518363ffffffff1660e060020a028152600401808381526020018261ffff16815260200192505050600060405180830381600087803b158015610b2057600080fd5b505af1158015610b34573d6000803e3d6000fd5b5060019c9b505050505050505050505050565b88610b50611825565b604080518b8152600160a060020a038b811660208301528183018b9052606082018a90526080820189905260a0820188905260c0820187905285151560e0830152915192909116917ebe90d46e792dd8139c7fa5fc3c5094a4617b29079275876030fafdfd99790a918190036101000190a3505050505050505050565b6029805460408051602060026001851615610100026000190190941693909304601f81018490048402820184019092528181529291830182828015610c535780601f10610c2857610100808354040283529160200191610c53565b820191906000526020600020905b815481529060010190602001808311610c3657829003601f168201915b505050505081565b6000808233610c73600260088463ffffffff6117a816565b600160a060020a031614610c8c576105c66132d06117bd565b836001610ca56109a7600260178563ffffffff6117a816565b1515610cb6576109be6132cf6117bd565b85600080610ccd600260178563ffffffff6117a816565b9150610ce2600260078563ffffffff6117a816565b9050610cee8282611927565b1515610cff576105f96132cb6117bd565b88610d13600260188363ffffffff6117a816565b1515610d3157610d246132d16117bd565b506132d160005260206000f35b610d44600260188c63ffffffff6117a816565b9750610d5b600260188c600063ffffffff61180416565b610d63611816565b600160a060020a031663aaf2fc088b8a6040518363ffffffff1660e060020a0281526004018083815260200182815260200192505050600060405180830381600087803b158015610db357600080fd5b505af1158015610dc7573d6000803e3d6000fd5b5060019d9c50505050505050505050505050565b81610de4611825565b60408051600160a060020a038581168252915192909116917fcd1a96dff5c14af15cc6cc02bc309e3abef75468ceced0d0435f20bef5a9db3a9181900360200190a35050565b610e32611825565b600160a060020a03167f09e0713b45664e161c202b19bb4574ee83dfa056f9bfdee56847b3971d968221826040518082815260200191505060405180910390a250565b81610e7e611825565b600160a060020a03167fd3395eea11df9ed3451acb381c8e8220231eaa3b2ebc7c2cd1e1ab6302f3314f836040518082815260200191505060405180910390a35050565b81610ecb611825565b600160a060020a03167f572dddcf2d7a6a168606d76d97cac3799945fdd877c6710aa9f283fcd8a42866836040518082815260200191505060405180910390a35050565b60008133610f26600260088463ffffffff6117a816565b600160a060020a031614610f3f576105c66132d06117bd565b826001610f586109a7600260178563ffffffff6117a816565b1515610f69576109be6132cf6117bd565b84600480610f80600260078563ffffffff6117a816565b14610f90576105f96132cb6117bd565b610fa56002600789600863ffffffff61180416565b610fb960026011894263ffffffff61180416565b610fc1611816565b600160a060020a031663b7d8b1d988426040518363ffffffff1660e060020a0281526004018083815260200182815260200192505050600060405180830381600087803b15801561101157600080fd5b505af1158015611025573d6000803e3d6000fd5b5060019a9950505050505050505050565b8061103f611825565b600160a060020a03167fc81a87bb9e1f6f23054c21dd9959f8aa3b2f86077a49ccac452fadff6731304c60405160405180910390a350565b81611080611825565b600160a060020a03167f0548c7325a5164931df3aa9329c011dae1da4d2a8d8f263d85a69e5bbf59539e836040518082815260200191505060405180910390a35050565b816110cd611825565b600160a060020a03167fe7a7f3d15b44bc59d2ec1229ddb620195d46a685ebddae6745ecb2384115b876836040518082815260200191505060405180910390a35050565b602b54600160a060020a031681565b81611129611825565b600160a060020a03167f799a32325be3cd39f977d4cc026272cc3dd97d9dd46c5751c7c9900d9f1ffcdf836040518082815260200191505060405180910390a35050565b81611176611825565b600160a060020a03167f63efc44d4747c4669c8be4f317453622684e7daab7cf5772795e6413a40c26dd836040518082815260200191505060405180910390a35050565b816111c3611825565b600160a060020a03167f79a83e3beb9634ee6139429283222d680b93ea043c2ff1871edefcacafc06283836040518082815260200191505060405180910390a35050565b81611210611825565b600160a060020a03167f8cd445c80d0841aae8f229eddbed0de5befd5ff6fc2ca0510ee0621f5d6d5bef836040518082815260200191505060405180910390a35050565b8161125d611825565b600160a060020a03167fe633624d3f31882d5f69373f4eaf1fc339ca5f5d499f1940cd2c9adde1d0c031836040518082815260200191505060405180910390a35050565b806112aa611825565b600160a060020a03167fdf20fd1e76bc69d672e4814fafb2c449bba3a5369d8359adf9e05e6fde87b05660405160405180910390a350565b816112eb611825565b600160a060020a03167fd2672b89fe222769587124bc5274449842976e105b59c8769578bd1cd4da72e4836040518082815260200191505060405180910390a35050565b82611338611825565b60408051600160a060020a0386811682526020820186905282519316927f271fcf1e587075053a24de13909c1c666d6b58fae99f299cfbc3fb1696bc2c1a929181900390910190a3505050565b602a54600160a060020a031681565b60008083336113ac600260088463ffffffff6117a816565b600160a060020a0316146113c5576105c66132d06117bd565b8460016113de6109a7600260178563ffffffff6117a816565b15156113ef576109be6132cf6117bd565b86600080611406600260178563ffffffff6117a816565b915061141b600260078563ffffffff6117a816565b90506114278282611927565b1515611438576105f96132cb6117bd565b8961144c600260188363ffffffff6117a816565b151561145d57610d246132d16117bd565b611470600260188d63ffffffff6117a816565b975061ffff808916908b16146114925761148b6132d26117bd565b98506115bd565b61149c8b8b611a89565b151561152f57604080517f08c379a000000000000000000000000000000000000000000000000000000000815260206004820152602660248201527f4a4f425f434f4e54524f4c4c45525f43414e4e4f545f5345545f4e45575f455360448201527f54494d4154450000000000000000000000000000000000000000000000000000606482015290519081900360840190fd5b611544600260188d600063ffffffff61180416565b61154c611816565b600160a060020a031663bdeeea558c8c6040518363ffffffff1660e060020a028152600401808381526020018261ffff16815260200192505050600060405180830381600087803b1580156115a057600080fd5b505af11580156115b4573d6000803e3d6000fd5b50505050600198505b505050505050505092915050565b600081336115e2600260098463ffffffff6117a816565b600160a060020a0316146115fb576105c66132d06117bd565b82600080611612600260178563ffffffff6117a816565b9150611627600260078563ffffffff6117a816565b90506116338282611927565b1515611644576105f96132cb6117bd565b611657600260148863ffffffff611d4a16565b1561166e576116676132cd6117bd565b9450610955565b6116836002601488600163ffffffff611d5716565b61169760026015884263ffffffff61180416565b61169f611816565b600160a060020a031663c26d0c2c87426040518363ffffffff1660e060020a0281526004018083815260200182815260200192505050600060405180830381600087803b15801561093857600080fd5b60008133611706600260098463ffffffff6117a816565b600160a060020a03161461171f576105c66132d06117bd565b82600080611736600260178563ffffffff6117a816565b915061174b600260078563ffffffff6117a816565b90506117578282611927565b1515611768576105f96132cb6117bd565b61177186611993565b94506001851461095557611667856117bd565b600154600090600160a060020a03168015156117a057306117a2565b805b91505090565b60006117b5848484611d63565b949350505050565b6000803411156117f55760405133903480156108fc02916000818181858888f193505050501580156117f3573d6000803e3d6000fd5b505b6117fe82611e73565b92915050565b61181084848484611ee3565b50505050565b6000611820611784565b905090565b3390565b6000600160a060020a038316301415611844575060016117fe565b600054600160a060020a0316151561185e575060006117fe565b60008054604080517fb7009613000000000000000000000000000000000000000000000000000000008152600160a060020a0387811660048301523060248301527bffffffffffffffffffffffffffffffffffffffffffffffffffffffff19871660448301529151919092169263b700961392606480820193602093909283900390910190829087803b1580156118f457600080fd5b505af1158015611908573d6000803e3d6000fd5b505050506040513d602081101561191e57600080fd5b50519392505050565b60007f8000000000000000000000000000000000000000000000000000000000000000831615801590819061195c5750600883145b1561196a576001915061198c565b80158015611982575060048314806119825750600883145b1561198c57600191505b5092915050565b60006119a8600260148463ffffffff611d4a16565b15156119b757506132ce61082f565b6119cc6002601484600063ffffffff611d5716565b611a0b6016836119e5600260158363ffffffff6117a816565b42036119fa600260168863ffffffff6117a816565b60029392910163ffffffff61180416565b611a13611816565b600160a060020a031663b633d27283426040518363ffffffff1660e060020a0281526004018083815260200182815260200192505050600060405180830381600087803b158015611a6357600080fd5b505af1158015611a77573d6000803e3d6000fd5b50600195945050505050565b16151590565b602c54604080517f596fab6c0000000000000000000000000000000000000000000000000000000081526004810185905290516000928392600160a060020a039091169163596fab6c9160248082019260209290919082900301818787803b158015611af457600080fd5b505af1158015611b08573d6000803e3d6000fd5b505050506040513d6020811015611b1e57600080fd5b50519050611b7b601b85611b3b600260098363ffffffff6117a816565b61ffff8716611b69601b8a611b59600260098363ffffffff6117a816565b600292919063ffffffff611fe616565b6002949392910163ffffffff61200616565b602c54604080517f596fab6c00000000000000000000000000000000000000000000000000000000815260048101879052905134928492600160a060020a039091169163596fab6c916024808201926020929091908290030181600087803b158015611be657600080fd5b505af1158015611bfa573d6000803e3d6000fd5b505050506040513d6020811015611c1057600080fd5b50510314611ca557604080517f08c379a000000000000000000000000000000000000000000000000000000000815260206004820152603160248201527f4a4f425f434f4e54524f4c4c45525f494e56414c49445f54494d455f5245515560448201527f4553545f5041594d454e545f56414c5545000000000000000000000000000000606482015290519081900360840190fd5b602a54604080517fdecfd51b000000000000000000000000000000000000000000000000000000008152600481018790523360248201529051600160a060020a039092169163decfd51b913491604480830192602092919082900301818588803b158015611d1257600080fd5b505af1158015611d26573d6000803e3d6000fd5b50505050506040513d6020811015611d3d57600080fd5b5051600114949350505050565b60006117b5848484612023565b61181084848484612090565b825460018401548354604080516020808201939093528082018690528151808203830181526060909101918290528051600095600160a060020a0316946337d9d7fc9490939182918401908083835b60208310611dd15780518252601f199092019160209182019101611db2565b51815160209384036101000a60001901801990921691161790526040805192909401829003822063ffffffff891660e060020a028352600483019790975260248201969096529151604480840196955090935091839003909101905081600087803b158015611e3f57600080fd5b505af1158015611e53573d6000803e3d6000fd5b505050506040513d6020811015611e6957600080fd5b5051949350505050565b6000611e7d611784565b600160a060020a0316638834277e836040518263ffffffff1660e060020a02815260040180828152602001915050600060405180830381600087803b158015611ec557600080fd5b505af1158015611ed9573d6000803e3d6000fd5b5093949350505050565b835460018501548454604080516020808201939093528082018790528151808203830181526060909101918290528051600160a060020a039095169463a14ff85794939192918291908401908083835b60208310611f525780518252601f199092019160209182019101611f33565b5181516020939093036101000a60001901801990911692169190911790526040805191909301819003812063ffffffff881660e060020a02825260048201969096526024810195909552506044840187905251606480850194600094509192509082900301818387803b158015611fc857600080fd5b505af1158015611fdc573d6000803e3d6000fd5b5050505050505050565b6000611ffd858585600160a060020a038616612176565b95945050505050565b61201c858585600160a060020a03861685612204565b5050505050565b825460018401548354604080516020808201939093528082018690528151808203830181526060909101918290528051600095600160a060020a0316946398eaf11c94909391829184019080838360208310611dd15780518252601f199092019160209182019101611db2565b835460018501548454604080516020808201939093528082018790528151808203830181526060909101918290528051600160a060020a039095169463f0f53ee494939192918291908401908083835b602083106120ff5780518252601f1990920191602091820191016120e0565b5181516020939093036101000a60001901801990911692169190911790526040805191909301819003812063ffffffff881660e060020a0282526004820196909652602481019590955250861515604485015251606480850194600094509192509082900301818387803b158015611fc857600080fd5b6040805160208082018590528183018490528251808303840181526060909201928390528151600093611ffd938993899391929182918401908083835b602083106121d25780518252601f1990920191602091820191016121b3565b6001836020036101000a0380198251168184511680821785525050505050509050019150506040518091039020611d63565b604080516020808201869052818301859052825180830384018152606090920192839052815161201c9389938993909282918401908083835b6020831061225c5780518252601f19909201916020918201910161223d565b6001836020036101000a038019825116818451168082178552505050505050905001915050604051809103902084611ee3565b825473ffffffffffffffffffffffffffffffffffffffff1916600160a060020a03929092169190911782556001909101555600a165627a7a7230582031feef7311771149dd35eb66321a1b4622ee89a52d8d1e77c0c99c1f98f2cdc60029",
  "source": "/**\n* Copyright 20172018, LaborX PTY\n* Licensed under the AGPL Version 3 license.\n*/\n\npragma solidity ^0.4.21;\n\n\nimport \"solidity-roles-lib/contracts/Roles2LibraryAdapter.sol\";\nimport \"./JobControllerAbstract.sol\";\n\n\ncontract JobWorkProcessControllerLib is Roles2LibraryAdapter, JobControllerAbstract {\n\n    constructor(\n    )\n    Roles2LibraryAdapter(address(this))\n    JobDataCore(Storage(0x0), \"\")\n    public\n    {\n    }\n\n    function startWork(\n        uint _jobId\n    )\n    external\n    onlyWorker(_jobId)\n    onlyJobState(_jobId, JOB_STATE_OFFER_ACCEPTED)\n    returns (uint)\n    {\n        store.set(jobPendingStartAt, _jobId, now);\n        store.set(jobState, _jobId, JOB_STATE_PENDING_START);\n\n        _emitter().emitStartWorkRequested(_jobId, now);\n        return OK;\n    }\n\n    function confirmStartWork(\n        uint _jobId\n    )\n    external\n    onlyClient(_jobId)\n    onlyFlow(_jobId, WORKFLOW_TM)\n    onlyJobState(_jobId, JOB_STATE_PENDING_START)\n    returns (uint)\n    {\n        store.set(jobState, _jobId, JOB_STATE_STARTED);\n        store.set(jobStartTime, _jobId, now);\n\n        _emitter().emitWorkStarted(_jobId, now);\n        return OK;\n    }\n\n    function pauseWork(\n        uint _jobId\n    )\n    external\n    onlyWorker(_jobId)\n    onlyStartedState(_jobId)\n    returns (uint)\n    {\n        if (store.get(jobPaused, _jobId)) {\n            return _emitErrorCode(JOB_CONTROLLER_WORK_IS_ALREADY_PAUSED);\n        }\n\n        store.set(jobPaused, _jobId, true);\n        store.set(jobPausedAt, _jobId, now);\n\n        _emitter().emitWorkPaused(_jobId, now);\n        return OK;\n    }\n\n    function resumeWork(\n        uint _jobId\n    )\n    external\n    onlyWorker(_jobId)\n    onlyStartedState(_jobId)\n    returns (uint _resultCode)\n    {\n        _resultCode = _resumeWork(_jobId);\n        if (_resultCode != OK) {\n            return _emitErrorCode(_resultCode);\n        }\n    }\n\n    function _resumeWork(uint _jobId) internal returns (uint) {\n        if (!store.get(jobPaused, _jobId)) {\n            return JOB_CONTROLLER_WORK_IS_NOT_PAUSED;\n        }\n        store.set(jobPaused, _jobId, false);\n        store.set(jobPausedFor, _jobId, store.get(jobPausedFor, _jobId) + (now - store.get(jobPausedAt, _jobId)));\n\n        _emitter().emitWorkResumed(_jobId, now);\n        return OK;\n    }\n\n    function submitAdditionalTimeRequest(\n        uint _jobId,\n        uint16 _additionalTime\n    )\n    external\n    onlyWorker(_jobId)\n    onlyFlow(_jobId, WORKFLOW_TM)\n    onlyStartedState(_jobId)\n    returns (uint)\n    {\n        require(_additionalTime != 0, \"JOB_CONTROLLER_TIME_REQUEST_INVALID_TIME\");\n\n        store.set(jobRequestedAdditionalTime, _jobId, uint(_additionalTime));\n\n        _emitter().emitTimeRequestSubmitted(_jobId, _additionalTime);\n        return OK;\n    }\n\n    function acceptAdditionalTimeRequest(\n        uint _jobId,\n        uint16 _additionalTime\n    )\n    external\n    payable\n    onlyClient(_jobId)\n    onlyFlow(_jobId, WORKFLOW_TM)\n    onlyStartedState(_jobId)\n    onlyWithSubmittedRequest(_jobId)\n    returns (uint)\n    {\n        // ensure that no raised condition were met and client knows exactly how much time is actually requested\n        uint16 _storedAdditionalTime = uint16(store.get(jobRequestedAdditionalTime, _jobId));\n        if (_storedAdditionalTime != _additionalTime) {\n            return _emitErrorCode(JOB_CONTROLLER_INCORRECT_TIME_PROVIDED);\n        }\n\n        if (!_setNewEstimate(_jobId, _additionalTime)) {\n            revert(\"JOB_CONTROLLER_CANNOT_SET_NEW_ESTIMATE\");\n        }\n\n        store.set(jobRequestedAdditionalTime, _jobId, 0);\n\n        _emitter().emitTimeRequestAccepted(_jobId, _additionalTime);\n        return OK;\n    }\n\n    function rejectAdditionalTimeRequest(\n        uint _jobId\n    )\n    external\n    onlyClient(_jobId)\n    onlyFlow(_jobId, WORKFLOW_TM)\n    onlyStartedState(_jobId)\n    onlyWithSubmittedRequest(_jobId)\n    returns (uint)\n    {\n        uint _additionalTime = store.get(jobRequestedAdditionalTime, _jobId);\n        store.set(jobRequestedAdditionalTime, _jobId, 0);\n\n        _emitter().emitTimeRequestRejected(_jobId, _additionalTime);\n        return OK;\n    }\n\n    function _setNewEstimate(uint _jobId, uint16 _additionalTime)\n    internal\n    returns (bool)\n    {\n        uint jobPaymentLocked = jobsDataProvider.calculateLockAmount(_jobId);\n        store.set(\n            jobOfferEstimate,\n            _jobId,\n            store.get(jobWorker, _jobId),\n            store.get(jobOfferEstimate, _jobId, store.get(jobWorker, _jobId)) + _additionalTime\n        );\n\n        require(\n            jobsDataProvider.calculateLockAmount(_jobId) - jobPaymentLocked == msg.value, \n            \"JOB_CONTROLLER_INVALID_TIME_REQUEST_PAYMENT_VALUE\"\n        );\n\n        return OK == paymentProcessor.lockPayment.value(msg.value)(bytes32(_jobId), msg.sender);\n    }\n\n    function endWork(\n        uint _jobId\n    )\n    external\n    onlyWorker(_jobId)\n    onlyStartedState(_jobId)\n    returns (uint)\n    {\n        _resumeWork(_jobId);  // In case worker have forgotten about paused timer\n        store.set(jobPendingFinishAt, _jobId, now);\n        store.set(jobState, _jobId, JOB_STATE_PENDING_FINISH);\n\n        _emitter().emitEndWorkRequested(_jobId, now);\n        return OK;\n    }\n}",
  "sourcePath": "/Users/alesanro/Documents/Projects/ChronoBank/LX-SC/contracts/jobs/JobWorkProcessControllerLib.sol",
  "compiler": {
    "name": "solc",
    "version": "0.4.24+commit.e67f0147.Emscripten.clang"
  },
  "schemaVersion": "2.0.1",
  "updatedAt": "2018-09-18T15:39:26.050Z"
}