{
  "contractName": "JobWorkInitiationControllerLib",
  "abi": [
    {
      "constant": true,
      "inputs": [],
      "name": "jobsDataProvider",
      "outputs": [
        {
          "name": "",
          "type": "address"
        }
      ],
      "payable": false,
      "stateMutability": "view",
      "type": "function"
    },
    {
      "constant": false,
      "inputs": [
        {
          "name": "_jobId",
          "type": "uint256"
        },
        {
          "name": "_at",
          "type": "uint256"
        }
      ],
      "name": "emitWorkAccepted",
      "outputs": [],
      "payable": false,
      "stateMutability": "nonpayable",
      "type": "function"
    },
    {
      "constant": false,
      "inputs": [
        {
          "name": "_jobId",
          "type": "uint256"
        },
        {
          "name": "_worker",
          "type": "address"
        },
        {
          "name": "_rate",
          "type": "uint256"
        },
        {
          "name": "_estimate",
          "type": "uint256"
        },
        {
          "name": "_ontop",
          "type": "uint256"
        }
      ],
      "name": "emitJobOfferPosted",
      "outputs": [],
      "payable": false,
      "stateMutability": "nonpayable",
      "type": "function"
    },
    {
      "constant": false,
      "inputs": [
        {
          "name": "_roles2Library",
          "type": "address"
        }
      ],
      "name": "setRoles2Library",
      "outputs": [
        {
          "name": "",
          "type": "uint256"
        }
      ],
      "payable": false,
      "stateMutability": "nonpayable",
      "type": "function"
    },
    {
      "constant": false,
      "inputs": [
        {
          "name": "_jobId",
          "type": "uint256"
        },
        {
          "name": "_flowType",
          "type": "uint256"
        },
        {
          "name": "_client",
          "type": "address"
        },
        {
          "name": "_skillsArea",
          "type": "uint256"
        },
        {
          "name": "_skillsCategory",
          "type": "uint256"
        },
        {
          "name": "_skills",
          "type": "uint256"
        },
        {
          "name": "_defaultPay",
          "type": "uint256"
        },
        {
          "name": "_detailsIPFSHash",
          "type": "bytes32"
        },
        {
          "name": "_bindStatus",
          "type": "bool"
        }
      ],
      "name": "emitJobPosted",
      "outputs": [],
      "payable": false,
      "stateMutability": "nonpayable",
      "type": "function"
    },
    {
      "constant": true,
      "inputs": [],
      "name": "version",
      "outputs": [
        {
          "name": "",
          "type": "string"
        }
      ],
      "payable": false,
      "stateMutability": "view",
      "type": "function"
    },
    {
      "constant": false,
      "inputs": [
        {
          "name": "_jobId",
          "type": "uint256"
        },
        {
          "name": "_worker",
          "type": "address"
        }
      ],
      "name": "emitJobOfferAccepted",
      "outputs": [],
      "payable": false,
      "stateMutability": "nonpayable",
      "type": "function"
    },
    {
      "constant": false,
      "inputs": [
        {
          "name": "_errorCode",
          "type": "uint256"
        }
      ],
      "name": "emitErrorCode",
      "outputs": [],
      "payable": false,
      "stateMutability": "nonpayable",
      "type": "function"
    },
    {
      "constant": false,
      "inputs": [
        {
          "name": "_jobId",
          "type": "uint256"
        },
        {
          "name": "_at",
          "type": "uint256"
        }
      ],
      "name": "emitWorkRejected",
      "outputs": [],
      "payable": false,
      "stateMutability": "nonpayable",
      "type": "function"
    },
    {
      "constant": false,
      "inputs": [
        {
          "name": "_jobId",
          "type": "uint256"
        },
        {
          "name": "_at",
          "type": "uint256"
        }
      ],
      "name": "emitWorkDistputeResolved",
      "outputs": [],
      "payable": false,
      "stateMutability": "nonpayable",
      "type": "function"
    },
    {
      "constant": false,
      "inputs": [
        {
          "name": "_jobId",
          "type": "uint256"
        }
      ],
      "name": "emitJobCanceled",
      "outputs": [],
      "payable": false,
      "stateMutability": "nonpayable",
      "type": "function"
    },
    {
      "constant": false,
      "inputs": [
        {
          "name": "_jobId",
          "type": "uint256"
        },
        {
          "name": "_at",
          "type": "uint256"
        }
      ],
      "name": "emitEndWorkRequested",
      "outputs": [],
      "payable": false,
      "stateMutability": "nonpayable",
      "type": "function"
    },
    {
      "constant": false,
      "inputs": [
        {
          "name": "_jobId",
          "type": "uint256"
        },
        {
          "name": "_time",
          "type": "uint256"
        }
      ],
      "name": "emitTimeRequestRejected",
      "outputs": [],
      "payable": false,
      "stateMutability": "nonpayable",
      "type": "function"
    },
    {
      "constant": true,
      "inputs": [],
      "name": "userLibrary",
      "outputs": [
        {
          "name": "",
          "type": "address"
        }
      ],
      "payable": false,
      "stateMutability": "view",
      "type": "function"
    },
    {
      "constant": false,
      "inputs": [
        {
          "name": "_jobId",
          "type": "uint256"
        },
        {
          "name": "_at",
          "type": "uint256"
        }
      ],
      "name": "emitWorkResumed",
      "outputs": [],
      "payable": false,
      "stateMutability": "nonpayable",
      "type": "function"
    },
    {
      "constant": false,
      "inputs": [
        {
          "name": "_jobId",
          "type": "uint256"
        },
        {
          "name": "_at",
          "type": "uint256"
        }
      ],
      "name": "emitWorkStarted",
      "outputs": [],
      "payable": false,
      "stateMutability": "nonpayable",
      "type": "function"
    },
    {
      "constant": false,
      "inputs": [
        {
          "name": "_jobId",
          "type": "uint256"
        },
        {
          "name": "_time",
          "type": "uint256"
        }
      ],
      "name": "emitTimeRequestAccepted",
      "outputs": [],
      "payable": false,
      "stateMutability": "nonpayable",
      "type": "function"
    },
    {
      "constant": false,
      "inputs": [
        {
          "name": "_jobId",
          "type": "uint256"
        },
        {
          "name": "_at",
          "type": "uint256"
        }
      ],
      "name": "emitWorkPaused",
      "outputs": [],
      "payable": false,
      "stateMutability": "nonpayable",
      "type": "function"
    },
    {
      "constant": false,
      "inputs": [
        {
          "name": "_jobId",
          "type": "uint256"
        },
        {
          "name": "_time",
          "type": "uint256"
        }
      ],
      "name": "emitTimeRequestSubmitted",
      "outputs": [],
      "payable": false,
      "stateMutability": "nonpayable",
      "type": "function"
    },
    {
      "constant": false,
      "inputs": [
        {
          "name": "_jobId",
          "type": "uint256"
        }
      ],
      "name": "emitPaymentReleased",
      "outputs": [],
      "payable": false,
      "stateMutability": "nonpayable",
      "type": "function"
    },
    {
      "constant": false,
      "inputs": [
        {
          "name": "_jobId",
          "type": "uint256"
        },
        {
          "name": "_at",
          "type": "uint256"
        }
      ],
      "name": "emitStartWorkRequested",
      "outputs": [],
      "payable": false,
      "stateMutability": "nonpayable",
      "type": "function"
    },
    {
      "constant": false,
      "inputs": [
        {
          "name": "_jobId",
          "type": "uint256"
        },
        {
          "name": "_worker",
          "type": "address"
        },
        {
          "name": "_price",
          "type": "uint256"
        }
      ],
      "name": "emitJobOfferPosted",
      "outputs": [],
      "payable": false,
      "stateMutability": "nonpayable",
      "type": "function"
    },
    {
      "constant": true,
      "inputs": [],
      "name": "paymentProcessor",
      "outputs": [
        {
          "name": "",
          "type": "address"
        }
      ],
      "payable": false,
      "stateMutability": "view",
      "type": "function"
    },
    {
      "constant": true,
      "inputs": [],
      "name": "getEventsHistory",
      "outputs": [
        {
          "name": "",
          "type": "address"
        }
      ],
      "payable": false,
      "stateMutability": "view",
      "type": "function"
    },
    {
      "inputs": [],
      "payable": false,
      "stateMutability": "nonpayable",
      "type": "constructor"
    },
    {
      "anonymous": false,
      "inputs": [
        {
          "indexed": true,
          "name": "self",
          "type": "address"
        },
        {
          "indexed": true,
          "name": "jobId",
          "type": "uint256"
        },
        {
          "indexed": false,
          "name": "flowType",
          "type": "bytes32"
        },
        {
          "indexed": false,
          "name": "client",
          "type": "address"
        },
        {
          "indexed": false,
          "name": "skillsArea",
          "type": "uint256"
        },
        {
          "indexed": false,
          "name": "skillsCategory",
          "type": "uint256"
        },
        {
          "indexed": false,
          "name": "skills",
          "type": "uint256"
        },
        {
          "indexed": false,
          "name": "defaultPay",
          "type": "uint256"
        },
        {
          "indexed": false,
          "name": "detailsIPFSHash",
          "type": "bytes32"
        },
        {
          "indexed": false,
          "name": "bindStatus",
          "type": "bool"
        }
      ],
      "name": "JobPosted",
      "type": "event"
    },
    {
      "anonymous": false,
      "inputs": [
        {
          "indexed": true,
          "name": "self",
          "type": "address"
        },
        {
          "indexed": true,
          "name": "jobId",
          "type": "uint256"
        },
        {
          "indexed": false,
          "name": "worker",
          "type": "address"
        },
        {
          "indexed": false,
          "name": "rate",
          "type": "uint256"
        },
        {
          "indexed": false,
          "name": "estimate",
          "type": "uint256"
        },
        {
          "indexed": false,
          "name": "ontop",
          "type": "uint256"
        }
      ],
      "name": "JobOfferPosted",
      "type": "event"
    },
    {
      "anonymous": false,
      "inputs": [
        {
          "indexed": true,
          "name": "self",
          "type": "address"
        },
        {
          "indexed": true,
          "name": "jobId",
          "type": "uint256"
        },
        {
          "indexed": false,
          "name": "worker",
          "type": "address"
        },
        {
          "indexed": false,
          "name": "price",
          "type": "uint256"
        }
      ],
      "name": "JobOfferPosted",
      "type": "event"
    },
    {
      "anonymous": false,
      "inputs": [
        {
          "indexed": true,
          "name": "self",
          "type": "address"
        },
        {
          "indexed": true,
          "name": "jobId",
          "type": "uint256"
        },
        {
          "indexed": false,
          "name": "worker",
          "type": "address"
        }
      ],
      "name": "JobOfferAccepted",
      "type": "event"
    },
    {
      "anonymous": false,
      "inputs": [
        {
          "indexed": true,
          "name": "self",
          "type": "address"
        },
        {
          "indexed": true,
          "name": "jobId",
          "type": "uint256"
        },
        {
          "indexed": false,
          "name": "at",
          "type": "uint256"
        }
      ],
      "name": "StartWorkRequested",
      "type": "event"
    },
    {
      "anonymous": false,
      "inputs": [
        {
          "indexed": true,
          "name": "self",
          "type": "address"
        },
        {
          "indexed": true,
          "name": "jobId",
          "type": "uint256"
        },
        {
          "indexed": false,
          "name": "at",
          "type": "uint256"
        }
      ],
      "name": "WorkStarted",
      "type": "event"
    },
    {
      "anonymous": false,
      "inputs": [
        {
          "indexed": true,
          "name": "self",
          "type": "address"
        },
        {
          "indexed": true,
          "name": "jobId",
          "type": "uint256"
        },
        {
          "indexed": false,
          "name": "time",
          "type": "uint256"
        }
      ],
      "name": "TimeRequestSubmitted",
      "type": "event"
    },
    {
      "anonymous": false,
      "inputs": [
        {
          "indexed": true,
          "name": "self",
          "type": "address"
        },
        {
          "indexed": true,
          "name": "jobId",
          "type": "uint256"
        },
        {
          "indexed": false,
          "name": "time",
          "type": "uint256"
        }
      ],
      "name": "TimeRequestAccepted",
      "type": "event"
    },
    {
      "anonymous": false,
      "inputs": [
        {
          "indexed": true,
          "name": "self",
          "type": "address"
        },
        {
          "indexed": true,
          "name": "jobId",
          "type": "uint256"
        },
        {
          "indexed": false,
          "name": "time",
          "type": "uint256"
        }
      ],
      "name": "TimeRequestRejected",
      "type": "event"
    },
    {
      "anonymous": false,
      "inputs": [
        {
          "indexed": true,
          "name": "self",
          "type": "address"
        },
        {
          "indexed": true,
          "name": "jobId",
          "type": "uint256"
        },
        {
          "indexed": false,
          "name": "at",
          "type": "uint256"
        }
      ],
      "name": "WorkPaused",
      "type": "event"
    },
    {
      "anonymous": false,
      "inputs": [
        {
          "indexed": true,
          "name": "self",
          "type": "address"
        },
        {
          "indexed": true,
          "name": "jobId",
          "type": "uint256"
        },
        {
          "indexed": false,
          "name": "at",
          "type": "uint256"
        }
      ],
      "name": "WorkResumed",
      "type": "event"
    },
    {
      "anonymous": false,
      "inputs": [
        {
          "indexed": true,
          "name": "self",
          "type": "address"
        },
        {
          "indexed": true,
          "name": "jobId",
          "type": "uint256"
        },
        {
          "indexed": false,
          "name": "at",
          "type": "uint256"
        }
      ],
      "name": "EndWorkRequested",
      "type": "event"
    },
    {
      "anonymous": false,
      "inputs": [
        {
          "indexed": true,
          "name": "self",
          "type": "address"
        },
        {
          "indexed": true,
          "name": "jobId",
          "type": "uint256"
        },
        {
          "indexed": false,
          "name": "at",
          "type": "uint256"
        }
      ],
      "name": "WorkAccepted",
      "type": "event"
    },
    {
      "anonymous": false,
      "inputs": [
        {
          "indexed": true,
          "name": "self",
          "type": "address"
        },
        {
          "indexed": true,
          "name": "jobId",
          "type": "uint256"
        },
        {
          "indexed": false,
          "name": "at",
          "type": "uint256"
        }
      ],
      "name": "WorkRejected",
      "type": "event"
    },
    {
      "anonymous": false,
      "inputs": [
        {
          "indexed": true,
          "name": "self",
          "type": "address"
        },
        {
          "indexed": true,
          "name": "jobId",
          "type": "uint256"
        },
        {
          "indexed": false,
          "name": "at",
          "type": "uint256"
        }
      ],
      "name": "WorkDisputeResolved",
      "type": "event"
    },
    {
      "anonymous": false,
      "inputs": [
        {
          "indexed": true,
          "name": "self",
          "type": "address"
        },
        {
          "indexed": true,
          "name": "jobId",
          "type": "uint256"
        }
      ],
      "name": "PaymentReleased",
      "type": "event"
    },
    {
      "anonymous": false,
      "inputs": [
        {
          "indexed": true,
          "name": "self",
          "type": "address"
        },
        {
          "indexed": true,
          "name": "jobId",
          "type": "uint256"
        }
      ],
      "name": "JobCanceled",
      "type": "event"
    },
    {
      "anonymous": false,
      "inputs": [
        {
          "indexed": true,
          "name": "self",
          "type": "address"
        },
        {
          "indexed": false,
          "name": "errorCode",
          "type": "uint256"
        }
      ],
      "name": "ErrorCode",
      "type": "event"
    },
    {
      "anonymous": false,
      "inputs": [
        {
          "indexed": false,
          "name": "code",
          "type": "address"
        },
        {
          "indexed": false,
          "name": "sender",
          "type": "address"
        },
        {
          "indexed": false,
          "name": "sig",
          "type": "bytes4"
        }
      ],
      "name": "AuthFailedError",
      "type": "event"
    },
    {
      "constant": false,
      "inputs": [
        {
          "name": "_flowType",
          "type": "uint256"
        },
        {
          "name": "_area",
          "type": "uint256"
        },
        {
          "name": "_category",
          "type": "uint256"
        },
        {
          "name": "_skills",
          "type": "uint256"
        },
        {
          "name": "_defaultPay",
          "type": "uint256"
        },
        {
          "name": "_detailsIPFSHash",
          "type": "bytes32"
        }
      ],
      "name": "postJob",
      "outputs": [
        {
          "name": "",
          "type": "uint256"
        }
      ],
      "payable": false,
      "stateMutability": "nonpayable",
      "type": "function"
    },
    {
      "constant": false,
      "inputs": [
        {
          "name": "_jobId",
          "type": "uint256"
        },
        {
          "name": "_rate",
          "type": "uint256"
        },
        {
          "name": "_estimate",
          "type": "uint256"
        },
        {
          "name": "_ontop",
          "type": "uint256"
        }
      ],
      "name": "postJobOffer",
      "outputs": [
        {
          "name": "",
          "type": "uint256"
        }
      ],
      "payable": false,
      "stateMutability": "nonpayable",
      "type": "function"
    },
    {
      "constant": false,
      "inputs": [
        {
          "name": "_jobId",
          "type": "uint256"
        },
        {
          "name": "_price",
          "type": "uint256"
        }
      ],
      "name": "postJobOfferWithPrice",
      "outputs": [
        {
          "name": "",
          "type": "uint256"
        }
      ],
      "payable": false,
      "stateMutability": "nonpayable",
      "type": "function"
    },
    {
      "constant": false,
      "inputs": [
        {
          "name": "_jobId",
          "type": "uint256"
        },
        {
          "name": "_worker",
          "type": "address"
        }
      ],
      "name": "acceptOffer",
      "outputs": [
        {
          "name": "_resultCode",
          "type": "uint256"
        }
      ],
      "payable": true,
      "stateMutability": "payable",
      "type": "function"
    }
  ],
  "bytecode": "0x60c0604052600660808190527f76302e302e31000000000000000000000000000000000000000000000000000060a0908152620000409160299190620000ce565b503480156200004e57600080fd5b506000808080308015156200006257600080fd5b60008054600160a060020a031916600160a060020a03929092169190911790556200009e60028383640100000000620000a88102620022c51704565b5050505062000173565b8254600160a060020a031916600160a060020a0392909216919091178255600190910155565b828054600181600116156101000203166002900490600052602060002090601f016020900481019282601f106200011157805160ff191683800117855562000141565b8280016001018555821562000141579182015b828111156200014157825182559160200191906001019062000124565b506200014f92915062000153565b5090565b6200017091905b808211156200014f57600081556001016200015a565b90565b61232480620001836000396000f3006080604052600436106101505763ffffffff60e060020a600035041663061986a481146101555780630a3d1ca4146101865780631972b464146101a35780631c62f853146101d05780632637cd7d14610209578063425654821461022a57806354fd4d501461026657806358b5f92a146102f05780638680e52d146103115780638834277e146103355780638db210dc1461034d5780638dfa95f414610368578063918d407d146103835780639c6e1d461461039a578063a34f74bd146103b2578063aaf2fc08146103cd578063b3ec8cb8146103e8578063b633d272146103fd578063b7d8b1d914610418578063bdeeea5514610433578063c26d0c2c1461044e578063c50e59f414610469578063d649567614610484578063e46f49ae1461049c578063eca52767146104b7578063f1c6bdf8146104de578063f737acff146104f3578063fff10aba1461050e575b600080fd5b34801561016157600080fd5b5061016a610523565b60408051600160a060020a039092168252519081900360200190f35b34801561019257600080fd5b506101a1600435602435610532565b005b3480156101af57600080fd5b506101a1600435600160a060020a036024351660443560643560843561057f565b3480156101dc57600080fd5b506101f760043560243560443560643560843560a4356105e5565b60408051918252519081900360200190f35b34801561021557600080fd5b506101f7600160a060020a0360043516610843565b34801561023657600080fd5b506101a1600435602435600160a060020a036044351660643560843560a43560c43560e43561010435151561090b565b34801561027257600080fd5b5061027b610991565b6040805160208082528351818301528351919283929083019185019080838360005b838110156102b557818101518382015260200161029d565b50505050905090810190601f1680156102e25780820380516001836020036101000a031916815260200191505b509250505060405180910390f35b3480156102fc57600080fd5b506101f7600435602435604435606435610a1f565b34801561031d57600080fd5b506101a1600435600160a060020a0360243516610c8d565b34801561034157600080fd5b506101a1600435610cdc565b34801561035957600080fd5b506101a1600435602435610d27565b34801561037457600080fd5b506101a1600435602435610d74565b6101f7600435600160a060020a0360243516610dc1565b3480156103a657600080fd5b506101a1600435611171565b3480156103be57600080fd5b506101a16004356024356111b2565b3480156103d957600080fd5b506101a16004356024356111ff565b3480156103f457600080fd5b5061016a61124c565b34801561040957600080fd5b506101a160043560243561125b565b34801561042457600080fd5b506101a16004356024356112a8565b34801561043f57600080fd5b506101a16004356024356112f5565b34801561045a57600080fd5b506101a1600435602435611342565b34801561047557600080fd5b506101a160043560243561138f565b34801561049057600080fd5b506101a16004356113dc565b3480156104a857600080fd5b506101a160043560243561141d565b3480156104c357600080fd5b506101a1600435600160a060020a036024351660443561146a565b3480156104ea57600080fd5b5061016a6114c0565b3480156104ff57600080fd5b506101f76004356024356114cf565b34801561051a57600080fd5b5061016a6116c5565b602c54600160a060020a031681565b8161053b6116e9565b600160a060020a03167fe5358c187d063c360e67321606a0a2dd8d7fe426d9aa68bb9e853fcf2851d938836040518082815260200191505060405180910390a35050565b846105886116e9565b60408051600160a060020a0388811682526020820188905281830187905260608201869052915192909116917fa3bc0f53ddeedcb11a232f5b24300a8fe43af2c2dcc30b46dbc64476e762a1869181900360800190a35050505050565b600080876105f2816116ed565b1515610610576106036132cf6117cb565b506132cf60005260206000f35b8761061a81611812565b158061062c575061062a81611829565b155b1561063657610836565b8761064081611812565b1580610652575061065081611829565b155b1561065c57610834565b8780151561066957610832565b61067b6002600663ffffffff61184f16565b60010194506106956002602787600063ffffffff6118f616565b6106a8600260068763ffffffff61190816565b6106bc6002600e874263ffffffff6119a016565b6106d16002600787600163ffffffff6119a016565b6106e560026017878f63ffffffff6119a016565b6106f960026008873363ffffffff6119ac16565b61070d6002600b878e63ffffffff6119a016565b6107216002600c878d63ffffffff6119a016565b6107356002600d878c63ffffffff6119a016565b61074960026019878b63ffffffff6119a016565b61075d6002600a878a63ffffffff6119a016565b6107716002601d338863ffffffff6119c116565b6107796119cd565b604080517f4256548200000000000000000000000000000000000000000000000000000000815260048101889052602481018f9052336044820152606481018e9052608481018d905260a481018c905260c481018b905260e481018a9052600061010482018190529151600160a060020a0393909316926342565482926101248084019391929182900301818387803b15801561081557600080fd5b505af1158015610829573d6000803e3d6000fd5b50505050600195505b505b505b5050509695505050505050565b6000610870336000357bffffffffffffffffffffffffffffffffffffffffffffffffffffffff19166119dc565b15156108da57604080513081523360208201527bffffffffffffffffffffffffffffffffffffffffffffffffffffffff19600035168183015290517f5133a133185f1023427a2e90f18506b27db994977ce0c0faafd514a7dd109ae09181900360600190a1610906565b506000805473ffffffffffffffffffffffffffffffffffffffff1916600160a060020a03831617905560015b919050565b886109146116e9565b604080518b8152600160a060020a038b811660208301528183018b9052606082018a90526080820189905260a0820188905260c0820187905285151560e0830152915192909116917ebe90d46e792dd8139c7fa5fc3c5094a4617b29079275876030fafdfd99790a918190036101000190a3505050505050505050565b6029805460408051602060026001851615610100026000190190941693909304601f81018490048402820184019092528181529291830182828015610a175780601f106109ec57610100808354040283529160200191610a17565b820191906000526020600020905b8154815290600101906020018083116109fa57829003601f168201915b505050505081565b60008433610a36600260088463ffffffff611aa716565b600160a060020a03161415610a5d57610a506132d06117cb565b506132d060005260206000f35b856001610a7c610a76600260178563ffffffff611aa716565b82611abc565b1515610a8d576106036132cf6117cb565b87600180610aa4600260078563ffffffff611aa716565b14610ac157610ab46132cb6117cb565b506132cb60005260206000f35b602c54604080517fd67a496c000000000000000000000000000000000000000000000000000000008152600481018c9052602481018b9052604481018a90529051600160a060020a039092169163d67a496c916064808201926020929091908290030181600087803b158015610b3657600080fd5b505af1158015610b4a573d6000803e3d6000fd5b505050506040513d6020811015610b6057600080fd5b50511515610b7a57610b736132c96117cb565b9550610c80565b610b838a611ac2565b1515610b9457610b736132ca6117cb565b610ba96002601a8c338d63ffffffff611ac816565b610bbe6002601b8c338c63ffffffff611ac816565b610bd36002601c8c338b63ffffffff611ac816565b610bdc8a611ae5565b610be46119cd565b604080517f1972b464000000000000000000000000000000000000000000000000000000008152600481018d9052336024820152604481018c9052606481018b9052608481018a90529051600160a060020a039290921691631972b4649160a48082019260009290919082900301818387803b158015610c6357600080fd5b505af1158015610c77573d6000803e3d6000fd5b50505050600195505b5050505050949350505050565b81610c966116e9565b60408051600160a060020a038581168252915192909116917fcd1a96dff5c14af15cc6cc02bc309e3abef75468ceced0d0435f20bef5a9db3a9181900360200190a35050565b610ce46116e9565b600160a060020a03167f09e0713b45664e161c202b19bb4574ee83dfa056f9bfdee56847b3971d968221826040518082815260200191505060405180910390a250565b81610d306116e9565b600160a060020a03167fd3395eea11df9ed3451acb381c8e8220231eaa3b2ebc7c2cd1e1ab6302f3314f836040518082815260200191505060405180910390a35050565b81610d7d6116e9565b600160a060020a03167f572dddcf2d7a6a168606d76d97cac3799945fdd877c6710aa9f283fcd8a42866836040518082815260200191505060405180910390a35050565b60008233610dd8600260088463ffffffff611aa716565b600160a060020a031614610df157610a506132d06117cb565b83600180610e08600260078563ffffffff611aa716565b14610e1857610ab46132cb6117cb565b610e2c6002601a888863ffffffff611b2516565b1515610e4457610e3d6132cc6117cb565b9350611168565b610e5860026009888863ffffffff6119ac16565b602c54604080517f596fab6c000000000000000000000000000000000000000000000000000000008152600481018990529051600160a060020a039092169163596fab6c916024808201926020929091908290030181600087803b158015610ebf57600080fd5b505af1158015610ed3573d6000803e3d6000fd5b505050506040513d6020811015610ee957600080fd5b50513414610f7e57604080517f08c379a000000000000000000000000000000000000000000000000000000000815260206004820152602960248201527f4a4f425f434f4e54524f4c4c45525f4143434550545f4f464645525f494e564160448201527f4c49445f56414c55450000000000000000000000000000000000000000000000606482015290519081900360840190fd5b602a54604080517fdecfd51b000000000000000000000000000000000000000000000000000000008152600481018990523360248201529051600160a060020a039092169163decfd51b913491604480830192602092919082900301818588803b158015610feb57600080fd5b505af1158015610fff573d6000803e3d6000fd5b50505050506040513d602081101561101657600080fd5b50519350600184146110af57604080517f08c379a000000000000000000000000000000000000000000000000000000000815260206004820152602260248201527f4a4f425f434f4e54524f4c4c45525f43414e4e4f545f4c4f434b5f5041594d4560448201527f4e54000000000000000000000000000000000000000000000000000000000000606482015290519081900360840190fd5b6110c36002600f884263ffffffff6119a016565b6110d760026007888263ffffffff6119a016565b6110e18686611b45565b6110e96119cd565b600160a060020a0316638680e52d87876040518363ffffffff1660e060020a0281526004018083815260200182600160a060020a0316600160a060020a0316815260200192505050600060405180830381600087803b15801561114b57600080fd5b505af115801561115f573d6000803e3d6000fd5b50505050600193505b50505092915050565b8061117a6116e9565b600160a060020a03167fc81a87bb9e1f6f23054c21dd9959f8aa3b2f86077a49ccac452fadff6731304c60405160405180910390a350565b816111bb6116e9565b600160a060020a03167f0548c7325a5164931df3aa9329c011dae1da4d2a8d8f263d85a69e5bbf59539e836040518082815260200191505060405180910390a35050565b816112086116e9565b600160a060020a03167fe7a7f3d15b44bc59d2ec1229ddb620195d46a685ebddae6745ecb2384115b876836040518082815260200191505060405180910390a35050565b602b54600160a060020a031681565b816112646116e9565b600160a060020a03167f799a32325be3cd39f977d4cc026272cc3dd97d9dd46c5751c7c9900d9f1ffcdf836040518082815260200191505060405180910390a35050565b816112b16116e9565b600160a060020a03167f63efc44d4747c4669c8be4f317453622684e7daab7cf5772795e6413a40c26dd836040518082815260200191505060405180910390a35050565b816112fe6116e9565b600160a060020a03167f79a83e3beb9634ee6139429283222d680b93ea043c2ff1871edefcacafc06283836040518082815260200191505060405180910390a35050565b8161134b6116e9565b600160a060020a03167f8cd445c80d0841aae8f229eddbed0de5befd5ff6fc2ca0510ee0621f5d6d5bef836040518082815260200191505060405180910390a35050565b816113986116e9565b600160a060020a03167fe633624d3f31882d5f69373f4eaf1fc339ca5f5d499f1940cd2c9adde1d0c031836040518082815260200191505060405180910390a35050565b806113e56116e9565b600160a060020a03167fdf20fd1e76bc69d672e4814fafb2c449bba3a5369d8359adf9e05e6fde87b05660405160405180910390a350565b816114266116e9565b600160a060020a03167fd2672b89fe222769587124bc5274449842976e105b59c8769578bd1cd4da72e4836040518082815260200191505060405180910390a35050565b826114736116e9565b60408051600160a060020a0386811682526020820186905282519316927f271fcf1e587075053a24de13909c1c666d6b58fae99f299cfbc3fb1696bc2c1a929181900390910190a3505050565b602a54600160a060020a031681565b600082336114e6600260088463ffffffff611aa716565b600160a060020a0316141561150057610a506132d06117cb565b836002611518610a768260178563ffffffff611aa716565b1515611529576106036132cf6117cb565b85600180611540600260078563ffffffff611aa716565b1461155057610ab46132cb6117cb565b600087116115e557604080517f08c379a000000000000000000000000000000000000000000000000000000000815260206004820152602660248201527f4a4f425f434f4e54524f4c4c45525f4a4f425f4f464645525f494e56414c494460448201527f5f50524943450000000000000000000000000000000000000000000000000000606482015290519081900360840190fd5b6115ee88611ac2565b1515611606576115ff6132ca6117cb565b95506116ba565b61161b6002601a8a338b63ffffffff611ac816565b61162488611ae5565b61162c6119cd565b604080517feca52767000000000000000000000000000000000000000000000000000000008152600481018b9052336024820152604481018a90529051600160a060020a03929092169163eca527679160648082019260009290919082900301818387803b15801561169d57600080fd5b505af11580156116b1573d6000803e3d6000fd5b50505050600195505b505050505092915050565b600154600090600160a060020a03168015156116e157306116e3565b805b91505090565b3390565b60007f7fffffffffffffffffffffffffffffffffffffffffffffffffffffffffffffff82167f800000000000000000000000000000000000000000000000000000000000000083168261173f83611812565b801561174c575060028311155b151561175b57600093506117c3565b82600114801561179057506117907f800000000000000000000000000000000000000000000000000000000000000083611bbc565b806117ac57508260021480156117ac57506117ac600083611bbc565b90508015156117be57600093506117c3565b600193505b505050919050565b6000803411156118035760405133903480156108fc02916000818181858888f19350505050158015611801573d6000803e3d6000fd5b505b61180c82611bc3565b92915050565b6000811580159061180c5750506000198101161590565b7faaaaaaaaaaaaaaaaaaaaaaaaaaaaaaaaaaaaaaaaaaaaaaaaaaaaaaaaaaaaaaaa161590565b815460018301548254604080517f53aa3f5e0000000000000000000000000000000000000000000000000000000081526004810193909352602483019190915251600092600160a060020a0316916353aa3f5e91604480830192602092919082900301818787803b1580156118c357600080fd5b505af11580156118d7573d6000803e3d6000fd5b505050506040513d60208110156118ed57600080fd5b50519392505050565b61190284848484611c33565b50505050565b825460018401548354604080517f53e7168b000000000000000000000000000000000000000000000000000000008152600481019390935260248301919091526044820184905251600160a060020a03909216916353e7168b9160648082019260009290919082900301818387803b15801561198357600080fd5b505af1158015611997573d6000803e3d6000fd5b50505050505050565b61190284848484611d37565b611902848484600160a060020a038516611d37565b61190284848484611e1c565b60006119d76116c5565b905090565b6000600160a060020a0383163014156119f75750600161180c565b600054600160a060020a03161515611a115750600061180c565b60008054604080517fb7009613000000000000000000000000000000000000000000000000000000008152600160a060020a0387811660048301523060248301527bffffffffffffffffffffffffffffffffffffffffffffffffffffffff19871660448301529151919092169263b700961392606480820193602093909283900390910190829087803b1580156118c357600080fd5b6000611ab4848484611e28565b949350505050565b16151590565b50600190565b611ade858585600160a060020a03861685611f38565b5050505050565b611af960026020338463ffffffff6119c116565b611b0d60026023833363ffffffff611fc316565b611b226002602683334263ffffffff611ac816565b50565b6000611b3c858585600160a060020a038616611fd8565b95945050505050565b60008080611b5c600260238763ffffffff61206616565b9250600091505b82821015611ade57611b7f60026023878563ffffffff61207316565b9050600160a060020a0380821690851614611bb157611bb160026020600160a060020a0384168863ffffffff61208116565b816001019150611b63565b9081161490565b6000611bcd6116c5565b600160a060020a0316638834277e836040518263ffffffff1660e060020a02815260040180828152602001915050600060405180830381600087803b158015611c1557600080fd5b505af1158015611c29573d6000803e3d6000fd5b5093949350505050565b835460018501548454604080516020808201939093528082018790528151808203830181526060909101918290528051600160a060020a039095169463f0f53ee494939192918291908401908083835b60208310611ca25780518252601f199092019160209182019101611c83565b5181516020939093036101000a60001901801990911692169190911790526040805191909301819003812063ffffffff881660e060020a0282526004820196909652602481019590955250861515604485015251606480850194600094509192509082900301818387803b158015611d1957600080fd5b505af1158015611d2d573d6000803e3d6000fd5b5050505050505050565b835460018501548454604080516020808201939093528082018790528151808203830181526060909101918290528051600160a060020a039095169463a14ff85794939192918291908401908083835b60208310611da65780518252601f199092019160209182019101611d87565b5181516020939093036101000a60001901801990911692169190911790526040805191909301819003812063ffffffff881660e060020a02825260048201969096526024810195909552506044840187905251606480850194600094509192509082900301818387803b158015611d1957600080fd5b6119028484848461208d565b825460018401548354604080516020808201939093528082018690528151808203830181526060909101918290528051600095600160a060020a0316946337d9d7fc9490939182918401908083835b60208310611e965780518252601f199092019160209182019101611e77565b51815160209384036101000a60001901801990921691161790526040805192909401829003822063ffffffff891660e060020a028352600483019790975260248201969096529151604480840196955090935091839003909101905081600087803b158015611f0457600080fd5b505af1158015611f18573d6000803e3d6000fd5b505050506040513d6020811015611f2e57600080fd5b5051949350505050565b6040805160208082018690528183018590528251808303840181526060909201928390528151611ade9389938993909282918401908083835b60208310611f905780518252601f199092019160209182019101611f71565b6001836020036101000a038019825116818451168082178552505050505050905001915050604051809103902084611d37565b611902848484600160a060020a038516611e1c565b6040805160208082018590528183018490528251808303840181526060909201928390528151600093611b3c938993899391929182918401908083835b602083106120345780518252601f199092019160209182019101612015565b6001836020036101000a0380198251168184511680821785525050505050509050019150506040518091039020611e28565b6000611ab48484846120e1565b6000611b3c858585856120ee565b611902848484846120fc565b600061209b85858585612108565b156120a557611ade565b6120b0858585612124565b60010190506120c58560028601858486611f38565b6120d58560018601858585611f38565b611ade85858584612131565b6000611ab4848484612124565b6000611b3c8585858561219f565b611902848484846121b3565b600061211985856001018585611fd8565b151595945050505050565b6000611ab4848484612258565b835460018501548454604080516020808201939093528082018790528151808203830181526060909101918290528051600160a060020a03909516946353e7168b949391929182919084019080838360208310611da65780518252601f199092019160209182019101611d87565b6000611b3c85600286018560018601611fd8565b60008060006121c487878787612108565b15156121cf57611997565b6121da878787612124565b92506121eb87600288018786611fd8565b91506121fc87876001018787611fd8565b905082811015612226576122168760018801878585611f38565b6122268760028801878486611f38565b612237876001880187876000611f38565b612248876002880187866000611f38565b6119978787876000198701612131565b825460018401548354604080516020808201939093528082018690528151808203830181526060909101918290528051600095600160a060020a0316946353aa3f5e94909391829184019080838360208310611e965780518252601f199092019160209182019101611e77565b825473ffffffffffffffffffffffffffffffffffffffff1916600160a060020a03929092169190911782556001909101555600a165627a7a72305820396e18c930751965f10e4b8b3ecaf2117c81a67bc210ef1682a99d0248b9605c0029",
  "source": "/**\n * Copyright 20172018, LaborX PTY\n * Licensed under the AGPL Version 3 license.\n */\n\npragma solidity ^0.4.21;\n\n\nimport \"solidity-roles-lib/contracts/Roles2LibraryAdapter.sol\";\nimport \"./JobControllerAbstract.sol\";\n\n\ncontract JobWorkInitiationControllerLib is Roles2LibraryAdapter, JobControllerAbstract {\n\n    constructor(\n    )\n    Roles2LibraryAdapter(address(this))\n    JobDataCore(Storage(0x0), \"\")\n    public\n    {\n    }\n\n\t/// @notice Creates and posts a new job to a job marketplace\n    /// @param _flowType see WorkflowType\n    function postJob(\n        uint _flowType,\n        uint _area,\n        uint _category,\n        uint _skills,\n        uint _defaultPay,\n        bytes32 _detailsIPFSHash\n    )\n    public\n    onlyValidWorkflow(_flowType)\n    singleOddFlag(_area)\n    singleOddFlag(_category)\n    hasFlags(_skills)\n    returns (uint)\n    {\n        uint jobId = store.get(jobsCount) + 1;\n        store.set(bindStatus, jobId, false);\n        store.set(jobsCount, jobId);\n        store.set(jobCreatedAt, jobId, now);\n        store.set(jobState, jobId, JOB_STATE_CREATED);\n        store.set(jobWorkflowType, jobId, _flowType);\n        store.set(jobClient, jobId, msg.sender);\n        store.set(jobSkillsArea, jobId, _area);\n        store.set(jobSkillsCategory, jobId, _category);\n        store.set(jobSkills, jobId, _skills);\n        store.set(jobDefaultPay, jobId, _defaultPay);\n        store.set(jobDetailsIPFSHash, jobId, _detailsIPFSHash);\n        store.add(clientJobs, bytes32(msg.sender), jobId);\n\n        _emitter().emitJobPosted(jobId, _flowType, msg.sender, _area, _category, _skills, _defaultPay, _detailsIPFSHash, false);\n        return OK;\n    }\n\n    function postJobOffer(\n        uint _jobId,\n        uint _rate,\n        uint _estimate,\n        uint _ontop\n    )\n    public\n    onlyNotClient(_jobId)\n    onlyFlow(_jobId, WORKFLOW_TM)\n    onlyJobState(_jobId, JOB_STATE_CREATED)\n    returns (uint)\n    {\n        if (!jobsDataProvider.isValidEstimate(_rate, _estimate, _ontop)) {\n            return _emitErrorCode(JOB_CONTROLLER_INVALID_ESTIMATE);\n        }\n\n        if (!_hasSkillsCheck(_jobId)) {\n            return _emitErrorCode(JOB_CONTROLLER_INVALID_SKILLS);\n        }\n\n        store.set(jobOfferRate, _jobId, msg.sender, _rate);\n        store.set(jobOfferEstimate, _jobId, msg.sender, _estimate);\n        store.set(jobOfferOntop, _jobId, msg.sender, _ontop);\n        _addJobOffer(_jobId);\n\n        _emitter().emitJobOfferPosted(_jobId, msg.sender, _rate, _estimate, _ontop);\n        return OK;\n    }\n\n    function postJobOfferWithPrice(\n        uint _jobId,\n        uint _price\n    )\n    external\n    onlyNotClient(_jobId)\n    onlyFlow(_jobId, WORKFLOW_FIXED_PRICE)\n    onlyJobState(_jobId, JOB_STATE_CREATED)\n    returns (uint) {\n        require(_price > 0, \"JOB_CONTROLLER_JOB_OFFER_INVALID_PRICE\");\n\n        if (!_hasSkillsCheck(_jobId)) {\n            return _emitErrorCode(JOB_CONTROLLER_INVALID_SKILLS);\n        }\n\n        store.set(jobOfferRate, _jobId, msg.sender, _price);\n        _addJobOffer(_jobId);\n\n        _emitter().emitJobOfferPosted(_jobId, msg.sender, _price);\n\n        return OK;\n    }\n\n    function _hasSkillsCheck(uint _jobId) internal view returns (bool) {\n        // TODO: remove after demo\n        // return userLibrary.hasSkills(\n        //     msg.sender,\n        //     store.get(jobSkillsArea, _jobId),\n        //     store.get(jobSkillsCategory, _jobId),\n        //     store.get(jobSkills, _jobId)\n        // );\n        return true;\n    }\n\n    function _addJobOffer(uint _jobId) private {\n        store.add(workerJobs, bytes32(msg.sender), _jobId);\n        store.add(jobOffers, bytes32(_jobId), msg.sender);\n        store.set(jobOfferPostedAt, _jobId, msg.sender, now);\n    }\n\n    function acceptOffer(\n        uint _jobId,\n        address _worker\n    )\n    external\n    payable\n    onlyClient(_jobId)\n    onlyJobState(_jobId, JOB_STATE_CREATED)\n    returns (uint _resultCode)\n    {\n        if (store.get(jobOfferRate, _jobId, _worker) == 0) {\n            return _emitErrorCode(JOB_CONTROLLER_WORKER_RATE_NOT_SET);\n        }\n\n        // Maybe incentivize by locking some money from worker?\n        store.set(jobWorker, _jobId, _worker);\n\n        require(msg.value == jobsDataProvider.calculateLockAmount(_jobId), \"JOB_CONTROLLER_ACCEPT_OFFER_INVALID_VALUE\");\n\n        _resultCode = paymentProcessor.lockPayment.value(msg.value)(bytes32(_jobId), msg.sender);\n        if (_resultCode != OK) {\n            revert(\"JOB_CONTROLLER_CANNOT_LOCK_PAYMENT\");\n        }\n\n        store.set(jobAcceptedAt, _jobId, now);\n        store.set(jobState, _jobId, JOB_STATE_OFFER_ACCEPTED);\n        _cleanupJobOffers(_jobId, _worker);\n\n        _emitter().emitJobOfferAccepted(_jobId, _worker);\n        return OK;\n    }\n\n    function _cleanupJobOffers(uint _jobId, address _acceptedOffer) private {\n        uint _offersCount = store.count(jobOffers, bytes32(_jobId));\n        for (uint _offerIdx = 0; _offerIdx < _offersCount; ++_offerIdx) {\n            address _offer = store.get(jobOffers, bytes32(_jobId), _offerIdx);\n            if (_offer != _acceptedOffer) {\n                store.remove(workerJobs, bytes32(_offer), _jobId);\n            }\n        }\n    }\n}",
  "sourcePath": "/Users/alesanro/Documents/Projects/ChronoBank/LX-SC/contracts/jobs/JobWorkInitiationControllerLib.sol",
  "compiler": {
    "name": "solc",
    "version": "0.4.24+commit.e67f0147.Emscripten.clang"
  },
  "schemaVersion": "2.0.1",
  "updatedAt": "2018-09-18T15:39:26.023Z"
}