{
  "contractName": "JobWorkAcceptanceControllerLib",
  "abi": [
    {
      "constant": true,
      "inputs": [],
      "name": "jobsDataProvider",
      "outputs": [
        {
          "name": "",
          "type": "address"
        }
      ],
      "payable": false,
      "stateMutability": "view",
      "type": "function"
    },
    {
      "constant": false,
      "inputs": [
        {
          "name": "_jobId",
          "type": "uint256"
        },
        {
          "name": "_at",
          "type": "uint256"
        }
      ],
      "name": "emitWorkAccepted",
      "outputs": [],
      "payable": false,
      "stateMutability": "nonpayable",
      "type": "function"
    },
    {
      "constant": false,
      "inputs": [
        {
          "name": "_jobId",
          "type": "uint256"
        },
        {
          "name": "_worker",
          "type": "address"
        },
        {
          "name": "_rate",
          "type": "uint256"
        },
        {
          "name": "_estimate",
          "type": "uint256"
        },
        {
          "name": "_ontop",
          "type": "uint256"
        }
      ],
      "name": "emitJobOfferPosted",
      "outputs": [],
      "payable": false,
      "stateMutability": "nonpayable",
      "type": "function"
    },
    {
      "constant": false,
      "inputs": [
        {
          "name": "_roles2Library",
          "type": "address"
        }
      ],
      "name": "setRoles2Library",
      "outputs": [
        {
          "name": "",
          "type": "uint256"
        }
      ],
      "payable": false,
      "stateMutability": "nonpayable",
      "type": "function"
    },
    {
      "constant": false,
      "inputs": [
        {
          "name": "_jobId",
          "type": "uint256"
        },
        {
          "name": "_flowType",
          "type": "uint256"
        },
        {
          "name": "_client",
          "type": "address"
        },
        {
          "name": "_skillsArea",
          "type": "uint256"
        },
        {
          "name": "_skillsCategory",
          "type": "uint256"
        },
        {
          "name": "_skills",
          "type": "uint256"
        },
        {
          "name": "_defaultPay",
          "type": "uint256"
        },
        {
          "name": "_detailsIPFSHash",
          "type": "bytes32"
        },
        {
          "name": "_bindStatus",
          "type": "bool"
        }
      ],
      "name": "emitJobPosted",
      "outputs": [],
      "payable": false,
      "stateMutability": "nonpayable",
      "type": "function"
    },
    {
      "constant": true,
      "inputs": [],
      "name": "version",
      "outputs": [
        {
          "name": "",
          "type": "string"
        }
      ],
      "payable": false,
      "stateMutability": "view",
      "type": "function"
    },
    {
      "constant": false,
      "inputs": [
        {
          "name": "_jobId",
          "type": "uint256"
        },
        {
          "name": "_worker",
          "type": "address"
        }
      ],
      "name": "emitJobOfferAccepted",
      "outputs": [],
      "payable": false,
      "stateMutability": "nonpayable",
      "type": "function"
    },
    {
      "constant": false,
      "inputs": [
        {
          "name": "_errorCode",
          "type": "uint256"
        }
      ],
      "name": "emitErrorCode",
      "outputs": [],
      "payable": false,
      "stateMutability": "nonpayable",
      "type": "function"
    },
    {
      "constant": false,
      "inputs": [
        {
          "name": "_jobId",
          "type": "uint256"
        },
        {
          "name": "_at",
          "type": "uint256"
        }
      ],
      "name": "emitWorkRejected",
      "outputs": [],
      "payable": false,
      "stateMutability": "nonpayable",
      "type": "function"
    },
    {
      "constant": false,
      "inputs": [
        {
          "name": "_jobId",
          "type": "uint256"
        },
        {
          "name": "_at",
          "type": "uint256"
        }
      ],
      "name": "emitWorkDistputeResolved",
      "outputs": [],
      "payable": false,
      "stateMutability": "nonpayable",
      "type": "function"
    },
    {
      "constant": false,
      "inputs": [
        {
          "name": "_jobId",
          "type": "uint256"
        }
      ],
      "name": "emitJobCanceled",
      "outputs": [],
      "payable": false,
      "stateMutability": "nonpayable",
      "type": "function"
    },
    {
      "constant": false,
      "inputs": [
        {
          "name": "_jobId",
          "type": "uint256"
        },
        {
          "name": "_at",
          "type": "uint256"
        }
      ],
      "name": "emitEndWorkRequested",
      "outputs": [],
      "payable": false,
      "stateMutability": "nonpayable",
      "type": "function"
    },
    {
      "constant": false,
      "inputs": [
        {
          "name": "_jobId",
          "type": "uint256"
        },
        {
          "name": "_time",
          "type": "uint256"
        }
      ],
      "name": "emitTimeRequestRejected",
      "outputs": [],
      "payable": false,
      "stateMutability": "nonpayable",
      "type": "function"
    },
    {
      "constant": true,
      "inputs": [],
      "name": "userLibrary",
      "outputs": [
        {
          "name": "",
          "type": "address"
        }
      ],
      "payable": false,
      "stateMutability": "view",
      "type": "function"
    },
    {
      "constant": false,
      "inputs": [
        {
          "name": "_jobId",
          "type": "uint256"
        },
        {
          "name": "_at",
          "type": "uint256"
        }
      ],
      "name": "emitWorkResumed",
      "outputs": [],
      "payable": false,
      "stateMutability": "nonpayable",
      "type": "function"
    },
    {
      "constant": false,
      "inputs": [
        {
          "name": "_jobId",
          "type": "uint256"
        },
        {
          "name": "_at",
          "type": "uint256"
        }
      ],
      "name": "emitWorkStarted",
      "outputs": [],
      "payable": false,
      "stateMutability": "nonpayable",
      "type": "function"
    },
    {
      "constant": false,
      "inputs": [
        {
          "name": "_jobId",
          "type": "uint256"
        },
        {
          "name": "_time",
          "type": "uint256"
        }
      ],
      "name": "emitTimeRequestAccepted",
      "outputs": [],
      "payable": false,
      "stateMutability": "nonpayable",
      "type": "function"
    },
    {
      "constant": false,
      "inputs": [
        {
          "name": "_jobId",
          "type": "uint256"
        },
        {
          "name": "_at",
          "type": "uint256"
        }
      ],
      "name": "emitWorkPaused",
      "outputs": [],
      "payable": false,
      "stateMutability": "nonpayable",
      "type": "function"
    },
    {
      "constant": false,
      "inputs": [
        {
          "name": "_jobId",
          "type": "uint256"
        },
        {
          "name": "_time",
          "type": "uint256"
        }
      ],
      "name": "emitTimeRequestSubmitted",
      "outputs": [],
      "payable": false,
      "stateMutability": "nonpayable",
      "type": "function"
    },
    {
      "constant": false,
      "inputs": [
        {
          "name": "_jobId",
          "type": "uint256"
        }
      ],
      "name": "emitPaymentReleased",
      "outputs": [],
      "payable": false,
      "stateMutability": "nonpayable",
      "type": "function"
    },
    {
      "constant": false,
      "inputs": [
        {
          "name": "_jobId",
          "type": "uint256"
        },
        {
          "name": "_at",
          "type": "uint256"
        }
      ],
      "name": "emitStartWorkRequested",
      "outputs": [],
      "payable": false,
      "stateMutability": "nonpayable",
      "type": "function"
    },
    {
      "constant": false,
      "inputs": [
        {
          "name": "_jobId",
          "type": "uint256"
        },
        {
          "name": "_worker",
          "type": "address"
        },
        {
          "name": "_price",
          "type": "uint256"
        }
      ],
      "name": "emitJobOfferPosted",
      "outputs": [],
      "payable": false,
      "stateMutability": "nonpayable",
      "type": "function"
    },
    {
      "constant": true,
      "inputs": [],
      "name": "paymentProcessor",
      "outputs": [
        {
          "name": "",
          "type": "address"
        }
      ],
      "payable": false,
      "stateMutability": "view",
      "type": "function"
    },
    {
      "constant": true,
      "inputs": [],
      "name": "getEventsHistory",
      "outputs": [
        {
          "name": "",
          "type": "address"
        }
      ],
      "payable": false,
      "stateMutability": "view",
      "type": "function"
    },
    {
      "inputs": [],
      "payable": false,
      "stateMutability": "nonpayable",
      "type": "constructor"
    },
    {
      "anonymous": false,
      "inputs": [
        {
          "indexed": true,
          "name": "self",
          "type": "address"
        },
        {
          "indexed": true,
          "name": "jobId",
          "type": "uint256"
        },
        {
          "indexed": false,
          "name": "flowType",
          "type": "bytes32"
        },
        {
          "indexed": false,
          "name": "client",
          "type": "address"
        },
        {
          "indexed": false,
          "name": "skillsArea",
          "type": "uint256"
        },
        {
          "indexed": false,
          "name": "skillsCategory",
          "type": "uint256"
        },
        {
          "indexed": false,
          "name": "skills",
          "type": "uint256"
        },
        {
          "indexed": false,
          "name": "defaultPay",
          "type": "uint256"
        },
        {
          "indexed": false,
          "name": "detailsIPFSHash",
          "type": "bytes32"
        },
        {
          "indexed": false,
          "name": "bindStatus",
          "type": "bool"
        }
      ],
      "name": "JobPosted",
      "type": "event"
    },
    {
      "anonymous": false,
      "inputs": [
        {
          "indexed": true,
          "name": "self",
          "type": "address"
        },
        {
          "indexed": true,
          "name": "jobId",
          "type": "uint256"
        },
        {
          "indexed": false,
          "name": "worker",
          "type": "address"
        },
        {
          "indexed": false,
          "name": "rate",
          "type": "uint256"
        },
        {
          "indexed": false,
          "name": "estimate",
          "type": "uint256"
        },
        {
          "indexed": false,
          "name": "ontop",
          "type": "uint256"
        }
      ],
      "name": "JobOfferPosted",
      "type": "event"
    },
    {
      "anonymous": false,
      "inputs": [
        {
          "indexed": true,
          "name": "self",
          "type": "address"
        },
        {
          "indexed": true,
          "name": "jobId",
          "type": "uint256"
        },
        {
          "indexed": false,
          "name": "worker",
          "type": "address"
        },
        {
          "indexed": false,
          "name": "price",
          "type": "uint256"
        }
      ],
      "name": "JobOfferPosted",
      "type": "event"
    },
    {
      "anonymous": false,
      "inputs": [
        {
          "indexed": true,
          "name": "self",
          "type": "address"
        },
        {
          "indexed": true,
          "name": "jobId",
          "type": "uint256"
        },
        {
          "indexed": false,
          "name": "worker",
          "type": "address"
        }
      ],
      "name": "JobOfferAccepted",
      "type": "event"
    },
    {
      "anonymous": false,
      "inputs": [
        {
          "indexed": true,
          "name": "self",
          "type": "address"
        },
        {
          "indexed": true,
          "name": "jobId",
          "type": "uint256"
        },
        {
          "indexed": false,
          "name": "at",
          "type": "uint256"
        }
      ],
      "name": "StartWorkRequested",
      "type": "event"
    },
    {
      "anonymous": false,
      "inputs": [
        {
          "indexed": true,
          "name": "self",
          "type": "address"
        },
        {
          "indexed": true,
          "name": "jobId",
          "type": "uint256"
        },
        {
          "indexed": false,
          "name": "at",
          "type": "uint256"
        }
      ],
      "name": "WorkStarted",
      "type": "event"
    },
    {
      "anonymous": false,
      "inputs": [
        {
          "indexed": true,
          "name": "self",
          "type": "address"
        },
        {
          "indexed": true,
          "name": "jobId",
          "type": "uint256"
        },
        {
          "indexed": false,
          "name": "time",
          "type": "uint256"
        }
      ],
      "name": "TimeRequestSubmitted",
      "type": "event"
    },
    {
      "anonymous": false,
      "inputs": [
        {
          "indexed": true,
          "name": "self",
          "type": "address"
        },
        {
          "indexed": true,
          "name": "jobId",
          "type": "uint256"
        },
        {
          "indexed": false,
          "name": "time",
          "type": "uint256"
        }
      ],
      "name": "TimeRequestAccepted",
      "type": "event"
    },
    {
      "anonymous": false,
      "inputs": [
        {
          "indexed": true,
          "name": "self",
          "type": "address"
        },
        {
          "indexed": true,
          "name": "jobId",
          "type": "uint256"
        },
        {
          "indexed": false,
          "name": "time",
          "type": "uint256"
        }
      ],
      "name": "TimeRequestRejected",
      "type": "event"
    },
    {
      "anonymous": false,
      "inputs": [
        {
          "indexed": true,
          "name": "self",
          "type": "address"
        },
        {
          "indexed": true,
          "name": "jobId",
          "type": "uint256"
        },
        {
          "indexed": false,
          "name": "at",
          "type": "uint256"
        }
      ],
      "name": "WorkPaused",
      "type": "event"
    },
    {
      "anonymous": false,
      "inputs": [
        {
          "indexed": true,
          "name": "self",
          "type": "address"
        },
        {
          "indexed": true,
          "name": "jobId",
          "type": "uint256"
        },
        {
          "indexed": false,
          "name": "at",
          "type": "uint256"
        }
      ],
      "name": "WorkResumed",
      "type": "event"
    },
    {
      "anonymous": false,
      "inputs": [
        {
          "indexed": true,
          "name": "self",
          "type": "address"
        },
        {
          "indexed": true,
          "name": "jobId",
          "type": "uint256"
        },
        {
          "indexed": false,
          "name": "at",
          "type": "uint256"
        }
      ],
      "name": "EndWorkRequested",
      "type": "event"
    },
    {
      "anonymous": false,
      "inputs": [
        {
          "indexed": true,
          "name": "self",
          "type": "address"
        },
        {
          "indexed": true,
          "name": "jobId",
          "type": "uint256"
        },
        {
          "indexed": false,
          "name": "at",
          "type": "uint256"
        }
      ],
      "name": "WorkAccepted",
      "type": "event"
    },
    {
      "anonymous": false,
      "inputs": [
        {
          "indexed": true,
          "name": "self",
          "type": "address"
        },
        {
          "indexed": true,
          "name": "jobId",
          "type": "uint256"
        },
        {
          "indexed": false,
          "name": "at",
          "type": "uint256"
        }
      ],
      "name": "WorkRejected",
      "type": "event"
    },
    {
      "anonymous": false,
      "inputs": [
        {
          "indexed": true,
          "name": "self",
          "type": "address"
        },
        {
          "indexed": true,
          "name": "jobId",
          "type": "uint256"
        },
        {
          "indexed": false,
          "name": "at",
          "type": "uint256"
        }
      ],
      "name": "WorkDisputeResolved",
      "type": "event"
    },
    {
      "anonymous": false,
      "inputs": [
        {
          "indexed": true,
          "name": "self",
          "type": "address"
        },
        {
          "indexed": true,
          "name": "jobId",
          "type": "uint256"
        }
      ],
      "name": "PaymentReleased",
      "type": "event"
    },
    {
      "anonymous": false,
      "inputs": [
        {
          "indexed": true,
          "name": "self",
          "type": "address"
        },
        {
          "indexed": true,
          "name": "jobId",
          "type": "uint256"
        }
      ],
      "name": "JobCanceled",
      "type": "event"
    },
    {
      "anonymous": false,
      "inputs": [
        {
          "indexed": true,
          "name": "self",
          "type": "address"
        },
        {
          "indexed": false,
          "name": "errorCode",
          "type": "uint256"
        }
      ],
      "name": "ErrorCode",
      "type": "event"
    },
    {
      "anonymous": false,
      "inputs": [
        {
          "indexed": false,
          "name": "code",
          "type": "address"
        },
        {
          "indexed": false,
          "name": "sender",
          "type": "address"
        },
        {
          "indexed": false,
          "name": "sig",
          "type": "bytes4"
        }
      ],
      "name": "AuthFailedError",
      "type": "event"
    },
    {
      "constant": false,
      "inputs": [
        {
          "name": "_jobId",
          "type": "uint256"
        }
      ],
      "name": "cancelJob",
      "outputs": [
        {
          "name": "_resultCode",
          "type": "uint256"
        }
      ],
      "payable": false,
      "stateMutability": "nonpayable",
      "type": "function"
    },
    {
      "constant": false,
      "inputs": [
        {
          "name": "_jobId",
          "type": "uint256"
        }
      ],
      "name": "acceptWorkResults",
      "outputs": [
        {
          "name": "",
          "type": "uint256"
        }
      ],
      "payable": false,
      "stateMutability": "nonpayable",
      "type": "function"
    },
    {
      "constant": false,
      "inputs": [
        {
          "name": "_jobId",
          "type": "uint256"
        }
      ],
      "name": "rejectWorkResults",
      "outputs": [
        {
          "name": "_resultCode",
          "type": "uint256"
        }
      ],
      "payable": false,
      "stateMutability": "nonpayable",
      "type": "function"
    },
    {
      "constant": false,
      "inputs": [
        {
          "name": "_jobId",
          "type": "uint256"
        },
        {
          "name": "_workerPaycheck",
          "type": "uint256"
        },
        {
          "name": "_penaltyFee",
          "type": "uint256"
        }
      ],
      "name": "resolveWorkDispute",
      "outputs": [
        {
          "name": "_resultCode",
          "type": "uint256"
        }
      ],
      "payable": false,
      "stateMutability": "nonpayable",
      "type": "function"
    },
    {
      "constant": false,
      "inputs": [
        {
          "name": "_jobId",
          "type": "uint256"
        }
      ],
      "name": "releasePayment",
      "outputs": [
        {
          "name": "_resultCode",
          "type": "uint256"
        }
      ],
      "payable": false,
      "stateMutability": "nonpayable",
      "type": "function"
    }
  ],
  "bytecode": "0x60c0604052600660808190527f76302e302e31000000000000000000000000000000000000000000000000000060a0908152620000409160299190620000ce565b503480156200004e57600080fd5b506000808080308015156200006257600080fd5b60008054600160a060020a031916600160a060020a03929092169190911790556200009e60028383640100000000620000a8810262001c911704565b5050505062000173565b8254600160a060020a031916600160a060020a0392909216919091178255600190910155565b828054600181600116156101000203166002900490600052602060002090601f016020900481019282601f106200011157805160ff191683800117855562000141565b8280016001018555821562000141579182015b828111156200014157825182559160200191906001019062000124565b506200014f92915062000153565b5090565b6200017091905b808211156200014f57600081556001016200015a565b90565b611cf080620001836000396000f30060806040526004361061015b5763ffffffff60e060020a600035041663061986a481146101605780630a3d1ca4146101915780631972b464146101ae5780631dffa3dc146101db5780632637cd7d14610205578063425654821461022657806354fd4d50146102625780638680e52d146102ec5780638834277e1461031057806388685cd9146103285780638db210dc146103405780638dfa95f41461035b5780639c6e1d4614610376578063a34f74bd1461038e578063aaf2fc08146103a9578063b3ec8cb8146103c4578063b44ccd3c146103d9578063b633d272146103f7578063b7d8b1d914610412578063bdeeea551461042d578063c26d0c2c14610448578063c50e59f414610463578063c540fbb51461047e578063d649567614610496578063d906be6e146104ae578063e46f49ae146104c6578063eca52767146104e1578063f1c6bdf814610508578063fff10aba1461051d575b600080fd5b34801561016c57600080fd5b50610175610532565b60408051600160a060020a039092168252519081900360200190f35b34801561019d57600080fd5b506101ac600435602435610541565b005b3480156101ba57600080fd5b506101ac600435600160a060020a036024351660443560643560843561058e565b3480156101e757600080fd5b506101f36004356105f4565b60408051918252519081900360200190f35b34801561021157600080fd5b506101f3600160a060020a03600435166108e2565b34801561023257600080fd5b506101ac600435602435600160a060020a036044351660643560843560a43560c43560e435610104351515610980565b34801561026e57600080fd5b50610277610a06565b6040805160208082528351818301528351919283929083019185019080838360005b838110156102b1578181015183820152602001610299565b50505050905090810190601f1680156102de5780820380516001836020036101000a031916815260200191505b509250505060405180910390f35b3480156102f857600080fd5b506101ac600435600160a060020a0360243516610a94565b34801561031c57600080fd5b506101ac600435610ae3565b34801561033457600080fd5b506101f3600435610b2e565b34801561034c57600080fd5b506101ac600435602435610daa565b34801561036757600080fd5b506101ac600435602435610df7565b34801561038257600080fd5b506101ac600435610e44565b34801561039a57600080fd5b506101ac600435602435610e85565b3480156103b557600080fd5b506101ac600435602435610ed2565b3480156103d057600080fd5b50610175610f1f565b3480156103e557600080fd5b506101f3600435602435604435610f2e565b34801561040357600080fd5b506101ac6004356024356112ed565b34801561041e57600080fd5b506101ac60043560243561133a565b34801561043957600080fd5b506101ac600435602435611387565b34801561045457600080fd5b506101ac6004356024356113d4565b34801561046f57600080fd5b506101ac600435602435611421565b34801561048a57600080fd5b506101f360043561146e565b3480156104a257600080fd5b506101ac600435611569565b3480156104ba57600080fd5b506101f36004356115aa565b3480156104d257600080fd5b506101ac600435602435611682565b3480156104ed57600080fd5b506101ac600435600160a060020a03602435166044356116cf565b34801561051457600080fd5b50610175611725565b34801561052957600080fd5b50610175611734565b602c54600160a060020a031681565b8161054a611758565b600160a060020a03167fe5358c187d063c360e67321606a0a2dd8d7fe426d9aa68bb9e853fcf2851d938836040518082815260200191505060405180910390a35050565b84610597611758565b60408051600160a060020a0388811682526020820188905281830187905260608201869052915192909116917fa3bc0f53ddeedcb11a232f5b24300a8fe43af2c2dcc30b46dbc64476e762a1869181900360800190a35050505050565b600080808080853361060f600260088463ffffffff61175c16565b600160a060020a031614610635576106286132d0611771565b506132d060005260206000f35b86600161065461064e600260178563ffffffff61175c16565b826117b8565b1515610672576106656132cf611771565b506132cf60005260206000f35b61067b896117be565b9650610690600260178b63ffffffff61175c16565b955061069c86886117d3565b15156106b4576106ad6132cb611771565b97506108d6565b602c54604080517f89c29b61000000000000000000000000000000000000000000000000000000008152600481018c90529051600160a060020a03909216916389c29b61916024808201926020929091908290030181600087803b15801561071b57600080fd5b505af115801561072f573d6000803e3d6000fd5b505050506040513d602081101561074557600080fd5b5051945061075c600260098b63ffffffff61175c16565b602a54909450600160a060020a03166355f0b76e8a8688610786600260088563ffffffff61175c16565b6040805160e060020a63ffffffff88160281526004810195909552600160a060020a0393841660248601526044850192909252909116606483015260848201899052600060a48301819052905160c4808401936020939083900390910190829087803b1580156107f557600080fd5b505af1158015610809573d6000803e3d6000fd5b505050506040513d602081101561081f57600080fd5b5051975060018814610834576106ad88611771565b61085360288a6108438c6117be565b600292919063ffffffff61185116565b610869600260078b61010063ffffffff61185116565b610871611863565b600160a060020a0316639c6e1d468a6040518263ffffffff1660e060020a02815260040180828152602001915050600060405180830381600087803b1580156108b957600080fd5b505af11580156108cd573d6000803e3d6000fd5b50505050600197505b50505050505050919050565b60006108fa33600035600160e060020a031916611872565b151561094f5760408051308152336020820152600160e060020a0319600035168183015290517f5133a133185f1023427a2e90f18506b27db994977ce0c0faafd514a7dd109ae09181900360600190a161097b565b506000805473ffffffffffffffffffffffffffffffffffffffff1916600160a060020a03831617905560015b919050565b88610989611758565b604080518b8152600160a060020a038b811660208301528183018b9052606082018a90526080820189905260a0820188905260c0820187905285151560e0830152915192909116917ebe90d46e792dd8139c7fa5fc3c5094a4617b29079275876030fafdfd99790a918190036101000190a3505050505050505050565b6029805460408051602060026001851615610100026000190190941693909304601f81018490048402820184019092528181529291830182828015610a8c5780601f10610a6157610100808354040283529160200191610a8c565b820191906000526020600020905b815481529060010190602001808311610a6f57829003601f168201915b505050505081565b81610a9d611758565b60408051600160a060020a038581168252915192909116917fcd1a96dff5c14af15cc6cc02bc309e3abef75468ceced0d0435f20bef5a9db3a9181900360200190a35050565b610aeb611758565b600160a060020a03167f09e0713b45664e161c202b19bb4574ee83dfa056f9bfdee56847b3971d968221826040518082815260200191505060405180910390a250565b60008080838180610b48600260178563ffffffff61175c16565b9150610b5d600260078563ffffffff61175c16565b9050610b69828261195b565b1515610b8757610b7a6132cb611771565b506132cb60005260206000f35b602c54604080517f89c29b61000000000000000000000000000000000000000000000000000000008152600481018a90529051600160a060020a03909216916389c29b61916024808201926020929091908290030181600087803b158015610bee57600080fd5b505af1158015610c02573d6000803e3d6000fd5b505050506040513d6020811015610c1857600080fd5b50519450610c2f600260098963ffffffff61175c16565b602a54909450600160a060020a03166355f0b76e888688610c59600260088563ffffffff61175c16565b6040805160e060020a63ffffffff88160281526004810195909552600160a060020a0393841660248601526044850192909252909116606483015260848201899052600060a48301819052905160c4808401936020939083900390910190829087803b158015610cc857600080fd5b505af1158015610cdc573d6000803e3d6000fd5b505050506040513d6020811015610cf257600080fd5b5051955060018614610d0e57610d0786611771565b9550610da0565b610d1d6028886108438a6117be565b610d33600260078961010063ffffffff61185116565b610d3b611863565b600160a060020a031663d6495676886040518263ffffffff1660e060020a02815260040180828152602001915050600060405180830381600087803b158015610d8357600080fd5b505af1158015610d97573d6000803e3d6000fd5b50505050600195505b5050505050919050565b81610db3611758565b600160a060020a03167fd3395eea11df9ed3451acb381c8e8220231eaa3b2ebc7c2cd1e1ab6302f3314f836040518082815260200191505060405180910390a35050565b81610e00611758565b600160a060020a03167f572dddcf2d7a6a168606d76d97cac3799945fdd877c6710aa9f283fcd8a42866836040518082815260200191505060405180910390a35050565b80610e4d611758565b600160a060020a03167fc81a87bb9e1f6f23054c21dd9959f8aa3b2f86077a49ccac452fadff6731304c60405160405180910390a350565b81610e8e611758565b600160a060020a03167f0548c7325a5164931df3aa9329c011dae1da4d2a8d8f263d85a69e5bbf59539e836040518082815260200191505060405180910390a35050565b81610edb611758565b600160a060020a03167fe7a7f3d15b44bc59d2ec1229ddb620195d46a685ebddae6745ecb2384115b876836040518082815260200191505060405180910390a35050565b602b54600160a060020a031681565b600080600080610f4a33600035600160e060020a031916611872565b1515610f9f5760408051308152336020820152600160e060020a0319600035168183015290517f5133a133185f1023427a2e90f18506b27db994977ce0c0faafd514a7dd109ae09181900360600190a16112e3565b86608080610fb6600260078563ffffffff61175c16565b14610fc657610b7a6132cb611771565b602c54604080517f596fab6c000000000000000000000000000000000000000000000000000000008152600481018c90529051600160a060020a039092169163596fab6c916024808201926020929091908290030181600087803b15801561102d57600080fd5b505af1158015611041573d6000803e3d6000fd5b505050506040513d602081101561105757600080fd5b50519450878510156110755761106e6132d3611771565b95506112e0565b611088600260098b63ffffffff61175c16565b935061109d600260088b63ffffffff61175c16565b9250600088111561117a57602a54604080517f55f0b76e000000000000000000000000000000000000000000000000000000008152600481018c9052600160a060020a038781166024830152604482018c9052868116606483015260006084830181905260a483018c905292519316926355f0b76e9260c480840193602093929083900390910190829087803b15801561113657600080fd5b505af115801561114a573d6000803e3d6000fd5b505050506040513d602081101561116057600080fd5b50519550600186146111755761106e86611771565b611246565b602a54604080517f55f0b76e000000000000000000000000000000000000000000000000000000008152600481018c9052600160a060020a0386811660248301819052604483018a9052606483015260006084830181905260a483018c905292519316926355f0b76e9260c480840193602093929083900390910190829087803b15801561120757600080fd5b505af115801561121b573d6000803e3d6000fd5b505050506040513d602081101561123157600080fd5b50519550600186146112465761106e86611771565b61125560288a6108438c6117be565b61126b600260078b61010063ffffffff61185116565b611273611863565b600160a060020a0316638dfa95f48a426040518363ffffffff1660e060020a0281526004018083815260200182815260200192505050600060405180830381600087803b1580156112c357600080fd5b505af11580156112d7573d6000803e3d6000fd5b50505050600195505b50505b5050509392505050565b816112f6611758565b600160a060020a03167f799a32325be3cd39f977d4cc026272cc3dd97d9dd46c5751c7c9900d9f1ffcdf836040518082815260200191505060405180910390a35050565b81611343611758565b600160a060020a03167f63efc44d4747c4669c8be4f317453622684e7daab7cf5772795e6413a40c26dd836040518082815260200191505060405180910390a35050565b81611390611758565b600160a060020a03167f79a83e3beb9634ee6139429283222d680b93ea043c2ff1871edefcacafc06283836040518082815260200191505060405180910390a35050565b816113dd611758565b600160a060020a03167f8cd445c80d0841aae8f229eddbed0de5befd5ff6fc2ca0510ee0621f5d6d5bef836040518082815260200191505060405180910390a35050565b8161142a611758565b600160a060020a03167fe633624d3f31882d5f69373f4eaf1fc339ca5f5d499f1940cd2c9adde1d0c031836040518082815260200191505060405180910390a35050565b60008133611485600260088463ffffffff61175c16565b600160a060020a03161461149e576106286132d0611771565b826010806114b5600260078563ffffffff61175c16565b146114c557610b7a6132cb611771565b6114d960026013874263ffffffff61185116565b6114ee6002600787604063ffffffff61185116565b6114f6611863565b600160a060020a0316630a3d1ca486426040518363ffffffff1660e060020a0281526004018083815260200182815260200192505050600060405180830381600087803b15801561154657600080fd5b505af115801561155a573d6000803e3d6000fd5b50600198975050505050505050565b80611572611758565b600160a060020a03167fdf20fd1e76bc69d672e4814fafb2c449bba3a5369d8359adf9e05e6fde87b05660405160405180910390a350565b600081336115c1600260088463ffffffff61175c16565b600160a060020a0316146115da576106286132d0611771565b826010806115f1600260078563ffffffff61175c16565b1461160157610b7a6132cb611771565b61161560026013874263ffffffff61185116565b61162a6002600787608063ffffffff61185116565b611632611863565b600160a060020a0316638db210dc86426040518363ffffffff1660e060020a0281526004018083815260200182815260200192505050600060405180830381600087803b15801561154657600080fd5b8161168b611758565b600160a060020a03167fd2672b89fe222769587124bc5274449842976e105b59c8769578bd1cd4da72e4836040518082815260200191505060405180910390a35050565b826116d8611758565b60408051600160a060020a0386811682526020820186905282519316927f271fcf1e587075053a24de13909c1c666d6b58fae99f299cfbc3fb1696bc2c1a929181900390910190a3505050565b602a54600160a060020a031681565b600154600090600160a060020a03168015156117505730611752565b805b91505090565b3390565b6000611769848484611a0e565b949350505050565b6000803411156117a95760405133903480156108fc02916000818181858888f193505050501580156117a7573d6000803e3d6000fd5b505b6117b282611b1e565b92915050565b16151590565b60006117b2600260078463ffffffff61175c16565b60008060028314156117e8576001915061184a565b60048314156117fa576001915061184a565b600883141561180c576001915061184a565b507f800000000000000000000000000000000000000000000000000000000000000083161580159081906118405750601083145b1561184a57600191505b5092915050565b61185d84848484611b8e565b50505050565b600061186d611734565b905090565b6000600160a060020a03831630141561188d575060016117b2565b600054600160a060020a031615156118a7575060006117b2565b60008054604080517fb7009613000000000000000000000000000000000000000000000000000000008152600160a060020a038781166004830152306024830152600160e060020a0319871660448301529151919092169263b700961392606480820193602093909283900390910190829087803b15801561192857600080fd5b505af115801561193c573d6000803e3d6000fd5b505050506040513d602081101561195257600080fd5b50519392505050565b60007f8000000000000000000000000000000000000000000000000000000000000000831615157f7fffffffffffffffffffffffffffffffffffffffffffffffffffffffffffffff841660018114156119ef578180156119bb5750604084145b156119c95760019250611a06565b811580156119e1575060108414806119e15750604084145b156119ef5760019250611a06565b6002811415611a06576040841415611a0657600192505b505092915050565b825460018401548354604080516020808201939093528082018690528151808203830181526060909101918290528051600095600160a060020a0316946337d9d7fc9490939182918401908083835b60208310611a7c5780518252601f199092019160209182019101611a5d565b51815160209384036101000a60001901801990921691161790526040805192909401829003822063ffffffff891660e060020a028352600483019790975260248201969096529151604480840196955090935091839003909101905081600087803b158015611aea57600080fd5b505af1158015611afe573d6000803e3d6000fd5b505050506040513d6020811015611b1457600080fd5b5051949350505050565b6000611b28611734565b600160a060020a0316638834277e836040518263ffffffff1660e060020a02815260040180828152602001915050600060405180830381600087803b158015611b7057600080fd5b505af1158015611b84573d6000803e3d6000fd5b5093949350505050565b835460018501548454604080516020808201939093528082018790528151808203830181526060909101918290528051600160a060020a039095169463a14ff85794939192918291908401908083835b60208310611bfd5780518252601f199092019160209182019101611bde565b5181516020939093036101000a60001901801990911692169190911790526040805191909301819003812063ffffffff881660e060020a02825260048201969096526024810195909552506044840187905251606480850194600094509192509082900301818387803b158015611c7357600080fd5b505af1158015611c87573d6000803e3d6000fd5b5050505050505050565b825473ffffffffffffffffffffffffffffffffffffffff1916600160a060020a03929092169190911782556001909101555600a165627a7a72305820dec450ddc6e9044cd08b9634885b5c48641497c6bb514aacc8f37ce1279cf5930029",
  "source": "/**\n* Copyright 20172018, LaborX PTY\n* Licensed under the AGPL Version 3 license.\n*/\n\npragma solidity ^0.4.21;\n\n\nimport \"solidity-roles-lib/contracts/Roles2LibraryAdapter.sol\";\nimport \"./JobControllerAbstract.sol\";\n\n\ncontract JobWorkAcceptanceControllerLib is Roles2LibraryAdapter, JobControllerAbstract {\n\n    constructor(\n    )\n    Roles2LibraryAdapter(address(this))\n    JobDataCore(Storage(0x0), \"\")\n    public\n    {\n    }\n\n    function cancelJob(\n        uint _jobId\n    )\n    external\n    onlyClient(_jobId)\n    onlyFlow(_jobId, WORKFLOW_TM)\n    returns (uint _resultCode)\n    {\n        uint _jobState = _getJobState(_jobId);\n        uint _flow = store.get(jobWorkflowType, _jobId);\n\n        if (!_isActiveStateForFlow(_flow, _jobState)) {\n            return _emitErrorCode(JOB_CONTROLLER_INVALID_STATE);\n        }\n\n        uint payCheck = jobsDataProvider.calculatePaycheck(_jobId);\n        address worker = store.get(jobWorker, _jobId);\n\n        _resultCode = paymentProcessor.releasePayment(\n            bytes32(_jobId),\n            worker,\n            payCheck,\n            store.get(jobClient, _jobId),\n            payCheck,\n            0\n        );\n        if (_resultCode != OK) {\n            return _emitErrorCode(_resultCode);\n        }\n\n        store.set(jobFinalizedAt, _jobId, _getJobState(_jobId));\n        store.set(jobState, _jobId, JOB_STATE_FINALIZED);\n\n        _emitter().emitJobCanceled(_jobId);\n        return OK;\n    }\n\n    function acceptWorkResults(uint _jobId)\n    external\n    onlyClient(_jobId)\n    onlyJobState(_jobId, JOB_STATE_PENDING_FINISH)\n    returns (uint) \n    {\n        store.set(jobFinishTime, _jobId, now);\n        store.set(jobState, _jobId, JOB_STATE_WORK_ACCEPTED);\n\n        _emitter().emitWorkAccepted(_jobId, now);\n        return OK;\n    }\n\n    function rejectWorkResults(uint _jobId)\n    external\n    onlyClient(_jobId)\n    onlyJobState(_jobId, JOB_STATE_PENDING_FINISH)\n    returns (uint _resultCode) \n    {\n        store.set(jobFinishTime, _jobId, now);\n        store.set(jobState, _jobId, JOB_STATE_WORK_REJECTED);\n\n        _emitter().emitWorkRejected(_jobId, now);\n        return OK;\n    }\n\n    function resolveWorkDispute(\n        uint _jobId,\n        uint _workerPaycheck,\n        uint _penaltyFee\n    )\n    external\n    auth\n    onlyJobState(_jobId, JOB_STATE_WORK_REJECTED)\n    returns (uint _resultCode) {\n        uint payCheck = jobsDataProvider.calculateLockAmount(_jobId);\n        if (payCheck < _workerPaycheck) {\n            return _emitErrorCode(JOB_CONTROLLER_INVALID_WORKER_PAYCHECK_VALUE);\n        }\n\n        address worker = store.get(jobWorker, _jobId);\n        address client = store.get(jobClient, _jobId);\n        if (_workerPaycheck > 0) {\n            _resultCode = paymentProcessor.releasePayment(\n                bytes32(_jobId),\n                worker,\n                _workerPaycheck,\n                client,\n                0,\n                _penaltyFee\n            );\n            if (_resultCode != OK) {\n                return _emitErrorCode(_resultCode);\n            }\n        } else {\n            _resultCode = paymentProcessor.releasePayment(\n                bytes32(_jobId),\n                client,\n                payCheck,\n                client,\n                0,\n                _penaltyFee\n            );\n            if (_resultCode != OK) {\n                return _emitErrorCode(_resultCode);\n            }\n        }\n\n        store.set(jobFinalizedAt, _jobId, _getJobState(_jobId));\n        store.set(jobState, _jobId, JOB_STATE_FINALIZED);\n\n        _emitter().emitWorkDistputeResolved(_jobId, now);\n        return OK;\n    }\n\n    function releasePayment(\n        uint _jobId\n    )\n    public\n    onlyFinishedState(_jobId)\n    returns (uint _resultCode)\n    {\n        uint payCheck = jobsDataProvider.calculatePaycheck(_jobId);\n        address worker = store.get(jobWorker, _jobId);\n\n        _resultCode = paymentProcessor.releasePayment(\n            bytes32(_jobId),\n            worker,\n            payCheck,\n            store.get(jobClient, _jobId),\n            payCheck,\n            0\n        );\n        if (_resultCode != OK) {\n            return _emitErrorCode(_resultCode);\n        }\n\n        store.set(jobFinalizedAt, _jobId, _getJobState(_jobId));\n        store.set(jobState, _jobId, JOB_STATE_FINALIZED);\n\n        _emitter().emitPaymentReleased(_jobId);\n        return OK;\n    }\n\n    function _getJobState(uint _jobId) private view returns (uint) {\n        return uint(store.get(jobState, _jobId));\n    }\n}",
  "sourcePath": "/Users/alesanro/Documents/Projects/ChronoBank/LX-SC/contracts/jobs/JobWorkAcceptanceControllerLib.sol",
  "compiler": {
    "name": "solc",
    "version": "0.4.24+commit.e67f0147.Emscripten.clang"
  },
  "schemaVersion": "2.0.1",
  "updatedAt": "2018-09-18T15:39:26.034Z"
}