{
  "contractName": "ManagerMock",
  "abi": [
    {
      "constant": false,
      "inputs": [],
      "name": "deny",
      "outputs": [],
      "payable": false,
      "stateMutability": "nonpayable",
      "type": "function"
    },
    {
      "constant": false,
      "inputs": [
        {
          "name": "",
          "type": "address"
        },
        {
          "name": "",
          "type": "bytes32"
        }
      ],
      "name": "isAllowed",
      "outputs": [
        {
          "name": "",
          "type": "bool"
        }
      ],
      "payable": false,
      "stateMutability": "nonpayable",
      "type": "function"
    }
  ],
  "bytecode": "0x608060405234801561001057600080fd5b50610102806100206000396000f30060806040526004361060485763ffffffff7c01000000000000000000000000000000000000000000000000000000006000350416635cb8dd098114604d578063a3fdfee314608f575b600080fd5b348015605857600080fd5b50607b73ffffffffffffffffffffffffffffffffffffffff6004351660243560a3565b604080519115158252519081900360200190f35b348015609a57600080fd5b5060a160c7565b005b6000805460ff161560bd57506000805460ff1916815560c1565b5060015b92915050565b6000805460ff191660011790555600a165627a7a72305820dace77a1ff5945d1c22f7de0b2c9a6cd1ded6578a37ca434667e322d1c94340f0029",
  "source": "/**\n * Copyright 2017–2018, LaborX PTY\n * Licensed under the AGPL Version 3 license.\n */\n\npragma solidity ^0.4.18;\n\ncontract ManagerMock {\n\n    bool denied;\n\n    function deny() public {\n        denied = true;\n    }\n\n    function isAllowed(address, bytes32) public returns(bool) {\n        if (denied) {\n            denied = false;\n            return false;\n        }\n        return true;\n    }\n}\n",
  "sourcePath": "/Users/alesanro/Documents/Projects/ChronoBank/LX-SC/contracts/helpers/ManagerMock.sol",
  "compiler": {
    "name": "solc",
    "version": "0.4.24+commit.e67f0147.Emscripten.clang"
  },
  "schemaVersion": "2.0.1",
  "updatedAt": "2018-09-18T15:43:45.584Z"
}