{
  "contractName": "Mock",
  "abi": [
    {
      "constant": true,
      "inputs": [],
      "name": "callsCount",
      "outputs": [
        {
          "name": "",
          "type": "uint256"
        }
      ],
      "payable": false,
      "stateMutability": "view",
      "type": "function"
    },
    {
      "constant": true,
      "inputs": [],
      "name": "expectationsCount",
      "outputs": [
        {
          "name": "",
          "type": "uint256"
        }
      ],
      "payable": false,
      "stateMutability": "view",
      "type": "function"
    },
    {
      "constant": true,
      "inputs": [],
      "name": "nextExpectation",
      "outputs": [
        {
          "name": "",
          "type": "uint256"
        }
      ],
      "payable": false,
      "stateMutability": "view",
      "type": "function"
    },
    {
      "constant": true,
      "inputs": [
        {
          "name": "",
          "type": "bytes4"
        }
      ],
      "name": "ignores",
      "outputs": [
        {
          "name": "",
          "type": "bool"
        }
      ],
      "payable": false,
      "stateMutability": "view",
      "type": "function"
    },
    {
      "constant": true,
      "inputs": [
        {
          "name": "",
          "type": "uint256"
        }
      ],
      "name": "expectations",
      "outputs": [
        {
          "name": "callHash",
          "type": "bytes32"
        },
        {
          "name": "callReturn",
          "type": "bytes32"
        }
      ],
      "payable": false,
      "stateMutability": "view",
      "type": "function"
    },
    {
      "payable": true,
      "stateMutability": "payable",
      "type": "fallback"
    },
    {
      "anonymous": false,
      "inputs": [
        {
          "indexed": false,
          "name": "index",
          "type": "uint256"
        },
        {
          "indexed": false,
          "name": "from",
          "type": "address"
        },
        {
          "indexed": false,
          "name": "value",
          "type": "uint256"
        },
        {
          "indexed": false,
          "name": "input",
          "type": "bytes"
        },
        {
          "indexed": false,
          "name": "callHash",
          "type": "bytes32"
        }
      ],
      "name": "UnexpectedCall",
      "type": "event"
    },
    {
      "constant": false,
      "inputs": [
        {
          "name": "_sig",
          "type": "bytes4"
        },
        {
          "name": "_enabled",
          "type": "bool"
        }
      ],
      "name": "ignore",
      "outputs": [],
      "payable": false,
      "stateMutability": "nonpayable",
      "type": "function"
    },
    {
      "constant": false,
      "inputs": [
        {
          "name": "_from",
          "type": "address"
        },
        {
          "name": "_value",
          "type": "uint256"
        },
        {
          "name": "_input",
          "type": "bytes"
        },
        {
          "name": "_return",
          "type": "bytes32"
        }
      ],
      "name": "expect",
      "outputs": [],
      "payable": false,
      "stateMutability": "nonpayable",
      "type": "function"
    },
    {
      "constant": true,
      "inputs": [
        {
          "name": "_value",
          "type": "uint256"
        }
      ],
      "name": "convertUIntToBytes32",
      "outputs": [
        {
          "name": "",
          "type": "bytes32"
        }
      ],
      "payable": false,
      "stateMutability": "pure",
      "type": "function"
    },
    {
      "constant": true,
      "inputs": [
        {
          "name": "_value",
          "type": "bytes32"
        }
      ],
      "name": "convertBytes32ToUInt",
      "outputs": [
        {
          "name": "",
          "type": "uint256"
        }
      ],
      "payable": false,
      "stateMutability": "pure",
      "type": "function"
    },
    {
      "constant": true,
      "inputs": [
        {
          "name": "_value",
          "type": "bytes32"
        }
      ],
      "name": "convertToBytes32",
      "outputs": [
        {
          "name": "",
          "type": "bytes32"
        }
      ],
      "payable": false,
      "stateMutability": "pure",
      "type": "function"
    },
    {
      "constant": true,
      "inputs": [
        {
          "name": "_arg1",
          "type": "bytes32"
        },
        {
          "name": "_arg2",
          "type": "bytes32"
        }
      ],
      "name": "bitAndBytes32ToBytes32",
      "outputs": [
        {
          "name": "",
          "type": "uint256"
        }
      ],
      "payable": false,
      "stateMutability": "pure",
      "type": "function"
    },
    {
      "constant": true,
      "inputs": [],
      "name": "assertExpectations",
      "outputs": [],
      "payable": false,
      "stateMutability": "view",
      "type": "function"
    },
    {
      "constant": true,
      "inputs": [],
      "name": "expectationsLeft",
      "outputs": [
        {
          "name": "",
          "type": "uint256"
        }
      ],
      "payable": false,
      "stateMutability": "view",
      "type": "function"
    },
    {
      "constant": false,
      "inputs": [],
      "name": "resetCallsCount",
      "outputs": [],
      "payable": false,
      "stateMutability": "nonpayable",
      "type": "function"
    }
  ],
  "bytecode": "0x60806040526001805534801561001457600080fd5b50610661806100246000396000f3006080604052600436106100cf5763ffffffff7c01000000000000000000000000000000000000000000000000000000006000350416630be69fcd8114610274578063188cd3dd1461029b57806329406082146102b35780635c9a4448146102c85780636393b4eb146102dd578063898a181314610357578063968f93eb1461036c578063bb4c21681461029b578063bc2f6f2614610387578063d09e21ee146103bd578063eee0b552146103e4578063facaeb1a146103f9578063fc02c1df1461042a578063ff045b851461029b575b60008035600160e060020a031916815260046020526040812054819060ff16156100fe57600160005260206000f35b600280546001019055604051336c0100000000000000000000000081026020830190815234603484018190529192600091369160540183838082843782019150509450505050506040516020818303038152906040526040518082805190602001908083835b602083106101835780518252601f199092019160209182019101610164565b51815160209384036101000a600019018019909216911617905260408051929094018290039091206001546000908152600390925292902054919550508414915061024f905057600154604080518281523360208201819052349282018390526080820186905260a060608301818152369184018290527fddf231f4294d21c975b0072ff97e84f95eb0d058a8a7aded1e0c185a6f6e2275959492936000929189919060c082018585808284376040519201829003995090975050505050505050a16000805260206000f35b5060018054808201825560009081526003602090815260408220909201548082529190f35b34801561028057600080fd5b5061028961043f565b60408051918252519081900360200190f35b3480156102a757600080fd5b50610289600435610445565b3480156102bf57600080fd5b50610289610448565b3480156102d457600080fd5b5061028961044e565b3480156102e957600080fd5b50604080516020600460443581810135601f810184900484028501840190955284845261035594823573ffffffffffffffffffffffffffffffffffffffff1694602480359536959460649492019190819084018382808284375094975050933594506104549350505050565b005b34801561036357600080fd5b5061028961059f565b34801561037857600080fd5b506102896004356024356105ab565b34801561039357600080fd5b506103a9600160e060020a0319600435166105af565b604080519115158252519081900360200190f35b3480156103c957600080fd5b50610355600160e060020a03196004351660243515156105c4565b3480156103f057600080fd5b506103556105f0565b34801561040557600080fd5b506104116004356105f7565b6040805192835260208301919091528051918290030190f35b34801561043657600080fd5b50610355610610565b60025481565b90565b60005481565b60015481565b6040805190810160405280858585604051602001808473ffffffffffffffffffffffffffffffffffffffff1673ffffffffffffffffffffffffffffffffffffffff166c0100000000000000000000000002815260140183815260200182805190602001908083835b602083106104db5780518252601f1990920191602091820191016104bc565b6001836020036101000a03801982511681845116808217855250505050505090500193505050506040516020818303038152906040526040518082805190602001908083835b602083106105405780518252601f199092019160209182019101610521565b51815160001960209485036101000a019081169019919091161790526040805194909201849003909320865294820196909652600080546001908101808355825260038352949020855181559401519390920192909255505050505050565b60018054600054030190565b1690565b60046020526000908152604090205460ff1681565b600160e060020a0319919091166000908152600460205260409020805460ff1916911515919091179055565b6000600255565b6003602052600090815260409020805460019091015482565b61061861059f565b151580610629575060005460025414155b1561063357600080fd5b5600a165627a7a723058202773252c660b8eb868a6f9f8b502274f49b57e5d14d3ae65f99f60a2093530df0029",
  "source": "/**\n * Copyright 2017–2018, LaborX PTY\n * Licensed under the AGPL Version 3 license.\n */\n\npragma solidity ^0.4.21;\n\ncontract Mock {\n\n    event UnexpectedCall(uint index, address from, uint value, bytes input, bytes32 callHash);\n\n    struct Expect {\n        bytes32 callHash;\n        bytes32 callReturn;\n    }\n\n    uint public expectationsCount;\n    uint public nextExpectation = 1;\n    uint public callsCount;\n    mapping (uint => Expect) public expectations;\n    mapping (bytes4 => bool) public ignores;\n\n    function() public payable {\n        if (ignores[msg.sig]) {\n            assembly {\n                mstore(0, 1)\n                return (0, 32)\n            }\n        }\n        callsCount++;\n        bytes32 callHash = keccak256(abi.encodePacked(msg.sender, msg.value, msg.data));\n        if (expectations[nextExpectation].callHash != callHash) {\n            emit UnexpectedCall(nextExpectation, msg.sender, msg.value, msg.data, callHash);\n            assembly {\n                mstore(0, 0)\n                return (0, 32)\n            }\n        }\n        bytes32 result = expectations[nextExpectation++].callReturn;\n        assembly {\n            mstore(0, result)\n            return (0, 32)\n        }\n    }\n\n    function ignore(bytes4 _sig, bool _enabled) external {\n        ignores[_sig] = _enabled;\n    }\n\n    function expect(address _from, uint _value, bytes _input, bytes32 _return) public {\n        expectations[++expectationsCount] = Expect(keccak256(abi.encodePacked(_from, _value, _input)), _return);\n    }\n\n    function convertUIntToBytes32(uint _value) public pure returns (bytes32) {\n        return bytes32(_value);\n    }\n\n    function convertBytes32ToUInt(bytes32 _value) public pure returns (uint) {\n        return uint(_value);\n    }\n\n    function convertToBytes32(bytes32 _value) public pure returns (bytes32) {\n        return _value;\n    }\n\n    function bitAndBytes32ToBytes32(bytes32 _arg1, bytes32 _arg2) public pure returns (uint) {\n        return uint(_arg1) & uint(_arg2);\n    }\n\n    function assertExpectations() public view {\n        if (expectationsLeft() != 0 || callsCount != expectationsCount) {\n            revert();\n        }\n    }\n\n    function expectationsLeft() public view returns (uint) {\n        return expectationsCount - (nextExpectation - 1);\n    }\n\n    function resetCallsCount() public {\n        callsCount = 0;\n    }\n}\n",
  "sourcePath": "/Users/alesanro/Documents/Projects/ChronoBank/LX-SC/contracts/helpers/Mock.sol",
  "compiler": {
    "name": "solc",
    "version": "0.4.24+commit.e67f0147.Emscripten.clang"
  },
  "schemaVersion": "2.0.1",
  "updatedAt": "2018-07-20T10:39:28.733Z"
}