{
  "contractName": "MultiEventsHistory",
  "abi": [
    {
      "constant": false,
      "inputs": [],
      "name": "claimContractOwnership",
      "outputs": [
        {
          "name": "",
          "type": "bool"
        }
      ],
      "payable": false,
      "stateMutability": "nonpayable",
      "type": "function"
    },
    {
      "constant": false,
      "inputs": [
        {
          "name": "_to",
          "type": "address"
        }
      ],
      "name": "changeContractOwnership",
      "outputs": [
        {
          "name": "",
          "type": "bool"
        }
      ],
      "payable": false,
      "stateMutability": "nonpayable",
      "type": "function"
    },
    {
      "constant": true,
      "inputs": [],
      "name": "pendingContractOwner",
      "outputs": [
        {
          "name": "",
          "type": "address"
        }
      ],
      "payable": false,
      "stateMutability": "view",
      "type": "function"
    },
    {
      "constant": false,
      "inputs": [
        {
          "name": "tokens",
          "type": "address[]"
        }
      ],
      "name": "withdrawTokens",
      "outputs": [],
      "payable": false,
      "stateMutability": "nonpayable",
      "type": "function"
    },
    {
      "constant": false,
      "inputs": [],
      "name": "withdrawEther",
      "outputs": [],
      "payable": false,
      "stateMutability": "nonpayable",
      "type": "function"
    },
    {
      "constant": true,
      "inputs": [],
      "name": "contractOwner",
      "outputs": [
        {
          "name": "",
          "type": "address"
        }
      ],
      "payable": false,
      "stateMutability": "view",
      "type": "function"
    },
    {
      "constant": false,
      "inputs": [
        {
          "name": "newOwner",
          "type": "address"
        }
      ],
      "name": "transferOwnership",
      "outputs": [
        {
          "name": "",
          "type": "bool"
        }
      ],
      "payable": false,
      "stateMutability": "nonpayable",
      "type": "function"
    },
    {
      "constant": true,
      "inputs": [
        {
          "name": "",
          "type": "address"
        }
      ],
      "name": "isAuthorized",
      "outputs": [
        {
          "name": "",
          "type": "bool"
        }
      ],
      "payable": false,
      "stateMutability": "view",
      "type": "function"
    },
    {
      "payable": false,
      "stateMutability": "nonpayable",
      "type": "fallback"
    },
    {
      "anonymous": false,
      "inputs": [
        {
          "indexed": true,
          "name": "previousOwner",
          "type": "address"
        },
        {
          "indexed": true,
          "name": "newOwner",
          "type": "address"
        }
      ],
      "name": "OwnershipTransferred",
      "type": "event"
    },
    {
      "constant": false,
      "inputs": [
        {
          "name": "_caller",
          "type": "address"
        }
      ],
      "name": "authorize",
      "outputs": [
        {
          "name": "",
          "type": "bool"
        }
      ],
      "payable": false,
      "stateMutability": "nonpayable",
      "type": "function"
    },
    {
      "constant": false,
      "inputs": [
        {
          "name": "_caller",
          "type": "address"
        }
      ],
      "name": "reject",
      "outputs": [],
      "payable": false,
      "stateMutability": "nonpayable",
      "type": "function"
    }
  ],
  "bytecode": "0x608060405260008054600160a060020a031916331790556107c4806100256000396000f3006080604052600436106100a35763ffffffff7c01000000000000000000000000000000000000000000000000000000006000350416634592cd1d8114610192578063557f4bc9146101bb5780635aa77d3c146101dc5780635ecb16cd1461020d5780637362377b14610262578063ab0da5a914610277578063b6a5d7de14610298578063ce606ee0146102b9578063f2fde38b146102ce578063fe9fbb80146102ef575b3480156100af57600080fd5b503360009081526002602052604090205460ff1615156100ce57610190565b33600160a060020a031660003660405180838380828437820191505092505050600060405180830381855af4915050151561019057604080517f08c379a000000000000000000000000000000000000000000000000000000000815260206004820152603460248201527f5b4d756c74694576656e7473486973746f72795d2043616e6e6f742064656c6560448201527f6761746563616c6c20746f20612073656e646572000000000000000000000000606482015290519081900360840190fd5b005b34801561019e57600080fd5b506101a7610310565b604080519115158252519081900360200190f35b3480156101c757600080fd5b506101a7600160a060020a03600435166103a1565b3480156101e857600080fd5b506101f16103fc565b60408051600160a060020a039092168252519081900360200190f35b34801561021957600080fd5b50604080516020600480358082013583810280860185019096528085526101909536959394602494938501929182918501908490808284375094975061040b9650505050505050565b34801561026e57600080fd5b506101906105aa565b34801561028357600080fd5b50610190600160a060020a0360043516610608565b3480156102a457600080fd5b506101a7600160a060020a0360043516610656565b3480156102c557600080fd5b506101f16106d5565b3480156102da57600080fd5b506101a7600160a060020a03600435166106e4565b3480156102fb57600080fd5b506101a7600160a060020a0360043516610783565b600154600090600160a060020a0316331461032d5750600061039e565b60015460008054604051600160a060020a0393841693909116917f8be0079c531659141344cd1fd0a4f28419497f9722a3daafe3b4186f6b6457e091a350600180546000805473ffffffffffffffffffffffffffffffffffffffff19908116600160a060020a038416179091551681555b90565b60008054600160a060020a03163314156103f757600160a060020a03821615156103cd575060006103f7565b506001805473ffffffffffffffffffffffffffffffffffffffff1916600160a060020a0383161781555b919050565b600154600160a060020a031681565b60008054819081908190600160a060020a03163314156105a35760008054600160a060020a0316945092505b84518310156105a357848381518110151561044e57fe5b6020908102909101810151604080517f70a082310000000000000000000000000000000000000000000000000000000081523060048201529051919450600160a060020a038516926370a08231926024808401938290030181600087803b1580156104b857600080fd5b505af11580156104cc573d6000803e3d6000fd5b505050506040513d60208110156104e257600080fd5b5051905060008111156105985781600160a060020a031663a9059cbb85836040518363ffffffff167c01000000000000000000000000000000000000000000000000000000000281526004018083600160a060020a0316600160a060020a0316815260200182815260200192505050602060405180830381600087803b15801561056b57600080fd5b505af115801561057f573d6000803e3d6000fd5b505050506040513d602081101561059557600080fd5b50505b600190920191610437565b5050505050565b60008054600160a060020a03163314156106055750303160008111156106055760008054604051600160a060020a039091169183156108fc02918491818181858888f19350505050158015610603573d6000803e3d6000fd5b505b50565b3360009081526002602052604090205460ff16806106305750600054600160a060020a031633145b1561060557600160a060020a03166000908152600260205260409020805460ff19169055565b3360009081526002602052604081205460ff168061067e5750600054600160a060020a031633145b156103f757600160a060020a03821660009081526002602052604090205460ff16156106ac575060006103f7565b50600160a060020a03166000908152600260205260409020805460ff1916600190811790915590565b600054600160a060020a031681565b60008054600160a060020a03163314156103f757600160a060020a0382161515610710575060006103f7565b60008054604051600160a060020a03808616939216917f8be0079c531659141344cd1fd0a4f28419497f9722a3daafe3b4186f6b6457e091a35060008054600160a060020a03831673ffffffffffffffffffffffffffffffffffffffff1991821617909155600180549091168155919050565b60026020526000908152604090205460ff16815600a165627a7a72305820f2184bda52a6a63b8fa9c5e4f704ed45704e5091c0e7d830e16b5f2449bc82290029",
  "source": "\n/**\n* Copyright 2017–2018, LaborX PTY\n* Licensed under the AGPL Version 3 license.\n*/\n\npragma solidity ^0.4.21;\n\n\nimport \"solidity-shared-lib/contracts/Owned.sol\";\n\n\n/**\n* @title Events History universal multi contract.\n*\n* Contract serves as an Events storage for any type of contracts.\n* Events appear on this contract address but their definitions provided by calling contracts.\n*\n* Note: all the non constant functions return false instead of throwing in case if state change\n* didn't happen yet.\n*/\ncontract MultiEventsHistory is Owned {\n    // Authorized calling contracts.\n    mapping(address => bool) public isAuthorized;\n\n    modifier onlyAuthorized {\n        if (isAuthorized[msg.sender] || \n            msg.sender == contractOwner\n        ) {\n            _;\n        }\n    }\n\n    /**\n    * Authorize new caller contract.\n    *\n    * @param _caller address of the new caller.\n    *\n    * @return success.\n    */\n    function authorize(address _caller) \n    external\n    onlyAuthorized \n    returns (bool) \n    {\n        if (isAuthorized[_caller]) {\n            return false;\n        }\n        isAuthorized[_caller] = true;\n        return true;\n    }\n\n    /**\n     * Reject access.\n     *\n     * @param _caller address of the caller.\n     */\n    function reject(address _caller) \n    external \n    onlyAuthorized \n    {\n        delete isAuthorized[_caller];\n    }\n\n    /**\n    * Event emitting fallback.\n    *\n    * Can be and only called by authorized caller.\n    * Delegate calls back with provided msg.data to emit an event.\n    *\n    * Throws if call failed.\n    */\n    function () external {\n        if (!isAuthorized[msg.sender]) {\n            return;\n        }\n        // Internal Out Of Gas/Throw: revert this transaction too;\n        // Recursive Call: safe, all changes already made.\n        if (!msg.sender.delegatecall(msg.data)) {\n            revert(\"[MultiEventsHistory] Cannot delegatecall to a sender\");\n        }\n    }\n}\n",
  "sourcePath": "solidity-eventshistory-lib/contracts/MultiEventsHistory.sol",
  "compiler": {
    "name": "solc",
    "version": "0.4.24+commit.e67f0147.Emscripten.clang"
  },
  "schemaVersion": "2.0.1",
  "updatedAt": "2018-07-20T10:51:35.297Z"
}