{
  "contractName": "Owned",
  "abi": [
    {
      "constant": true,
      "inputs": [],
      "name": "pendingContractOwner",
      "outputs": [
        {
          "name": "",
          "type": "address"
        }
      ],
      "payable": false,
      "stateMutability": "view",
      "type": "function"
    },
    {
      "constant": true,
      "inputs": [],
      "name": "contractOwner",
      "outputs": [
        {
          "name": "",
          "type": "address"
        }
      ],
      "payable": false,
      "stateMutability": "view",
      "type": "function"
    },
    {
      "inputs": [],
      "payable": false,
      "stateMutability": "nonpayable",
      "type": "constructor"
    },
    {
      "anonymous": false,
      "inputs": [
        {
          "indexed": true,
          "name": "previousOwner",
          "type": "address"
        },
        {
          "indexed": true,
          "name": "newOwner",
          "type": "address"
        }
      ],
      "name": "OwnershipTransferred",
      "type": "event"
    },
    {
      "constant": false,
      "inputs": [
        {
          "name": "_to",
          "type": "address"
        }
      ],
      "name": "changeContractOwnership",
      "outputs": [
        {
          "name": "",
          "type": "bool"
        }
      ],
      "payable": false,
      "stateMutability": "nonpayable",
      "type": "function"
    },
    {
      "constant": false,
      "inputs": [],
      "name": "claimContractOwnership",
      "outputs": [
        {
          "name": "",
          "type": "bool"
        }
      ],
      "payable": false,
      "stateMutability": "nonpayable",
      "type": "function"
    },
    {
      "constant": false,
      "inputs": [
        {
          "name": "newOwner",
          "type": "address"
        }
      ],
      "name": "transferOwnership",
      "outputs": [
        {
          "name": "",
          "type": "bool"
        }
      ],
      "payable": false,
      "stateMutability": "nonpayable",
      "type": "function"
    },
    {
      "constant": false,
      "inputs": [
        {
          "name": "tokens",
          "type": "address[]"
        }
      ],
      "name": "withdrawTokens",
      "outputs": [],
      "payable": false,
      "stateMutability": "nonpayable",
      "type": "function"
    },
    {
      "constant": false,
      "inputs": [],
      "name": "withdrawEther",
      "outputs": [],
      "payable": false,
      "stateMutability": "nonpayable",
      "type": "function"
    }
  ],
  "bytecode": "0x608060405234801561001057600080fd5b5060008054600160a060020a03191633179055610576806100326000396000f3006080604052600436106100825763ffffffff7c01000000000000000000000000000000000000000000000000000000006000350416634592cd1d8114610087578063557f4bc9146100b05780635aa77d3c146100d15780635ecb16cd146101025780637362377b14610159578063ce606ee01461016e578063f2fde38b14610183575b600080fd5b34801561009357600080fd5b5061009c6101a4565b604080519115158252519081900360200190f35b3480156100bc57600080fd5b5061009c600160a060020a0360043516610235565b3480156100dd57600080fd5b506100e6610290565b60408051600160a060020a039092168252519081900360200190f35b34801561010e57600080fd5b50604080516020600480358082013583810280860185019096528085526101579536959394602494938501929182918501908490808284375094975061029f9650505050505050565b005b34801561016557600080fd5b5061015761043e565b34801561017a57600080fd5b506100e661049c565b34801561018f57600080fd5b5061009c600160a060020a03600435166104ab565b600154600090600160a060020a031633146101c157506000610232565b60015460008054604051600160a060020a0393841693909116917f8be0079c531659141344cd1fd0a4f28419497f9722a3daafe3b4186f6b6457e091a350600180546000805473ffffffffffffffffffffffffffffffffffffffff19908116600160a060020a038416179091551681555b90565b60008054600160a060020a031633141561028b57600160a060020a03821615156102615750600061028b565b506001805473ffffffffffffffffffffffffffffffffffffffff1916600160a060020a0383161781555b919050565b600154600160a060020a031681565b60008054819081908190600160a060020a03163314156104375760008054600160a060020a0316945092505b84518310156104375784838151811015156102e257fe5b6020908102909101810151604080517f70a082310000000000000000000000000000000000000000000000000000000081523060048201529051919450600160a060020a038516926370a08231926024808401938290030181600087803b15801561034c57600080fd5b505af1158015610360573d6000803e3d6000fd5b505050506040513d602081101561037657600080fd5b50519050600081111561042c5781600160a060020a031663a9059cbb85836040518363ffffffff167c01000000000000000000000000000000000000000000000000000000000281526004018083600160a060020a0316600160a060020a0316815260200182815260200192505050602060405180830381600087803b1580156103ff57600080fd5b505af1158015610413573d6000803e3d6000fd5b505050506040513d602081101561042957600080fd5b50505b6001909201916102cb565b5050505050565b60008054600160a060020a03163314156104995750303160008111156104995760008054604051600160a060020a039091169183156108fc02918491818181858888f19350505050158015610497573d6000803e3d6000fd5b505b50565b600054600160a060020a031681565b60008054600160a060020a031633141561028b57600160a060020a03821615156104d75750600061028b565b60008054604051600160a060020a03808616939216917f8be0079c531659141344cd1fd0a4f28419497f9722a3daafe3b4186f6b6457e091a35060008054600160a060020a03831673ffffffffffffffffffffffffffffffffffffffff19918216179091556001805490911681559190505600a165627a7a72305820ce357ec76efdd51e6bb30ecabfde502c21dd76d24b8676b117106f03a52d11c10029",
  "source": "/**\n* Copyright 2017–2018, LaborX PTY\n* Licensed under the AGPL Version 3 license.\n*/\n\npragma solidity ^0.4.23;\n\n\nimport \"./ERC20Interface.sol\";\n\n\n/// @title Owned contract with safe ownership pass.\n///\n/// Note: all the non constant functions return false instead of throwing in case if state change\n/// didn't happen yet.\ncontract Owned {\n\n    event OwnershipTransferred(address indexed previousOwner, address indexed newOwner);\n\n    address public contractOwner;\n    address public pendingContractOwner;\n\n    modifier onlyContractOwner {\n        if (msg.sender == contractOwner) {\n            _;\n        }\n    }\n\n    constructor()\n    public\n    {\n        contractOwner = msg.sender;\n    }\n\n    /// @notice Prepares ownership pass.\n    /// Can only be called by current owner.\n    /// @param _to address of the next owner.\n    /// @return success.\n    function changeContractOwnership(address _to)\n    public\n    onlyContractOwner\n    returns (bool)\n    {\n        if (_to == 0x0) {\n            return false;\n        }\n        pendingContractOwner = _to;\n        return true;\n    }\n\n    /// @notice Finalize ownership pass.\n    /// Can only be called by pending owner.\n    /// @return success.\n    function claimContractOwnership()\n    public\n    returns (bool)\n    {\n        if (msg.sender != pendingContractOwner) {\n            return false;\n        }\n\n        emit OwnershipTransferred(contractOwner, pendingContractOwner);\n        contractOwner = pendingContractOwner;\n        delete pendingContractOwner;\n        return true;\n    }\n\n    /// @notice Allows the current owner to transfer control of the contract to a newOwner.\n    /// @param newOwner The address to transfer ownership to.\n    function transferOwnership(address newOwner)\n    public\n    onlyContractOwner\n    returns (bool)\n    {\n        if (newOwner == 0x0) {\n            return false;\n        }\n\n        emit OwnershipTransferred(contractOwner, newOwner);\n        contractOwner = newOwner;\n        delete pendingContractOwner;\n        return true;\n    }\n\n    /// @notice Withdraw given tokens from contract to owner.\n    /// This method is only allowed for contact owner.\n    function withdrawTokens(address[] tokens)\n    public\n    onlyContractOwner\n    {\n        address _contractOwner = contractOwner;\n        for (uint i = 0; i < tokens.length; i++) {\n            ERC20Interface token = ERC20Interface(tokens[i]);\n            uint balance = token.balanceOf(this);\n            if (balance > 0) {\n                token.transfer(_contractOwner, balance);\n            }\n        }\n    }\n\n    /// @notice Withdraw ether from contract to owner.\n    /// This method is only allowed for contact owner.\n    function withdrawEther()\n    public\n    onlyContractOwner\n    {\n        uint balance = address(this).balance;\n        if (balance > 0)  {\n            contractOwner.transfer(balance);\n        }\n    }\n}\n",
  "sourcePath": "solidity-shared-lib/contracts/Owned.sol",
  "compiler": {
    "name": "solc",
    "version": "0.4.24+commit.e67f0147.Emscripten.clang"
  },
  "schemaVersion": "2.0.1",
  "updatedAt": "2018-09-18T15:37:37.821Z"
}