{
  "contractName": "PaymentProcessor",
  "abi": [
    {
      "constant": false,
      "inputs": [
        {
          "name": "_roles2Library",
          "type": "address"
        }
      ],
      "name": "setRoles2Library",
      "outputs": [
        {
          "name": "",
          "type": "uint256"
        }
      ],
      "payable": false,
      "stateMutability": "nonpayable",
      "type": "function"
    },
    {
      "constant": true,
      "inputs": [],
      "name": "serviceMode",
      "outputs": [
        {
          "name": "",
          "type": "bool"
        }
      ],
      "payable": false,
      "stateMutability": "view",
      "type": "function"
    },
    {
      "constant": true,
      "inputs": [],
      "name": "version",
      "outputs": [
        {
          "name": "",
          "type": "string"
        }
      ],
      "payable": false,
      "stateMutability": "view",
      "type": "function"
    },
    {
      "constant": true,
      "inputs": [
        {
          "name": "",
          "type": "bytes32"
        }
      ],
      "name": "approved",
      "outputs": [
        {
          "name": "",
          "type": "bool"
        }
      ],
      "payable": false,
      "stateMutability": "view",
      "type": "function"
    },
    {
      "constant": true,
      "inputs": [],
      "name": "paymentGateway",
      "outputs": [
        {
          "name": "",
          "type": "address"
        }
      ],
      "payable": false,
      "stateMutability": "view",
      "type": "function"
    },
    {
      "inputs": [
        {
          "name": "_roles2Library",
          "type": "address"
        }
      ],
      "payable": false,
      "stateMutability": "nonpayable",
      "type": "constructor"
    },
    {
      "anonymous": false,
      "inputs": [
        {
          "indexed": false,
          "name": "code",
          "type": "address"
        },
        {
          "indexed": false,
          "name": "sender",
          "type": "address"
        },
        {
          "indexed": false,
          "name": "sig",
          "type": "bytes4"
        }
      ],
      "name": "AuthFailedError",
      "type": "event"
    },
    {
      "constant": false,
      "inputs": [
        {
          "name": "_paymentGateway",
          "type": "address"
        }
      ],
      "name": "setPaymentGateway",
      "outputs": [
        {
          "name": "",
          "type": "bool"
        }
      ],
      "payable": false,
      "stateMutability": "nonpayable",
      "type": "function"
    },
    {
      "constant": false,
      "inputs": [],
      "name": "enableServiceMode",
      "outputs": [
        {
          "name": "",
          "type": "uint256"
        }
      ],
      "payable": false,
      "stateMutability": "nonpayable",
      "type": "function"
    },
    {
      "constant": false,
      "inputs": [],
      "name": "disableServiceMode",
      "outputs": [
        {
          "name": "",
          "type": "uint256"
        }
      ],
      "payable": false,
      "stateMutability": "nonpayable",
      "type": "function"
    },
    {
      "constant": false,
      "inputs": [
        {
          "name": "_operationId",
          "type": "uint256"
        }
      ],
      "name": "approve",
      "outputs": [
        {
          "name": "",
          "type": "uint256"
        }
      ],
      "payable": false,
      "stateMutability": "nonpayable",
      "type": "function"
    },
    {
      "constant": false,
      "inputs": [
        {
          "name": "_operationId",
          "type": "bytes32"
        },
        {
          "name": "_from",
          "type": "address"
        }
      ],
      "name": "lockPayment",
      "outputs": [
        {
          "name": "",
          "type": "uint256"
        }
      ],
      "payable": true,
      "stateMutability": "payable",
      "type": "function"
    },
    {
      "constant": false,
      "inputs": [
        {
          "name": "_operationId",
          "type": "bytes32"
        },
        {
          "name": "_to",
          "type": "address"
        },
        {
          "name": "_value",
          "type": "uint256"
        },
        {
          "name": "_change",
          "type": "address"
        },
        {
          "name": "_feeFromValue",
          "type": "uint256"
        },
        {
          "name": "_additionalFee",
          "type": "uint256"
        }
      ],
      "name": "releasePayment",
      "outputs": [
        {
          "name": "",
          "type": "uint256"
        }
      ],
      "payable": false,
      "stateMutability": "nonpayable",
      "type": "function"
    }
  ],
  "bytecode": "0x6001805460a060020a60ff021916905560c0604052600660808190527f76302e302e31000000000000000000000000000000000000000000000000000060a090815261004e91600391906100a9565b5034801561005b57600080fd5b50604051602080610b75833981016040525180600160a060020a038116151561008357600080fd5b60008054600160a060020a031916600160a060020a039290921691909117905550610144565b828054600181600116156101000203166002900490600052602060002090601f016020900481019282601f106100ea57805160ff1916838001178555610117565b82800160010185558215610117579182015b828111156101175782518255916020019190600101906100fc565b50610123929150610127565b5090565b61014191905b80821115610123576000815560010161012d565b90565b610a22806101536000396000f3006080604052600436106100ae5763ffffffff7c01000000000000000000000000000000000000000000000000000000006000350416632637cd7d81146100b35780633651024c146100e657806354fd4d501461010f57806355f0b76e1461019957806361066dc3146101cd5780637865c3ad146101e2578063b759f954146101fa578063ca2169d414610212578063decfd51b14610243578063e305044f1461025a578063fd01a7ee1461026f575b600080fd5b3480156100bf57600080fd5b506100d4600160a060020a0360043516610290565b60408051918252519081900360200190f35b3480156100f257600080fd5b506100fb61031c565b604080519115158252519081900360200190f35b34801561011b57600080fd5b5061012461032c565b6040805160208082528351818301528351919283929083019185019080838360005b8381101561015e578181015183820152602001610146565b50505050905090810190601f16801561018b5780820380516001836020036101000a031916815260200191505b509250505060405180910390f35b3480156101a557600080fd5b506100d4600435600160a060020a03602435811690604435906064351660843560a4356103ba565b3480156101d957600080fd5b506100d461054b565b3480156101ee57600080fd5b506100fb6004356105cf565b34801561020657600080fd5b506100d46004356105e4565b34801561021e57600080fd5b5061022761065f565b60408051600160a060020a039092168252519081900360200190f35b6100d4600435600160a060020a036024351661066e565b34801561026657600080fd5b506100d46107e5565b34801561027b57600080fd5b506100fb600160a060020a0360043516610862565b60006102a833600035600160e060020a0319166108ed565b15156102eb5760408051308152336020820152600160e060020a0319600035168183015290516000805160206109d78339815191529181900360600190a1610317565b506000805473ffffffffffffffffffffffffffffffffffffffff1916600160a060020a03831617905560015b919050565b60015460a060020a900460ff1681565b6003805460408051602060026001851615610100026000190190941693909304601f810184900484028201840190925281815292918301828280156103b25780601f10610387576101008083540402835291602001916103b2565b820191906000526020600020905b81548152906001019060200180831161039557829003601f168201915b505050505081565b60006103d233600035600160e060020a0319166108ed565b15156104155760408051308152336020820152600160e060020a0319600035168183015290516000805160206109d78339815191529181900360600190a1610541565b600154879060a060020a900460ff16801561043f575060008181526002602052604090205460ff16155b1561045057613e8160005260206000f35b60018054604080517fd63fb44e000000000000000000000000000000000000000000000000000000008152600160a060020a038c811660048301528b81166024830152604482018b905289811660648301526084820189905260a4820188905260c48201949094529051929091169163d63fb44e9160e4808201926020929091908290030181600087803b1580156104e757600080fd5b505af11580156104fb573d6000803e3d6000fd5b505050506040513d602081101561051157600080fd5b5051915060015460ff60a060020a909104161561053f576000818152600260205260409020805460ff191690555b505b9695505050505050565b600061056333600035600160e060020a0319166108ed565b15156105a65760408051308152336020820152600160e060020a0319600035168183015290516000805160206109d78339815191529181900360600190a16105cc565b506001805474ff0000000000000000000000000000000000000000191660a060020a1781555b90565b60026020526000908152604090205460ff1681565b60006105fc33600035600160e060020a0319166108ed565b151561063f5760408051308152336020820152600160e060020a0319600035168183015290516000805160206109d78339815191529181900360600190a1610317565b506000908152600260205260409020805460ff1916600190811790915590565b600154600160a060020a031681565b600061068633600035600160e060020a0319166108ed565b15156106c95760408051308152336020820152600160e060020a0319600035168183015290516000805160206109d78339815191529181900360600190a16107df565b600154839060a060020a900460ff1680156106f3575060008181526002602052604090205460ff16155b1561070457613e8160005260206000f35b600154604080517f7147042a000000000000000000000000000000000000000000000000000000008152600160a060020a0386811660048301528781166024830152600060448301819052606483015291519190921691637147042a91349160848082019260209290919082900301818588803b15801561078457600080fd5b505af1158015610798573d6000803e3d6000fd5b50505050506040513d60208110156107af57600080fd5b5051915060015460ff60a060020a90910416156107dd576000818152600260205260409020805460ff191690555b505b92915050565b60006107fd33600035600160e060020a0319166108ed565b15156108405760408051308152336020820152600160e060020a0319600035168183015290516000805160206109d78339815191529181900360600190a16105cc565b506001805474ff00000000000000000000000000000000000000001916815590565b600061087a33600035600160e060020a0319166108ed565b15156108bd5760408051308152336020820152600160e060020a0319600035168183015290516000805160206109d78339815191529181900360600190a1610317565b5060018054600160a060020a03831673ffffffffffffffffffffffffffffffffffffffff19909116178155919050565b6000600160a060020a038316301415610908575060016107df565b600054600160a060020a03161515610922575060006107df565b60008054604080517fb7009613000000000000000000000000000000000000000000000000000000008152600160a060020a038781166004830152306024830152600160e060020a0319871660448301529151919092169263b700961392606480820193602093909283900390910190829087803b1580156109a357600080fd5b505af11580156109b7573d6000803e3d6000fd5b505050506040513d60208110156109cd57600080fd5b5051939250505056005133a133185f1023427a2e90f18506b27db994977ce0c0faafd514a7dd109ae0a165627a7a7230582084f0c0f0bfbd53dd4c3ca2aa804a2fb227cf8cd1b7aa8049d519f404153d83de0029",
  "source": "/**\n * Copyright 2017–2018, LaborX PTY\n * Licensed under the AGPL Version 3 license.\n */\n\npragma solidity ^0.4.18;\n\n\nimport \"solidity-roles-lib/contracts/Roles2LibraryAdapter.sol\";\n\n\ninterface PaymentGatewayInterface {\n    function transferWithFee(\n        address _from, \n        address _to, \n        uint _feeFromValue, \n        uint _additionalFee\n        ) \n        external \n        payable \n        returns (uint);\n    function transferAll(\n        address _from, \n        address _to, \n        uint _value, \n        address _change, \n        uint _feeFromValue, \n        uint _additionalFee\n        ) \n        external \n        returns (uint);\n    function transferAllAndWithdraw(\n        address _from, \n        address _to, \n        uint _value, \n        address _change, \n        uint _feeFromValue, \n        uint _additionalFee,\n        bool _shouldWithdraw\n        ) \n        external \n        returns (uint);\n}\n\n\ncontract PaymentProcessor is Roles2LibraryAdapter {\n\n    uint constant PAYMENT_PROCESSOR_SCOPE = 16000;\n    uint constant PAYMENT_PROCESSOR_OPERATION_IS_NOT_APPROVED = PAYMENT_PROCESSOR_SCOPE + 1;\n\n    PaymentGatewayInterface public paymentGateway;\n    bool public serviceMode = false;\n    mapping(bytes32 => bool) public approved;\n\n    string public version = \"v0.0.1\";\n\n    modifier onlyApproved(bytes32 _operationId) {\n        if (serviceMode && !approved[_operationId]) {\n            assembly {\n                mstore(0, 16001) // PAYMENT_PROCESSOR_OPERATION_IS_NOT_APPROVED\n                return(0, 32)\n            }\n        }\n\n        _;\n\n        if (serviceMode) {\n            delete approved[_operationId];\n        }\n    }\n\n    constructor(address _roles2Library) public Roles2LibraryAdapter(_roles2Library) {}\n\n\n    // Only contract owner\n    function setPaymentGateway(PaymentGatewayInterface _paymentGateway) auth external returns (bool) {\n        paymentGateway = _paymentGateway;\n        return true;\n    }\n\n    // Only contract owner\n    function enableServiceMode() auth external returns (uint) {\n        serviceMode = true;\n        return OK;\n    }\n\n    // Only contract owner\n    function disableServiceMode() auth external returns (uint) {\n        delete serviceMode;\n        return OK;\n    }\n\n    // Only contract owner\n    function approve(uint _operationId) auth external returns (uint) {\n        approved[bytes32(_operationId)] = true;\n        return OK;\n    }\n\n    function lockPayment(\n        bytes32 _operationId,\n        address _from\n    )\n    auth  // Only job controller\n    onlyApproved(_operationId)\n    external\n    payable\n    returns (uint) {\n        return paymentGateway.transferWithFee.value(msg.value)(_from, address(_operationId), 0, 0);\n    }\n\n    function releasePayment(\n        bytes32 _operationId,\n        address _to,\n        uint _value,\n        address _change,\n        uint _feeFromValue,\n        uint _additionalFee\n    )\n    auth  // Only job controller\n    onlyApproved(_operationId)\n    external\n    returns (uint) {\n        return paymentGateway.transferAllAndWithdraw(\n            address(_operationId),\n            _to,\n            _value,\n            _change,\n            _feeFromValue,\n            _additionalFee,\n            true\n        );\n    }\n}\n",
  "sourcePath": "/Users/alesanro/Documents/Projects/ChronoBank/LX-SC/contracts/PaymentProcessor.sol",
  "compiler": {
    "name": "solc",
    "version": "0.4.24+commit.e67f0147.Emscripten.clang"
  },
  "schemaVersion": "2.0.1",
  "updatedAt": "2018-09-18T15:43:05.257Z"
}