{
  "contractName": "PaymentGateway",
  "abi": [
    {
      "constant": false,
      "inputs": [
        {
          "name": "_roles2Library",
          "type": "address"
        }
      ],
      "name": "setRoles2Library",
      "outputs": [
        {
          "name": "",
          "type": "uint256"
        }
      ],
      "payable": false,
      "stateMutability": "nonpayable",
      "type": "function"
    },
    {
      "constant": true,
      "inputs": [],
      "name": "version",
      "outputs": [
        {
          "name": "",
          "type": "string"
        }
      ],
      "payable": false,
      "stateMutability": "view",
      "type": "function"
    },
    {
      "constant": false,
      "inputs": [
        {
          "name": "_errorCode",
          "type": "uint256"
        }
      ],
      "name": "emitErrorCode",
      "outputs": [],
      "payable": false,
      "stateMutability": "nonpayable",
      "type": "function"
    },
    {
      "constant": true,
      "inputs": [],
      "name": "getEventsHistory",
      "outputs": [
        {
          "name": "",
          "type": "address"
        }
      ],
      "payable": false,
      "stateMutability": "view",
      "type": "function"
    },
    {
      "inputs": [
        {
          "name": "_store",
          "type": "address"
        },
        {
          "name": "_crate",
          "type": "bytes32"
        },
        {
          "name": "_roles2Library",
          "type": "address"
        }
      ],
      "payable": false,
      "stateMutability": "nonpayable",
      "type": "constructor"
    },
    {
      "anonymous": false,
      "inputs": [
        {
          "indexed": true,
          "name": "self",
          "type": "address"
        },
        {
          "indexed": false,
          "name": "feePercent",
          "type": "uint256"
        }
      ],
      "name": "FeeSet",
      "type": "event"
    },
    {
      "anonymous": false,
      "inputs": [
        {
          "indexed": true,
          "name": "self",
          "type": "address"
        },
        {
          "indexed": true,
          "name": "by",
          "type": "address"
        },
        {
          "indexed": false,
          "name": "value",
          "type": "uint256"
        }
      ],
      "name": "Deposited",
      "type": "event"
    },
    {
      "anonymous": false,
      "inputs": [
        {
          "indexed": true,
          "name": "self",
          "type": "address"
        },
        {
          "indexed": true,
          "name": "by",
          "type": "address"
        },
        {
          "indexed": false,
          "name": "value",
          "type": "uint256"
        }
      ],
      "name": "Withdrawn",
      "type": "event"
    },
    {
      "anonymous": false,
      "inputs": [
        {
          "indexed": true,
          "name": "self",
          "type": "address"
        },
        {
          "indexed": false,
          "name": "from",
          "type": "address"
        },
        {
          "indexed": false,
          "name": "to",
          "type": "address"
        },
        {
          "indexed": false,
          "name": "value",
          "type": "uint256"
        }
      ],
      "name": "Transferred",
      "type": "event"
    },
    {
      "anonymous": false,
      "inputs": [
        {
          "indexed": false,
          "name": "code",
          "type": "address"
        },
        {
          "indexed": false,
          "name": "sender",
          "type": "address"
        },
        {
          "indexed": false,
          "name": "sig",
          "type": "bytes4"
        }
      ],
      "name": "AuthFailedError",
      "type": "event"
    },
    {
      "anonymous": false,
      "inputs": [
        {
          "indexed": true,
          "name": "self",
          "type": "address"
        },
        {
          "indexed": false,
          "name": "errorCode",
          "type": "uint256"
        }
      ],
      "name": "ErrorCode",
      "type": "event"
    },
    {
      "constant": false,
      "inputs": [
        {
          "name": "_eventsHistory",
          "type": "address"
        }
      ],
      "name": "setupEventsHistory",
      "outputs": [
        {
          "name": "",
          "type": "uint256"
        }
      ],
      "payable": false,
      "stateMutability": "nonpayable",
      "type": "function"
    },
    {
      "constant": false,
      "inputs": [
        {
          "name": "_balanceHolder",
          "type": "address"
        }
      ],
      "name": "setBalanceHolder",
      "outputs": [
        {
          "name": "",
          "type": "uint256"
        }
      ],
      "payable": false,
      "stateMutability": "nonpayable",
      "type": "function"
    },
    {
      "constant": false,
      "inputs": [
        {
          "name": "_feeAddress",
          "type": "address"
        }
      ],
      "name": "setFeeAddress",
      "outputs": [
        {
          "name": "",
          "type": "uint256"
        }
      ],
      "payable": false,
      "stateMutability": "nonpayable",
      "type": "function"
    },
    {
      "constant": false,
      "inputs": [
        {
          "name": "_feePercent",
          "type": "uint256"
        }
      ],
      "name": "setFeePercent",
      "outputs": [
        {
          "name": "",
          "type": "uint256"
        }
      ],
      "payable": false,
      "stateMutability": "nonpayable",
      "type": "function"
    },
    {
      "constant": true,
      "inputs": [],
      "name": "getFeePercent",
      "outputs": [
        {
          "name": "",
          "type": "uint256"
        }
      ],
      "payable": false,
      "stateMutability": "view",
      "type": "function"
    },
    {
      "constant": false,
      "inputs": [
        {
          "name": "_value",
          "type": "uint256"
        }
      ],
      "name": "withdraw",
      "outputs": [
        {
          "name": "",
          "type": "uint256"
        }
      ],
      "payable": false,
      "stateMutability": "nonpayable",
      "type": "function"
    },
    {
      "constant": false,
      "inputs": [
        {
          "name": "_from",
          "type": "address"
        },
        {
          "name": "_to",
          "type": "address"
        },
        {
          "name": "_feeFromValue",
          "type": "uint256"
        },
        {
          "name": "_additionalFee",
          "type": "uint256"
        }
      ],
      "name": "transferWithFee",
      "outputs": [
        {
          "name": "",
          "type": "uint256"
        }
      ],
      "payable": true,
      "stateMutability": "payable",
      "type": "function"
    },
    {
      "constant": false,
      "inputs": [
        {
          "name": "_from",
          "type": "address"
        },
        {
          "name": "_to",
          "type": "address[]"
        },
        {
          "name": "_value",
          "type": "uint256[]"
        },
        {
          "name": "_feeFromValue",
          "type": "uint256"
        },
        {
          "name": "_additionalFee",
          "type": "uint256"
        }
      ],
      "name": "transferToMany",
      "outputs": [
        {
          "name": "",
          "type": "uint256"
        }
      ],
      "payable": true,
      "stateMutability": "payable",
      "type": "function"
    },
    {
      "constant": false,
      "inputs": [
        {
          "name": "_from",
          "type": "address"
        },
        {
          "name": "_to",
          "type": "address"
        },
        {
          "name": "_value",
          "type": "uint256"
        },
        {
          "name": "_change",
          "type": "address"
        },
        {
          "name": "_feeFromValue",
          "type": "uint256"
        },
        {
          "name": "_additionalFee",
          "type": "uint256"
        }
      ],
      "name": "transferAll",
      "outputs": [
        {
          "name": "",
          "type": "uint256"
        }
      ],
      "payable": false,
      "stateMutability": "nonpayable",
      "type": "function"
    },
    {
      "constant": false,
      "inputs": [
        {
          "name": "_from",
          "type": "address"
        },
        {
          "name": "_to",
          "type": "address"
        },
        {
          "name": "_value",
          "type": "uint256"
        },
        {
          "name": "_change",
          "type": "address"
        },
        {
          "name": "_feeFromValue",
          "type": "uint256"
        },
        {
          "name": "_additionalFee",
          "type": "uint256"
        },
        {
          "name": "_shouldWithdraw",
          "type": "bool"
        }
      ],
      "name": "transferAllAndWithdraw",
      "outputs": [
        {
          "name": "",
          "type": "uint256"
        }
      ],
      "payable": false,
      "stateMutability": "nonpayable",
      "type": "function"
    },
    {
      "constant": false,
      "inputs": [
        {
          "name": "_value",
          "type": "uint256"
        }
      ],
      "name": "forwardFee",
      "outputs": [
        {
          "name": "",
          "type": "uint256"
        }
      ],
      "payable": false,
      "stateMutability": "nonpayable",
      "type": "function"
    },
    {
      "constant": true,
      "inputs": [
        {
          "name": "_address",
          "type": "address"
        }
      ],
      "name": "getBalance",
      "outputs": [
        {
          "name": "",
          "type": "uint256"
        }
      ],
      "payable": false,
      "stateMutability": "view",
      "type": "function"
    },
    {
      "constant": true,
      "inputs": [
        {
          "name": "_address",
          "type": "address"
        }
      ],
      "name": "getBalanceOf",
      "outputs": [
        {
          "name": "",
          "type": "uint256"
        }
      ],
      "payable": false,
      "stateMutability": "view",
      "type": "function"
    },
    {
      "constant": true,
      "inputs": [
        {
          "name": "_value",
          "type": "uint256"
        }
      ],
      "name": "calculateFee",
      "outputs": [
        {
          "name": "",
          "type": "uint256"
        }
      ],
      "payable": false,
      "stateMutability": "view",
      "type": "function"
    },
    {
      "constant": true,
      "inputs": [],
      "name": "getFeeAddress",
      "outputs": [
        {
          "name": "",
          "type": "address"
        }
      ],
      "payable": false,
      "stateMutability": "view",
      "type": "function"
    },
    {
      "constant": true,
      "inputs": [],
      "name": "getBalanceHolder",
      "outputs": [
        {
          "name": "",
          "type": "address"
        }
      ],
      "payable": false,
      "stateMutability": "view",
      "type": "function"
    },
    {
      "constant": false,
      "inputs": [
        {
          "name": "_feePercent",
          "type": "uint256"
        }
      ],
      "name": "emitFeeSet",
      "outputs": [],
      "payable": false,
      "stateMutability": "nonpayable",
      "type": "function"
    },
    {
      "constant": false,
      "inputs": [
        {
          "name": "_by",
          "type": "address"
        },
        {
          "name": "_value",
          "type": "uint256"
        }
      ],
      "name": "emitDeposited",
      "outputs": [],
      "payable": false,
      "stateMutability": "nonpayable",
      "type": "function"
    },
    {
      "constant": false,
      "inputs": [
        {
          "name": "_by",
          "type": "address"
        },
        {
          "name": "_value",
          "type": "uint256"
        }
      ],
      "name": "emitWithdrawn",
      "outputs": [],
      "payable": false,
      "stateMutability": "nonpayable",
      "type": "function"
    },
    {
      "constant": false,
      "inputs": [
        {
          "name": "_from",
          "type": "address"
        },
        {
          "name": "_to",
          "type": "address"
        },
        {
          "name": "_value",
          "type": "uint256"
        }
      ],
      "name": "emitTransferred",
      "outputs": [],
      "payable": false,
      "stateMutability": "nonpayable",
      "type": "function"
    }
  ],
  "bytecode": "0x60c0604052600660808190527f76302e302e31000000000000000000000000000000000000000000000000000060a09081526200004091600891906200022c565b503480156200004e57600080fd5b5060405160608062001cf88339810160409081528151602083015191909201518083836200008d6000838364010000000062001960620001ba82021704565b5050600160a060020a0381161515620000a557600080fd5b60038054600160a060020a031916600160a060020a03929092169190911790556200010060047f62616c616e6365486f6c64657200000000000000000000000000000000000000640100000000620001e08102620019931704565b6200013b60057f62616c616e636573000000000000000000000000000000000000000000000000640100000000620019a3620001fb82021704565b6200017660067f666565416464726573730000000000000000000000000000000000000000000064010000000062001993620001e082021704565b620001b160077f666565730000000000000000000000000000000000000000000000000000000064010000000062001993620001e082021704565b505050620002d1565b8254600160a060020a031916600160a060020a0392909216919091178255600190910155565b8154620001f7908264010000000062000214810204565b9055565b620002108282640100000000620001e0810204565b5050565b8115158062000221575080155b156200021057600080fd5b828054600181600116156101000203166002900490600052602060002090601f016020900481019282601f106200026f57805160ff19168380011785556200029f565b828001600101855582156200029f579182015b828111156200029f57825182559160200191906001019062000282565b50620002ad929150620002b1565b5090565b620002ce91905b80821115620002ad5760008155600101620002b8565b90565b611a1780620002e16000396000f3006080604052600436106101245763ffffffff60e060020a60003504166302927d2081146101295780632637cd7d1461015c5780632a289e541461017d5780632e1a7d4d1461021557806341cbec091461022d5780634e7ceacb1461025357806354fd4d50146102845780635825b75b1461030e5780637147042a146103385780637ce3489b1461035857806386b7b8f6146103705780638705fcd4146103915780638834277e146103b257806399a5d747146103ca5780639b96eece146103e2578063a2dd046414610403578063a5b5b8ef1461041b578063be74264d1461043f578063d63fb44e14610454578063d70657ac14610490578063d8b41d78146104a5578063df1016ce146104dc578063f8b2cb4f146104f4578063fff10aba14610515575b600080fd5b34801561013557600080fd5b5061014a600160a060020a036004351661052a565b60408051918252519081900360200190f35b34801561016857600080fd5b5061014a600160a060020a03600435166105ae565b60408051602060046024803582810135848102808701860190975280865261014a968435600160a060020a031696369660449591949091019291829185019084908082843750506040805187358901803560208181028481018201909552818452989b9a99890198929750908201955093508392508501908490808284375094975050843595505050602090920135915061063b9050565b34801561022157600080fd5b5061014a600435610848565b34801561023957600080fd5b50610251600160a060020a0360043516602435610866565b005b34801561025f57600080fd5b506102686108bc565b60408051600160a060020a039092168252519081900360200190f35b34801561029057600080fd5b506102996108d4565b6040805160208082528351818301528351919283929083019185019080838360005b838110156102d35781810151838201526020016102bb565b50505050905090810190601f1680156103005780820380516001836020036101000a031916815260200191505b509250505060405180910390f35b34801561031a57600080fd5b50610251600160a060020a0360043581169060243516604435610962565b61014a600160a060020a03600435811690602435166044356064356109bf565b34801561036457600080fd5b5061014a600435610a5e565b34801561037c57600080fd5b5061014a600160a060020a0360043516610aeb565b34801561039d57600080fd5b5061014a600160a060020a0360043516610b59565b3480156103be57600080fd5b50610251600435610bc7565b3480156103d657600080fd5b5061014a600435610c12565b3480156103ee57600080fd5b5061014a600160a060020a0360043516610c55565b34801561040f57600080fd5b50610251600435610c62565b34801561042757600080fd5b50610251600160a060020a0360043516602435610cad565b34801561044b57600080fd5b5061014a610d03565b34801561046057600080fd5b5061014a600160a060020a03600435811690602435811690604435906064351660843560a43560c4351515610d16565b34801561049c57600080fd5b50610268610ea0565b3480156104b157600080fd5b5061014a600160a060020a03600435811690602435811690604435906064351660843560a435610eb3565b3480156104e857600080fd5b5061014a600435610fd8565b34801561050057600080fd5b5061014a600160a060020a0360043516611024565b34801561052157600080fd5b50610268611038565b600061054233600035600160e060020a03191661105c565b15156105855760408051308152336020820152600160e060020a0319600035168183015290516000805160206119cc8339815191529181900360600190a16105a9565b600160a060020a038216151561059a57600080fd5b6105a382611142565b50600190505b919050565b60006105c633600035600160e060020a03191661105c565b15156106095760408051308152336020820152600160e060020a0319600035168183015290516000805160206119cc8339815191529181900360600190a16105a9565b5060038054600160a060020a03831673ffffffffffffffffffffffffffffffffffffffff199091161790556001919050565b600080600080600061065933600035600160e060020a03191661105c565b151561069c5760408051308152336020820152600160e060020a0319600035168183015290516000805160206119cc8339815191529181900360600190a161083b565b600160a060020a038a1615156106b157600080fd5b87518951146106bf57600080fd5b6106c98a34611173565b6106d1610ea0565b600160a060020a03166108fc349081150290604051600060405180830381858888f19350505050158015610709573d6000803e3d6000fd5b5060009350600092505b88518310156107c257610754898481518110151561072d57fe5b90602001906020020151898581518110151561074557fe5b90602001906020020151611173565b61078d8a8a8581518110151561076657fe5b906020019060200201518a8681518110151561077e57fe5b906020019060200201516111bc565b6107b5888481518110151561079e57fe5b60209081029091010151859063ffffffff61125516565b9350600190920191610713565b6107db866107cf89610c12565b9063ffffffff61125516565b91506107e56108bc565b90506000821180156107ff5750600160a060020a03811615155b1561082c5761080e8183611173565b6108198a82846111bc565b610829848363ffffffff61125516565b93505b6108368a8561126f565b600194505b5050505095945050505050565b600080821161085657600080fd5b61086033836112a4565b92915050565b81600160a060020a031661087861139a565b600160a060020a03167fd1c19fbcd4551a5edfb66d43d2e337c04837afda3482b42bdf569a8fccdae5fb836040518082815260200191505060405180910390a35050565b60006108cf81600663ffffffff61139e16565b905090565b6008805460408051602060026001851615610100026000190190941693909304601f8101849004840282018401909252818152929183018282801561095a5780601f1061092f5761010080835404028352916020019161095a565b820191906000526020600020905b81548152906001019060200180831161093d57829003601f168201915b505050505081565b61096a61139a565b60408051600160a060020a0386811682528581166020830152818301859052915192909116917f769254a71d2f67d8ac6cb44f2803c0d05cfbcf9effadb6a984f10ff9de3df6c39181900360600190a2505050565b604080516001808252818301909252600091606091829160208083019080388339019050509150858260008151811015156109f657fe5b600160a060020a039290921660209283029190910182015260408051600180825281830190925291828101908038833901905050905034816000815181101515610a3c57fe5b60209081029091010152610a53878383888861063b565b979650505050505050565b6000610a7633600035600160e060020a03191661105c565b1515610ab95760408051308152336020820152600160e060020a0319600035168183015290516000805160206119cc8339815191529181900360600190a16105a9565b6127108210610ac757600080fd5b610ada600060078463ffffffff61141216565b610ae38261148d565b506001919050565b6000610b0333600035600160e060020a03191661105c565b1515610b465760408051308152336020820152600160e060020a0319600035168183015290516000805160206119cc8339815191529181900360600190a16105a9565b610ae3600060048463ffffffff6114f816565b6000610b7133600035600160e060020a03191661105c565b1515610bb45760408051308152336020820152600160e060020a0319600035168183015290516000805160206119cc8339815191529181900360600190a16105a9565b610ae3600060068463ffffffff6114f816565b610bcf61139a565b600160a060020a03167f09e0713b45664e161c202b19bb4574ee83dfa056f9bfdee56847b3971d968221826040518082815260200191505060405180910390a250565b600080610c2d610c20610d03565b849063ffffffff61157416565b9050612710810615610c40576001610c43565b60005b60ff1661271082040191505b50919050565b600160a060020a03163190565b610c6a61139a565b600160a060020a03167f92e6908704698649c7a3742faeecb2d2cdef5264a5bf9bebbaa5e4b06d367316826040518082815260200191505060405180910390a250565b81600160a060020a0316610cbf61139a565b600160a060020a03167f8752a472e571a816aea92eec8dae9baf628e840f4929fbcc2d155e6233ff68a7836040518082815260200191505060405180910390a35050565b60006108cf81600763ffffffff61159816565b6000806000806000610d3433600035600160e060020a03191661105c565b1515610d775760408051308152336020820152600160e060020a0319600035168183015290516000805160206119cc8339815191529181900360600190a1610e91565b600160a060020a038c161515610d8c57600080fd5b610d968b8b611173565b610da18c8c8c6111bc565b8515610dbd57610db18b8b6112a4565b600114610dbd57600080fd5b899350610dcd876107cf8a610c12565b9250610dd76108bc565b9150600083118015610df15750600160a060020a03821615155b15610e1e57610e008284611173565b610e0b8c83856111bc565b610e1b848463ffffffff61125516565b93505b610e3784610e2b8e611024565b9063ffffffff61160c16565b90508015610e8257610e498982611173565b610e548c8a836111bc565b610e64848263ffffffff61125516565b93508515610e8257610e7689826112a4565b600114610e8257600080fd5b610e8c8c8561126f565b600194505b50505050979650505050505050565b60006108cf81600463ffffffff61139e16565b6000610ecb33600035600160e060020a03191661105c565b1515610f0e5760408051308152336020820152600160e060020a0319600035168183015290516000805160206119cc8339815191529181900360600190a1610fce565b604080517fd63fb44e000000000000000000000000000000000000000000000000000000008152600160a060020a038981166004830152888116602483015260448201889052861660648201526084810185905260a48101849052600060c482018190529151309263d63fb44e9260e480820193602093909283900390910190829087803b158015610f9f57600080fd5b505af1158015610fb3573d6000803e3d6000fd5b505050506040513d6020811015610fc957600080fd5b505190505b9695505050505050565b600080808311610fe757600080fd5b610fef6108bc565b9050600160a060020a03811615156110135761100c613a9b61161e565b9150610c4f565b61101d81846112a4565b9392505050565b60006108608160058463ffffffff61168e16565b600254600090600160a060020a03168015156110545730611056565b805b91505090565b6000600160a060020a03831630141561107757506001610860565b600354600160a060020a0316151561109157506000610860565b600354604080517fb7009613000000000000000000000000000000000000000000000000000000008152600160a060020a038681166004830152306024830152600160e060020a0319861660448301529151919092169163b70096139160648083019260209291908290030181600087803b15801561110f57600080fd5b505af1158015611123573d6000803e3d6000fd5b505050506040513d602081101561113957600080fd5b50519392505050565b60028054600160a060020a03831673ffffffffffffffffffffffffffffffffffffffff199091161790556001919050565b600160a060020a038216151561118857600080fd5b6000811161119557600080fd5b6111b86005836111a8846107cf87611024565b600092919063ffffffff6116ac16565b5050565b6111c4611038565b604080517f5825b75b000000000000000000000000000000000000000000000000000000008152600160a060020a03868116600483015285811660248301526044820185905291519290911691635825b75b9160648082019260009290919082900301818387803b15801561123857600080fd5b505af115801561124c573d6000803e3d6000fd5b50505050505050565b60008282018381101561126457fe5b8091505b5092915050565b600160a060020a038216151561128457600080fd5b6000811161129157600080fd5b6111b86005836111a884610e2b87611024565b600080826112b185611024565b10156112c9576112c2613a9961161e565b9150611268565b6112d1610ea0565b905080600160a060020a0316634782f77985856040518363ffffffff1660e060020a0281526004018083600160a060020a0316600160a060020a0316815260200182815260200192505050602060405180830381600087803b15801561133657600080fd5b505af115801561134a573d6000803e3d6000fd5b505050506040513d602081101561136057600080fd5b50511515611373576112c2613a9a61161e565b6113866005856111a886610e2b89611024565b61139084846116c7565b5060019392505050565b3390565b815460018301548254604080517fd3a396860000000000000000000000000000000000000000000000000000000081526004810193909352602483019190915251600092600160a060020a03169163d3a3968691604480830192602092919082900301818787803b15801561110f57600080fd5b825460018401548354604080517f53e7168b000000000000000000000000000000000000000000000000000000008152600481019390935260248301919091526044820184905251600160a060020a03909216916353e7168b9160648082019260009290919082900301818387803b15801561123857600080fd5b611495611038565b600160a060020a031663a2dd0464826040518263ffffffff1660e060020a02815260040180828152602001915050600060405180830381600087803b1580156114dd57600080fd5b505af11580156114f1573d6000803e3d6000fd5b5050505050565b825460018401548354604080517f79a7cfee00000000000000000000000000000000000000000000000000000000815260048101939093526024830191909152600160a060020a03848116604484015290519216916379a7cfee9160648082019260009290919082900301818387803b15801561123857600080fd5b6000828202831580611590575082848281151561158d57fe5b04145b151561126457fe5b815460018301548254604080517f53aa3f5e0000000000000000000000000000000000000000000000000000000081526004810193909352602483019190915251600092600160a060020a0316916353aa3f5e91604480830192602092919082900301818787803b15801561110f57600080fd5b60008282111561161857fe5b50900390565b6000611628611038565b600160a060020a0316638834277e836040518263ffffffff1660e060020a02815260040180828152602001915050600060405180830381600087803b15801561167057600080fd5b505af1158015611684573d6000803e3d6000fd5b5093949350505050565b60006116a48484600160a060020a03851661174d565b949350505050565b6116c18484600160a060020a0385168461185d565b50505050565b6116cf611038565b600160a060020a03166341cbec0983836040518363ffffffff1660e060020a0281526004018083600160a060020a0316600160a060020a0316815260200182815260200192505050600060405180830381600087803b15801561173157600080fd5b505af1158015611745573d6000803e3d6000fd5b505050505050565b825460018401548354604080516020808201939093528082018690528151808203830181526060909101918290528051600095600160a060020a0316946337d9d7fc9490939182918401908083835b602083106117bb5780518252601f19909201916020918201910161179c565b51815160209384036101000a60001901801990921691161790526040805192909401829003822063ffffffff891660e060020a028352600483019790975260248201969096529151604480840196955090935091839003909101905081600087803b15801561182957600080fd5b505af115801561183d573d6000803e3d6000fd5b505050506040513d602081101561185357600080fd5b5051949350505050565b835460018501548454604080516020808201939093528082018790528151808203830181526060909101918290528051600160a060020a039095169463a14ff85794939192918291908401908083835b602083106118cc5780518252601f1990920191602091820191016118ad565b5181516020939093036101000a60001901801990911692169190911790526040805191909301819003812063ffffffff881660e060020a02825260048201969096526024810195909552506044840187905251606480850194600094509192509082900301818387803b15801561194257600080fd5b505af1158015611956573d6000803e3d6000fd5b5050505050505050565b825473ffffffffffffffffffffffffffffffffffffffff1916600160a060020a0392909216919091178255600190910155565b815461199f90826119b5565b9055565b6111b88282611993565b815461199f90825b811515806119c1575080155b156111b857600080fd005133a133185f1023427a2e90f18506b27db994977ce0c0faafd514a7dd109ae0a165627a7a72305820479c5a7aa9d3ecebd5b4bbe177030b8fc844d9ce1abc744571175d7ef8f455760029",
  "source": "/**\n * Copyright 20172018, LaborX PTY\n * Licensed under the AGPL Version 3 license.\n */\n\npragma solidity ^0.4.21;\n\nimport \"solidity-storage-lib/contracts/StorageAdapter.sol\";\nimport \"solidity-roles-lib/contracts/Roles2LibraryAdapter.sol\";\nimport \"solidity-eventshistory-lib/contracts/MultiEventsHistoryAdapter.sol\";\nimport \"./libs/SafeMath.sol\";\n\n\ncontract ERC20BalanceInterface {\n    function balanceOf(address _address) public view returns(uint);\n}\n\n\ncontract BalanceHolderInterface {\n    function deposit(address _from, uint _value, address _contract) public returns (bool);\n    function withdraw(address _to, uint _value, address _contract) public returns (bool);\n    function withdrawETH(address _to, uint _amount) external returns (bool);\n}\n\ncontract PaymentGateway is StorageAdapter, MultiEventsHistoryAdapter, Roles2LibraryAdapter {\n\n    using SafeMath for uint;\n\n    uint constant PAYMENT_GATEWAY_SCOPE = 15000;\n    uint constant PAYMENT_GATEWAY_INSUFFICIENT_BALANCE = PAYMENT_GATEWAY_SCOPE + 1;\n    uint constant PAYMENT_GATEWAY_TRANSFER_FAILED = PAYMENT_GATEWAY_SCOPE + 2;\n    uint constant PAYMENT_GATEWAY_NO_FEE_ADDRESS_DESTINATION = PAYMENT_GATEWAY_SCOPE + 3;\n\n    event FeeSet(address indexed self, uint feePercent);\n    event Deposited(address indexed self, address indexed by, uint value);\n    event Withdrawn(address indexed self, address indexed by, uint value);\n    event Transferred(address indexed self, address from, address to, uint value);\n\n    StorageInterface.Address balanceHolder;\n    StorageInterface.AddressUIntMapping balances; // contract => user => balance\n    StorageInterface.Address feeAddress;\n    StorageInterface.UInt fees; // 10000 is 100%.\n\n    string public version = \"v0.0.1\";\n\n    constructor(\n        Storage _store,\n        bytes32 _crate,\n        address _roles2Library\n    )\n    StorageAdapter(_store, _crate)\n    Roles2LibraryAdapter(_roles2Library)\n    public\n    {\n        balanceHolder.init('balanceHolder');\n        balances.init('balances');\n        feeAddress.init('feeAddress');\n        fees.init('fees');\n    }\n\n    function setupEventsHistory(address _eventsHistory) auth external returns (uint) {\n        require(_eventsHistory != 0x0);\n\n        _setEventsHistory(_eventsHistory);\n        return OK;\n    }\n\n    function setBalanceHolder(address _balanceHolder) auth external returns (uint) {  // only owner\n        store.set(balanceHolder, _balanceHolder);\n        return OK;\n    }\n\n    function setFeeAddress(address _feeAddress)\n    external\n    auth\n    returns (uint)\n    {\n        store.set(feeAddress, _feeAddress);\n        return OK;\n    }\n\n    function setFeePercent(uint _feePercent)\n    external\n    auth\n    returns (uint)\n    {\n        require(_feePercent < 10000);\n\n        store.set(fees, _feePercent);\n        _emitFeeSet(_feePercent);\n        return OK;\n    }\n\n    function getFeePercent()\n    public\n    view\n    returns (uint)\n    {\n        return store.get(fees);\n    }\n\n    function withdraw(uint _value) public returns (uint) {\n        require(_value > 0);\n\n        return _withdraw(msg.sender, _value);\n    }\n\n    function _withdraw(address _from, uint _value) internal returns (uint) {\n        if (getBalance(_from) < _value) {\n            return _emitErrorCode(PAYMENT_GATEWAY_INSUFFICIENT_BALANCE);\n        }\n\n        BalanceHolderInterface _balanceHolder = getBalanceHolder();\n        if (!_balanceHolder.withdrawETH(_from, _value)) {\n            return _emitErrorCode(PAYMENT_GATEWAY_TRANSFER_FAILED);\n        }\n\n        store.set(balances, _from, getBalance(_from).sub(_value));\n\n        _emitWithdrawn(_from, _value);\n        return OK;\n    }\n\n    function transferWithFee(\n        address _from,\n        address _to,\n        uint _feeFromValue,\n        uint _additionalFee\n    )\n    public\n    payable\n    returns (uint)\n    {\n        address[] memory toArray = new address[](1);\n        toArray[0] = _to;\n        uint[] memory valueArray = new uint[](1);\n        valueArray[0] = msg.value;\n        return transferToMany(_from, toArray, valueArray, _feeFromValue, _additionalFee);\n    }\n\n    function transferToMany(\n        address _from,\n        address[] _to,\n        uint[] _value,\n        uint _feeFromValue,\n        uint _additionalFee\n    )\n    auth\n    public\n    payable\n    returns (uint)\n    {\n        require(_from != 0x0);\n        require(_to.length == _value.length);\n\n        _addBalance(_from, msg.value);\n        address(getBalanceHolder()).transfer(msg.value);\n\n         uint _total = 0;\n        for (uint i = 0; i < _to.length; i++) {\n            _addBalance(_to[i], _value[i]);\n            _emitTransferred(_from, _to[i], _value[i]);\n            _total = _total.add(_value[i]);\n        }\n\n        uint _fee = calculateFee(_feeFromValue).add(_additionalFee);\n        address _feeAddress = getFeeAddress();\n        if (_fee > 0 && _feeAddress != 0x0) {\n            _addBalance(_feeAddress, _fee);\n            _emitTransferred(_from, _feeAddress, _fee);\n            _total = _total.add(_fee);\n        }\n\n        _subBalance(_from, _total);\n\n        return OK;\n    }\n\n    function transferAll(\n        address _from,\n        address _to,\n        uint _value,\n        address _change,\n        uint _feeFromValue,\n        uint _additionalFee\n    )\n    auth\n    external\n    returns (uint)\n    {\n        return this.transferAllAndWithdraw(\n            _from,\n            _to,\n            _value,\n            _change,\n            _feeFromValue,\n            _additionalFee,\n            false\n        );\n    }\n\n    function transferAllAndWithdraw(\n        address _from,\n        address _to,\n        uint _value,\n        address _change,\n        uint _feeFromValue,\n        uint _additionalFee,\n        bool _shouldWithdraw\n    )\n    auth\n    external\n    returns (uint)\n    {\n        require(_from != 0x0);\n\n        _addBalance(_to, _value);\n        _emitTransferred(_from, _to, _value);\n\n        if (_shouldWithdraw) {\n            require(OK == _withdraw(_to, _value));\n        }\n        \n        uint _total = _value;\n        uint _fee = calculateFee(_feeFromValue).add(_additionalFee);\n        address _feeAddress = getFeeAddress();\n        if (_fee > 0 && _feeAddress != 0x0) {\n            _addBalance(_feeAddress, _fee);\n            _emitTransferred(_from, _feeAddress, _fee);\n            _total = _total.add(_fee);\n        }\n\n        uint _changeAmount = getBalance(_from).sub(_total);\n        if (_changeAmount != 0) {\n            _addBalance(_change, _changeAmount);\n            _emitTransferred(_from, _change, _changeAmount);\n            _total = _total.add(_changeAmount);\n            \n            if (_shouldWithdraw) {\n                require(OK == _withdraw(_change, _changeAmount));\n            }\n        }\n\n        _subBalance(_from, _total);\n\n        return OK;\n    }\n\n    /* function transferFromMany(\n        address[] _from,\n        address _to,\n        uint[] _value\n    )\n    auth\n    external\n    returns (uint)\n    {\n        require(_to != 0x0);\n        require(_from.length == _value.length);\n\n        uint _total = 0;\n        for (uint i = 0; i < _from.length; i++) {\n            _subBalance(_from[i], _value[i]);\n            _emitTransferred(_from[i], _to, _value[i]);\n            _total = _total.add(_value[i]);\n        }\n\n        _addBalance(_to, _total);\n\n        return OK;\n    } */\n\n    // TODO\n    function forwardFee(uint _value)\n    public\n    returns (uint)\n    {\n        require(_value > 0);\n\n        address _feeAddress = getFeeAddress();\n        if (_feeAddress == 0x0) {\n            return _emitErrorCode(PAYMENT_GATEWAY_NO_FEE_ADDRESS_DESTINATION);\n        }\n\n        return _withdraw(_feeAddress, _value);\n    }\n\n    function getBalance(address _address)\n    public\n    view\n    returns(uint)\n    {\n        return store.get(balances, _address);\n    }\n\n    function getBalanceOf(address _address)\n    public\n    view\n    returns(uint)\n    {\n        return address(_address).balance;\n    }\n\n    function calculateFee(uint _value)\n    public\n    view\n    returns (uint)\n    {\n        uint feeRaw = _value.mul(getFeePercent());\n        return (feeRaw / 10000) + (feeRaw % 10000 == 0 ? 0 : 1);\n    }\n\n    function getFeeAddress() public view returns(address) {\n        return store.get(feeAddress);\n    }\n\n    function getBalanceHolder() public view returns(BalanceHolderInterface) {\n        return BalanceHolderInterface(store.get(balanceHolder));\n    }\n\n    // HELPERS\n\n    function _addBalance(address _to, uint _value) internal {\n        require(_to != 0x0);\n        require(_value > 0);\n\n        store.set(balances, _to, getBalance(_to).add(_value));\n    }\n\n    function _subBalance(address _from, uint _value) internal {\n        require(_from != 0x0);\n        require(_value > 0);\n\n        store.set(balances, _from, getBalance(_from).sub(_value));\n    }\n\n    // EVENTS\n\n    function _emitFeeSet(uint _feePercent) internal {\n        PaymentGateway(getEventsHistory()).emitFeeSet(_feePercent);\n    }\n\n    function _emitDeposited(address _by, uint _value) internal {\n        PaymentGateway(getEventsHistory()).emitDeposited(_by, _value);\n    }\n\n    function _emitWithdrawn(address _by, uint _value) internal {\n        PaymentGateway(getEventsHistory()).emitWithdrawn(_by, _value);\n    }\n\n    function _emitTransferred(address _from, address _to, uint _value) internal {\n        PaymentGateway(getEventsHistory()).emitTransferred(_from, _to, _value);\n    }\n\n    function emitFeeSet(uint _feePercent) public {\n        emit FeeSet(_self(), _feePercent);\n    }\n\n    function emitDeposited(address _by, uint _value) public {\n        emit Deposited(_self(), _by, _value);\n    }\n\n    function emitWithdrawn(address _by, uint _value) public {\n        emit Withdrawn(_self(), _by, _value);\n    }\n\n    function emitTransferred(address _from, address _to, uint _value) public {\n        emit Transferred(_self(), _from, _to, _value);\n    }\n\n}\n",
  "sourcePath": "/Users/alesanro/Documents/Projects/ChronoBank/LX-SC/contracts/PaymentGateway.sol",
  "compiler": {
    "name": "solc",
    "version": "0.4.24+commit.e67f0147.Emscripten.clang"
  },
  "schemaVersion": "2.0.1",
  "updatedAt": "2018-07-20T10:51:35.351Z"
}