{
  "contractName": "Recovery",
  "abi": [
    {
      "constant": false,
      "inputs": [
        {
          "name": "_roles2Library",
          "type": "address"
        }
      ],
      "name": "setRoles2Library",
      "outputs": [
        {
          "name": "",
          "type": "uint256"
        }
      ],
      "payable": false,
      "stateMutability": "nonpayable",
      "type": "function"
    },
    {
      "inputs": [
        {
          "name": "_roles2Library",
          "type": "address"
        }
      ],
      "payable": false,
      "stateMutability": "nonpayable",
      "type": "constructor"
    },
    {
      "anonymous": false,
      "inputs": [
        {
          "indexed": false,
          "name": "prevUser",
          "type": "address"
        },
        {
          "indexed": false,
          "name": "newUser",
          "type": "address"
        },
        {
          "indexed": false,
          "name": "userContract",
          "type": "address"
        }
      ],
      "name": "UserRecovered",
      "type": "event"
    },
    {
      "anonymous": false,
      "inputs": [
        {
          "indexed": false,
          "name": "code",
          "type": "address"
        },
        {
          "indexed": false,
          "name": "sender",
          "type": "address"
        },
        {
          "indexed": false,
          "name": "sig",
          "type": "bytes4"
        }
      ],
      "name": "AuthFailedError",
      "type": "event"
    },
    {
      "constant": false,
      "inputs": [
        {
          "name": "_userContract",
          "type": "address"
        },
        {
          "name": "_newAddress",
          "type": "address"
        }
      ],
      "name": "recoverUser",
      "outputs": [
        {
          "name": "",
          "type": "uint256"
        }
      ],
      "payable": false,
      "stateMutability": "nonpayable",
      "type": "function"
    }
  ],
  "bytecode": "0x608060405234801561001057600080fd5b50604051602080610512833981016040525180600160a060020a038116151561003857600080fd5b60008054600160a060020a03909216600160a060020a0319909216919091179055506104a9806100696000396000f30060806040526004361061004b5763ffffffff7c01000000000000000000000000000000000000000000000000000000006000350416632637cd7d8114610050578063722c180914610083575b600080fd5b34801561005c57600080fd5b50610071600160a060020a03600435166100aa565b60408051918252519081900360200190f35b34801561008f57600080fd5b50610071600160a060020a0360043581169060243516610148565b60006100c233600035600160e060020a031916610392565b15156101175760408051308152336020820152600160e060020a0319600035168183015290517f5133a133185f1023427a2e90f18506b27db994977ce0c0faafd514a7dd109ae09181900360600190a1610143565b506000805473ffffffffffffffffffffffffffffffffffffffff1916600160a060020a03831617905560015b919050565b60008061016133600035600160e060020a031916610392565b15156101b65760408051308152336020820152600160e060020a0319600035168183015290517f5133a133185f1023427a2e90f18506b27db994977ce0c0faafd514a7dd109ae09181900360600190a161038b565b83600160a060020a031663ce606ee06040518163ffffffff167c0100000000000000000000000000000000000000000000000000000000028152600401602060405180830381600087803b15801561020d57600080fd5b505af1158015610221573d6000803e3d6000fd5b505050506040513d602081101561023757600080fd5b5051604080517f35f2507f000000000000000000000000000000000000000000000000000000008152600160a060020a0386811660048301529151929350908616916335f2507f916024808201926020929091908290030181600087803b1580156102a157600080fd5b505af11580156102b5573d6000803e3d6000fd5b505050506040513d60208110156102cb57600080fd5b505160011461033b57604080517f08c379a000000000000000000000000000000000000000000000000000000000815260206004820152601f60248201527f43616e6e6f74207265636f76657220746f2061206e6577206164647265737300604482015290519081900360640190fd5b60408051600160a060020a038084168252808616602083015286168183015290517f1bc347db794ec96af040fff840bc12e98879673178c6772929e57cc5abc6a5719181900360600190a1600191505b5092915050565b6000600160a060020a0383163014156103ad57506001610477565b600054600160a060020a031615156103c757506000610477565b60008054604080517fb7009613000000000000000000000000000000000000000000000000000000008152600160a060020a038781166004830152306024830152600160e060020a0319871660448301529151919092169263b700961392606480820193602093909283900390910190829087803b15801561044857600080fd5b505af115801561045c573d6000803e3d6000fd5b505050506040513d602081101561047257600080fd5b505190505b929150505600a165627a7a723058200772e18c4d770f0eddc72f630bfbd12e5db2ede8a87c538b34f85ce78ec3c0750029",
  "source": "/**\n * Copyright 2017–2018, LaborX PTY\n * Licensed under the AGPL Version 3 license.\n */\n\npragma solidity ^0.4.23;\n\n\nimport \"solidity-shared-lib/contracts/Owned.sol\";\nimport \"solidity-roles-lib/contracts/Roles2LibraryAdapter.sol\";\nimport \"./UserInterface.sol\";\n\n\n/// @title Provides centralized point to recovery function through smart contract functionality.\n/// Instead of using different recovery addresses for each user Recovery organizes moderated\n/// way (with the help of Roles2Library contract) to recover users.\ncontract Recovery is Roles2LibraryAdapter {\n\n    uint constant RECOVERY_SCOPE = 19000;\n\n    event UserRecovered(address prevUser, address newUser, UserInterface userContract);\n\n    constructor(address _roles2Library) Roles2LibraryAdapter(_roles2Library) public {}\n\n    /// @notice Recovers provided user to a new contract owner\n    /// Allowed only for authorized roles.\n    /// Emits UserRecovered event.\n    /// @param _userContract user contract address that is compatible with UserInterface interface\n    /// @param _newAddress address of a new contract owner\n    /// @return result of an operation\n    function recoverUser(UserInterface _userContract, address _newAddress) \n    auth \n    public \n    returns (uint) \n    {\n        address prev = Owned(_userContract).contractOwner();\n        if (OK != _userContract.recoverUser(_newAddress)) {\n            revert(\"Cannot recover to a new address\");\n        }\n\n        emit UserRecovered(prev, _newAddress, _userContract);\n        return OK;\n    }\n\n}\n",
  "sourcePath": "solidity-user-lib/contracts/Recovery.sol",
  "compiler": {
    "name": "solc",
    "version": "0.4.24+commit.e67f0147.Emscripten.clang"
  },
  "schemaVersion": "2.0.1",
  "updatedAt": "2018-09-18T15:43:35.406Z"
}