{
  "contractName": "Roles2Library",
  "abi": [
    {
      "constant": false,
      "inputs": [],
      "name": "claimContractOwnership",
      "outputs": [
        {
          "name": "",
          "type": "bool"
        }
      ],
      "payable": false,
      "stateMutability": "nonpayable",
      "type": "function"
    },
    {
      "constant": false,
      "inputs": [
        {
          "name": "_to",
          "type": "address"
        }
      ],
      "name": "changeContractOwnership",
      "outputs": [
        {
          "name": "",
          "type": "bool"
        }
      ],
      "payable": false,
      "stateMutability": "nonpayable",
      "type": "function"
    },
    {
      "constant": true,
      "inputs": [],
      "name": "pendingContractOwner",
      "outputs": [
        {
          "name": "",
          "type": "address"
        }
      ],
      "payable": false,
      "stateMutability": "view",
      "type": "function"
    },
    {
      "constant": false,
      "inputs": [
        {
          "name": "tokens",
          "type": "address[]"
        }
      ],
      "name": "withdrawTokens",
      "outputs": [],
      "payable": false,
      "stateMutability": "nonpayable",
      "type": "function"
    },
    {
      "constant": false,
      "inputs": [],
      "name": "withdrawEther",
      "outputs": [],
      "payable": false,
      "stateMutability": "nonpayable",
      "type": "function"
    },
    {
      "constant": false,
      "inputs": [
        {
          "name": "_errorCode",
          "type": "uint256"
        }
      ],
      "name": "emitErrorCode",
      "outputs": [],
      "payable": false,
      "stateMutability": "nonpayable",
      "type": "function"
    },
    {
      "constant": true,
      "inputs": [],
      "name": "contractOwner",
      "outputs": [
        {
          "name": "",
          "type": "address"
        }
      ],
      "payable": false,
      "stateMutability": "view",
      "type": "function"
    },
    {
      "constant": false,
      "inputs": [
        {
          "name": "newOwner",
          "type": "address"
        }
      ],
      "name": "transferOwnership",
      "outputs": [
        {
          "name": "",
          "type": "bool"
        }
      ],
      "payable": false,
      "stateMutability": "nonpayable",
      "type": "function"
    },
    {
      "constant": true,
      "inputs": [],
      "name": "getEventsHistory",
      "outputs": [
        {
          "name": "",
          "type": "address"
        }
      ],
      "payable": false,
      "stateMutability": "view",
      "type": "function"
    },
    {
      "inputs": [
        {
          "name": "_store",
          "type": "address"
        },
        {
          "name": "_crate",
          "type": "bytes32"
        }
      ],
      "payable": false,
      "stateMutability": "nonpayable",
      "type": "constructor"
    },
    {
      "anonymous": false,
      "inputs": [
        {
          "indexed": true,
          "name": "self",
          "type": "address"
        },
        {
          "indexed": true,
          "name": "user",
          "type": "address"
        },
        {
          "indexed": true,
          "name": "role",
          "type": "uint8"
        }
      ],
      "name": "RoleAdded",
      "type": "event"
    },
    {
      "anonymous": false,
      "inputs": [
        {
          "indexed": true,
          "name": "self",
          "type": "address"
        },
        {
          "indexed": true,
          "name": "user",
          "type": "address"
        },
        {
          "indexed": true,
          "name": "role",
          "type": "uint8"
        }
      ],
      "name": "RoleRemoved",
      "type": "event"
    },
    {
      "anonymous": false,
      "inputs": [
        {
          "indexed": true,
          "name": "self",
          "type": "address"
        },
        {
          "indexed": true,
          "name": "code",
          "type": "address"
        },
        {
          "indexed": false,
          "name": "sig",
          "type": "bytes4"
        },
        {
          "indexed": true,
          "name": "role",
          "type": "uint8"
        }
      ],
      "name": "CapabilityAdded",
      "type": "event"
    },
    {
      "anonymous": false,
      "inputs": [
        {
          "indexed": true,
          "name": "self",
          "type": "address"
        },
        {
          "indexed": true,
          "name": "code",
          "type": "address"
        },
        {
          "indexed": false,
          "name": "sig",
          "type": "bytes4"
        },
        {
          "indexed": true,
          "name": "role",
          "type": "uint8"
        }
      ],
      "name": "CapabilityRemoved",
      "type": "event"
    },
    {
      "anonymous": false,
      "inputs": [
        {
          "indexed": true,
          "name": "self",
          "type": "address"
        },
        {
          "indexed": true,
          "name": "code",
          "type": "address"
        },
        {
          "indexed": false,
          "name": "sig",
          "type": "bytes4"
        }
      ],
      "name": "PublicCapabilityAdded",
      "type": "event"
    },
    {
      "anonymous": false,
      "inputs": [
        {
          "indexed": true,
          "name": "self",
          "type": "address"
        },
        {
          "indexed": true,
          "name": "code",
          "type": "address"
        },
        {
          "indexed": false,
          "name": "sig",
          "type": "bytes4"
        }
      ],
      "name": "PublicCapabilityRemoved",
      "type": "event"
    },
    {
      "anonymous": false,
      "inputs": [
        {
          "indexed": true,
          "name": "self",
          "type": "address"
        },
        {
          "indexed": false,
          "name": "errorCode",
          "type": "uint256"
        }
      ],
      "name": "ErrorCode",
      "type": "event"
    },
    {
      "anonymous": false,
      "inputs": [
        {
          "indexed": true,
          "name": "previousOwner",
          "type": "address"
        },
        {
          "indexed": true,
          "name": "newOwner",
          "type": "address"
        }
      ],
      "name": "OwnershipTransferred",
      "type": "event"
    },
    {
      "constant": true,
      "inputs": [
        {
          "name": "_user",
          "type": "address"
        },
        {
          "name": "_code",
          "type": "address"
        },
        {
          "name": "_sig",
          "type": "bytes4"
        }
      ],
      "name": "canCall",
      "outputs": [
        {
          "name": "",
          "type": "bool"
        }
      ],
      "payable": false,
      "stateMutability": "view",
      "type": "function"
    },
    {
      "constant": false,
      "inputs": [
        {
          "name": "_eventsHistory",
          "type": "address"
        }
      ],
      "name": "setupEventsHistory",
      "outputs": [
        {
          "name": "",
          "type": "uint256"
        }
      ],
      "payable": false,
      "stateMutability": "nonpayable",
      "type": "function"
    },
    {
      "constant": true,
      "inputs": [
        {
          "name": "_user",
          "type": "address"
        }
      ],
      "name": "getUserRoles",
      "outputs": [
        {
          "name": "",
          "type": "bytes32"
        }
      ],
      "payable": false,
      "stateMutability": "view",
      "type": "function"
    },
    {
      "constant": true,
      "inputs": [
        {
          "name": "_user",
          "type": "address"
        }
      ],
      "name": "isUserRoot",
      "outputs": [
        {
          "name": "",
          "type": "bool"
        }
      ],
      "payable": false,
      "stateMutability": "view",
      "type": "function"
    },
    {
      "constant": true,
      "inputs": [
        {
          "name": "_user",
          "type": "address"
        },
        {
          "name": "_role",
          "type": "uint8"
        }
      ],
      "name": "hasUserRole",
      "outputs": [
        {
          "name": "",
          "type": "bool"
        }
      ],
      "payable": false,
      "stateMutability": "view",
      "type": "function"
    },
    {
      "constant": true,
      "inputs": [
        {
          "name": "_code",
          "type": "address"
        },
        {
          "name": "_sig",
          "type": "bytes4"
        }
      ],
      "name": "getCapabilityRoles",
      "outputs": [
        {
          "name": "",
          "type": "bytes32"
        }
      ],
      "payable": false,
      "stateMutability": "view",
      "type": "function"
    },
    {
      "constant": true,
      "inputs": [
        {
          "name": "_code",
          "type": "address"
        },
        {
          "name": "_sig",
          "type": "bytes4"
        }
      ],
      "name": "isCapabilityPublic",
      "outputs": [
        {
          "name": "",
          "type": "bool"
        }
      ],
      "payable": false,
      "stateMutability": "view",
      "type": "function"
    },
    {
      "constant": false,
      "inputs": [
        {
          "name": "_user",
          "type": "address"
        },
        {
          "name": "_enabled",
          "type": "bool"
        }
      ],
      "name": "setRootUser",
      "outputs": [
        {
          "name": "",
          "type": "uint256"
        }
      ],
      "payable": false,
      "stateMutability": "nonpayable",
      "type": "function"
    },
    {
      "constant": false,
      "inputs": [
        {
          "name": "_user",
          "type": "address"
        },
        {
          "name": "_role",
          "type": "uint8"
        }
      ],
      "name": "addUserRole",
      "outputs": [
        {
          "name": "",
          "type": "uint256"
        }
      ],
      "payable": false,
      "stateMutability": "nonpayable",
      "type": "function"
    },
    {
      "constant": false,
      "inputs": [
        {
          "name": "_user",
          "type": "address"
        },
        {
          "name": "_role",
          "type": "uint8"
        }
      ],
      "name": "removeUserRole",
      "outputs": [
        {
          "name": "",
          "type": "uint256"
        }
      ],
      "payable": false,
      "stateMutability": "nonpayable",
      "type": "function"
    },
    {
      "constant": false,
      "inputs": [
        {
          "name": "_code",
          "type": "address"
        },
        {
          "name": "_sig",
          "type": "bytes4"
        },
        {
          "name": "_enabled",
          "type": "bool"
        }
      ],
      "name": "setPublicCapability",
      "outputs": [
        {
          "name": "",
          "type": "uint256"
        }
      ],
      "payable": false,
      "stateMutability": "nonpayable",
      "type": "function"
    },
    {
      "constant": false,
      "inputs": [
        {
          "name": "_role",
          "type": "uint8"
        },
        {
          "name": "_code",
          "type": "address"
        },
        {
          "name": "_sig",
          "type": "bytes4"
        }
      ],
      "name": "addRoleCapability",
      "outputs": [
        {
          "name": "",
          "type": "uint256"
        }
      ],
      "payable": false,
      "stateMutability": "nonpayable",
      "type": "function"
    },
    {
      "constant": false,
      "inputs": [
        {
          "name": "_role",
          "type": "uint8"
        },
        {
          "name": "_code",
          "type": "address"
        },
        {
          "name": "_sig",
          "type": "bytes4"
        }
      ],
      "name": "removeRoleCapability",
      "outputs": [
        {
          "name": "",
          "type": "uint256"
        }
      ],
      "payable": false,
      "stateMutability": "nonpayable",
      "type": "function"
    },
    {
      "constant": false,
      "inputs": [
        {
          "name": "_user",
          "type": "address"
        },
        {
          "name": "_role",
          "type": "uint8"
        }
      ],
      "name": "emitRoleAdded",
      "outputs": [],
      "payable": false,
      "stateMutability": "nonpayable",
      "type": "function"
    },
    {
      "constant": false,
      "inputs": [
        {
          "name": "_user",
          "type": "address"
        },
        {
          "name": "_role",
          "type": "uint8"
        }
      ],
      "name": "emitRoleRemoved",
      "outputs": [],
      "payable": false,
      "stateMutability": "nonpayable",
      "type": "function"
    },
    {
      "constant": false,
      "inputs": [
        {
          "name": "_code",
          "type": "address"
        },
        {
          "name": "_sig",
          "type": "bytes4"
        },
        {
          "name": "_role",
          "type": "uint8"
        }
      ],
      "name": "emitCapabilityAdded",
      "outputs": [],
      "payable": false,
      "stateMutability": "nonpayable",
      "type": "function"
    },
    {
      "constant": false,
      "inputs": [
        {
          "name": "_code",
          "type": "address"
        },
        {
          "name": "_sig",
          "type": "bytes4"
        },
        {
          "name": "_role",
          "type": "uint8"
        }
      ],
      "name": "emitCapabilityRemoved",
      "outputs": [],
      "payable": false,
      "stateMutability": "nonpayable",
      "type": "function"
    },
    {
      "constant": false,
      "inputs": [
        {
          "name": "_code",
          "type": "address"
        },
        {
          "name": "_sig",
          "type": "bytes4"
        }
      ],
      "name": "emitPublicCapabilityAdded",
      "outputs": [],
      "payable": false,
      "stateMutability": "nonpayable",
      "type": "function"
    },
    {
      "constant": false,
      "inputs": [
        {
          "name": "_code",
          "type": "address"
        },
        {
          "name": "_sig",
          "type": "bytes4"
        }
      ],
      "name": "emitPublicCapabilityRemoved",
      "outputs": [],
      "payable": false,
      "stateMutability": "nonpayable",
      "type": "function"
    }
  ],
  "bytecode": "0x60806040523480156200001157600080fd5b5060405160408062001aa383398101604052805160209091015181816200004960008383640100000000620018276200015182021704565b505060028054600160a060020a031916331790556200009860057f726f6f74557365727300000000000000000000000000000000000000000000006401000000006200185a6200017782021704565b620000d360067f75736572526f6c657300000000000000000000000000000000000000000000006401000000006200185a6200017782021704565b6200010e60077f6361706162696c697479526f6c657300000000000000000000000000000000006401000000006200185a6200017782021704565b6200014960087f7075626c69634361706162696c697469657300000000000000000000000000006401000000006200185a6200017782021704565b5050620001c3565b8254600160a060020a031916600160a060020a0392909216919091178255600190910155565b6200018c828264010000000062000190810204565b5050565b8154620001a79082640100000000620001ab810204565b9055565b81151580620001b8575080155b156200018c57600080fd5b6118d080620001d36000396000f30060806040526004361061014f5763ffffffff60e060020a600035041662a81ef6811461015457806302927d201461017d57806306a36aee146101b05780630a7a2fef146101d157806327538e90146102055780632f47571f146102335780634592cd1d14610275578063557f4bc91461028a578063588cff4c146102ab5780635aa77d3c146102d95780635ecb16cd1461030a5780637362377b1461035f5780637977f708146103745780638834277e146103a857806395725d8a146103c05780639a75aa06146103e75780639ae0140c14610415578063a078f73714610449578063b44f794f14610470578063b700961314610497578063c6b0263e146104cb578063ce606ee0146104fe578063d0d9e21d14610513578063d381ba7c14610547578063e1e092991461056d578063f2fde38b14610594578063fbf80773146105b5578063fff10aba146105d6575b600080fd5b34801561016057600080fd5b5061017b600160a060020a036004351660ff602435166105eb565b005b34801561018957600080fd5b5061019e600160a060020a036004351661063a565b60408051918252519081900360200190f35b3480156101bc57600080fd5b5061019e600160a060020a0360043516610664565b3480156101dd57600080fd5b5061017b600160a060020a0360043516600160e060020a03196024351660ff6044351661067e565b34801561021157600080fd5b5061019e600160a060020a0360043516600160e060020a0319602435166106e3565b34801561023f57600080fd5b50610261600160a060020a0360043516600160e060020a0319602435166106ff565b604080519115158252519081900360200190f35b34801561028157600080fd5b50610261610714565b34801561029657600080fd5b50610261600160a060020a03600435166107a9565b3480156102b757600080fd5b5061017b600160a060020a0360043516600160e060020a031960243516610809565b3480156102e557600080fd5b506102ee610869565b60408051600160a060020a039092168252519081900360200190f35b34801561031657600080fd5b506040805160206004803580820135838102808601850190965280855261017b953695939460249493850192918291850190849080828437509497506108789650505050505050565b34801561036b57600080fd5b5061017b610a01565b34801561038057600080fd5b5061019e60ff60043516600160a060020a0360243516600160e060020a031960443516610a62565b3480156103b457600080fd5b5061017b600435610a8d565b3480156103cc57600080fd5b5061017b600160a060020a036004351660ff60243516610ad8565b3480156103f357600080fd5b5061017b600160a060020a0360043516600160e060020a031960243516610b27565b34801561042157600080fd5b5061019e60ff60043516600160a060020a0360243516600160e060020a031960443516610b87565b34801561045557600080fd5b50610261600160a060020a036004351660ff60243516610bcc565b34801561047c57600080fd5b5061019e600160a060020a036004351660ff60243516610bea565b3480156104a357600080fd5b50610261600160a060020a0360043581169060243516600160e060020a031960443516610c54565b3480156104d757600080fd5b5061019e600160a060020a0360043516600160e060020a0319602435166044351515610c9a565b34801561050a57600080fd5b506102ee610e05565b34801561051f57600080fd5b5061017b600160a060020a0360043516600160e060020a03196024351660ff60443516610e14565b34801561055357600080fd5b5061019e600160a060020a03600435166024351515610e79565b34801561057957600080fd5b5061019e600160a060020a036004351660ff60243516610eac565b3480156105a057600080fd5b50610261600160a060020a0360043516610f0e565b3480156105c157600080fd5b50610261600160a060020a0360043516610fb2565b3480156105e257600080fd5b506102ee610fc6565b8060ff1682600160a060020a0316610601610fea565b600160a060020a03167f7577662ae5b32920f85a4b61fb99f5f5b9fd3f8e937ac15fe8b8a0a19e90fa0f60405160405180910390a45050565b600254600090600160a060020a031633141561065f5761065982610fee565b50600190505b919050565b60006106788160068463ffffffff61101f16565b92915050565b8060ff1683600160a060020a0316610694610fea565b60408051600160e060020a0319871681529051600160a060020a0392909216917ff820011dd31265ef4cfb8740f75367415191173d0f08b32fb5401d2a0dc1847b9181900360200190a4505050565b60006106f8816007858563ffffffff61103516565b9392505050565b60006106f8816008858563ffffffff61105f16565b600354600090600160a060020a03163314610731575060006107a6565b600354600254604051600160a060020a0392831692909116907f8be0079c531659141344cd1fd0a4f28419497f9722a3daafe3b4186f6b6457e090600090a350600380546002805473ffffffffffffffffffffffffffffffffffffffff19908116600160a060020a0384161790915516905560015b90565b600254600090600160a060020a031633141561065f57600160a060020a03821615156107d75750600061065f565b5060038054600160a060020a03831673ffffffffffffffffffffffffffffffffffffffff199091161790556001919050565b81600160a060020a031661081b610fea565b60408051600160e060020a0319851681529051600160a060020a0392909216917fe74cc03efe60f26af9bb6b27883577bbbd981555b1a070b15aace44960d0ef1f9181900360200190a35050565b600354600160a060020a031681565b600254600090819081908190600160a060020a03163314156109fa57600254600160a060020a03169350600092505b84518310156109fa5784838151811015156108be57fe5b6020908102909101810151604080517f70a082310000000000000000000000000000000000000000000000000000000081523060048201529051919450600160a060020a038516926370a08231926024808401938290030181600087803b15801561092857600080fd5b505af115801561093c573d6000803e3d6000fd5b505050506040513d602081101561095257600080fd5b5051905060008111156109ef5781600160a060020a031663a9059cbb85836040518363ffffffff1660e060020a0281526004018083600160a060020a0316600160a060020a0316815260200182815260200192505050602060405180830381600087803b1580156109c257600080fd5b505af11580156109d6573d6000803e3d6000fd5b505050506040513d60208110156109ec57600080fd5b50505b6001909201916108a7565b5050505050565b600254600090600160a060020a0316331415610a5f575030316000811115610a5f57600254604051600160a060020a039091169082156108fc029083906000818181858888f19350505050158015610a5d573d6000803e3d6000fd5b505b50565b600254600090600160a060020a03163314156106f857610a858484846001611088565b949350505050565b610a95610fea565b600160a060020a03167f09e0713b45664e161c202b19bb4574ee83dfa056f9bfdee56847b3971d968221826040518082815260200191505060405180910390a250565b8060ff1682600160a060020a0316610aee610fea565b600160a060020a03167faefc6303247f6e535a84463aeb8ae70719e1d40a8d6800dc8efa455b1e1fb33f60405160405180910390a45050565b81600160a060020a0316610b39610fea565b60408051600160e060020a0319851681529051600160a060020a0392909216917f67813b7923deedd38ecb1624185361da00646f2a5066850b99e5fddcec1708b49181900360200190a35050565b600254600090600160a060020a03163314156106f857610ba783836106e3565b1515610bbf57610bb8614e23611233565b90506106f8565b610a858484846000611088565b6000610bd7826112a3565b610be084610664565b1615159392505050565b600254600090600160a060020a03163314801590610c1c5750610c1a3330600035600160e060020a031916610c54565b155b15610c2657610678565b610c308383610bcc565b1515610c4857610c41614e23611233565b9050610678565b6106f8838360006112ac565b6000610c5f84610fb2565b80610c6f5750610c6f83836106ff565b15610c7c575060016106f8565b610c8683836106e3565b610c8f85610664565b161515949350505050565b600254600090600160a060020a03163314156106f857610cc56000600886868663ffffffff61143516565b8115610d6557610cd361145d565b604080517f9a75aa06000000000000000000000000000000000000000000000000000000008152600160a060020a038781166004830152600160e060020a03198716602483015291519290911691639a75aa069160448082019260009290919082900301818387803b158015610d4857600080fd5b505af1158015610d5c573d6000803e3d6000fd5b50505050610dfb565b610d6d61145d565b604080517f588cff4c000000000000000000000000000000000000000000000000000000008152600160a060020a038781166004830152600160e060020a0319871660248301529151929091169163588cff4c9160448082019260009290919082900301818387803b158015610de257600080fd5b505af1158015610df6573d6000803e3d6000fd5b505050505b5060019392505050565b600254600160a060020a031681565b8060ff1683600160a060020a0316610e2a610fea565b60408051600160e060020a0319871681529051600160a060020a0392909216917facf87e9240a04c36449fb09028711a68d4e3a4df32931c5df0dfc54acae520239181900360200190a4505050565b600254600090600160a060020a031633141561067857610ea360006005858563ffffffff61146c16565b50600192915050565b600254600090600160a060020a03163314801590610ede5750610edc3330600035600160e060020a031916610c54565b155b15610ee857610678565b610ef28383610bcc565b15610f0257610c41614e21611233565b6106f8838360016112ac565b600254600090600160a060020a031633141561065f57600160a060020a0382161515610f3c5750600061065f565b600254604051600160a060020a038085169216907f8be0079c531659141344cd1fd0a4f28419497f9722a3daafe3b4186f6b6457e090600090a35060028054600160a060020a03831673ffffffffffffffffffffffffffffffffffffffff19918216179091556003805490911690556001919050565b60006106788160058463ffffffff61148f16565b600454600090600160a060020a0316801515610fe25730610fe4565b805b91505090565b3390565b60048054600160a060020a03831673ffffffffffffffffffffffffffffffffffffffff199091161790556001919050565b6000610a858484600160a060020a0385166114a4565b60006110568585600160a060020a038616600160e060020a031986166115b4565b95945050505050565b60006110566110838686600160a060020a038716600160e060020a031987166115b4565b611642565b600080600061109786866106e3565b91506110a2876112a3565b90508315611164576110c160006007888886861763ffffffff61164716565b6110c961145d565b604080517fd0d9e21d000000000000000000000000000000000000000000000000000000008152600160a060020a038981166004830152600160e060020a03198916602483015260ff8b1660448301529151929091169163d0d9e21d9160648082019260009290919082900301818387803b15801561114757600080fd5b505af115801561115b573d6000803e3d6000fd5b50505050611226565b6111876007878761117485611667565b600093929190871663ffffffff61164716565b61118f61145d565b604080517f0a7a2fef000000000000000000000000000000000000000000000000000000008152600160a060020a038981166004830152600160e060020a03198916602483015260ff8b16604483015291519290911691630a7a2fef9160648082019260009290919082900301818387803b15801561120d57600080fd5b505af1158015611221573d6000803e3d6000fd5b505050505b5060019695505050505050565b600061123d610fc6565b600160a060020a0316638834277e836040518263ffffffff1660e060020a02815260040180828152602001915050600060405180830381600087803b15801561128557600080fd5b505af1158015611299573d6000803e3d6000fd5b5093949350505050565b60ff1660020a90565b60008060006112ba86610664565b91506112c5856112a3565b9050831561137a576112e3600060068885851763ffffffff61166e16565b6112eb61145d565b604080517f95725d8a000000000000000000000000000000000000000000000000000000008152600160a060020a03898116600483015260ff89166024830152915192909116916395725d8a9160448082019260009290919082900301818387803b15801561135957600080fd5b505af115801561136d573d6000803e3d6000fd5b505050506001925061142c565b61139b60068761138984611667565b6000929190861663ffffffff61166e16565b6113a361145d565b604080517ea81ef6000000000000000000000000000000000000000000000000000000008152600160a060020a03898116600483015260ff891660248301529151929091169162a81ef69160448082019260009290919082900301818387803b15801561140f57600080fd5b505af1158015611423573d6000803e3d6000fd5b50505050600192505b50509392505050565b6109fa8585600160a060020a038616600160e060020a0319861661145886611683565b61169d565b6000611467610fc6565b905090565b6114898484600160a060020a03851661148485611683565b611724565b50505050565b6000610a856110838585600160a060020a0386165b825460018401548354604080516020808201939093528082018690528151808203830181526060909101918290528051600095600160a060020a0316946337d9d7fc9490939182918401908083835b602083106115125780518252601f1990920191602091820191016114f3565b51815160209384036101000a60001901801990921691161790526040805192909401829003822063ffffffff891660e060020a028352600483019790975260248201969096529151604480840196955090935091839003909101905081600087803b15801561158057600080fd5b505af1158015611594573d6000803e3d6000fd5b505050506040513d60208110156115aa57600080fd5b5051949350505050565b6040805160208082018590528183018490528251808303840181526060909201928390528151600093611056938993899391929182918401908083835b602083106116105780518252601f1990920191602091820191016115f1565b6001836020036101000a03801982511681845116808217855250505050505090500191505060405180910390206114a4565b151590565b6109fa8585600160a060020a038616600160e060020a031986168561169d565b6000191890565b6114898484600160a060020a03851684611724565b600081611691576000611694565b60015b60ff1692915050565b60408051602080820186905281830185905282518083038401815260609092019283905281516109fa9389938993909282918401908083835b602083106116f55780518252601f1990920191602091820191016116d6565b6001836020036101000a0380198251168184511680821785525050505050509050019150506040518091039020845b835460018501548454604080516020808201939093528082018790528151808203830181526060909101918290528051600160a060020a039095169463a14ff85794939192918291908401908083835b602083106117935780518252601f199092019160209182019101611774565b5181516020939093036101000a60001901801990911692169190911790526040805191909301819003812063ffffffff881660e060020a02825260048201969096526024810195909552506044840187905251606480850194600094509192509082900301818387803b15801561180957600080fd5b505af115801561181d573d6000803e3d6000fd5b5050505050505050565b825473ffffffffffffffffffffffffffffffffffffffff1916600160a060020a0392909216919091178255600190910155565b610a5d828261187e565b610a5d828261187e565b610a5d828261187e565b610a5d82825b815461188a908261188e565b9055565b8115158061189a575080155b15610a5d57600080fd00a165627a7a723058209b2dec87ca0b4a0fb7fc9cb15aba1517e33739be32dd336175d9662153ded0f10029",
  "source": "/**\n * Copyright 20172018, LaborX PTY\n * Licensed under the AGPL Version 3 license.\n */\n\npragma solidity ^0.4.21;\n\n\nimport \"solidity-storage-lib/contracts/StorageAdapter.sol\";\nimport \"solidity-shared-lib/contracts/Owned.sol\";\nimport \"solidity-eventshistory-lib/contracts/MultiEventsHistoryAdapter.sol\";\n\n\n/// @title Core of role-based system which controlles access to functions according to\n/// set up rules and granted rights. It usually be injected into constructor to get rid\n/// of unnecessary security overcomplications.\n/// This contract organizes a system around two areas: protection core (Roles2Library)\n/// which keeps all the rules and checks if callers fulfill those rules, and other contracts\n/// that adopt this approach, for example, inheriting from Roles2LibraryAdapter, and setting\n/// roles2Library contract inside their guts, after that they could protect any method with\n/// appropriate modifier.\n/// There are three main functions: manage roles and set of users that belong to that roles\n/// (methods addUserRole, removeUserRole), provide different access levels for specific roles \n/// (methods setRolesCapabilities, addRolesCapabilities, removeRolesCapabilities), open protected\n/// methods for a public access (method setPublicCapability).\n/// This contract adopts storage upgradability approach so it could be easily updated.\ncontract Roles2Library is StorageAdapter, Owned, MultiEventsHistoryAdapter {\n\n    uint constant OK = 1;\n\n    uint constant ROLES_SCOPE = 20000;\n    uint constant ROLES_ALREADY_EXISTS = ROLES_SCOPE + 1;\n    uint constant ROLES_INVALID_INVOCATION = ROLES_SCOPE + 2;\n    uint constant ROLES_NOT_FOUND = ROLES_SCOPE + 3;\n\n    event RoleAdded(address indexed self, address indexed user, uint8 indexed role);\n    event RoleRemoved(address indexed self, address indexed user, uint8 indexed role);\n    event CapabilityAdded(address indexed self, address indexed code, bytes4 sig, uint8 indexed role);\n    event CapabilityRemoved(address indexed self, address indexed code, bytes4 sig, uint8 indexed role);\n    event PublicCapabilityAdded(address indexed self, address indexed code, bytes4 sig);\n    event PublicCapabilityRemoved(address indexed self, address indexed code, bytes4 sig);\n\n    /// @dev Mapping (user => isRoot)\n    StorageInterface.AddressBoolMapping internal rootUsers;\n    /// @dev Mapping (user => roles bit mask)\n    StorageInterface.AddressBytes32Mapping internal userRoles;\n    /// @dev Mapping (contract => sig => roles bit mask)\n    StorageInterface.AddressBytes4Bytes32Mapping internal capabilityRoles;\n    /// @dev Mapping (contract => sig => isPubliclyAvailable)\n    StorageInterface.AddressBytes4BoolMapping internal publicCapabilities;\n\n    /// @dev Guards access to functions for only those who can call or contract owner\n    modifier authorized {\n        if (msg.sender != contractOwner \n            && !canCall(msg.sender, this, msg.sig)\n        ) {\n            return;\n        }\n        _;\n    }\n\n    constructor(Storage _store, bytes32 _crate) StorageAdapter(_store, _crate) public {\n        rootUsers.init(\"rootUsers\");\n        userRoles.init(\"userRoles\");\n        capabilityRoles.init(\"capabilityRoles\");\n        publicCapabilities.init(\"publicCapabilities\");\n    }\n\n    /// @notice Checks if provided use can call function with signature in passed contract.\n    /// Root user is always allowed to call any protected function.\n    /// @param _user caller\n    /// @param _code contract address\n    /// @param _sig function signature\n    /// @return true if a call is allowed, false otherwise\n    function canCall(\n        address _user, \n        address _code, \n        bytes4 _sig\n    ) \n    public \n    view \n    returns (bool) \n    {\n        if (isUserRoot(_user) || isCapabilityPublic(_code, _sig)) {\n            return true;\n        }\n        return bytes32(0) != getUserRoles(_user) & getCapabilityRoles(_code, _sig);\n    }\n\n    /// @notice Sets events history contract as an emitter of every future events\n    /// Only contract owner could call this function.\n    /// @param _eventsHistory events history address\n    /// @return result of an operation\n    function setupEventsHistory(address _eventsHistory) \n    onlyContractOwner \n    external \n    returns (uint) \n    {\n        _setEventsHistory(_eventsHistory);\n        return OK;        \n    }\n\n    /// @notice Gets roles of a user\n    /// @return bit mask of user roles\n    function getUserRoles(address _user) \n    public \n    view \n    returns (bytes32) \n    {\n        return store.get(userRoles, _user);\n    }\n\n    /// @notice Checks if user is a root user\n    /// @return true if user is root, false otherwise\n    function isUserRoot(address _user) \n    public \n    view \n    returns (bool) \n    {\n        return store.get(rootUsers, _user);\n    }\n\n    /// @notice Checks if a user has provided role\n    /// @param _user user address\n    /// @param _role role identifier\n    /// @return true if user has this role, false otherwise\n    function hasUserRole(address _user, uint8 _role) \n    public \n    view \n    returns (bool) \n    {\n        return bytes32(0) != (getUserRoles(_user) & _shift(_role));\n    }\n\n    /// @notice Gets associated roles that are allowed to call provided method in provided contract\n    /// @param _code contract address\n    /// @param _sig method signature that is protected\n    /// @return bit mask of roles\n    function getCapabilityRoles(\n        address _code, \n        bytes4 _sig\n    ) \n    public \n    view \n    returns (bytes32) \n    {\n        return store.get(capabilityRoles, _code, _sig);\n    }\n\n    /// @notice Checks if provided method in a contract is publicly available\n    /// @param _code contract address\n    /// @param _sig method signature that is protected\n    /// @return true if it is publicly open, false otherwise\n    function isCapabilityPublic(\n        address _code, \n        bytes4 _sig\n    ) \n    public \n    view \n    returns (bool) \n    {\n        return store.get(publicCapabilities, _code, _sig);\n    }\n\n    /// @notice Sets up user as a root or take away this ability.\n    /// Only contract owner could call this function.\n    /// @param _user user address whose rights is changing\n    /// @param _enabled if true is passed then user becomes root user, otherwise this right is taken away\n    /// @return result of an operation\n    function setRootUser(\n        address _user, \n        bool _enabled\n    ) \n    onlyContractOwner \n    external \n    returns (uint) \n    {\n        store.set(rootUsers, _user, _enabled);\n        return OK;\n    }\n\n    /// @notice Adds provided user to a role layer.\n    /// Only authorized callers could invoke this function.\n    /// Emits RoleAdded event.\n    /// @param _user user address\n    /// @param _role role identifier, used in methods protection\n    /// @return result of an operation\n    function addUserRole(\n        address _user, \n        uint8 _role\n    ) \n    authorized \n    external \n    returns (uint) \n    {\n        if (hasUserRole(_user, _role)) {\n            return _emitErrorCode(ROLES_ALREADY_EXISTS);\n        }\n\n        return _setUserRole(_user, _role, true);\n    }\n\n    /// @notice Removes provided user from roles layer. After that user will not\n    /// be able to access functions that are allowed for this role.\n    /// Only authorized callers could invoke this function.\n    /// Emits RoleRemoved event.\n    /// @param _user user address\n    /// @param _role role identifier\n    /// @return result of an operation\n    function removeUserRole(\n        address _user, \n        uint8 _role\n    ) \n    authorized \n    external \n    returns (uint) \n    {\n        if (!hasUserRole(_user, _role)) {\n            return _emitErrorCode(ROLES_NOT_FOUND);\n        }\n\n        return _setUserRole(_user, _role, false);\n    }\n\n    /// @notice Opens protected function to be publicly available. Only for provided contract,\n    /// not a family of contracts\n    /// Only contract owner could call this function.\n    /// Emits PublicCapabilityAdded and PublicCapabilityRemoved events.\n    /// @param _code contract address\n    /// @param _sig method signature that will be opened\n    /// @param _enabled if true then opens up access to a function, closes otherwise\n    /// @return result of an operation\n    function setPublicCapability(\n        address _code, \n        bytes4 _sig, \n        bool _enabled\n    ) \n    onlyContractOwner \n    external \n    returns (uint) \n    {\n        store.set(publicCapabilities, _code, _sig, _enabled);\n\n        if (_enabled) {\n            _getEmitter().emitPublicCapabilityAdded(_code, _sig);\n        } else {\n            _getEmitter().emitPublicCapabilityRemoved(_code, _sig);\n        }\n        return OK;\n    }\n\n    /// @notice Adds role as able to call passed method in provided contract.\n    /// All users associated with this role will receive a possibility to call\n    /// this method.\n    /// Only contract owner could call this function.\n    /// Emits CapabilityAdded event.\n    /// @param _role role identifier\n    /// @param _code contract address\n    /// @param _sig protected function signature\n    /// @return result of an operation\n    function addRoleCapability(\n        uint8 _role, \n        address _code, \n        bytes4 _sig\n    ) \n    onlyContractOwner \n    public \n    returns (uint) \n    {\n        return _setRoleCapability(_role, _code, _sig, true);\n    }\n\n    /// @notice Removes role from contract's allowed roles and take away\n    /// a possibility from user to call this function.\n    /// Only contract owner could call this function.\n    /// Emits CapabilityRemoved event.\n    /// @param _role role identifier\n    /// @param _code contract address\n    /// @param _sig protected function signature\n    /// @return result of an operation\n    function removeRoleCapability(\n        uint8 _role, \n        address _code, \n        bytes4 _sig\n    ) \n    onlyContractOwner \n    public \n    returns (uint) \n    {\n        if (getCapabilityRoles(_code, _sig) == 0) {\n            return _emitErrorCode(ROLES_NOT_FOUND);\n        }\n\n        return _setRoleCapability(_role, _code, _sig, false);\n    }\n\n    /* EVENTS EMITTING (for events history) */\n\n    function emitRoleAdded(address _user, uint8 _role) public {\n        emit RoleAdded(_self(), _user, _role);\n    }\n\n    function emitRoleRemoved(address _user, uint8 _role) public {\n        emit RoleRemoved(_self(), _user, _role);\n    }\n\n    function emitCapabilityAdded(address _code, bytes4 _sig, uint8 _role) public {\n        emit CapabilityAdded(_self(), _code, _sig, _role);\n    }\n\n    function emitCapabilityRemoved(address _code, bytes4 _sig, uint8 _role) public {\n        emit CapabilityRemoved(_self(), _code, _sig, _role);\n    }\n\n    function emitPublicCapabilityAdded(address _code, bytes4 _sig) public {\n        emit PublicCapabilityAdded(_self(), _code, _sig);\n    }\n\n    function emitPublicCapabilityRemoved(address _code, bytes4 _sig) public {\n        emit PublicCapabilityRemoved(_self(), _code, _sig);\n    }\n\n    /* INTERNAL */\n\n    function _setUserRole(\n        address _user, \n        uint8 _role, \n        bool _enabled\n    ) \n    internal \n    returns (uint) \n    {\n        bytes32 lastRoles = getUserRoles(_user);\n        bytes32 shifted = _shift(_role);\n\n        if (_enabled) {\n            store.set(userRoles, _user, lastRoles | shifted);\n            _getEmitter().emitRoleAdded(_user, _role);\n            return OK;\n        }\n\n        store.set(userRoles, _user, lastRoles & _bitNot(shifted));\n        _getEmitter().emitRoleRemoved(_user, _role);\n        return OK;\n    }\n\n    function _setRoleCapability(\n        uint8 _role, \n        address _code, \n        bytes4 _sig, \n        bool _enabled\n    ) \n    internal \n    returns (uint) \n    {\n        bytes32 lastRoles = getCapabilityRoles(_code, _sig);\n        bytes32 shifted = _shift(_role);\n\n        if (_enabled) {\n            store.set(capabilityRoles, _code, _sig, lastRoles | shifted);\n            _getEmitter().emitCapabilityAdded(_code, _sig, _role);\n        } else {\n            store.set(capabilityRoles, _code, _sig, lastRoles & _bitNot(shifted));\n            _getEmitter().emitCapabilityRemoved(_code, _sig, _role);\n        }\n\n        return OK;\n    }\n\n    function _shift(uint8 _role) private pure returns (bytes32) {\n        return bytes32(uint(uint(2) ** uint(_role)));\n    }\n\n    function _bitNot(bytes32 _input) private pure returns (bytes32) {\n        return (_input ^ bytes32(uint(-1)));\n    }\n\n    function _getEmitter() private view returns (Roles2Library) {\n        return Roles2Library(getEventsHistory());\n    }\n}\n",
  "sourcePath": "solidity-roles-lib/contracts/Roles2Library.sol",
  "compiler": {
    "name": "solc",
    "version": "0.4.24+commit.e67f0147.Emscripten.clang"
  },
  "schemaVersion": "2.0.1",
  "updatedAt": "2018-09-18T15:43:35.435Z"
}