{
  "contractName": "SkillsLibrary",
  "abi": [
    {
      "constant": false,
      "inputs": [
        {
          "name": "_roles2Library",
          "type": "address"
        }
      ],
      "name": "setRoles2Library",
      "outputs": [
        {
          "name": "",
          "type": "uint256"
        }
      ],
      "payable": false,
      "stateMutability": "nonpayable",
      "type": "function"
    },
    {
      "constant": true,
      "inputs": [],
      "name": "version",
      "outputs": [
        {
          "name": "",
          "type": "string"
        }
      ],
      "payable": false,
      "stateMutability": "view",
      "type": "function"
    },
    {
      "constant": false,
      "inputs": [
        {
          "name": "_errorCode",
          "type": "uint256"
        }
      ],
      "name": "emitErrorCode",
      "outputs": [],
      "payable": false,
      "stateMutability": "nonpayable",
      "type": "function"
    },
    {
      "constant": true,
      "inputs": [],
      "name": "getEventsHistory",
      "outputs": [
        {
          "name": "",
          "type": "address"
        }
      ],
      "payable": false,
      "stateMutability": "view",
      "type": "function"
    },
    {
      "inputs": [
        {
          "name": "_store",
          "type": "address"
        },
        {
          "name": "_crate",
          "type": "bytes32"
        },
        {
          "name": "_roles2Library",
          "type": "address"
        }
      ],
      "payable": false,
      "stateMutability": "nonpayable",
      "type": "constructor"
    },
    {
      "anonymous": false,
      "inputs": [
        {
          "indexed": true,
          "name": "self",
          "type": "address"
        },
        {
          "indexed": false,
          "name": "area",
          "type": "uint256"
        },
        {
          "indexed": false,
          "name": "hash",
          "type": "bytes32"
        }
      ],
      "name": "AreaSet",
      "type": "event"
    },
    {
      "anonymous": false,
      "inputs": [
        {
          "indexed": true,
          "name": "self",
          "type": "address"
        },
        {
          "indexed": false,
          "name": "area",
          "type": "uint256"
        },
        {
          "indexed": false,
          "name": "category",
          "type": "uint256"
        },
        {
          "indexed": false,
          "name": "hash",
          "type": "bytes32"
        }
      ],
      "name": "CategorySet",
      "type": "event"
    },
    {
      "anonymous": false,
      "inputs": [
        {
          "indexed": true,
          "name": "self",
          "type": "address"
        },
        {
          "indexed": false,
          "name": "area",
          "type": "uint256"
        },
        {
          "indexed": false,
          "name": "category",
          "type": "uint256"
        },
        {
          "indexed": false,
          "name": "skill",
          "type": "uint256"
        },
        {
          "indexed": false,
          "name": "hash",
          "type": "bytes32"
        }
      ],
      "name": "SkillSet",
      "type": "event"
    },
    {
      "anonymous": false,
      "inputs": [
        {
          "indexed": false,
          "name": "code",
          "type": "address"
        },
        {
          "indexed": false,
          "name": "sender",
          "type": "address"
        },
        {
          "indexed": false,
          "name": "sig",
          "type": "bytes4"
        }
      ],
      "name": "AuthFailedError",
      "type": "event"
    },
    {
      "anonymous": false,
      "inputs": [
        {
          "indexed": true,
          "name": "self",
          "type": "address"
        },
        {
          "indexed": false,
          "name": "errorCode",
          "type": "uint256"
        }
      ],
      "name": "ErrorCode",
      "type": "event"
    },
    {
      "constant": false,
      "inputs": [
        {
          "name": "_eventsHistory",
          "type": "address"
        }
      ],
      "name": "setupEventsHistory",
      "outputs": [
        {
          "name": "",
          "type": "uint256"
        }
      ],
      "payable": false,
      "stateMutability": "nonpayable",
      "type": "function"
    },
    {
      "constant": true,
      "inputs": [
        {
          "name": "_area",
          "type": "uint256"
        }
      ],
      "name": "getArea",
      "outputs": [
        {
          "name": "",
          "type": "bytes32"
        }
      ],
      "payable": false,
      "stateMutability": "view",
      "type": "function"
    },
    {
      "constant": true,
      "inputs": [
        {
          "name": "_area",
          "type": "uint256"
        },
        {
          "name": "_category",
          "type": "uint256"
        }
      ],
      "name": "getCategory",
      "outputs": [
        {
          "name": "",
          "type": "bytes32"
        }
      ],
      "payable": false,
      "stateMutability": "view",
      "type": "function"
    },
    {
      "constant": true,
      "inputs": [
        {
          "name": "_area",
          "type": "uint256"
        },
        {
          "name": "_category",
          "type": "uint256"
        },
        {
          "name": "_skill",
          "type": "uint256"
        }
      ],
      "name": "getSkill",
      "outputs": [
        {
          "name": "",
          "type": "bytes32"
        }
      ],
      "payable": false,
      "stateMutability": "view",
      "type": "function"
    },
    {
      "constant": false,
      "inputs": [
        {
          "name": "_area",
          "type": "uint256"
        },
        {
          "name": "_hash",
          "type": "bytes32"
        }
      ],
      "name": "setArea",
      "outputs": [
        {
          "name": "",
          "type": "uint256"
        }
      ],
      "payable": false,
      "stateMutability": "nonpayable",
      "type": "function"
    },
    {
      "constant": false,
      "inputs": [
        {
          "name": "_area",
          "type": "uint256"
        },
        {
          "name": "_category",
          "type": "uint256"
        },
        {
          "name": "_hash",
          "type": "bytes32"
        }
      ],
      "name": "setCategory",
      "outputs": [
        {
          "name": "",
          "type": "uint256"
        }
      ],
      "payable": false,
      "stateMutability": "nonpayable",
      "type": "function"
    },
    {
      "constant": false,
      "inputs": [
        {
          "name": "_area",
          "type": "uint256"
        },
        {
          "name": "_category",
          "type": "uint256"
        },
        {
          "name": "_skill",
          "type": "uint256"
        },
        {
          "name": "_hash",
          "type": "bytes32"
        }
      ],
      "name": "setSkill",
      "outputs": [
        {
          "name": "",
          "type": "uint256"
        }
      ],
      "payable": false,
      "stateMutability": "nonpayable",
      "type": "function"
    },
    {
      "constant": false,
      "inputs": [
        {
          "name": "_area",
          "type": "uint256"
        },
        {
          "name": "_hash",
          "type": "bytes32"
        }
      ],
      "name": "emitAreaSet",
      "outputs": [],
      "payable": false,
      "stateMutability": "nonpayable",
      "type": "function"
    },
    {
      "constant": false,
      "inputs": [
        {
          "name": "_area",
          "type": "uint256"
        },
        {
          "name": "_category",
          "type": "uint256"
        },
        {
          "name": "_hash",
          "type": "bytes32"
        }
      ],
      "name": "emitCategorySet",
      "outputs": [],
      "payable": false,
      "stateMutability": "nonpayable",
      "type": "function"
    },
    {
      "constant": false,
      "inputs": [
        {
          "name": "_area",
          "type": "uint256"
        },
        {
          "name": "_category",
          "type": "uint256"
        },
        {
          "name": "_skill",
          "type": "uint256"
        },
        {
          "name": "_hash",
          "type": "bytes32"
        }
      ],
      "name": "emitSkillSet",
      "outputs": [],
      "payable": false,
      "stateMutability": "nonpayable",
      "type": "function"
    }
  ],
  "bytecode": "0x60c0604052600660808190527f76302e302e31000000000000000000000000000000000000000000000000000060a0908152620000409160079190620001f1565b503480156200004e57600080fd5b50604051606080620013e78339810160409081528151602083015191909201518083836200008d600083836401000000006200107e6200017f82021704565b5050600160a060020a0381161515620000a557600080fd5b60038054600160a060020a031916600160a060020a03929092169190911790556200010060047f6172656173000000000000000000000000000000000000000000000000000000640100000000620001a58102620010b11704565b6200013b60057f63617465676f7269657300000000000000000000000000000000000000000000640100000000620010b1620001a582021704565b6200017660067f736b696c6c730000000000000000000000000000000000000000000000000000640100000000620010b1620001a582021704565b50505062000296565b8254600160a060020a031916600160a060020a0392909216919091178255600190910155565b620001ba8282640100000000620001be810204565b5050565b8154620001d59082640100000000620001d9810204565b9055565b81151580620001e6575080155b15620001ba57600080fd5b828054600181600116156101000203166002900490600052602060002090601f016020900481019282601f106200023457805160ff191683800117855562000264565b8280016001018555821562000264579182015b828111156200026457825182559160200191906001019062000247565b506200027292915062000276565b5090565b6200029391905b808211156200027257600081556001016200027d565b90565b61114180620002a66000396000f3006080604052600436106100b65763ffffffff60e060020a60003504166302927d2081146100bb5780630605d0cd146100ee5780632637cd7d146101115780632a16a9ee146101325780634594762a146101505780634edbca6e1461016e57806354fd4d50146101895780635f65d621146102135780636490c7a814610234578063658bf1471461024c5780637749e693146102675780638834277e14610285578063e788b5eb1461029d578063fff10aba146102b8575b600080fd5b3480156100c757600080fd5b506100dc600160a060020a03600435166102e9565b60408051918252519081900360200190f35b3480156100fa57600080fd5b5061010f60043560243560443560643561036d565b005b34801561011d57600080fd5b506100dc600160a060020a03600435166103cf565b34801561013e57600080fd5b5061010f60043560243560443561045c565b34801561015c57600080fd5b506100dc6004356024356044356104b6565b34801561017a57600080fd5b506100dc6004356024356104d6565b34801561019557600080fd5b5061019e6104f4565b6040805160208082528351818301528351919283929083019185019080838360005b838110156101d85781810151838201526020016101c0565b50505050905090810190601f1680156102055780820380516001836020036101000a031916815260200191505b509250505060405180910390f35b34801561021f57600080fd5b506100dc600435602435604435606435610582565b34801561024057600080fd5b506100dc60043561065f565b34801561025857600080fd5b506100dc600435602435610673565b34801561027357600080fd5b506100dc60043560243560443561071d565b34801561029157600080fd5b5061010f6004356107eb565b3480156102a957600080fd5b5061010f600435602435610836565b3480156102c457600080fd5b506102cd61088a565b60408051600160a060020a039092168252519081900360200190f35b600061030133600035600160e060020a0319166108ae565b15156103445760408051308152336020820152600160e060020a0319600035168183015290516000805160206110f68339815191529181900360600190a1610368565b600160a060020a038216151561035957600080fd5b61036282610994565b50600190505b919050565b6103756109c5565b6040805186815260208101869052808201859052606081018490529051600160a060020a0392909216917f8d6567d268644c7590b30dca31486ea28c286fd5c52a9d7d013e43237ace582a9181900360800190a250505050565b60006103e733600035600160e060020a0319166108ae565b151561042a5760408051308152336020820152600160e060020a0319600035168183015290516000805160206110f68339815191529181900360600190a1610368565b5060038054600160a060020a03831673ffffffffffffffffffffffffffffffffffffffff199091161790556001919050565b6104646109c5565b60408051858152602081018590528082018490529051600160a060020a0392909216917f9eb59e2935f280c5f30d330456d2e82be62e268a556e296d791dc67e29dc365e9181900360600190a2505050565b60006104cc81600686868663ffffffff6109c916565b90505b9392505050565b60006104eb816005858563ffffffff6109e216565b90505b92915050565b6007805460408051602060026001851615610100026000190190941693909304601f8101849004840282018401909252818152929183018282801561057a5780601f1061054f5761010080835404028352916020019161057a565b820191906000526020600020905b81548152906001019060200180831161055d57829003601f168201915b505050505081565b600061059a33600035600160e060020a0319166108ae565b15156105dd5760408051308152336020820152600160e060020a0319600035168183015290516000805160206110f68339815191529181900360600190a1610657565b826105e7816109f9565b15156105f257610655565b6105fb8661065f565b15156106135761060c6155f1610a10565b9150610655565b61061d86866104d6565b151561062e5761060c6155f2610a10565b610644600060068888888863ffffffff610a8016565b61065086868686610a96565b600191505b505b949350505050565b60006104ee8160048463ffffffff610b3516565b600061068b33600035600160e060020a0319166108ae565b15156106ce5760408051308152336020820152600160e060020a0319600035168183015290516000805160206110f68339815191529181900360600190a16104ee565b826106d8816109f9565b80156106e857506106e881610b42565b15156106f357610716565b61070760006004868663ffffffff610b6816565b6107118484610b7a565b600191505b5092915050565b600061073533600035600160e060020a0319166108ae565b15156107785760408051308152336020820152600160e060020a0319600035168183015290516000805160206110f68339815191529181900360600190a16104cf565b82610782816109f9565b8015610792575061079281610b42565b151561079d576107e3565b6107a68561065f565b15156107be576107b76155f1610a10565b91506107e3565b6107d36000600587878763ffffffff610c0116565b6107de858585610c15565b600191505b509392505050565b6107f36109c5565b600160a060020a03167f09e0713b45664e161c202b19bb4574ee83dfa056f9bfdee56847b3971d968221826040518082815260200191505060405180910390a250565b61083e6109c5565b60408051848152602081018490528151600160a060020a0393909316927fce1cc03b6e739f74f7c06a7ac12dbf08574eab3fb1bc508443ee1a4bad33786d929181900390910190a25050565b600254600090600160a060020a03168015156108a657306108a8565b805b91505090565b6000600160a060020a0383163014156108c9575060016104ee565b600354600160a060020a031615156108e3575060006104ee565b600354604080517fb7009613000000000000000000000000000000000000000000000000000000008152600160a060020a038681166004830152306024830152600160e060020a0319861660448301529151919092169163b70096139160648083019260209291908290030181600087803b15801561096157600080fd5b505af1158015610975573d6000803e3d6000fd5b505050506040513d602081101561098b57600080fd5b50519392505050565b60028054600160a060020a03831673ffffffffffffffffffffffffffffffffffffffff199091161790556001919050565b3390565b60006109d88686868686610cac565b9695505050505050565b60006109f085858585610d43565b95945050505050565b600081158015906104ee5750506000198101161590565b6000610a1a61088a565b600160a060020a0316638834277e836040518263ffffffff1660e060020a02815260040180828152602001915050600060405180830381600087803b158015610a6257600080fd5b505af1158015610a76573d6000803e3d6000fd5b5093949350505050565b610a8e868686868686610d9e565b505050505050565b610a9e61088a565b604080517f0605d0cd000000000000000000000000000000000000000000000000000000008152600481018790526024810186905260448101859052606481018490529051600160a060020a039290921691630605d0cd9160848082019260009290919082900301818387803b158015610b1757600080fd5b505af1158015610b2b573d6000803e3d6000fd5b5050505050505050565b60006104cc848484610e32565b7faaaaaaaaaaaaaaaaaaaaaaaaaaaaaaaaaaaaaaaaaaaaaaaaaaaaaaaaaaaaaaaa161590565b610b7484848484610f42565b50505050565b610b8261088a565b604080517fe788b5eb00000000000000000000000000000000000000000000000000000000815260048101859052602481018490529051600160a060020a03929092169163e788b5eb9160448082019260009290919082900301818387803b158015610bed57600080fd5b505af1158015610a8e573d6000803e3d6000fd5b610c0e8585858585611027565b5050505050565b610c1d61088a565b604080517f2a16a9ee0000000000000000000000000000000000000000000000000000000081526004810186905260248101859052604481018490529051600160a060020a039290921691632a16a9ee9160648082019260009290919082900301818387803b158015610c8f57600080fd5b505af1158015610ca3573d6000803e3d6000fd5b50505050505050565b60408051602080820186905281830185905260608083018590528351808403909101815260809092019283905281516000936109d8938a938a9391929182918401908083835b60208310610d115780518252601f199092019160209182019101610cf2565b6001836020036101000a0380198251168184511680821785525050505050509050019150506040518091039020610e32565b60408051602080820185905281830184905282518083038401815260609092019283905281516000936109f09389938993919291829184019080838360208310610d115780518252601f199092019160209182019101610cf2565b6040805160208082018790528183018690526060808301869052835180840390910181526080909201928390528151610a8e938a938a93909282918401908083835b60208310610dff5780518252601f199092019160209182019101610de0565b6001836020036101000a038019825116818451168082178552505050505050905001915050604051809103902084610f42565b825460018401548354604080516020808201939093528082018690528151808203830181526060909101918290528051600095600160a060020a0316946337d9d7fc9490939182918401908083835b60208310610ea05780518252601f199092019160209182019101610e81565b51815160209384036101000a60001901801990921691161790526040805192909401829003822063ffffffff891660e060020a028352600483019790975260248201969096529151604480840196955090935091839003909101905081600087803b158015610f0e57600080fd5b505af1158015610f22573d6000803e3d6000fd5b505050506040513d6020811015610f3857600080fd5b5051949350505050565b835460018501548454604080516020808201939093528082018790528151808203830181526060909101918290528051600160a060020a039095169463a14ff85794939192918291908401908083835b60208310610fb15780518252601f199092019160209182019101610f92565b5181516020939093036101000a60001901801990911692169190911790526040805191909301819003812063ffffffff881660e060020a02825260048201969096526024810195909552506044840187905251606480850194600094509192509082900301818387803b158015610b1757600080fd5b6040805160208082018690528183018590528251808303840181526060909201928390528151610c0e93899389939092829184019080838360208310610dff5780518252601f199092019160209182019101610de0565b825473ffffffffffffffffffffffffffffffffffffffff1916600160a060020a0392909216919091178255600190910155565b6110bb82826110cf565b5050565b6110bb82826110cf565b6110bb82825b81546110db90826110df565b9055565b811515806110eb575080155b156110bb57600080fd005133a133185f1023427a2e90f18506b27db994977ce0c0faafd514a7dd109ae0a165627a7a72305820b8768805a5409f8806872f63c014573a7fc2a7e1f891fdd16e6fa01832432d4b0029",
  "source": "/**\n * Copyright 2017–2018, LaborX PTY\n * Licensed under the AGPL Version 3 license.\n */\n\npragma solidity ^0.4.21;\n\n\nimport \"solidity-storage-lib/contracts/StorageAdapter.sol\";\nimport \"solidity-roles-lib/contracts/Roles2LibraryAdapter.sol\";\nimport \"solidity-eventshistory-lib/contracts/MultiEventsHistoryAdapter.sol\";\n\n\n/**\n * @title LaborX Skills Library.\n *\n * Here we encode 128 different areas of activity, each with 128 different\n * categories, each with 256 different skills, using bit flags.\n * Every entity (area, category, skill) is linked to IPFS file that should\n * have description of the particular entity.\n * Areas and categories is an odd bit flags, starting from the right.\n * 00000001 is the first area or category.\n * 00000100 is the second area or category.\n * 01000000 is the fourth area or category.\n * Even flags are not used for areas and categories.\n * Skill can be repserented with any bit, starting from the right.\n * 00000001 is the first skill.\n * 00000010 is the second skill.\n * 01000000 is the seventh skill.\n *\n * Functions always accept a single flag that represents the entity.\n */\ncontract SkillsLibrary is StorageAdapter, MultiEventsHistoryAdapter, Roles2LibraryAdapter {\n\n    uint constant SKILLS_LIBRARY = 22000;\n    uint constant SKILLS_LIBRARY_AREA_NOT_SET = SKILLS_LIBRARY + 1;\n    uint constant SKILLS_LIBRARY_CATEGORY_NOT_SET = SKILLS_LIBRARY + 2;\n\n    event AreaSet(address indexed self, uint area, bytes32 hash);\n    event CategorySet(address indexed self, uint area, uint category, bytes32 hash);\n    event SkillSet(address indexed self, uint area, uint category, uint skill, bytes32 hash);\n\n    // Mappings of entity to IPFS hash.\n    StorageInterface.UIntBytes32Mapping areas;\n    StorageInterface.UIntUIntBytes32Mapping categories;\n    StorageInterface.UIntUIntUIntBytes32Mapping skills;\n\n    string public version = \"v0.0.1\";\n\n    modifier singleFlag(uint _flag) {\n        if (!_isSingleFlag(_flag)) {\n            return;\n        }\n        _;\n    }\n\n    modifier singleOddFlag(uint _flag) {\n        if (!(_isSingleFlag(_flag) && _isOddFlag(_flag))) {\n            return;\n        }\n        _;\n    }\n\n    function _isSingleFlag(uint _flag) pure internal returns (bool) {\n        return _flag != 0 && (_flag & (_flag - 1) == 0);\n    }\n\n    function _isOddFlag(uint _flag) pure internal returns (bool) {\n        return _flag & 0xaaaaaaaaaaaaaaaaaaaaaaaaaaaaaaaaaaaaaaaaaaaaaaaaaaaaaaaaaaaaaaaa == 0;\n    }\n\n    constructor(\n        Storage _store, \n        bytes32 _crate, \n        address _roles2Library\n    )\n    StorageAdapter(_store, _crate)\n    Roles2LibraryAdapter(_roles2Library)\n    public\n    {\n        areas.init('areas');\n        categories.init('categories');\n        skills.init('skills');\n    }\n\n    function setupEventsHistory(address _eventsHistory) auth external returns (uint) {\n        require(_eventsHistory != 0x0);\n\n        _setEventsHistory(_eventsHistory);\n        return OK;\n    }\n\n    function getArea(uint _area) public view returns (bytes32) {\n        return store.get(areas, _area);\n    }\n\n    function getCategory(uint _area, uint _category) public view returns (bytes32) {\n        return store.get(categories, _area, _category);\n    }\n\n    function getSkill(uint _area, uint _category, uint _skill) public view returns (bytes32) {\n        return store.get(skills, _area, _category, _skill);\n    }\n\n    function setArea(\n        uint _area, \n        bytes32 _hash\n    )\n    auth\n    singleOddFlag(_area)\n    public\n    returns (uint) {\n        store.set(areas, _area, _hash);\n\n        _emitAreaSet(_area, _hash);\n        return OK;\n    }\n\n    function setCategory(\n        uint _area, \n        uint _category, \n        bytes32 _hash\n    )\n    auth\n    singleOddFlag(_category)\n    public\n    returns (uint) {\n        if (getArea(_area) == 0) {\n            return _emitErrorCode(SKILLS_LIBRARY_AREA_NOT_SET);\n        }\n        store.set(categories, _area, _category, _hash);\n        _emitCategorySet(_area, _category, _hash);\n\n        return OK;\n    }\n\n    function setSkill(\n        uint _area, \n        uint _category, \n        uint _skill, \n        bytes32 _hash\n    )\n    auth\n    singleFlag(_skill)\n    public\n    returns (uint) {\n        if (getArea(_area) == 0) {\n            return _emitErrorCode(SKILLS_LIBRARY_AREA_NOT_SET);\n        }\n        if (getCategory(_area, _category) == 0) {\n            return _emitErrorCode(SKILLS_LIBRARY_CATEGORY_NOT_SET);\n        }\n        store.set(skills, _area, _category, _skill, _hash);\n\n        _emitSkillSet(_area, _category, _skill, _hash);\n        return OK;\n    }\n\n    function _emitAreaSet(uint _area, bytes32 _hash) internal {\n        SkillsLibrary(getEventsHistory()).emitAreaSet(_area, _hash);\n    }\n\n    function _emitCategorySet(uint _area, uint _category, bytes32 _hash) internal {\n        SkillsLibrary(getEventsHistory()).emitCategorySet(_area, _category, _hash);\n    }\n\n    function _emitSkillSet(uint _area, uint _category, uint _skill, bytes32 _hash) internal {\n        SkillsLibrary(getEventsHistory()).emitSkillSet(_area, _category, _skill, _hash);\n    }\n\n    function emitAreaSet(uint _area, bytes32 _hash) public {\n        emit AreaSet(_self(), _area, _hash);\n    }\n\n    function emitCategorySet(uint _area, uint _category, bytes32 _hash) public {\n        emit CategorySet(_self(), _area, _category, _hash);\n    }\n\n    function emitSkillSet(uint _area, uint _category, uint _skill, bytes32 _hash) public {\n        emit SkillSet(_self(), _area, _category, _skill, _hash);\n    }\n}\n",
  "sourcePath": "/Users/alesanro/Documents/Projects/ChronoBank/LX-SC/contracts/SkillsLibrary.sol",
  "compiler": {
    "name": "solc",
    "version": "0.4.24+commit.e67f0147.Emscripten.clang"
  },
  "schemaVersion": "2.0.1",
  "updatedAt": "2018-09-18T15:43:05.251Z"
}