{
  "contractName": "Storage",
  "abi": [
    {
      "constant": false,
      "inputs": [],
      "name": "claimContractOwnership",
      "outputs": [
        {
          "name": "",
          "type": "bool"
        }
      ],
      "payable": false,
      "stateMutability": "nonpayable",
      "type": "function"
    },
    {
      "constant": true,
      "inputs": [],
      "name": "manager",
      "outputs": [
        {
          "name": "",
          "type": "address"
        }
      ],
      "payable": false,
      "stateMutability": "view",
      "type": "function"
    },
    {
      "constant": false,
      "inputs": [
        {
          "name": "_to",
          "type": "address"
        }
      ],
      "name": "changeContractOwnership",
      "outputs": [
        {
          "name": "",
          "type": "bool"
        }
      ],
      "payable": false,
      "stateMutability": "nonpayable",
      "type": "function"
    },
    {
      "constant": true,
      "inputs": [],
      "name": "pendingContractOwner",
      "outputs": [
        {
          "name": "",
          "type": "address"
        }
      ],
      "payable": false,
      "stateMutability": "view",
      "type": "function"
    },
    {
      "constant": false,
      "inputs": [
        {
          "name": "tokens",
          "type": "address[]"
        }
      ],
      "name": "withdrawTokens",
      "outputs": [],
      "payable": false,
      "stateMutability": "nonpayable",
      "type": "function"
    },
    {
      "constant": false,
      "inputs": [],
      "name": "withdrawEther",
      "outputs": [],
      "payable": false,
      "stateMutability": "nonpayable",
      "type": "function"
    },
    {
      "constant": true,
      "inputs": [],
      "name": "contractOwner",
      "outputs": [
        {
          "name": "",
          "type": "address"
        }
      ],
      "payable": false,
      "stateMutability": "view",
      "type": "function"
    },
    {
      "constant": false,
      "inputs": [
        {
          "name": "newOwner",
          "type": "address"
        }
      ],
      "name": "transferOwnership",
      "outputs": [
        {
          "name": "",
          "type": "bool"
        }
      ],
      "payable": false,
      "stateMutability": "nonpayable",
      "type": "function"
    },
    {
      "anonymous": false,
      "inputs": [
        {
          "indexed": true,
          "name": "previousOwner",
          "type": "address"
        },
        {
          "indexed": true,
          "name": "newOwner",
          "type": "address"
        }
      ],
      "name": "OwnershipTransferred",
      "type": "event"
    },
    {
      "constant": false,
      "inputs": [
        {
          "name": "_manager",
          "type": "address"
        }
      ],
      "name": "setManager",
      "outputs": [
        {
          "name": "",
          "type": "bool"
        }
      ],
      "payable": false,
      "stateMutability": "nonpayable",
      "type": "function"
    },
    {
      "constant": false,
      "inputs": [
        {
          "name": "_crate",
          "type": "bytes32"
        },
        {
          "name": "_key",
          "type": "bytes32"
        },
        {
          "name": "_value",
          "type": "uint256"
        }
      ],
      "name": "setUInt",
      "outputs": [],
      "payable": false,
      "stateMutability": "nonpayable",
      "type": "function"
    },
    {
      "constant": true,
      "inputs": [
        {
          "name": "_crate",
          "type": "bytes32"
        },
        {
          "name": "_key",
          "type": "bytes32"
        }
      ],
      "name": "getUInt",
      "outputs": [
        {
          "name": "",
          "type": "uint256"
        }
      ],
      "payable": false,
      "stateMutability": "view",
      "type": "function"
    },
    {
      "constant": false,
      "inputs": [
        {
          "name": "_crate",
          "type": "bytes32"
        },
        {
          "name": "_key",
          "type": "bytes32"
        },
        {
          "name": "_value",
          "type": "address"
        }
      ],
      "name": "setAddress",
      "outputs": [],
      "payable": false,
      "stateMutability": "nonpayable",
      "type": "function"
    },
    {
      "constant": true,
      "inputs": [
        {
          "name": "_crate",
          "type": "bytes32"
        },
        {
          "name": "_key",
          "type": "bytes32"
        }
      ],
      "name": "getAddress",
      "outputs": [
        {
          "name": "",
          "type": "address"
        }
      ],
      "payable": false,
      "stateMutability": "view",
      "type": "function"
    },
    {
      "constant": false,
      "inputs": [
        {
          "name": "_crate",
          "type": "bytes32"
        },
        {
          "name": "_key",
          "type": "bytes32"
        },
        {
          "name": "_value",
          "type": "bool"
        }
      ],
      "name": "setBool",
      "outputs": [],
      "payable": false,
      "stateMutability": "nonpayable",
      "type": "function"
    },
    {
      "constant": true,
      "inputs": [
        {
          "name": "_crate",
          "type": "bytes32"
        },
        {
          "name": "_key",
          "type": "bytes32"
        }
      ],
      "name": "getBool",
      "outputs": [
        {
          "name": "",
          "type": "bool"
        }
      ],
      "payable": false,
      "stateMutability": "view",
      "type": "function"
    },
    {
      "constant": false,
      "inputs": [
        {
          "name": "_crate",
          "type": "bytes32"
        },
        {
          "name": "_key",
          "type": "bytes32"
        },
        {
          "name": "_value",
          "type": "int256"
        }
      ],
      "name": "setInt",
      "outputs": [],
      "payable": false,
      "stateMutability": "nonpayable",
      "type": "function"
    },
    {
      "constant": true,
      "inputs": [
        {
          "name": "_crate",
          "type": "bytes32"
        },
        {
          "name": "_key",
          "type": "bytes32"
        }
      ],
      "name": "getInt",
      "outputs": [
        {
          "name": "",
          "type": "int256"
        }
      ],
      "payable": false,
      "stateMutability": "view",
      "type": "function"
    },
    {
      "constant": false,
      "inputs": [
        {
          "name": "_crate",
          "type": "bytes32"
        },
        {
          "name": "_key",
          "type": "bytes32"
        },
        {
          "name": "_value",
          "type": "uint8"
        }
      ],
      "name": "setUInt8",
      "outputs": [],
      "payable": false,
      "stateMutability": "nonpayable",
      "type": "function"
    },
    {
      "constant": true,
      "inputs": [
        {
          "name": "_crate",
          "type": "bytes32"
        },
        {
          "name": "_key",
          "type": "bytes32"
        }
      ],
      "name": "getUInt8",
      "outputs": [
        {
          "name": "",
          "type": "uint8"
        }
      ],
      "payable": false,
      "stateMutability": "view",
      "type": "function"
    },
    {
      "constant": false,
      "inputs": [
        {
          "name": "_crate",
          "type": "bytes32"
        },
        {
          "name": "_key",
          "type": "bytes32"
        },
        {
          "name": "_value",
          "type": "bytes32"
        }
      ],
      "name": "setBytes32",
      "outputs": [],
      "payable": false,
      "stateMutability": "nonpayable",
      "type": "function"
    },
    {
      "constant": true,
      "inputs": [
        {
          "name": "_crate",
          "type": "bytes32"
        },
        {
          "name": "_key",
          "type": "bytes32"
        }
      ],
      "name": "getBytes32",
      "outputs": [
        {
          "name": "",
          "type": "bytes32"
        }
      ],
      "payable": false,
      "stateMutability": "view",
      "type": "function"
    },
    {
      "constant": false,
      "inputs": [
        {
          "name": "_crate",
          "type": "bytes32"
        },
        {
          "name": "_key",
          "type": "bytes32"
        },
        {
          "name": "_value",
          "type": "address"
        },
        {
          "name": "_value2",
          "type": "uint8"
        }
      ],
      "name": "setAddressUInt8",
      "outputs": [],
      "payable": false,
      "stateMutability": "nonpayable",
      "type": "function"
    },
    {
      "constant": true,
      "inputs": [
        {
          "name": "_crate",
          "type": "bytes32"
        },
        {
          "name": "_key",
          "type": "bytes32"
        }
      ],
      "name": "getAddressUInt8",
      "outputs": [
        {
          "name": "",
          "type": "address"
        },
        {
          "name": "",
          "type": "uint8"
        }
      ],
      "payable": false,
      "stateMutability": "view",
      "type": "function"
    }
  ],
  "bytecode": "0x608060405260008054600160a060020a0319163317905561115a806100256000396000f3006080604052600436106101325763ffffffff7c0100000000000000000000000000000000000000000000000000000000600035041663061c88008114610137578063252edb76146101575780632bc40f9a1461017857806337d9d7fc146101a5578063428e357b146101d25780634592cd1d14610203578063481c6a751461022c57806353aa3f5e1461025d57806353e7168b14610278578063557f4bc9146102965780635aa77d3c146102b75780635ecb16cd146102cc5780637362377b1461032157806379a7cfee1461033657806398eaf11c1461035d578063a14ff85714610378578063a6fbf3d214610396578063ce606ee0146103b1578063d0ebdbe7146103c6578063d3a39686146103e7578063e33e5c5e14610402578063f0f53ee414610442578063f2fde38b14610462575b600080fd5b34801561014357600080fd5b50610155600435602435604435610483565b005b34801561016357600080fd5b5061015560043560243560ff60443516610579565b34801561018457600080fd5b50610155600435602435600160a060020a036044351660ff6064351661067f565b3480156101b157600080fd5b506101c06004356024356107f1565b60408051918252519081900360200190f35b3480156101de57600080fd5b506101ed600435602435610812565b6040805160ff9092168252519081900360200190f35b34801561020f57600080fd5b50610218610836565b604080519115158252519081900360200190f35b34801561023857600080fd5b506102416108c7565b60408051600160a060020a039092168252519081900360200190f35b34801561026957600080fd5b506101c06004356024356108d6565b34801561028457600080fd5b506101556004356024356044356108f3565b3480156102a257600080fd5b50610218600160a060020a03600435166109e5565b3480156102c357600080fd5b50610241610a40565b3480156102d857600080fd5b506040805160206004803580820135838102808601850190965280855261015595369593946024949385019291829185019084908082843750949750610a4f9650505050505050565b34801561032d57600080fd5b50610155610bee565b34801561034257600080fd5b50610155600435602435600160a060020a0360443516610c4c565b34801561036957600080fd5b50610218600435602435610d6b565b34801561038457600080fd5b50610155600435602435604435610d8e565b3480156103a257600080fd5b506101c0600435602435610e84565b3480156103bd57600080fd5b50610241610ea5565b3480156103d257600080fd5b50610218600160a060020a0360043516610eb4565b3480156103f357600080fd5b50610241600435602435610efa565b34801561040e57600080fd5b5061041d600435602435610f24565b60408051600160a060020a03909316835260ff90911660208301528051918290030190f35b34801561044e57600080fd5b506101556004356024356044351515610f6c565b34801561046e57600080fd5b50610218600160a060020a036004351661106f565b6003546040805160e060020a635cb8dd090281523360048201526024810186905290518592600160a060020a031691635cb8dd099160448083019260209291908290030181600087803b1580156104d957600080fd5b505af11580156104ed573d6000803e3d6000fd5b505050506040513d602081101561050357600080fd5b50511515610558576040805160e560020a62461bcd0281526020600482015260248082015260008051602061110f833981519152604482015260e260020a631bddd95902606482015290519081900360840190fd5b50600092835260026020908152604080852093855260039093019052912055565b6003546040805160e060020a635cb8dd090281523360048201526024810186905290518592600160a060020a031691635cb8dd099160448083019260209291908290030181600087803b1580156105cf57600080fd5b505af11580156105e3573d6000803e3d6000fd5b505050506040513d60208110156105f957600080fd5b5051151561064e576040805160e560020a62461bcd0281526020600482015260248082015260008051602061110f833981519152604482015260e260020a631bddd95902606482015290519081900360840190fd5b506000928352600260209081526040808520938552600490930190529120805460ff191660ff909216919091179055565b6003546040805160e060020a635cb8dd090281523360048201526024810187905290518692600160a060020a031691635cb8dd099160448083019260209291908290030181600087803b1580156106d557600080fd5b505af11580156106e9573d6000803e3d6000fd5b505050506040513d60208110156106ff57600080fd5b50511515610754576040805160e560020a62461bcd0281526020600482015260248082015260008051602061110f833981519152604482015260e260020a631bddd95902606482015290519081900360840190fd5b50604080518082018252600160a060020a03938416815260ff92831660208083019182526000978852600281528388209688526006909601909552942093518454935173ffffffffffffffffffffffffffffffffffffffff1990941692169190911774ff00000000000000000000000000000000000000001916740100000000000000000000000000000000000000009290911691909102179055565b60009182526002602090815260408084209284526005909201905290205490565b60009182526002602090815260408084209284526004909201905290205460ff1690565b600154600090600160a060020a03163314610853575060006108c4565b60015460008054604051600160a060020a0393841693909116917f8be0079c531659141344cd1fd0a4f28419497f9722a3daafe3b4186f6b6457e091a350600180546000805473ffffffffffffffffffffffffffffffffffffffff19908116600160a060020a038416179091551681555b90565b600354600160a060020a031681565b600091825260026020908152604080842092845291905290205490565b6003546040805160e060020a635cb8dd090281523360048201526024810186905290518592600160a060020a031691635cb8dd099160448083019260209291908290030181600087803b15801561094957600080fd5b505af115801561095d573d6000803e3d6000fd5b505050506040513d602081101561097357600080fd5b505115156109c8576040805160e560020a62461bcd0281526020600482015260248082015260008051602061110f833981519152604482015260e260020a631bddd95902606482015290519081900360840190fd5b506000928352600260209081526040808520938552929052912055565b60008054600160a060020a0316331415610a3b57600160a060020a0382161515610a1157506000610a3b565b506001805473ffffffffffffffffffffffffffffffffffffffff1916600160a060020a0383161781555b919050565b600154600160a060020a031681565b60008054819081908190600160a060020a0316331415610be75760008054600160a060020a0316945092505b8451831015610be7578483815181101515610a9257fe5b6020908102909101810151604080517f70a082310000000000000000000000000000000000000000000000000000000081523060048201529051919450600160a060020a038516926370a08231926024808401938290030181600087803b158015610afc57600080fd5b505af1158015610b10573d6000803e3d6000fd5b505050506040513d6020811015610b2657600080fd5b505190506000811115610bdc5781600160a060020a031663a9059cbb85836040518363ffffffff167c01000000000000000000000000000000000000000000000000000000000281526004018083600160a060020a0316600160a060020a0316815260200182815260200192505050602060405180830381600087803b158015610baf57600080fd5b505af1158015610bc3573d6000803e3d6000fd5b505050506040513d6020811015610bd957600080fd5b50505b600190920191610a7b565b5050505050565b60008054600160a060020a0316331415610c49575030316000811115610c495760008054604051600160a060020a039091169183156108fc02918491818181858888f19350505050158015610c47573d6000803e3d6000fd5b505b50565b6003546040805160e060020a635cb8dd090281523360048201526024810186905290518592600160a060020a031691635cb8dd099160448083019260209291908290030181600087803b158015610ca257600080fd5b505af1158015610cb6573d6000803e3d6000fd5b505050506040513d6020811015610ccc57600080fd5b50511515610d21576040805160e560020a62461bcd0281526020600482015260248082015260008051602061110f833981519152604482015260e260020a631bddd95902606482015290519081900360840190fd5b506000928352600260209081526040808520938552600190930190529120805473ffffffffffffffffffffffffffffffffffffffff1916600160a060020a03909216919091179055565b600091825260026020818152604080852093855292909101905290205460ff1690565b6003546040805160e060020a635cb8dd090281523360048201526024810186905290518592600160a060020a031691635cb8dd099160448083019260209291908290030181600087803b158015610de457600080fd5b505af1158015610df8573d6000803e3d6000fd5b505050506040513d6020811015610e0e57600080fd5b50511515610e63576040805160e560020a62461bcd0281526020600482015260248082015260008051602061110f833981519152604482015260e260020a631bddd95902606482015290519081900360840190fd5b50600092835260026020908152604080852093855260059093019052912055565b60009182526002602090815260408084209284526003909201905290205490565b600054600160a060020a031681565b60008054600160a060020a0316331415610a3b575060038054600160a060020a03831673ffffffffffffffffffffffffffffffffffffffff199091161790556001919050565b600091825260026020908152604080842092845260019092019052902054600160a060020a031690565b600091825260026020908152604080842092845260069092019052902054600160a060020a038116917401000000000000000000000000000000000000000090910460ff1690565b6003546040805160e060020a635cb8dd090281523360048201526024810186905290518592600160a060020a031691635cb8dd099160448083019260209291908290030181600087803b158015610fc257600080fd5b505af1158015610fd6573d6000803e3d6000fd5b505050506040513d6020811015610fec57600080fd5b50511515611041576040805160e560020a62461bcd0281526020600482015260248082015260008051602061110f833981519152604482015260e260020a631bddd95902606482015290519081900360840190fd5b5060009283526002602081815260408086209486529390910190529120805460ff1916911515919091179055565b60008054600160a060020a0316331415610a3b57600160a060020a038216151561109b57506000610a3b565b60008054604051600160a060020a03808616939216917f8be0079c531659141344cd1fd0a4f28419497f9722a3daafe3b4186f6b6457e091a35060008054600160a060020a03831673ffffffffffffffffffffffffffffffffffffffff1991821617909155600180549091168155919050560041636365737320746f207468652073746f72616765206973206e6f7420616c6ca165627a7a7230582050acb48b5f9693acc6a84ff86cbe96e84f7c93a325b385952c3e4d0f16e565630029",
  "source": "/**\n * Copyright 2017–2018, LaborX PTY\n * Licensed under the AGPL Version 3 license.\n */\n\npragma solidity ^0.4.23;\n\n\nimport \"solidity-shared-lib/contracts/Owned.sol\";\n\n\ncontract Manager {\n    function isAllowed(address _actor, bytes32 _role) public view returns (bool);\n}\n\n\ncontract Storage is Owned {\n    struct Crate {\n        mapping(bytes32 => uint) uints;\n        mapping(bytes32 => address) addresses;\n        mapping(bytes32 => bool) bools;\n        mapping(bytes32 => int) ints;\n        mapping(bytes32 => uint8) uint8s;\n        mapping(bytes32 => bytes32) bytes32s;\n        mapping(bytes32 => AddressUInt8) addressUInt8s;\n    }\n\n    struct AddressUInt8 {\n        address _address;\n        uint8 _uint8;\n    }\n\n    mapping(bytes32 => Crate) internal crates;\n    Manager public manager;\n\n    modifier onlyAllowed(bytes32 _role) {\n        if (!manager.isAllowed(msg.sender, _role)) {\n            revert(\"Access to the storage is not allowed\");\n        }\n        _;\n    }\n\n    function setManager(Manager _manager) onlyContractOwner external returns (bool) {\n        manager = _manager;\n        return true;\n    }\n\n    function setUInt(bytes32 _crate, bytes32 _key, uint _value) onlyAllowed(_crate) public {\n        crates[_crate].uints[_key] = _value;\n    }\n\n    function getUInt(bytes32 _crate, bytes32 _key) public view returns (uint) {\n        return crates[_crate].uints[_key];\n    }\n\n    function setAddress(bytes32 _crate, bytes32 _key, address _value) onlyAllowed(_crate) public {\n        crates[_crate].addresses[_key] = _value;\n    }\n\n    function getAddress(bytes32 _crate, bytes32 _key) public view returns (address) {\n        return crates[_crate].addresses[_key];\n    }\n\n    function setBool(bytes32 _crate, bytes32 _key, bool _value) onlyAllowed(_crate) public {\n        crates[_crate].bools[_key] = _value;\n    }\n\n    function getBool(bytes32 _crate, bytes32 _key) public view returns (bool) {\n        return crates[_crate].bools[_key];\n    }\n\n    function setInt(bytes32 _crate, bytes32 _key, int _value) onlyAllowed(_crate) public {\n        crates[_crate].ints[_key] = _value;\n    }\n\n    function getInt(bytes32 _crate, bytes32 _key) public view returns (int) {\n        return crates[_crate].ints[_key];\n    }\n\n    function setUInt8(bytes32 _crate, bytes32 _key, uint8 _value) onlyAllowed(_crate) public {\n        crates[_crate].uint8s[_key] = _value;\n    }\n\n    function getUInt8(bytes32 _crate, bytes32 _key) public view returns (uint8) {\n        return crates[_crate].uint8s[_key];\n    }\n\n    function setBytes32(bytes32 _crate, bytes32 _key, bytes32 _value) onlyAllowed(_crate) public {\n        crates[_crate].bytes32s[_key] = _value;\n    }\n\n    function getBytes32(bytes32 _crate, bytes32 _key) public view returns (bytes32) {\n        return crates[_crate].bytes32s[_key];\n    }\n\n    function setAddressUInt8(bytes32 _crate, bytes32 _key, address _value, uint8 _value2) onlyAllowed(_crate) public {\n        crates[_crate].addressUInt8s[_key] = AddressUInt8(_value, _value2);\n    }\n\n    function getAddressUInt8(bytes32 _crate, bytes32 _key) public view returns (address, uint8) {\n        return (crates[_crate].addressUInt8s[_key]._address, crates[_crate].addressUInt8s[_key]._uint8);\n    }\n}\n",
  "sourcePath": "solidity-storage-lib/contracts/Storage.sol",
  "compiler": {
    "name": "solc",
    "version": "0.4.24+commit.e67f0147.Emscripten.clang"
  },
  "schemaVersion": "2.0.1",
  "updatedAt": "2018-09-18T15:43:45.595Z"
}