{
  "contractName": "StorageManager",
  "abi": [
    {
      "constant": false,
      "inputs": [],
      "name": "claimContractOwnership",
      "outputs": [
        {
          "name": "",
          "type": "bool"
        }
      ],
      "payable": false,
      "stateMutability": "nonpayable",
      "type": "function"
    },
    {
      "constant": false,
      "inputs": [
        {
          "name": "_to",
          "type": "address"
        }
      ],
      "name": "changeContractOwnership",
      "outputs": [
        {
          "name": "",
          "type": "bool"
        }
      ],
      "payable": false,
      "stateMutability": "nonpayable",
      "type": "function"
    },
    {
      "constant": true,
      "inputs": [],
      "name": "pendingContractOwner",
      "outputs": [
        {
          "name": "",
          "type": "address"
        }
      ],
      "payable": false,
      "stateMutability": "view",
      "type": "function"
    },
    {
      "constant": false,
      "inputs": [
        {
          "name": "tokens",
          "type": "address[]"
        }
      ],
      "name": "withdrawTokens",
      "outputs": [],
      "payable": false,
      "stateMutability": "nonpayable",
      "type": "function"
    },
    {
      "constant": false,
      "inputs": [],
      "name": "withdrawEther",
      "outputs": [],
      "payable": false,
      "stateMutability": "nonpayable",
      "type": "function"
    },
    {
      "constant": true,
      "inputs": [
        {
          "name": "",
          "type": "bytes32"
        }
      ],
      "name": "accessRights",
      "outputs": [
        {
          "name": "",
          "type": "bool"
        }
      ],
      "payable": false,
      "stateMutability": "view",
      "type": "function"
    },
    {
      "constant": false,
      "inputs": [
        {
          "name": "_errorCode",
          "type": "uint256"
        }
      ],
      "name": "emitErrorCode",
      "outputs": [],
      "payable": false,
      "stateMutability": "nonpayable",
      "type": "function"
    },
    {
      "constant": true,
      "inputs": [],
      "name": "contractOwner",
      "outputs": [
        {
          "name": "",
          "type": "address"
        }
      ],
      "payable": false,
      "stateMutability": "view",
      "type": "function"
    },
    {
      "constant": true,
      "inputs": [
        {
          "name": "",
          "type": "address"
        }
      ],
      "name": "authorised",
      "outputs": [
        {
          "name": "",
          "type": "uint256"
        }
      ],
      "payable": false,
      "stateMutability": "view",
      "type": "function"
    },
    {
      "constant": false,
      "inputs": [
        {
          "name": "newOwner",
          "type": "address"
        }
      ],
      "name": "transferOwnership",
      "outputs": [
        {
          "name": "",
          "type": "bool"
        }
      ],
      "payable": false,
      "stateMutability": "nonpayable",
      "type": "function"
    },
    {
      "constant": true,
      "inputs": [],
      "name": "getEventsHistory",
      "outputs": [
        {
          "name": "",
          "type": "address"
        }
      ],
      "payable": false,
      "stateMutability": "view",
      "type": "function"
    },
    {
      "anonymous": false,
      "inputs": [
        {
          "indexed": true,
          "name": "self",
          "type": "address"
        },
        {
          "indexed": false,
          "name": "actor",
          "type": "address"
        },
        {
          "indexed": false,
          "name": "role",
          "type": "bytes32"
        }
      ],
      "name": "AccessGiven",
      "type": "event"
    },
    {
      "anonymous": false,
      "inputs": [
        {
          "indexed": true,
          "name": "self",
          "type": "address"
        },
        {
          "indexed": false,
          "name": "actor",
          "type": "address"
        },
        {
          "indexed": false,
          "name": "role",
          "type": "bytes32"
        }
      ],
      "name": "AccessBlocked",
      "type": "event"
    },
    {
      "anonymous": false,
      "inputs": [
        {
          "indexed": true,
          "name": "self",
          "type": "address"
        },
        {
          "indexed": false,
          "name": "errorCode",
          "type": "uint256"
        }
      ],
      "name": "ErrorCode",
      "type": "event"
    },
    {
      "anonymous": false,
      "inputs": [
        {
          "indexed": true,
          "name": "previousOwner",
          "type": "address"
        },
        {
          "indexed": true,
          "name": "newOwner",
          "type": "address"
        }
      ],
      "name": "OwnershipTransferred",
      "type": "event"
    },
    {
      "constant": false,
      "inputs": [
        {
          "name": "_eventsHistory",
          "type": "address"
        }
      ],
      "name": "setupEventsHistory",
      "outputs": [
        {
          "name": "",
          "type": "uint256"
        }
      ],
      "payable": false,
      "stateMutability": "nonpayable",
      "type": "function"
    },
    {
      "constant": false,
      "inputs": [
        {
          "name": "_actor",
          "type": "address"
        },
        {
          "name": "_role",
          "type": "bytes32"
        }
      ],
      "name": "giveAccess",
      "outputs": [
        {
          "name": "",
          "type": "uint256"
        }
      ],
      "payable": false,
      "stateMutability": "nonpayable",
      "type": "function"
    },
    {
      "constant": false,
      "inputs": [
        {
          "name": "_actor",
          "type": "address"
        },
        {
          "name": "_role",
          "type": "bytes32"
        }
      ],
      "name": "blockAccess",
      "outputs": [
        {
          "name": "",
          "type": "uint256"
        }
      ],
      "payable": false,
      "stateMutability": "nonpayable",
      "type": "function"
    },
    {
      "constant": true,
      "inputs": [
        {
          "name": "_actor",
          "type": "address"
        },
        {
          "name": "_role",
          "type": "bytes32"
        }
      ],
      "name": "isAllowed",
      "outputs": [
        {
          "name": "",
          "type": "bool"
        }
      ],
      "payable": false,
      "stateMutability": "view",
      "type": "function"
    },
    {
      "constant": true,
      "inputs": [
        {
          "name": "_actor",
          "type": "address"
        }
      ],
      "name": "hasAccess",
      "outputs": [
        {
          "name": "",
          "type": "bool"
        }
      ],
      "payable": false,
      "stateMutability": "view",
      "type": "function"
    },
    {
      "constant": false,
      "inputs": [
        {
          "name": "_user",
          "type": "address"
        },
        {
          "name": "_role",
          "type": "bytes32"
        }
      ],
      "name": "emitAccessGiven",
      "outputs": [],
      "payable": false,
      "stateMutability": "nonpayable",
      "type": "function"
    },
    {
      "constant": false,
      "inputs": [
        {
          "name": "_user",
          "type": "address"
        },
        {
          "name": "_role",
          "type": "bytes32"
        }
      ],
      "name": "emitAccessBlocked",
      "outputs": [],
      "payable": false,
      "stateMutability": "nonpayable",
      "type": "function"
    }
  ],
  "bytecode": "0x608060405260008054600160a060020a03191633179055610e8e806100256000396000f3006080604052600436106100fb5763ffffffff7c010000000000000000000000000000000000000000000000000000000060003504166302927d208114610100578063157fbd8d146101335780632c19d480146101595780634592cd1d1461017d578063557f4bc9146101a65780635aa77d3c146101c75780635cb8dd09146101f85780635ecb16cd1461021c5780637362377b146102715780637a7f34531461028657806385c53cf11461029e5780638834277e146102c257806395a078e8146102da578063bd17a9d8146102fb578063ce606ee01461031f578063d6eb1bbf14610334578063f2fde38b14610355578063fff10aba14610376575b600080fd5b34801561010c57600080fd5b50610121600160a060020a036004351661038b565b60408051918252519081900360200190f35b34801561013f57600080fd5b50610157600160a060020a03600435166024356103b3565b005b34801561016557600080fd5b50610157600160a060020a0360043516602435610407565b34801561018957600080fd5b5061019261045b565b604080519115158252519081900360200190f35b3480156101b257600080fd5b50610192600160a060020a03600435166104ec565b3480156101d357600080fd5b506101dc610548565b60408051600160a060020a039092168252519081900360200190f35b34801561020457600080fd5b50610192600160a060020a0360043516602435610557565b34801561022857600080fd5b5060408051602060048035808201358381028086018501909652808552610157953695939460249493850192918291850190849080828437509497506106299650505050505050565b34801561027d57600080fd5b506101576107c8565b34801561029257600080fd5b50610192600435610826565b3480156102aa57600080fd5b50610121600160a060020a036004351660243561083b565b3480156102ce57600080fd5b506101576004356109f8565b3480156102e657600080fd5b50610192600160a060020a0360043516610a43565b34801561030757600080fd5b50610121600160a060020a0360043516602435610a73565b34801561032b57600080fd5b506101dc610c45565b34801561034057600080fd5b50610121600160a060020a0360043516610c54565b34801561036157600080fd5b50610192600160a060020a0360043516610c66565b34801561038257600080fd5b506101dc610d05565b60008054600160a060020a03163314156103ae576103a882610d29565b50600190505b919050565b6103bb610d5a565b60408051600160a060020a0385811682526020820185905282519316927fd21adfcaa3724e99864abea371528f9aa867d0b433e7d29dd972bf8d839ce467929181900390910190a25050565b61040f610d5a565b60408051600160a060020a0385811682526020820185905282519316927fb6798040b2ff718946767eb5764382753f7d49017204678c8905ccbd393f48bc929181900390910190a25050565b600154600090600160a060020a03163314610478575060006104e9565b60015460008054604051600160a060020a0393841693909116917f8be0079c531659141344cd1fd0a4f28419497f9722a3daafe3b4186f6b6457e091a350600180546000805473ffffffffffffffffffffffffffffffffffffffff19908116600160a060020a038416179091551681555b90565b60008054600160a060020a03163314156103ae57600160a060020a0382161515610518575060006103ae565b5060018054600160a060020a03831673ffffffffffffffffffffffffffffffffffffffff19909116178155919050565b600154600160a060020a031681565b604080516c01000000000000000000000000600160a060020a0385160260208083019190915260348083018590528351808403909101815260549092019283905281516000936004938593909282918401908083835b602083106105cc5780518252601f1990920191602091820191016105ad565b51815160209384036101000a600019018019909216911617905260408051929094018290039091208652850195909552929092016000205460ff1692508291506106209050575030600160a060020a038416145b90505b92915050565b60008054819081908190600160a060020a03163314156107c15760008054600160a060020a0316945092505b84518310156107c157848381518110151561066c57fe5b6020908102909101810151604080517f70a082310000000000000000000000000000000000000000000000000000000081523060048201529051919450600160a060020a038516926370a08231926024808401938290030181600087803b1580156106d657600080fd5b505af11580156106ea573d6000803e3d6000fd5b505050506040513d602081101561070057600080fd5b5051905060008111156107b65781600160a060020a031663a9059cbb85836040518363ffffffff167c01000000000000000000000000000000000000000000000000000000000281526004018083600160a060020a0316600160a060020a0316815260200182815260200192505050602060405180830381600087803b15801561078957600080fd5b505af115801561079d573d6000803e3d6000fd5b505050506040513d60208110156107b357600080fd5b50505b600190920191610655565b5050505050565b60008054600160a060020a03163314156108235750303160008111156108235760008054604051600160a060020a039091169183156108fc02918491818181858888f19350505050158015610821573d6000803e3d6000fd5b505b50565b60046020526000908152604090205460ff1681565b60008054600160a060020a031633141561062357604080516c01000000000000000000000000600160a060020a03861602602080830191909152603480830186905283518084039091018152605490920192839052815160049360009392909182918401908083835b602083106108c35780518252601f1990920191602091820191016108a4565b51815160209384036101000a600019018019909216911617905260408051929094018290039091208652850195909552929092016000205460ff16151592506109ef91505057604080516c01000000000000000000000000600160a060020a038616026020808301919091526034808301869052835180840390910181526054909201928390528151600193600493600093909282918401908083835b6020831061097f5780518252601f199092019160209182019101610960565b51815160209384036101000a60001901801990921691161790526040805192909401829003909120865285810196909652509283016000908120805460ff1916961515969096179095555050600160a060020a038616835260039091529020805460010190556109ef8383610d5e565b50600192915050565b610a00610d5a565b600160a060020a03167f09e0713b45664e161c202b19bb4574ee83dfa056f9bfdee56847b3971d968221826040518082815260200191505060405180910390a250565b600160a060020a038116600090815260036020526040812054811080610623575050600160a060020a0316301490565b60008054600160a060020a031633141561062357604080516c01000000000000000000000000600160a060020a03861602602080830191909152603480830186905283518084039091018152605490920192839052815160049360009392909182918401908083835b60208310610afb5780518252601f199092019160209182019101610adc565b51815160209384036101000a600019018019909216911617905260408051929094018290039091208652850195909552929092016000205460ff161592506109ef91505057604080516c01000000000000000000000000600160a060020a03861602602080830191909152603480830186905283518084039091018152605490920192839052815160049360009392909182918401908083835b60208310610bb45780518252601f199092019160209182019101610b95565b51815160001960209485036101000a81019182169119929092161790915260408051959093018590039094208752868101979097529485016000908120805460ff19169055600160a060020a038a168152600390965250929093208054909201918290555015159050610c3b57600160a060020a0383166000908152600360205260408120555b6109ef8383610dee565b600054600160a060020a031681565b60036020526000908152604090205481565b60008054600160a060020a03163314156103ae57600160a060020a0382161515610c92575060006103ae565b60008054604051600160a060020a03808616939216917f8be0079c531659141344cd1fd0a4f28419497f9722a3daafe3b4186f6b6457e091a35060008054600160a060020a03831673ffffffffffffffffffffffffffffffffffffffff1991821617909155600180549091168155919050565b600254600090600160a060020a0316801515610d215730610d23565b805b91505090565b60028054600160a060020a03831673ffffffffffffffffffffffffffffffffffffffff199091161790556001919050565b3390565b610d66610d05565b604080517f2c19d480000000000000000000000000000000000000000000000000000000008152600160a060020a0385811660048301526024820185905291519290911691632c19d4809160448082019260009290919082900301818387803b158015610dd257600080fd5b505af1158015610de6573d6000803e3d6000fd5b505050505050565b610df6610d05565b604080517f157fbd8d000000000000000000000000000000000000000000000000000000008152600160a060020a038581166004830152602482018590529151929091169163157fbd8d9160448082019260009290919082900301818387803b158015610dd257600080fd00a165627a7a72305820416df1642e41492f65f52f9d7722cee039f1751d4497fc8ceb139bd1415171bd0029",
  "source": "/**\n * Copyright 2017–2018, LaborX PTY\n * Licensed under the AGPL Version 3 license.\n */\n\npragma solidity ^0.4.23;\n\n\nimport \"solidity-shared-lib/contracts/Owned.sol\";\nimport \"solidity-eventshistory-lib/contracts/MultiEventsHistoryAdapter.sol\";\n\n\ncontract StorageManager is Owned, MultiEventsHistoryAdapter {\n\n    uint constant OK = 1;\n\n    event AccessGiven(address indexed self, address actor, bytes32 role);\n    event AccessBlocked(address indexed self, address actor, bytes32 role);\n\n    mapping (address => uint) public authorised;\n    mapping (bytes32 => bool) public accessRights;\n\n    function setupEventsHistory(address _eventsHistory) \n    external \n    onlyContractOwner \n    returns (uint) \n    {\n        _setEventsHistory(_eventsHistory);\n        return OK;\n    }\n\n    function giveAccess(address _actor, bytes32 _role) \n    external \n    onlyContractOwner \n    returns (uint) \n    {\n        if (!accessRights[keccak256(abi.encodePacked(_actor, _role))]) {\n            accessRights[keccak256(abi.encodePacked(_actor, _role))] = true;\n            authorised[_actor] += 1;\n            _emitAccessGiven(_actor, _role);\n        }\n\n        return OK;\n    }\n\n    function blockAccess(address _actor, bytes32 _role) \n    external \n    onlyContractOwner \n    returns (uint) \n    {\n        if (accessRights[keccak256(abi.encodePacked(_actor, _role))]) {\n            delete accessRights[keccak256(abi.encodePacked(_actor, _role))];\n            authorised[_actor] -= 1;\n            if (authorised[_actor] == 0) {\n                delete authorised[_actor];\n            }\n            _emitAccessBlocked(_actor, _role);\n        }\n\n        return OK;\n    }\n\n    function isAllowed(address _actor, bytes32 _role) \n    public \n    view \n    returns (bool) \n    {\n        return accessRights[keccak256(abi.encodePacked(_actor, _role))] || (this == _actor);\n    }\n\n    function hasAccess(address _actor) \n    public \n    view \n    returns (bool) \n    {\n        return (authorised[_actor] > 0) || (this == _actor);\n    }\n\n    function emitAccessGiven(address _user, bytes32 _role) external {\n        emit AccessGiven(_self(), _user, _role);\n    }\n\n    function emitAccessBlocked(address _user, bytes32 _role) external {\n        emit AccessBlocked(_self(), _user, _role);\n    }\n\n    function _emitAccessGiven(address _user, bytes32 _role) internal {\n        StorageManager(getEventsHistory()).emitAccessGiven(_user, _role);\n    }\n\n    function _emitAccessBlocked(address _user, bytes32 _role) internal {\n        StorageManager(getEventsHistory()).emitAccessBlocked(_user, _role);\n    }\n}\n",
  "sourcePath": "solidity-storage-lib/contracts/StorageManager.sol",
  "compiler": {
    "name": "solc",
    "version": "0.4.24+commit.e67f0147.Emscripten.clang"
  },
  "schemaVersion": "2.0.1",
  "updatedAt": "2018-09-18T15:40:50.966Z"
}