{
  "contractName": "TwoFactorAuthenticationSig",
  "abi": [
    {
      "constant": false,
      "inputs": [
        {
          "name": "owner",
          "type": "address"
        }
      ],
      "name": "removeOwner",
      "outputs": [],
      "payable": false,
      "stateMutability": "nonpayable",
      "type": "function"
    },
    {
      "constant": false,
      "inputs": [
        {
          "name": "transactionId",
          "type": "uint256"
        }
      ],
      "name": "revokeConfirmation",
      "outputs": [],
      "payable": false,
      "stateMutability": "nonpayable",
      "type": "function"
    },
    {
      "constant": true,
      "inputs": [
        {
          "name": "",
          "type": "address"
        }
      ],
      "name": "isOwner",
      "outputs": [
        {
          "name": "",
          "type": "bool"
        }
      ],
      "payable": false,
      "stateMutability": "view",
      "type": "function"
    },
    {
      "constant": true,
      "inputs": [
        {
          "name": "",
          "type": "uint256"
        },
        {
          "name": "",
          "type": "address"
        }
      ],
      "name": "confirmations",
      "outputs": [
        {
          "name": "",
          "type": "bool"
        }
      ],
      "payable": false,
      "stateMutability": "view",
      "type": "function"
    },
    {
      "constant": true,
      "inputs": [
        {
          "name": "pending",
          "type": "bool"
        },
        {
          "name": "executed",
          "type": "bool"
        }
      ],
      "name": "getTransactionCount",
      "outputs": [
        {
          "name": "count",
          "type": "uint256"
        }
      ],
      "payable": false,
      "stateMutability": "view",
      "type": "function"
    },
    {
      "constant": false,
      "inputs": [
        {
          "name": "owner",
          "type": "address"
        }
      ],
      "name": "addOwner",
      "outputs": [],
      "payable": false,
      "stateMutability": "nonpayable",
      "type": "function"
    },
    {
      "constant": true,
      "inputs": [
        {
          "name": "transactionId",
          "type": "uint256"
        }
      ],
      "name": "isConfirmed",
      "outputs": [
        {
          "name": "",
          "type": "bool"
        }
      ],
      "payable": false,
      "stateMutability": "view",
      "type": "function"
    },
    {
      "constant": true,
      "inputs": [
        {
          "name": "transactionId",
          "type": "uint256"
        }
      ],
      "name": "getConfirmationCount",
      "outputs": [
        {
          "name": "count",
          "type": "uint256"
        }
      ],
      "payable": false,
      "stateMutability": "view",
      "type": "function"
    },
    {
      "constant": true,
      "inputs": [
        {
          "name": "",
          "type": "uint256"
        }
      ],
      "name": "transactions",
      "outputs": [
        {
          "name": "destination",
          "type": "address"
        },
        {
          "name": "value",
          "type": "uint256"
        },
        {
          "name": "data",
          "type": "bytes"
        },
        {
          "name": "executed",
          "type": "bool"
        }
      ],
      "payable": false,
      "stateMutability": "view",
      "type": "function"
    },
    {
      "constant": true,
      "inputs": [],
      "name": "getOwners",
      "outputs": [
        {
          "name": "",
          "type": "address[]"
        }
      ],
      "payable": false,
      "stateMutability": "view",
      "type": "function"
    },
    {
      "constant": true,
      "inputs": [
        {
          "name": "from",
          "type": "uint256"
        },
        {
          "name": "to",
          "type": "uint256"
        },
        {
          "name": "pending",
          "type": "bool"
        },
        {
          "name": "executed",
          "type": "bool"
        }
      ],
      "name": "getTransactionIds",
      "outputs": [
        {
          "name": "_transactionIds",
          "type": "uint256[]"
        }
      ],
      "payable": false,
      "stateMutability": "view",
      "type": "function"
    },
    {
      "constant": true,
      "inputs": [
        {
          "name": "transactionId",
          "type": "uint256"
        }
      ],
      "name": "getConfirmations",
      "outputs": [
        {
          "name": "_confirmations",
          "type": "address[]"
        }
      ],
      "payable": false,
      "stateMutability": "view",
      "type": "function"
    },
    {
      "constant": true,
      "inputs": [],
      "name": "transactionCount",
      "outputs": [
        {
          "name": "",
          "type": "uint256"
        }
      ],
      "payable": false,
      "stateMutability": "view",
      "type": "function"
    },
    {
      "constant": false,
      "inputs": [
        {
          "name": "_required",
          "type": "uint256"
        }
      ],
      "name": "changeRequirement",
      "outputs": [],
      "payable": false,
      "stateMutability": "nonpayable",
      "type": "function"
    },
    {
      "constant": false,
      "inputs": [
        {
          "name": "transactionId",
          "type": "uint256"
        }
      ],
      "name": "confirmTransaction",
      "outputs": [],
      "payable": false,
      "stateMutability": "nonpayable",
      "type": "function"
    },
    {
      "constant": false,
      "inputs": [
        {
          "name": "destination",
          "type": "address"
        },
        {
          "name": "value",
          "type": "uint256"
        },
        {
          "name": "data",
          "type": "bytes"
        }
      ],
      "name": "submitTransaction",
      "outputs": [
        {
          "name": "transactionId",
          "type": "uint256"
        }
      ],
      "payable": false,
      "stateMutability": "nonpayable",
      "type": "function"
    },
    {
      "constant": true,
      "inputs": [],
      "name": "MAX_OWNER_COUNT",
      "outputs": [
        {
          "name": "",
          "type": "uint256"
        }
      ],
      "payable": false,
      "stateMutability": "view",
      "type": "function"
    },
    {
      "constant": true,
      "inputs": [],
      "name": "required",
      "outputs": [
        {
          "name": "",
          "type": "uint256"
        }
      ],
      "payable": false,
      "stateMutability": "view",
      "type": "function"
    },
    {
      "constant": false,
      "inputs": [
        {
          "name": "owner",
          "type": "address"
        },
        {
          "name": "newOwner",
          "type": "address"
        }
      ],
      "name": "replaceOwner",
      "outputs": [],
      "payable": false,
      "stateMutability": "nonpayable",
      "type": "function"
    },
    {
      "constant": false,
      "inputs": [
        {
          "name": "transactionId",
          "type": "uint256"
        }
      ],
      "name": "executeTransaction",
      "outputs": [],
      "payable": false,
      "stateMutability": "nonpayable",
      "type": "function"
    },
    {
      "payable": true,
      "stateMutability": "payable",
      "type": "fallback"
    },
    {
      "anonymous": false,
      "inputs": [
        {
          "indexed": true,
          "name": "sender",
          "type": "address"
        },
        {
          "indexed": true,
          "name": "transactionId",
          "type": "uint256"
        }
      ],
      "name": "Confirmation",
      "type": "event"
    },
    {
      "anonymous": false,
      "inputs": [
        {
          "indexed": true,
          "name": "sender",
          "type": "address"
        },
        {
          "indexed": true,
          "name": "transactionId",
          "type": "uint256"
        }
      ],
      "name": "Revocation",
      "type": "event"
    },
    {
      "anonymous": false,
      "inputs": [
        {
          "indexed": true,
          "name": "transactionId",
          "type": "uint256"
        }
      ],
      "name": "Submission",
      "type": "event"
    },
    {
      "anonymous": false,
      "inputs": [
        {
          "indexed": true,
          "name": "transactionId",
          "type": "uint256"
        }
      ],
      "name": "Execution",
      "type": "event"
    },
    {
      "anonymous": false,
      "inputs": [
        {
          "indexed": true,
          "name": "transactionId",
          "type": "uint256"
        }
      ],
      "name": "ExecutionFailure",
      "type": "event"
    },
    {
      "anonymous": false,
      "inputs": [
        {
          "indexed": true,
          "name": "sender",
          "type": "address"
        },
        {
          "indexed": false,
          "name": "value",
          "type": "uint256"
        }
      ],
      "name": "Deposit",
      "type": "event"
    },
    {
      "anonymous": false,
      "inputs": [
        {
          "indexed": true,
          "name": "owner",
          "type": "address"
        }
      ],
      "name": "OwnerAddition",
      "type": "event"
    },
    {
      "anonymous": false,
      "inputs": [
        {
          "indexed": true,
          "name": "owner",
          "type": "address"
        }
      ],
      "name": "OwnerRemoval",
      "type": "event"
    },
    {
      "anonymous": false,
      "inputs": [
        {
          "indexed": false,
          "name": "required",
          "type": "uint256"
        }
      ],
      "name": "RequirementChange",
      "type": "event"
    },
    {
      "constant": true,
      "inputs": [],
      "name": "getOracle",
      "outputs": [
        {
          "name": "",
          "type": "address"
        }
      ],
      "payable": false,
      "stateMutability": "view",
      "type": "function"
    }
  ],
  "bytecode": "0x6080604052611b61806100136000396000f30060806040526004361061011c5763ffffffff7c0100000000000000000000000000000000000000000000000000000000600035041663173825d9811461015e57806320ea8d861461017f5780632f54bf6e146101975780633411c81c146101cc57806354741525146101f05780637065cb4814610221578063784547a714610242578063833b1fce1461025a5780638b51d13f1461028b5780639ace38c2146102a3578063a0e67e2b1461035e578063a8abe69a146103c3578063b5dc40c3146103e8578063b77bf60014610400578063ba51a6df14610415578063c01a8c841461042d578063c642747414610445578063d74f8edd146104ae578063dc8452cd146104c3578063e20056e6146104d8578063ee22610b146104ff575b600034111561015c5760408051348152905133917fe1fffcc4923d04b559f4d29a8bfc6cda04eb5b0d3c460751c2402c5c5cc9109c919081900360200190a25b005b34801561016a57600080fd5b5061015c600160a060020a0360043516610517565b34801561018b57600080fd5b5061015c600435610722565b3480156101a357600080fd5b506101b8600160a060020a0360043516610905565b604080519115158252519081900360200190f35b3480156101d857600080fd5b506101b8600435600160a060020a036024351661091a565b3480156101fc57600080fd5b5061020f6004351515602435151561093a565b60408051918252519081900360200190f35b34801561022d57600080fd5b5061015c600160a060020a03600435166109a6565b34801561024e57600080fd5b506101b8600435610c4b565b34801561026657600080fd5b5061026f610ccf565b60408051600160a060020a039092168252519081900360200190f35b34801561029757600080fd5b5061020f600435610cfc565b3480156102af57600080fd5b506102bb600435610d6b565b6040518085600160a060020a0316600160a060020a031681526020018481526020018060200183151515158152602001828103825284818151815260200191508051906020019080838360005b83811015610320578181015183820152602001610308565b50505050905090810190601f16801561034d5780820380516001836020036101000a031916815260200191505b509550505050505060405180910390f35b34801561036a57600080fd5b50610373610e29565b60408051602080825283518183015283519192839290830191858101910280838360005b838110156103af578181015183820152602001610397565b505050509050019250505060405180910390f35b3480156103cf57600080fd5b5061037360043560243560443515156064351515610e8b565b3480156103f457600080fd5b50610373600435610fc4565b34801561040c57600080fd5b5061020f61113d565b34801561042157600080fd5b5061015c600435611143565b34801561043957600080fd5b5061015c600435611278565b34801561045157600080fd5b50604080516020600460443581810135601f810184900484028501840190955284845261020f948235600160a060020a03169460248035953695946064949201919081908401838280828437509497506114469650505050505050565b3480156104ba57600080fd5b5061020f611465565b3480156104cf57600080fd5b5061020f61146a565b3480156104e457600080fd5b5061015c600160a060020a0360043581169060243516611470565b34801561050b57600080fd5b5061015c6004356116e7565b6000333014610572576040805160e560020a62461bcd0281526020600482015260276024820152600080516020611af68339815191526044820152600080516020611b16833981519152606482015290519081900360840190fd5b600160a060020a038216600090815260026020526040902054829060ff1615156105e2576040805160e560020a62461bcd0281526020600482015260226024820152600080516020611ad6833981519152604482015260f260020a611cdd02606482015290519081900360840190fd5b600160a060020a0383166000908152600260205260408120805460ff1916905591505b600354600019018210156106bd5782600160a060020a031660038381548110151561062c57fe5b600091825260209091200154600160a060020a031614156106b25760038054600019810190811061065957fe5b60009182526020909120015460038054600160a060020a03909216918490811061067f57fe5b9060005260206000200160006101000a815481600160a060020a030219169083600160a060020a031602179055506106bd565b816001019150610605565b6003805460001901906106d09082611a19565b5060035460045411156106e9576003546106e990611143565b604051600160a060020a038416907f8001553a916ef2f495d26a907cc54d96ed840d7bda71e73194bf5a9df7a76b9090600090a2505050565b3360008181526002602052604090205460ff161515610787576040805160e560020a62461bcd0281526020600482015260226024820152600080516020611ad6833981519152604482015260f260020a611cdd02606482015290519081900360840190fd5b60008281526001602090815260408083203380855292529091205483919060ff161515610824576040805160e560020a62461bcd02815260206004820152602260248201527f5b4d756c74695369675d3a2074782073686f756c6420626520636f6e6669726d60448201527f6564000000000000000000000000000000000000000000000000000000000000606482015290519081900360840190fd5b600084815260208190526040902060030154849060ff16156108b6576040805160e560020a62461bcd02815260206004820152602560248201527f5b4d756c74695369675d3a2074782073686f756c64206e6f742062652065786560448201527f6375746564000000000000000000000000000000000000000000000000000000606482015290519081900360840190fd5b6000858152600160209081526040808320338085529252808320805460ff191690555187927ff6a317157440607f36269043eb55f1287a5a19ba2216afeab88cd46cbcfb88e991a35050505050565b60026020526000908152604090205460ff1681565b600160209081526000928352604080842090915290825290205460ff1681565b6000805b60055481101561099f57838015610967575060008181526020819052604090206003015460ff16155b8061098b575082801561098b575060008181526020819052604090206003015460ff165b15610997576001820191505b60010161093e565b5092915050565b3330146109ff576040805160e560020a62461bcd0281526020600482015260276024820152600080516020611af68339815191526044820152600080516020611b16833981519152606482015290519081900360840190fd5b600160a060020a038116600090815260026020526040902054819060ff1615610a80576040805160e560020a62461bcd02815260206004820152602260248201527f5b4d756c74695369675d3a204f776e65722073686f756c64206e6f7420657869604482015260f260020a611cdd02606482015290519081900360840190fd5b81600160a060020a0381161515610b07576040805160e560020a62461bcd02815260206004820152602560248201527f5b4d756c74695369675d3a20616464726573732073686f756c64206e6f74206260448201527f6520307830000000000000000000000000000000000000000000000000000000606482015290519081900360840190fd5b6003805490506001016004546032821180610b2157508181115b80610b2a575080155b80610b33575081155b15610bae576040805160e560020a62461bcd02815260206004820152603160248201527f5b4d756c74695369675d3a2076616c6964206d756c746973696720726571756960448201527f72656d656e74206973206e6f74206d6574000000000000000000000000000000606482015290519081900360840190fd5b600160a060020a038516600081815260026020526040808220805460ff1916600190811790915560038054918201815583527fc2575a0e9e593c00f959f8c92f12db2869c3395a3b0502d05e2516446f71f85b01805473ffffffffffffffffffffffffffffffffffffffff191684179055517ff39e6e1eb0edcf53c221607b54b00cd28f3196fed0a24994dc308b8f611b682d9190a25050505050565b600080805b600354811015610cc85760008481526001602052604081206003805491929184908110610c7957fe5b6000918252602080832090910154600160a060020a0316835282019290925260400190205460ff1615610cad576001820191505b600454821415610cc05760019250610cc8565b600101610c50565b5050919050565b600060036001815481101515610ce157fe5b600091825260209091200154600160a060020a031690505b90565b6000805b600354811015610d655760008381526001602052604081206003805491929184908110610d2957fe5b6000918252602080832090910154600160a060020a0316835282019290925260400190205460ff1615610d5d576001820191505b600101610d00565b50919050565b6000602081815291815260409081902080546001808301546002808501805487516101009582161595909502600019011691909104601f8101889004880284018801909652858352600160a060020a0390931695909491929190830182828015610e165780601f10610deb57610100808354040283529160200191610e16565b820191906000526020600020905b815481529060010190602001808311610df957829003601f168201915b5050506003909301549192505060ff1684565b60606003805480602002602001604051908101604052809291908181526020018280548015610e8157602002820191906000526020600020905b8154600160a060020a03168152600190910190602001808311610e63575b5050505050905090565b606080600080600554604051908082528060200260200182016040528015610ebd578160200160208202803883390190505b50925060009150600090505b600554811015610f4457858015610ef2575060008181526020819052604090206003015460ff16155b80610f165750848015610f16575060008181526020819052604090206003015460ff165b15610f3c57808383815181101515610f2a57fe5b60209081029091010152600191909101905b600101610ec9565b878703604051908082528060200260200182016040528015610f70578160200160208202803883390190505b5093508790505b86811015610fb9578281815181101515610f8d57fe5b9060200190602002015184898303815181101515610fa757fe5b60209081029091010152600101610f77565b505050949350505050565b606080600080600380549050604051908082528060200260200182016040528015610ff9578160200160208202803883390190505b50925060009150600090505b6003548110156110b6576000858152600160205260408120600380549192918490811061102e57fe5b6000918252602080832090910154600160a060020a0316835282019290925260400190205460ff16156110ae57600380548290811061106957fe5b6000918252602090912001548351600160a060020a039091169084908490811061108f57fe5b600160a060020a03909216602092830290910190910152600191909101905b600101611005565b816040519080825280602002602001820160405280156110e0578160200160208202803883390190505b509350600090505b818110156111355782818151811015156110fe57fe5b90602001906020020151848281518110151561111657fe5b600160a060020a039092166020928302909101909101526001016110e8565b505050919050565b60055481565b33301461119c576040805160e560020a62461bcd0281526020600482015260276024820152600080516020611af68339815191526044820152600080516020611b16833981519152606482015290519081900360840190fd5b6003548160328211806111ae57508181115b806111b7575080155b806111c0575081155b1561123b576040805160e560020a62461bcd02815260206004820152603160248201527f5b4d756c74695369675d3a2076616c6964206d756c746973696720726571756960448201527f72656d656e74206973206e6f74206d6574000000000000000000000000000000606482015290519081900360840190fd5b60048390556040805184815290517fa3f1ee9126a074d9326c682f561767f710e927faa811f7a99829d49dc421797a9181900360200190a1505050565b3360008181526002602052604090205460ff1615156112dd576040805160e560020a62461bcd0281526020600482015260226024820152600080516020611ad6833981519152604482015260f260020a611cdd02606482015290519081900360840190fd5b6000828152602081905260409020548290600160a060020a0316151561134d576040805160e560020a62461bcd02815260206004820152601b60248201527f5b4d756c74695369675d3a2074782073686f756c642065786973740000000000604482015290519081900360640190fd5b60008381526001602090815260408083203380855292529091205484919060ff16156113e9576040805160e560020a62461bcd02815260206004820152602660248201527f5b4d756c74695369675d3a2074782073686f756c64206e6f7420626520636f6e60448201527f6669726d65640000000000000000000000000000000000000000000000000000606482015290519081900360840190fd5b6000858152600160208181526040808420338086529252808420805460ff1916909317909255905187927f4a504a94899432a9846e1aa406dceb1bcfd538bb839071d49d1e5e23f5be30ef91a361143f856116e7565b5050505050565b60006114538484846118b8565b905061145e81611278565b9392505050565b603281565b60045481565b60003330146114cb576040805160e560020a62461bcd0281526020600482015260276024820152600080516020611af68339815191526044820152600080516020611b16833981519152606482015290519081900360840190fd5b600160a060020a038316600090815260026020526040902054839060ff16151561153b576040805160e560020a62461bcd0281526020600482015260226024820152600080516020611ad6833981519152604482015260f260020a611cdd02606482015290519081900360840190fd5b600160a060020a038316600090815260026020526040902054839060ff16156115bc576040805160e560020a62461bcd02815260206004820152602260248201527f5b4d756c74695369675d3a204f776e65722073686f756c64206e6f7420657869604482015260f260020a611cdd02606482015290519081900360840190fd5b600092505b60035483101561164d5784600160a060020a03166003848154811015156115e457fe5b600091825260209091200154600160a060020a03161415611642578360038481548110151561160f57fe5b9060005260206000200160006101000a815481600160a060020a030219169083600160a060020a0316021790555061164d565b8260010192506115c1565b600160a060020a03808616600081815260026020526040808220805460ff1990811690915593881682528082208054909416600117909355915190917f8001553a916ef2f495d26a907cc54d96ed840d7bda71e73194bf5a9df7a76b9091a2604051600160a060020a038516907ff39e6e1eb0edcf53c221607b54b00cd28f3196fed0a24994dc308b8f611b682d90600090a25050505050565b600081815260208190526040812060030154829060ff1615611779576040805160e560020a62461bcd02815260206004820152602560248201527f5b4d756c74695369675d3a2074782073686f756c64206e6f742062652065786560448201527f6375746564000000000000000000000000000000000000000000000000000000606482015290519081900360840190fd5b61178283610c4b565b156118b3576000838152602081905260409081902060038101805460ff19166001908117909155815481830154935160028085018054959850600160a060020a03909316959492939192839285926000199183161561010002919091019091160480156118305780601f1061180557610100808354040283529160200191611830565b820191906000526020600020905b81548152906001019060200180831161181357829003601f168201915b505091505060006040518083038185875af1925050501561187b5760405183907f33e13ecb54c3076d8e8bb8c2881800a4d972b792045ffae98fdf46df365fed7590600090a26118b3565b60405183907f526441bb6c1aba3c9a4a6ca1d6545da9c2333c8c48343ef398eb858d72b7923690600090a260038201805460ff191690555b505050565b600083600160a060020a0381161515611941576040805160e560020a62461bcd02815260206004820152602560248201527f5b4d756c74695369675d3a20616464726573732073686f756c64206e6f74206260448201527f6520307830000000000000000000000000000000000000000000000000000000606482015290519081900360840190fd5b60055460408051608081018252600160a060020a0388811682526020808301898152838501898152600060608601819052878152808452959095208451815473ffffffffffffffffffffffffffffffffffffffff1916941693909317835551600183015592518051949650919390926119c1926002850192910190611a3d565b50606091909101516003909101805460ff191691151591909117905560058054600101905560405182907fc0ba8fe4b176c1714197d43b9cc6bcf797a4a7461c5fe8d0ef6e184ae7601e5190600090a2509392505050565b8154818355818111156118b3576000838152602090206118b3918101908301611abb565b828054600181600116156101000203166002900490600052602060002090601f016020900481019282601f10611a7e57805160ff1916838001178555611aab565b82800160010185558215611aab579182015b82811115611aab578251825591602001919060010190611a90565b50611ab7929150611abb565b5090565b610cf991905b80821115611ab75760008155600101611ac156005b4d756c74695369675d3a206f776e65722073686f756c64206e6f74206578695b4d756c74695369675d3a204f6e6c792027746869732720616c6c6f77656420746f2063616c6c00000000000000000000000000000000000000000000000000a165627a7a7230582003ddb9ad48a4ab4d9b13939c8fda56a1ed16683c1e3b20232fba606699b219430029",
  "source": "/**\n* Copyright 20172018, LaborX PTY\n* Licensed under the AGPL Version 3 license.\n*/\n\npragma solidity ^0.4.21;\n\n\nimport \"./MultiSig.sol\";\n\n\n/// @title Intermediat contract that organizes two-factor authentication based on\n/// MultiSig smart contract. Contract should be initialized (_init() function called)\n/// before using any multisig-protected operations. It assumes that oracle will be stored\n/// as the second owner (at index 1).\ncontract TwoFactorAuthenticationSig is MultiSig {\n\n    function _init(address _initiator, address _oracle)\n    internal\n    {\n        uint _required = 2;\n        address[] memory _owners = new address[](_required);\n        _owners[0] = _initiator;\n        _owners[1] = _oracle;\n        MultiSig._initMultiSig(_owners, _required);\n    }\n\n    function _setOracle(address _oracle)\n    internal\n    {\n        require(_oracle != 0x0, \"Oracle should not be equal to 0x0\");\n        \n        this.replaceOwner(owners[1], _oracle);\n    }\n\n    /// @notice Gets oracle address that is used to confirm txs.\n    /// @return address of an oracle\n    function getOracle()\n    public\n    view\n    returns (address) \n    {\n        return owners[1];\n    }\n}",
  "sourcePath": "solidity-user-lib/contracts/TwoFactorAuthenticationSig.sol",
  "compiler": {
    "name": "solc",
    "version": "0.4.24+commit.e67f0147.Emscripten.clang"
  },
  "schemaVersion": "2.0.1",
  "updatedAt": "2018-09-18T15:37:37.874Z"
}