{
  "contractName": "UserBackendProvider",
  "abi": [
    {
      "constant": false,
      "inputs": [
        {
          "name": "_roles2Library",
          "type": "address"
        }
      ],
      "name": "setRoles2Library",
      "outputs": [
        {
          "name": "",
          "type": "uint256"
        }
      ],
      "payable": false,
      "stateMutability": "nonpayable",
      "type": "function"
    },
    {
      "inputs": [
        {
          "name": "_roles2Library",
          "type": "address"
        }
      ],
      "payable": false,
      "stateMutability": "nonpayable",
      "type": "constructor"
    },
    {
      "anonymous": false,
      "inputs": [
        {
          "indexed": false,
          "name": "code",
          "type": "address"
        },
        {
          "indexed": false,
          "name": "sender",
          "type": "address"
        },
        {
          "indexed": false,
          "name": "sig",
          "type": "bytes4"
        }
      ],
      "name": "AuthFailedError",
      "type": "event"
    },
    {
      "constant": true,
      "inputs": [],
      "name": "getUserBackend",
      "outputs": [
        {
          "name": "",
          "type": "address"
        }
      ],
      "payable": false,
      "stateMutability": "view",
      "type": "function"
    },
    {
      "constant": false,
      "inputs": [
        {
          "name": "_userBackend",
          "type": "address"
        }
      ],
      "name": "setUserBackend",
      "outputs": [
        {
          "name": "",
          "type": "uint256"
        }
      ],
      "payable": false,
      "stateMutability": "nonpayable",
      "type": "function"
    },
    {
      "constant": true,
      "inputs": [],
      "name": "getUserRegistry",
      "outputs": [
        {
          "name": "",
          "type": "address"
        }
      ],
      "payable": false,
      "stateMutability": "view",
      "type": "function"
    },
    {
      "constant": false,
      "inputs": [
        {
          "name": "_userRegistry",
          "type": "address"
        }
      ],
      "name": "setUserRegistry",
      "outputs": [
        {
          "name": "",
          "type": "uint256"
        }
      ],
      "payable": false,
      "stateMutability": "nonpayable",
      "type": "function"
    }
  ],
  "bytecode": "0x608060405234801561001057600080fd5b50604051602080610541833981016040525180600160a060020a038116151561003857600080fd5b60008054600160a060020a03909216600160a060020a0319909216919091179055506104d8806100696000396000f30060806040526004361061006c5763ffffffff7c01000000000000000000000000000000000000000000000000000000006000350416632637cd7d81146100715780635724e81f146100a457806359b804aa146100d5578063b0d5451b146100ea578063ff1ad72d1461010b575b600080fd5b34801561007d57600080fd5b50610092600160a060020a036004351661012c565b60408051918252519081900360200190f35b3480156100b057600080fd5b506100b96101ca565b60408051600160a060020a039092168252519081900360200190f35b3480156100e157600080fd5b506100b96101d9565b3480156100f657600080fd5b50610092600160a060020a03600435166101e8565b34801561011757600080fd5b50610092600160a060020a0360043516610287565b600061014433600035600160e060020a0319166103c1565b15156101995760408051308152336020820152600160e060020a0319600035168183015290517f5133a133185f1023427a2e90f18506b27db994977ce0c0faafd514a7dd109ae09181900360600190a16101c5565b506000805473ffffffffffffffffffffffffffffffffffffffff1916600160a060020a03831617905560015b919050565b600254600160a060020a031690565b600154600160a060020a031690565b600061020033600035600160e060020a0319166103c1565b15156102555760408051308152336020820152600160e060020a0319600035168183015290517f5133a133185f1023427a2e90f18506b27db994977ce0c0faafd514a7dd109ae09181900360600190a16101c5565b5060028054600160a060020a03831673ffffffffffffffffffffffffffffffffffffffff199091161790556001919050565b600061029f33600035600160e060020a0319166103c1565b15156102f45760408051308152336020820152600160e060020a0319600035168183015290517f5133a133185f1023427a2e90f18506b27db994977ce0c0faafd514a7dd109ae09181900360600190a16101c5565b600160a060020a038216151561039157604080517f08c379a000000000000000000000000000000000000000000000000000000000815260206004820152602660248201527f557365724261636b656e642073686f756c64206e6f7420626520657175616c2060448201527f746f203078300000000000000000000000000000000000000000000000000000606482015290519081900360840190fd5b5060018054600160a060020a03831673ffffffffffffffffffffffffffffffffffffffff19909116178155919050565b6000600160a060020a0383163014156103dc575060016104a6565b600054600160a060020a031615156103f6575060006104a6565b60008054604080517fb7009613000000000000000000000000000000000000000000000000000000008152600160a060020a038781166004830152306024830152600160e060020a0319871660448301529151919092169263b700961392606480820193602093909283900390910190829087803b15801561047757600080fd5b505af115801561048b573d6000803e3d6000fd5b505050506040513d60208110156104a157600080fd5b505190505b929150505600a165627a7a72305820a5ad68b82a054d2100b11ea40ee6a9904ed6ceccc20086cd666c1c449a8ebe560029",
  "source": "/**\n* Copyright 2017–2018, LaborX PTY\n* Licensed under the AGPL Version 3 license.\n*/\n\npragma solidity ^0.4.21;\n\n\nimport \"solidity-roles-lib/contracts/Roles2LibraryAdapter.sol\";\n\n\n/// @title Plays role of a provider of user-related services\ncontract UserBackendProvider is Roles2LibraryAdapter {\n\n    uint constant OK = 1;\n\n    /// @dev Address of user backend\n    address private userBackend;\n    /// @dev Address of user registry\n    address private userRegistry;\n\n    constructor(address _roles2Library) Roles2LibraryAdapter(_roles2Library) public {\n    }\n\n    /// @notice Gets address of current user backend contract\n    /// @return user backend contract address\n    function getUserBackend() \n    public \n    view \n    returns (address) \n    {\n        return userBackend;\n    }\n\n    /// @notice Sets up a new version of user backend. Will be available immediately for every\n    /// user backend provider consumers.\n    /// Allowed only for authorized roles.\n    /// @param _userBackend new address of user backend\n    /// @return result of an operation\n    function setUserBackend(address _userBackend)\n    external\n    auth\n    returns (uint)\n    {\n        require(_userBackend != 0x0, \"UserBackend should not be equal to 0x0\");\n\n        userBackend = _userBackend;\n        return OK;\n    }\n\n    /// @notice Gets address of current user registry contract\n    /// @return user registry contract address\n    function getUserRegistry()\n    public\n    view\n    returns (address)\n    {\n        return userRegistry;\n    }\n\n    /// @notice Sets up a new version of user registry. Will be available immediately for every\n    /// user backend provider consumers.\n    /// Allowed only for authorized roles.\n    /// @param _userRegistry new address of user registry\n    /// @return result of an operation\n    function setUserRegistry(address _userRegistry)\n    external\n    auth\n    returns (uint)\n    {\n        userRegistry = _userRegistry;\n        return OK;\n    }\n}",
  "sourcePath": "solidity-user-lib/contracts/UserBackendProvider.sol",
  "compiler": {
    "name": "solc",
    "version": "0.4.24+commit.e67f0147.Emscripten.clang"
  },
  "schemaVersion": "2.0.1",
  "updatedAt": "2018-09-18T15:41:41.091Z"
}