{
  "contractName": "UserProxyTester",
  "abi": [
    {
      "constant": true,
      "inputs": [
        {
          "name": "_someInputValue",
          "type": "bytes32"
        }
      ],
      "name": "functionReturningValue",
      "outputs": [
        {
          "name": "",
          "type": "bytes32"
        }
      ],
      "payable": false,
      "stateMutability": "pure",
      "type": "function"
    },
    {
      "constant": true,
      "inputs": [
        {
          "name": "",
          "type": "bytes32"
        }
      ],
      "name": "unsuccessfullFunction",
      "outputs": [
        {
          "name": "",
          "type": "bytes32"
        }
      ],
      "payable": false,
      "stateMutability": "pure",
      "type": "function"
    },
    {
      "constant": true,
      "inputs": [
        {
          "name": "",
          "type": "address"
        },
        {
          "name": "",
          "type": "bytes"
        },
        {
          "name": "",
          "type": "uint256"
        },
        {
          "name": "",
          "type": "bool"
        }
      ],
      "name": "forward",
      "outputs": [
        {
          "name": "",
          "type": "bytes32"
        }
      ],
      "payable": false,
      "stateMutability": "pure",
      "type": "function"
    }
  ],
  "bytecode": "0x608060405234801561001057600080fd5b50610177806100206000396000f3006080604052600436106100565763ffffffff7c0100000000000000000000000000000000000000000000000000000000600035041663c8c24320811461005b578063dd63f7d014610085578063dffdc75d1461009d575b600080fd5b34801561006757600080fd5b50610073600435610118565b60408051918252519081900360200190f35b34801561009157600080fd5b5061007360043561011f565b3480156100a957600080fd5b5060408051602060046024803582810135601f810185900485028601850190965285855261007395833573ffffffffffffffffffffffffffffffffffffffff16953695604494919390910191908190840183828082843750949750508435955050505050602001351515610122565b6000806000fd5b90565b7f34320000000000000000000000000000000000000000000000000000000000009493505050505600a165627a7a723058206d224019f4fb03cb8d984713e3cd47d60eaf82233aadb2b4ef004e99bf76d8ed0029",
  "source": "/**\n * Copyright 2017–2018, LaborX PTY\n * Licensed under the AGPL Version 3 license.\n */\n\npragma solidity ^0.4.18;\n\ncontract UserProxyTester {\n\n    function functionReturningValue(bytes32 _someInputValue) public pure returns (bytes32) {\n        return _someInputValue;\n    }\n\n    function unsuccessfullFunction(bytes32) public pure returns (bytes32) {\n        revert();\n    }\n\n    function forward(address, bytes, uint, bool) public pure returns (bytes32) {\n        return 0x3432000000000000000000000000000000000000000000000000000000000000;\n    }\n}\n",
  "sourcePath": "/Users/alesanro/Documents/Projects/ChronoBank/LX-SC/contracts/helpers/UserProxyTester.sol",
  "compiler": {
    "name": "solc",
    "version": "0.4.24+commit.e67f0147.Emscripten.clang"
  },
  "schemaVersion": "2.0.1",
  "updatedAt": "2018-09-18T15:43:45.582Z"
}