{
  "contractName": "UserLibraryMock",
  "abi": [
    {
      "constant": true,
      "inputs": [],
      "name": "getCalls",
      "outputs": [
        {
          "name": "",
          "type": "uint256"
        },
        {
          "name": "",
          "type": "uint256"
        }
      ],
      "payable": false,
      "stateMutability": "view",
      "type": "function"
    },
    {
      "constant": false,
      "inputs": [
        {
          "name": "",
          "type": "address"
        },
        {
          "name": "",
          "type": "bytes32"
        }
      ],
      "name": "addRole",
      "outputs": [
        {
          "name": "",
          "type": "uint256"
        }
      ],
      "payable": false,
      "stateMutability": "nonpayable",
      "type": "function"
    },
    {
      "constant": false,
      "inputs": [
        {
          "name": "",
          "type": "address"
        },
        {
          "name": "",
          "type": "uint256"
        },
        {
          "name": "",
          "type": "uint256[]"
        },
        {
          "name": "",
          "type": "uint256[]"
        }
      ],
      "name": "setMany",
      "outputs": [
        {
          "name": "",
          "type": "uint256"
        }
      ],
      "payable": false,
      "stateMutability": "nonpayable",
      "type": "function"
    }
  ],
  "bytecode": "0x608060405260008055600060015534801561001957600080fd5b506101d0806100296000396000f3006080604052600436106100565763ffffffff7c010000000000000000000000000000000000000000000000000000000060003504166350f2fb7f811461005b578063a73f7f8a14610089578063d5a18e4c146100cc575b600080fd5b34801561006757600080fd5b50610070610179565b6040805192835260208301919091528051918290030190f35b34801561009557600080fd5b506100ba73ffffffffffffffffffffffffffffffffffffffff60043516602435610183565b60408051918252519081900360200190f35b3480156100d857600080fd5b5060408051602060046044358181013583810280860185019096528085526100ba95833573ffffffffffffffffffffffffffffffffffffffff16956024803596369695606495939492019291829185019084908082843750506040805187358901803560208181028481018201909552818452989b9a9989019892975090820195509350839250850190849080828437509497506101949650505050505050565b6000546001549091565b505060008054600190810190915590565b60018054810181559493505050505600a165627a7a72305820ef4d12cde141e46318a4dfcb3fc15274850824da71ef0f51ca361fa863e6c82c0029",
  "source": "/**\n * Copyright 2017–2018, LaborX PTY\n * Licensed under the AGPL Version 3 license.\n */\n\npragma solidity ^0.4.18;\n\n\ncontract UserLibraryMock {\n\n    uint constant OK = 1;\n\n    uint addRoleCalls = 0;\n    uint setManyCalls = 0;\n\n    function getCalls() public view returns (uint, uint){\n        return (addRoleCalls, setManyCalls);\n    }\n\n    function addRole(address, bytes32) public returns (uint) {\n        addRoleCalls++;\n        return OK;\n    }\n\n    function setMany(address, uint, uint[], uint[]) public returns (uint) {\n        setManyCalls++;\n        return OK;\n    }\n}\n",
  "sourcePath": "/Users/alesanro/Documents/Projects/ChronoBank/LX-SC/contracts/helpers/UserLibraryMock.sol",
  "compiler": {
    "name": "solc",
    "version": "0.4.24+commit.e67f0147.Emscripten.clang"
  },
  "schemaVersion": "2.0.1",
  "updatedAt": "2018-09-18T15:43:45.589Z"
}