{
  "contractName": "UserBackend",
  "abi": [
    {
      "constant": true,
      "inputs": [],
      "name": "backendProvider",
      "outputs": [
        {
          "name": "",
          "type": "address"
        }
      ],
      "payable": false,
      "stateMutability": "view",
      "type": "function"
    },
    {
      "constant": false,
      "inputs": [
        {
          "name": "owner",
          "type": "address"
        }
      ],
      "name": "removeOwner",
      "outputs": [],
      "payable": false,
      "stateMutability": "nonpayable",
      "type": "function"
    },
    {
      "constant": true,
      "inputs": [],
      "name": "issuer",
      "outputs": [
        {
          "name": "",
          "type": "address"
        }
      ],
      "payable": false,
      "stateMutability": "view",
      "type": "function"
    },
    {
      "constant": false,
      "inputs": [
        {
          "name": "transactionId",
          "type": "uint256"
        }
      ],
      "name": "revokeConfirmation",
      "outputs": [],
      "payable": false,
      "stateMutability": "nonpayable",
      "type": "function"
    },
    {
      "constant": true,
      "inputs": [
        {
          "name": "",
          "type": "address"
        }
      ],
      "name": "isOwner",
      "outputs": [
        {
          "name": "",
          "type": "bool"
        }
      ],
      "payable": false,
      "stateMutability": "view",
      "type": "function"
    },
    {
      "constant": true,
      "inputs": [
        {
          "name": "",
          "type": "uint256"
        },
        {
          "name": "",
          "type": "address"
        }
      ],
      "name": "confirmations",
      "outputs": [
        {
          "name": "",
          "type": "bool"
        }
      ],
      "payable": false,
      "stateMutability": "view",
      "type": "function"
    },
    {
      "constant": true,
      "inputs": [
        {
          "name": "pending",
          "type": "bool"
        },
        {
          "name": "executed",
          "type": "bool"
        }
      ],
      "name": "getTransactionCount",
      "outputs": [
        {
          "name": "count",
          "type": "uint256"
        }
      ],
      "payable": false,
      "stateMutability": "view",
      "type": "function"
    },
    {
      "constant": true,
      "inputs": [],
      "name": "version",
      "outputs": [
        {
          "name": "",
          "type": "bytes32"
        }
      ],
      "payable": false,
      "stateMutability": "view",
      "type": "function"
    },
    {
      "constant": true,
      "inputs": [],
      "name": "pendingContractOwner",
      "outputs": [
        {
          "name": "",
          "type": "address"
        }
      ],
      "payable": false,
      "stateMutability": "view",
      "type": "function"
    },
    {
      "constant": false,
      "inputs": [
        {
          "name": "tokens",
          "type": "address[]"
        }
      ],
      "name": "withdrawTokens",
      "outputs": [],
      "payable": false,
      "stateMutability": "nonpayable",
      "type": "function"
    },
    {
      "constant": false,
      "inputs": [
        {
          "name": "owner",
          "type": "address"
        }
      ],
      "name": "addOwner",
      "outputs": [],
      "payable": false,
      "stateMutability": "nonpayable",
      "type": "function"
    },
    {
      "constant": false,
      "inputs": [],
      "name": "withdrawEther",
      "outputs": [],
      "payable": false,
      "stateMutability": "nonpayable",
      "type": "function"
    },
    {
      "constant": true,
      "inputs": [
        {
          "name": "transactionId",
          "type": "uint256"
        }
      ],
      "name": "isConfirmed",
      "outputs": [
        {
          "name": "",
          "type": "bool"
        }
      ],
      "payable": false,
      "stateMutability": "view",
      "type": "function"
    },
    {
      "constant": true,
      "inputs": [],
      "name": "getOracle",
      "outputs": [
        {
          "name": "",
          "type": "address"
        }
      ],
      "payable": false,
      "stateMutability": "view",
      "type": "function"
    },
    {
      "constant": true,
      "inputs": [
        {
          "name": "transactionId",
          "type": "uint256"
        }
      ],
      "name": "getConfirmationCount",
      "outputs": [
        {
          "name": "count",
          "type": "uint256"
        }
      ],
      "payable": false,
      "stateMutability": "view",
      "type": "function"
    },
    {
      "constant": true,
      "inputs": [
        {
          "name": "",
          "type": "uint256"
        }
      ],
      "name": "transactions",
      "outputs": [
        {
          "name": "destination",
          "type": "address"
        },
        {
          "name": "value",
          "type": "uint256"
        },
        {
          "name": "data",
          "type": "bytes"
        },
        {
          "name": "executed",
          "type": "bool"
        }
      ],
      "payable": false,
      "stateMutability": "view",
      "type": "function"
    },
    {
      "constant": true,
      "inputs": [],
      "name": "use2FA",
      "outputs": [
        {
          "name": "",
          "type": "bool"
        }
      ],
      "payable": false,
      "stateMutability": "view",
      "type": "function"
    },
    {
      "constant": true,
      "inputs": [],
      "name": "getOwners",
      "outputs": [
        {
          "name": "",
          "type": "address[]"
        }
      ],
      "payable": false,
      "stateMutability": "view",
      "type": "function"
    },
    {
      "constant": true,
      "inputs": [
        {
          "name": "from",
          "type": "uint256"
        },
        {
          "name": "to",
          "type": "uint256"
        },
        {
          "name": "pending",
          "type": "bool"
        },
        {
          "name": "executed",
          "type": "bool"
        }
      ],
      "name": "getTransactionIds",
      "outputs": [
        {
          "name": "_transactionIds",
          "type": "uint256[]"
        }
      ],
      "payable": false,
      "stateMutability": "view",
      "type": "function"
    },
    {
      "constant": true,
      "inputs": [
        {
          "name": "transactionId",
          "type": "uint256"
        }
      ],
      "name": "getConfirmations",
      "outputs": [
        {
          "name": "_confirmations",
          "type": "address[]"
        }
      ],
      "payable": false,
      "stateMutability": "view",
      "type": "function"
    },
    {
      "constant": true,
      "inputs": [],
      "name": "transactionCount",
      "outputs": [
        {
          "name": "",
          "type": "uint256"
        }
      ],
      "payable": false,
      "stateMutability": "view",
      "type": "function"
    },
    {
      "constant": false,
      "inputs": [
        {
          "name": "_required",
          "type": "uint256"
        }
      ],
      "name": "changeRequirement",
      "outputs": [],
      "payable": false,
      "stateMutability": "nonpayable",
      "type": "function"
    },
    {
      "constant": false,
      "inputs": [
        {
          "name": "transactionId",
          "type": "uint256"
        }
      ],
      "name": "confirmTransaction",
      "outputs": [],
      "payable": false,
      "stateMutability": "nonpayable",
      "type": "function"
    },
    {
      "constant": false,
      "inputs": [
        {
          "name": "destination",
          "type": "address"
        },
        {
          "name": "value",
          "type": "uint256"
        },
        {
          "name": "data",
          "type": "bytes"
        }
      ],
      "name": "submitTransaction",
      "outputs": [
        {
          "name": "transactionId",
          "type": "uint256"
        }
      ],
      "payable": false,
      "stateMutability": "nonpayable",
      "type": "function"
    },
    {
      "constant": true,
      "inputs": [],
      "name": "contractOwner",
      "outputs": [
        {
          "name": "",
          "type": "address"
        }
      ],
      "payable": false,
      "stateMutability": "view",
      "type": "function"
    },
    {
      "constant": true,
      "inputs": [],
      "name": "MAX_OWNER_COUNT",
      "outputs": [
        {
          "name": "",
          "type": "uint256"
        }
      ],
      "payable": false,
      "stateMutability": "view",
      "type": "function"
    },
    {
      "constant": true,
      "inputs": [],
      "name": "required",
      "outputs": [
        {
          "name": "",
          "type": "uint256"
        }
      ],
      "payable": false,
      "stateMutability": "view",
      "type": "function"
    },
    {
      "constant": false,
      "inputs": [
        {
          "name": "owner",
          "type": "address"
        },
        {
          "name": "newOwner",
          "type": "address"
        }
      ],
      "name": "replaceOwner",
      "outputs": [],
      "payable": false,
      "stateMutability": "nonpayable",
      "type": "function"
    },
    {
      "constant": false,
      "inputs": [
        {
          "name": "transactionId",
          "type": "uint256"
        }
      ],
      "name": "executeTransaction",
      "outputs": [],
      "payable": false,
      "stateMutability": "nonpayable",
      "type": "function"
    },
    {
      "payable": true,
      "stateMutability": "payable",
      "type": "fallback"
    },
    {
      "anonymous": false,
      "inputs": [
        {
          "indexed": true,
          "name": "sender",
          "type": "address"
        },
        {
          "indexed": true,
          "name": "transactionId",
          "type": "uint256"
        }
      ],
      "name": "Confirmation",
      "type": "event"
    },
    {
      "anonymous": false,
      "inputs": [
        {
          "indexed": true,
          "name": "sender",
          "type": "address"
        },
        {
          "indexed": true,
          "name": "transactionId",
          "type": "uint256"
        }
      ],
      "name": "Revocation",
      "type": "event"
    },
    {
      "anonymous": false,
      "inputs": [
        {
          "indexed": true,
          "name": "transactionId",
          "type": "uint256"
        }
      ],
      "name": "Submission",
      "type": "event"
    },
    {
      "anonymous": false,
      "inputs": [
        {
          "indexed": true,
          "name": "transactionId",
          "type": "uint256"
        }
      ],
      "name": "Execution",
      "type": "event"
    },
    {
      "anonymous": false,
      "inputs": [
        {
          "indexed": true,
          "name": "transactionId",
          "type": "uint256"
        }
      ],
      "name": "ExecutionFailure",
      "type": "event"
    },
    {
      "anonymous": false,
      "inputs": [
        {
          "indexed": true,
          "name": "sender",
          "type": "address"
        },
        {
          "indexed": false,
          "name": "value",
          "type": "uint256"
        }
      ],
      "name": "Deposit",
      "type": "event"
    },
    {
      "anonymous": false,
      "inputs": [
        {
          "indexed": true,
          "name": "owner",
          "type": "address"
        }
      ],
      "name": "OwnerAddition",
      "type": "event"
    },
    {
      "anonymous": false,
      "inputs": [
        {
          "indexed": true,
          "name": "owner",
          "type": "address"
        }
      ],
      "name": "OwnerRemoval",
      "type": "event"
    },
    {
      "anonymous": false,
      "inputs": [
        {
          "indexed": false,
          "name": "required",
          "type": "uint256"
        }
      ],
      "name": "RequirementChange",
      "type": "event"
    },
    {
      "anonymous": false,
      "inputs": [
        {
          "indexed": true,
          "name": "previousOwner",
          "type": "address"
        },
        {
          "indexed": true,
          "name": "newOwner",
          "type": "address"
        }
      ],
      "name": "OwnershipTransferred",
      "type": "event"
    },
    {
      "constant": false,
      "inputs": [
        {
          "name": "_oracle",
          "type": "address"
        },
        {
          "name": "_enable2FA",
          "type": "bool"
        }
      ],
      "name": "init",
      "outputs": [
        {
          "name": "",
          "type": "uint256"
        }
      ],
      "payable": false,
      "stateMutability": "nonpayable",
      "type": "function"
    },
    {
      "constant": false,
      "inputs": [
        {
          "name": "_enabled",
          "type": "bool"
        }
      ],
      "name": "set2FA",
      "outputs": [
        {
          "name": "",
          "type": "uint256"
        }
      ],
      "payable": false,
      "stateMutability": "nonpayable",
      "type": "function"
    },
    {
      "constant": false,
      "inputs": [
        {
          "name": "_userProxy",
          "type": "address"
        }
      ],
      "name": "setUserProxy",
      "outputs": [
        {
          "name": "",
          "type": "uint256"
        }
      ],
      "payable": false,
      "stateMutability": "nonpayable",
      "type": "function"
    },
    {
      "constant": true,
      "inputs": [],
      "name": "getUserProxy",
      "outputs": [
        {
          "name": "",
          "type": "address"
        }
      ],
      "payable": false,
      "stateMutability": "view",
      "type": "function"
    },
    {
      "constant": false,
      "inputs": [
        {
          "name": "_oracle",
          "type": "address"
        }
      ],
      "name": "setOracle",
      "outputs": [
        {
          "name": "",
          "type": "uint256"
        }
      ],
      "payable": false,
      "stateMutability": "nonpayable",
      "type": "function"
    },
    {
      "constant": false,
      "inputs": [
        {
          "name": "_newBackendProvider",
          "type": "address"
        }
      ],
      "name": "updateBackendProvider",
      "outputs": [
        {
          "name": "",
          "type": "uint256"
        }
      ],
      "payable": false,
      "stateMutability": "nonpayable",
      "type": "function"
    },
    {
      "constant": false,
      "inputs": [
        {
          "name": "_recoveryContract",
          "type": "address"
        }
      ],
      "name": "setRecoveryContract",
      "outputs": [
        {
          "name": "",
          "type": "uint256"
        }
      ],
      "payable": false,
      "stateMutability": "nonpayable",
      "type": "function"
    },
    {
      "constant": true,
      "inputs": [],
      "name": "getRecoveryContract",
      "outputs": [
        {
          "name": "",
          "type": "address"
        }
      ],
      "payable": false,
      "stateMutability": "view",
      "type": "function"
    },
    {
      "constant": false,
      "inputs": [
        {
          "name": "_newAddress",
          "type": "address"
        }
      ],
      "name": "recoverUser",
      "outputs": [
        {
          "name": "",
          "type": "uint256"
        }
      ],
      "payable": false,
      "stateMutability": "nonpayable",
      "type": "function"
    },
    {
      "constant": false,
      "inputs": [
        {
          "name": "_destination",
          "type": "address"
        },
        {
          "name": "_data",
          "type": "bytes"
        },
        {
          "name": "_value",
          "type": "uint256"
        },
        {
          "name": "_throwOnFailedCall",
          "type": "bool"
        }
      ],
      "name": "forward",
      "outputs": [
        {
          "name": "",
          "type": "bytes32"
        }
      ],
      "payable": false,
      "stateMutability": "nonpayable",
      "type": "function"
    },
    {
      "constant": false,
      "inputs": [
        {
          "name": "_newOwner",
          "type": "address"
        }
      ],
      "name": "transferOwnership",
      "outputs": [
        {
          "name": "_result",
          "type": "bool"
        }
      ],
      "payable": false,
      "stateMutability": "nonpayable",
      "type": "function"
    },
    {
      "constant": false,
      "inputs": [
        {
          "name": "_to",
          "type": "address"
        }
      ],
      "name": "changeContractOwnership",
      "outputs": [
        {
          "name": "",
          "type": "bool"
        }
      ],
      "payable": false,
      "stateMutability": "nonpayable",
      "type": "function"
    },
    {
      "constant": false,
      "inputs": [],
      "name": "claimContractOwnership",
      "outputs": [
        {
          "name": "_result",
          "type": "bool"
        }
      ],
      "payable": false,
      "stateMutability": "nonpayable",
      "type": "function"
    }
  ],
  "bytecode": "0x60806040527f312e302e30000000000000000000000000000000000000000000000000000000600c5560008054600160a060020a031916331790556134cc806100496000396000f3006080604052600436106101ea5763ffffffff60e060020a600035041663094780e6811461022c578063173825d91461025d5780631d1438481461027e57806320ea8d86146102935780632f54bf6e146102ab5780632f71ed9c146102e05780633411c81c1461031357806335f2507f146103375780634592cd1d14610358578063547415251461036d57806354fd4d501461038c578063557f4bc9146103a15780635aa77d3c146103c25780635ecb16cd146103d75780636029d66f1461042c5780637065cb481461044d5780637362377b1461046e578063784547a7146104835780637adbf9731461049b578063833b1fce146104bc57806389f4fd57146104d15780638b51d13f146104e65780639ace38c2146104fe5780639d2a43ad146105b9578063a0e67e2b146105ce578063a8abe69a14610633578063b5dc40c314610658578063b77bf60014610670578063ba51a6df14610685578063c01a8c841461069d578063c5e5f978146106b5578063c6427474146106cf578063cb9fa36614610738578063ce606ee01461075e578063d74f8edd14610773578063dc8452cd14610788578063dffdc75d1461079d578063e20056e61461080b578063eb8a5cd614610832578063ee22610b14610853578063f2fde38b1461086b578063f60c37a41461088c575b600034111561022a5760408051348152905133917fe1fffcc4923d04b559f4d29a8bfc6cda04eb5b0d3c460751c2402c5c5cc9109c919081900360200190a25b005b34801561023857600080fd5b506102416108a1565b60408051600160a060020a039092168252519081900360200190f35b34801561026957600080fd5b5061022a600160a060020a03600435166108b0565b34801561028a57600080fd5b50610241610abb565b34801561029f57600080fd5b5061022a600435610aca565b3480156102b757600080fd5b506102cc600160a060020a0360043516610cad565b604080519115158252519081900360200190f35b3480156102ec57600080fd5b50610301600160a060020a0360043516610cc2565b60408051918252519081900360200190f35b34801561031f57600080fd5b506102cc600435600160a060020a0360243516610da7565b34801561034357600080fd5b50610301600160a060020a0360043516610dc7565b34801561036457600080fd5b506102cc610ebd565b34801561037957600080fd5b5061030160043515156024351515610f6b565b34801561039857600080fd5b50610301610fd7565b3480156103ad57600080fd5b506102cc600160a060020a0360043516610fdd565b3480156103ce57600080fd5b50610241611051565b3480156103e357600080fd5b506040805160206004803580820135838102808601850190965280855261022a953695939460249493850192918291850190849080828437509497506110609650505050505050565b34801561043857600080fd5b50610301600160a060020a03600435166111e6565b34801561045957600080fd5b5061022a600160a060020a036004351661138c565b34801561047a57600080fd5b5061022a611624565b34801561048f57600080fd5b506102cc600435611682565b3480156104a757600080fd5b50610301600160a060020a0360043516611706565b3480156104c857600080fd5b506102416117a6565b3480156104dd57600080fd5b506102416117d3565b3480156104f257600080fd5b506103016004356117e2565b34801561050a57600080fd5b5061051660043561184b565b6040518085600160a060020a0316600160a060020a031681526020018481526020018060200183151515158152602001828103825284818151815260200191508051906020019080838360005b8381101561057b578181015183820152602001610563565b50505050905090810190601f1680156105a85780820380516001836020036101000a031916815260200191505b509550505050505060405180910390f35b3480156105c557600080fd5b506102cc61190a565b3480156105da57600080fd5b506105e361191a565b60408051602080825283518183015283519192839290830191858101910280838360005b8381101561061f578181015183820152602001610607565b505050509050019250505060405180910390f35b34801561063f57600080fd5b506105e36004356024356044351515606435151561197c565b34801561066457600080fd5b506105e3600435611ab5565b34801561067c57600080fd5b50610301611c2e565b34801561069157600080fd5b5061022a600435611c34565b3480156106a957600080fd5b5061022a600435611d69565b3480156106c157600080fd5b506103016004351515611f2e565b3480156106db57600080fd5b50604080516020600460443581810135601f8101849004840285018401909552848452610301948235600160a060020a03169460248035953695946064949201919081908401838280828437509497506120929650505050505050565b34801561074457600080fd5b50610301600160a060020a036004351660243515156120b1565b34801561076a57600080fd5b506102416121b7565b34801561077f57600080fd5b506103016121c6565b34801561079457600080fd5b506103016121cb565b3480156107a957600080fd5b5060408051602060046024803582810135601f8101859004850286018501909652858552610301958335600160a060020a03169536956044949193909101919081908401838280828437509497505084359550505050506020013515156121d1565b34801561081757600080fd5b5061022a600160a060020a03600435811690602435166123e8565b34801561083e57600080fd5b50610301600160a060020a036004351661265f565b34801561085f57600080fd5b5061022a600435612711565b34801561087757600080fd5b506102cc600160a060020a03600435166128e2565b34801561089857600080fd5b5061024161298e565b600254600160a060020a031681565b600033301461090b576040805160e560020a62461bcd02815260206004820152602760248201526000805160206134618339815191526044820152600080516020613481833981519152606482015290519081900360840190fd5b600160a060020a038216600090815260086020526040902054829060ff16151561097b576040805160e560020a62461bcd0281526020600482015260226024820152600080516020613421833981519152604482015260f260020a611cdd02606482015290519081900360840190fd5b600160a060020a0383166000908152600860205260408120805460ff1916905591505b60095460001901821015610a565782600160a060020a03166009838154811015156109c557fe5b600091825260209091200154600160a060020a03161415610a4b576009805460001981019081106109f257fe5b60009182526020909120015460098054600160a060020a039092169184908110610a1857fe5b9060005260206000200160006101000a815481600160a060020a030219169083600160a060020a03160217905550610a56565b81600101915061099e565b600980546000190190610a6990826132e3565b50600954600a541115610a8257600954610a8290611c34565b604051600160a060020a038416907f8001553a916ef2f495d26a907cc54d96ed840d7bda71e73194bf5a9df7a76b9090600090a2505050565b600354600160a060020a031681565b3360008181526008602052604090205460ff161515610b2f576040805160e560020a62461bcd0281526020600482015260226024820152600080516020613421833981519152604482015260f260020a611cdd02606482015290519081900360840190fd5b60008281526007602090815260408083203380855292529091205483919060ff161515610bcc576040805160e560020a62461bcd02815260206004820152602260248201527f5b4d756c74695369675d3a2074782073686f756c6420626520636f6e6669726d60448201527f6564000000000000000000000000000000000000000000000000000000000000606482015290519081900360840190fd5b600084815260066020526040902060030154849060ff1615610c5e576040805160e560020a62461bcd02815260206004820152602560248201527f5b4d756c74695369675d3a2074782073686f756c64206e6f742062652065786560448201527f6375746564000000000000000000000000000000000000000000000000000000606482015290519081900360840190fd5b6000858152600760209081526040808320338085529252808320805460ff191690555187927ff6a317157440607f36269043eb55f1287a5a19ba2216afeab88cd46cbcfb88e991a35050505050565b60086020526000908152604090205460ff1681565b6000610ccc61299d565b1515610d10576040805160e560020a62461bcd02815260206004820152601c6024820152600080516020613441833981519152604482015290519081900360640190fd5b600354600160a060020a0316331415610da257600160a060020a0382161515610d83576040805160e560020a62461bcd02815260206004820152601960248201527f4261636b656e642073686f756c64206e6f742062652030783000000000000000604482015290519081900360640190fd5b5060028054600160a060020a031916600160a060020a03831617905560015b919050565b600760209081526000928352604080842090915290825290205460ff1681565b600080610dd261299d565b1515610e16576040805160e560020a62461bcd02815260206004820152601c6024820152600080516020613441833981519152604482015290519081900360640190fd5b600554600160a060020a0316331415610eb757600160a060020a0383161515610e89576040805160e560020a62461bcd02815260206004820181905260248201527f5265636f766572656420757365722073686f756c64206e6f7420626520307830604482015290519081900360640190fd5b5060008054600160a060020a03848116600160a060020a031983161790925516610eb281612a65565b600191505b50919050565b600554600090819060a060020a900460ff1615610f24576040805160e560020a62461bcd02815260206004820152601660248201527f3246412073686f756c642062652064697361626c656400000000000000000000604482015290519081900360640190fd5b610f2c61299d565b1515610f4157610f3a612b87565b9150610f67565b50600054600160a060020a0316610f56612b87565b91508115610f6757610f6781612a65565b5090565b6000805b600b54811015610fd057838015610f98575060008181526006602052604090206003015460ff16155b80610fbc5750828015610fbc575060008181526006602052604090206003015460ff165b15610fc8576001820191505b600101610f6f565b5092915050565b600c5481565b60055460009060a060020a900460ff1615611042576040805160e560020a62461bcd02815260206004820152601660248201527f3246412073686f756c642062652064697361626c656400000000000000000000604482015290519081900360640190fd5b61104b82612c0a565b92915050565b600154600160a060020a031681565b60008054819081908190600160a060020a03163314156111df5760008054600160a060020a0316945092505b84518310156111df5784838151811015156110a357fe5b6020908102909101810151604080517f70a082310000000000000000000000000000000000000000000000000000000081523060048201529051919450600160a060020a038516926370a08231926024808401938290030181600087803b15801561110d57600080fd5b505af1158015611121573d6000803e3d6000fd5b505050506040513d602081101561113757600080fd5b5051905060008111156111d45781600160a060020a031663a9059cbb85836040518363ffffffff1660e060020a0281526004018083600160a060020a0316600160a060020a0316815260200182815260200192505050602060405180830381600087803b1580156111a757600080fd5b505af11580156111bb573d6000803e3d6000fd5b505050506040513d60208110156111d157600080fd5b50505b60019092019161108c565b5050505050565b60006111f061299d565b1515611234576040805160e560020a62461bcd02815260206004820152601c6024820152600080516020613441833981519152604482015290519081900360640190fd5b600054600554600160a060020a039091169060a060020a900460ff16158015611265575033600160a060020a038216145b8061126f57503330145b1561131e57600160a060020a03831615156112fa576040805160e560020a62461bcd02815260206004820152602b60248201527f5265636f7665727920636f6e747261637420616464726573732073686f756c6460448201527f206e6f7420626520307830000000000000000000000000000000000000000000606482015290519081900360840190fd5b60058054600160a060020a031916600160a060020a03851617905560019150610eb7565b60055460a060020a900460ff16801561133f575033600160a060020a038216145b15610eb75761138030346000368080601f01602080910402602001604051908101604052809392919081815260200183838082843750612092945050505050565b50600360005260206000f35b3330146113e5576040805160e560020a62461bcd02815260206004820152602760248201526000805160206134618339815191526044820152600080516020613481833981519152606482015290519081900360840190fd5b600160a060020a038116600090815260086020526040902054819060ff1615611466576040805160e560020a62461bcd02815260206004820152602260248201527f5b4d756c74695369675d3a204f776e65722073686f756c64206e6f7420657869604482015260f260020a611cdd02606482015290519081900360840190fd5b81600160a060020a03811615156114ed576040805160e560020a62461bcd02815260206004820152602560248201527f5b4d756c74695369675d3a20616464726573732073686f756c64206e6f74206260448201527f6520307830000000000000000000000000000000000000000000000000000000606482015290519081900360840190fd5b600980549050600101600a54603282118061150757508181115b80611510575080155b80611519575081155b15611594576040805160e560020a62461bcd02815260206004820152603160248201527f5b4d756c74695369675d3a2076616c6964206d756c746973696720726571756960448201527f72656d656e74206973206e6f74206d6574000000000000000000000000000000606482015290519081900360840190fd5b600160a060020a038516600081815260086020526040808220805460ff1916600190811790915560098054918201815583527f6e1540171b6c0c960b71a7020d9f60077f6af931a8bbf590da0223dacf75c7af018054600160a060020a03191684179055517ff39e6e1eb0edcf53c221607b54b00cd28f3196fed0a24994dc308b8f611b682d9190a25050505050565b60008054600160a060020a031633141561167f57503031600081111561167f5760008054604051600160a060020a039091169183156108fc02918491818181858888f1935050505015801561167d573d6000803e3d6000fd5b505b50565b600080805b6009548110156116ff57600084815260076020526040812060098054919291849081106116b057fe5b6000918252602080832090910154600160a060020a0316835282019290925260400190205460ff16156116e4576001820191505b600a548214156116f757600192506116ff565b600101611687565b5050919050565b600061171061299d565b1515611754576040805160e560020a62461bcd02815260206004820152601c6024820152600080516020613441833981519152604482015290519081900360640190fd5b600054600554600160a060020a039091169060a060020a900460ff16158015611785575033600160a060020a038216145b8061178f57503330145b1561131e5761179d83612c59565b60019150610eb7565b6000600960018154811015156117b857fe5b600091825260209091200154600160a060020a031690505b90565b600454600160a060020a031690565b6000805b600954811015610eb7576000838152600760205260408120600980549192918490811061180f57fe5b6000918252602080832090910154600160a060020a0316835282019290925260400190205460ff1615611843576001820191505b6001016117e6565b60066020908152600091825260409182902080546001808301546002808501805488516101009582161595909502600019011691909104601f8101879004870284018701909752868352600160a060020a039093169590949192918301828280156118f75780601f106118cc576101008083540402835291602001916118f7565b820191906000526020600020905b8154815290600101906020018083116118da57829003601f168201915b5050506003909301549192505060ff1684565b60055460a060020a900460ff1681565b6060600980548060200260200160405190810160405280929190818152602001828054801561197257602002820191906000526020600020905b8154600160a060020a03168152600190910190602001808311611954575b5050505050905090565b606080600080600b546040519080825280602002602001820160405280156119ae578160200160208202803883390190505b50925060009150600090505b600b54811015611a35578580156119e3575060008181526006602052604090206003015460ff16155b80611a075750848015611a07575060008181526006602052604090206003015460ff165b15611a2d57808383815181101515611a1b57fe5b60209081029091010152600191909101905b6001016119ba565b878703604051908082528060200260200182016040528015611a61578160200160208202803883390190505b5093508790505b86811015611aaa578281815181101515611a7e57fe5b9060200190602002015184898303815181101515611a9857fe5b60209081029091010152600101611a68565b505050949350505050565b606080600080600980549050604051908082528060200260200182016040528015611aea578160200160208202803883390190505b50925060009150600090505b600954811015611ba75760008581526007602052604081206009805491929184908110611b1f57fe5b6000918252602080832090910154600160a060020a0316835282019290925260400190205460ff1615611b9f576009805482908110611b5a57fe5b6000918252602090912001548351600160a060020a0390911690849084908110611b8057fe5b600160a060020a03909216602092830290910190910152600191909101905b600101611af6565b81604051908082528060200260200182016040528015611bd1578160200160208202803883390190505b509350600090505b81811015611c26578281815181101515611bef57fe5b906020019060200201518482815181101515611c0757fe5b600160a060020a03909216602092830290910190910152600101611bd9565b505050919050565b600b5481565b333014611c8d576040805160e560020a62461bcd02815260206004820152602760248201526000805160206134618339815191526044820152600080516020613481833981519152606482015290519081900360840190fd5b600954816032821180611c9f57508181115b80611ca8575080155b80611cb1575081155b15611d2c576040805160e560020a62461bcd02815260206004820152603160248201527f5b4d756c74695369675d3a2076616c6964206d756c746973696720726571756960448201527f72656d656e74206973206e6f74206d6574000000000000000000000000000000606482015290519081900360840190fd5b600a8390556040805184815290517fa3f1ee9126a074d9326c682f561767f710e927faa811f7a99829d49dc421797a9181900360200190a1505050565b3360008181526008602052604090205460ff161515611dce576040805160e560020a62461bcd0281526020600482015260226024820152600080516020613421833981519152604482015260f260020a611cdd02606482015290519081900360840190fd5b6000828152600660205260409020548290600160a060020a03161515611e3e576040805160e560020a62461bcd02815260206004820152601b60248201527f5b4d756c74695369675d3a2074782073686f756c642065786973740000000000604482015290519081900360640190fd5b60008381526007602090815260408083203380855292529091205484919060ff1615611eda576040805160e560020a62461bcd02815260206004820152602660248201527f5b4d756c74695369675d3a2074782073686f756c64206e6f7420626520636f6e60448201527f6669726d65640000000000000000000000000000000000000000000000000000606482015290519081900360840190fd5b6000858152600760209081526040808320338085529252808320805460ff191660011790555187927f4a504a94899432a9846e1aa406dceb1bcfd538bb839071d49d1e5e23f5be30ef91a36111df85612711565b6000611f3861299d565b1515611f7c576040805160e560020a62461bcd02815260206004820152601c6024820152600080516020613441833981519152604482015290519081900360640190fd5b600054600554600160a060020a039091169060a060020a900460ff16158015611fad575033600160a060020a038216145b80611fb757503330145b1561131e57611fc46117a6565b600160a060020a03161515612049576040805160e560020a62461bcd02815260206004820152602860248201527f4f7261636c65206d75737420626520736574206265666f72652032464120616360448201527f7469766174696f6e000000000000000000000000000000000000000000000000606482015290519081900360840190fd5b60055460ff60a060020a9091041615158315151461179d576005805474ff0000000000000000000000000000000000000000191660a060020a8515150217905560019150610eb7565b600061209f848484612d5d565b90506120aa81611d69565b9392505050565b60006120bb61299d565b15156120ff576040805160e560020a62461bcd02815260206004820152601c6024820152600080516020613441833981519152604482015290519081900360640190fd5b600354600160a060020a031633141561104b5760005461212890600160a060020a031684612eb2565b604080517fc5e5f97800000000000000000000000000000000000000000000000000000000815283151560048201529051309163c5e5f9789160248083019260209291908290030181600087803b15801561218257600080fd5b505af1158015612196573d6000803e3d6000fd5b505050506040513d60208110156121ac57600080fd5b506001949350505050565b600054600160a060020a031681565b603281565b600a5481565b60006121db61299d565b151561221f576040805160e560020a62461bcd02815260206004820152601c6024820152600080516020613441833981519152604482015290519081900360640190fd5b600054600554600160a060020a039091169060a060020a900460ff16158015612250575033600160a060020a038216145b8061225a57503330145b1561237d57600480546040517fdffdc75d000000000000000000000000000000000000000000000000000000008152600160a060020a03898116938201938452604482018890528615156064830152608060248301908152895160848401528951919093169363dffdc75d938b938b938b938b939092909160a490910190602087019080838360005b838110156122fb5781810151838201526020016122e3565b50505050905090810190601f1680156123285780820380516001836020036101000a031916815260200191505b5095505050505050602060405180830381600087803b15801561234a57600080fd5b505af115801561235e573d6000803e3d6000fd5b505050506040513d602081101561237457600080fd5b505191506123df565b60055460a060020a900460ff16801561239e575033600160a060020a038216145b156123df5761138030346000368080601f01602080910402602001604051908101604052809392919081815260200183838082843750612092945050505050565b50949350505050565b6000333014612443576040805160e560020a62461bcd02815260206004820152602760248201526000805160206134618339815191526044820152600080516020613481833981519152606482015290519081900360840190fd5b600160a060020a038316600090815260086020526040902054839060ff1615156124b3576040805160e560020a62461bcd0281526020600482015260226024820152600080516020613421833981519152604482015260f260020a611cdd02606482015290519081900360840190fd5b600160a060020a038316600090815260086020526040902054839060ff1615612534576040805160e560020a62461bcd02815260206004820152602260248201527f5b4d756c74695369675d3a204f776e65722073686f756c64206e6f7420657869604482015260f260020a611cdd02606482015290519081900360840190fd5b600092505b6009548310156125c55784600160a060020a031660098481548110151561255c57fe5b600091825260209091200154600160a060020a031614156125ba578360098481548110151561258757fe5b9060005260206000200160006101000a815481600160a060020a030219169083600160a060020a031602179055506125c5565b826001019250612539565b600160a060020a03808616600081815260086020526040808220805460ff1990811690915593881682528082208054909416600117909355915190917f8001553a916ef2f495d26a907cc54d96ed840d7bda71e73194bf5a9df7a76b9091a2604051600160a060020a038516907ff39e6e1eb0edcf53c221607b54b00cd28f3196fed0a24994dc308b8f611b682d90600090a25050505050565b600061266961299d565b15156126ad576040805160e560020a62461bcd02815260206004820152601c6024820152600080516020613441833981519152604482015290519081900360640190fd5b600054600554600160a060020a039091169060a060020a900460ff161580156126de575033600160a060020a038216145b806126e857503330145b1561131e5760048054600160a060020a031916600160a060020a03851617905560019150610eb7565b600081815260066020526040812060030154829060ff16156127a3576040805160e560020a62461bcd02815260206004820152602560248201527f5b4d756c74695369675d3a2074782073686f756c64206e6f742062652065786560448201527f6375746564000000000000000000000000000000000000000000000000000000606482015290519081900360840190fd5b6127ac83611682565b156128dd576000838152600660205260409081902060038101805460ff19166001908117909155815481830154935160028085018054959850600160a060020a039093169594929391928392859260001991831615610100029190910190911604801561285a5780601f1061282f5761010080835404028352916020019161285a565b820191906000526020600020905b81548152906001019060200180831161283d57829003601f168201915b505091505060006040518083038185875af192505050156128a55760405183907f33e13ecb54c3076d8e8bb8c2881800a4d972b792045ffae98fdf46df365fed7590600090a26128dd565b60405183907f526441bb6c1aba3c9a4a6ca1d6545da9c2333c8c48343ef398eb858d72b7923690600090a260038201805460ff191690555b505050565b600554600090819060a060020a900460ff1615612949576040805160e560020a62461bcd02815260206004820152601660248201527f3246412073686f756c642062652064697361626c656400000000000000000000604482015290519081900360640190fd5b61295161299d565b15156129675761296083612f37565b9150610eb7565b50600054600160a060020a031661297d83612f37565b91508115610eb757610eb781612a65565b600554600160a060020a031690565b6002546000908190600160a060020a031615156129bd5760009150610f67565b600260009054906101000a9004600160a060020a0316600160a060020a03166359b804aa6040518163ffffffff1660e060020a028152600401602060405180830381600087803b158015612a1057600080fd5b505af1158015612a24573d6000803e3d6000fd5b505050506040513d6020811015612a3a57600080fd5b5051905030600160a060020a03821614801590612a5f5750600160a060020a03811615155b91505090565b60008054604080517fe20056e6000000000000000000000000000000000000000000000000000000008152600160a060020a038581166004830152909216602483015251309163e20056e6916044808301928692919082900301818387803b158015612ad057600080fd5b505af1158015612ae4573d6000803e3d6000fd5b50505050612af0612fc9565b9050600160a060020a0381161561167d57604080517f4ef5129d000000000000000000000000000000000000000000000000000000008152306004820152600160a060020a038481166024830152915191831691634ef5129d9160448082019260009290919082900301818387803b158015612b6b57600080fd5b505af1158015612b7f573d6000803e3d6000fd5b505050505050565b600154600090600160a060020a03163314612ba4575060006117d0565b60015460008054604051600160a060020a0393841693909116917f8be0079c531659141344cd1fd0a4f28419497f9722a3daafe3b4186f6b6457e091a3506001805460008054600160a060020a0319908116600160a060020a0384161790915516815590565b60008054600160a060020a0316331415610da257600160a060020a0382161515612c3657506000610da2565b5060018054600160a060020a038316600160a060020a0319909116178155919050565b600160a060020a0381161515612cdf576040805160e560020a62461bcd02815260206004820152602160248201527f4f7261636c652073686f756c64206e6f7420626520657175616c20746f20307860448201527f3000000000000000000000000000000000000000000000000000000000000000606482015290519081900360840190fd5b60098054309163e20056e6916001908110612cf657fe5b60009182526020822001546040805160e060020a63ffffffff8616028152600160a060020a0392831660048201529186166024830152516044808301939282900301818387803b158015612d4957600080fd5b505af11580156111df573d6000803e3d6000fd5b600083600160a060020a0381161515612de6576040805160e560020a62461bcd02815260206004820152602560248201527f5b4d756c74695369675d3a20616464726573732073686f756c64206e6f74206260448201527f6520307830000000000000000000000000000000000000000000000000000000606482015290519081900360840190fd5b600b5460408051608081018252600160a060020a0388811682526020808301898152838501898152600060608601819052878152600684529590952084518154600160a060020a03191694169390931783555160018301559251805194965091939092612e5a926002850192910190613307565b50606091909101516003909101805460ff1916911515919091179055600b8054600101905560405182907fc0ba8fe4b176c1714197d43b9cc6bcf797a4a7461c5fe8d0ef6e184ae7601e5190600090a2509392505050565b604080516002808252606082810190935291908281602001602082028038833901905050905083816000815181101515612ee857fe5b600160a060020a039092166020928302909101909101528051839082906001908110612f1057fe5b600160a060020a03909216602092830290910190910152612f318183613059565b50505050565b60008054600160a060020a0316331415610da257600160a060020a0382161515612f6357506000610da2565b60008054604051600160a060020a03808616939216917f8be0079c531659141344cd1fd0a4f28419497f9722a3daafe3b4186f6b6457e091a35060008054600160a060020a038316600160a060020a031991821617909155600180549091168155919050565b600254604080517f5724e81f0000000000000000000000000000000000000000000000000000000081529051600092600160a060020a031691635724e81f91600480830192602092919082900301818787803b15801561302857600080fd5b505af115801561303c573d6000803e3d6000fd5b505050506040513d602081101561305257600080fd5b5051905090565b6000825182603282118061306c57508181115b80613075575080155b8061307e575081155b156130f9576040805160e560020a62461bcd02815260206004820152603160248201527f5b4d756c74695369675d3a2076616c6964206d756c746973696720726571756960448201527f72656d656e74206973206e6f74206d6574000000000000000000000000000000606482015290519081900360840190fd5b600a5415613177576040805160e560020a62461bcd02815260206004820152603060248201527f5b4d756c74695369675d3a20277265717569726564272073686f756c64206e6f60448201527f7420626520696e697469616c697a656400000000000000000000000000000000606482015290519081900360840190fd5b60006131846009826132e3565b50600092505b84518310156132c3576008600086858151811015156131a557fe5b6020908102909101810151600160a060020a031682528101919091526040016000205460ff16806131f6575084838151811015156131df57fe5b90602001906020020151600160a060020a03166000145b15613271576040805160e560020a62461bcd02815260206004820152602760248201527f5b4d756c74695369675d3a206f776e65722073686f756c64206e6f742062652060448201527f736b697070656400000000000000000000000000000000000000000000000000606482015290519081900360840190fd5b600160086000878681518110151561328557fe5b602090810291909101810151600160a060020a03168252810191909152604001600020805460ff19169115159190911790556001929092019161318a565b84516132d6906009906020880190613381565b505050600a919091555050565b8154818355818111156128dd576000838152602090206128dd9181019083016133e2565b828054600181600116156101000203166002900490600052602060002090601f016020900481019282601f1061334857805160ff1916838001178555613375565b82800160010185558215613375579182015b8281111561337557825182559160200191906001019061335a565b50610f679291506133e2565b8280548282559060005260206000209081019282156133d6579160200282015b828111156133d65782518254600160a060020a031916600160a060020a039091161782556020909201916001909101906133a1565b50610f679291506133fc565b6117d091905b80821115610f6757600081556001016133e8565b6117d091905b80821115610f67578054600160a060020a031916815560010161340256005b4d756c74695369675d3a206f776e65722073686f756c64206e6f74206578694f6e6c792064656c656761746563616c6c20697320616c6c6f776564000000005b4d756c74695369675d3a204f6e6c792027746869732720616c6c6f77656420746f2063616c6c00000000000000000000000000000000000000000000000000a165627a7a72305820a7a46aa977c79a371d5b7b42ed02571fead0c77021def91d26f92fee54ba121a0029",
  "source": "/**\n* Copyright 20172018, LaborX PTY\n* Licensed under the AGPL Version 3 license.\n*/\n\npragma solidity ^0.4.21;\n\n\nimport \"solidity-shared-lib/contracts/Owned.sol\";\nimport \"./TwoFactorAuthenticationSig.sol\";\nimport \"./UserBase.sol\";\nimport \"./UserRegistry.sol\";\n\n\n/// @title Utilized as a library contract that receives delegated calls from frontend contracts\n/// and provides two-factor authentication confirmation for its functions. \n/// See UserInterface contract for centralized information about frontend contract interface.\ncontract UserBackend is Owned, UserBase, TwoFactorAuthenticationSig {\n\n    uint constant OK = 1;\n    uint constant MULTISIG_ADDED = 3;\n\n    bytes32 public version = \"1.0.0\";\n\n    /// @dev Guards and organizes 2FA access when it's turned on.\n    modifier onlyMultiowned(address _initiator) {\n        if ((!use2FA && msg.sender == _initiator)\n            || msg.sender == address(this)\n        ) {\n            _;\n        }\n        else if (use2FA && msg.sender == _initiator) {\n            submitTransaction(address(this), msg.value, msg.data);\n            assembly {\n                mstore(0, 3) /// MULTISIG_ADDED\n                return(0, 32)\n            }\n        }\n    }\n\n    /// @dev Guards functions against invocation when 2FA is enabled\n    modifier only2FADisabled {\n        require(!use2FA, \"2FA should be disabled\");\n        _;\n    }\n\n    /// @dev Guards functions call only for recovery address\n    modifier onlyRecoveryContract {\n        if (recoveryContract == msg.sender) {\n            _;\n        }\n    }\n\n    /// @dev Guards functions call only for issuer address\n    modifier onlyIssuer {\n        if (issuer == msg.sender) {\n            _;\n        }\n    }\n\n    /// @dev Guards functions against invocation not from delegatecall\n    modifier onlyCall {\n        require(_allowDelegateCall(), \"Only delegatecall is allowed\");\n        _;\n    }\n\n    /// @notice Initializes frontend contract with oracle and 2FA flag.\n    /// Should be invoked by an issuer and before any other actions.\n    /// Should be called only through delegatecall.\n    /// @param _oracle oracle address for 2FA mode\n    /// @param _enable2FA if true enables 2FA mode, false - keep it turned off\n    /// @return result of an operation\n    function init(address _oracle, bool _enable2FA)\n    onlyCall\n    onlyIssuer\n    external\n    returns (uint)\n    {\n        _init(contractOwner, _oracle);\n        this.set2FA(_enable2FA);\n        return OK;\n    }\n\n    /// @notice Changes status of 2FA mode.\n    /// 2FA protected.\n    /// Should only be invoked by contract owner.\n    /// Should be called only through delegatecall.\n    /// @param _enabled if true enables 2FA mode, false - turns it off\n    /// @return result of an operation\n    function set2FA(bool _enabled)\n    onlyCall\n    onlyMultiowned(contractOwner)\n    external\n    returns (uint) \n    {\n        require(getOracle() != 0x0, \"Oracle must be set before 2FA activation\");\n\n        if (use2FA != _enabled) {\n            use2FA = _enabled;\n        }\n        return OK;\n    }\n\n    /// @notice Updates user proxy contract\n    /// 2FA protected.\n    /// Should only be invoked by contract owner.\n    /// Should be called only through delegatecall.\n    /// @param _userProxy new user proxy contract address\n    /// @return result of an operation\n    function setUserProxy(UserProxy _userProxy) \n    onlyCall\n    onlyMultiowned(contractOwner)\n    public \n    returns (uint) \n    {\n        userProxy = _userProxy;\n        return OK;\n    }\n\n    /// @notice Gets associated user proxy address\n    /// @return address of user proxy\n    function getUserProxy() \n    public \n    view \n    returns (address) \n    {\n        return userProxy;\n    }\n\n    /// @notice Updates address of an oracle\n    /// 2FA protected.\n    /// Should only be invoked by contract owner.\n    /// Should be called only through delegatecall.\n    /// @param _oracle new oracle address\n    /// @return result of an operation\n    function setOracle(address _oracle)\n    onlyCall\n    onlyMultiowned(contractOwner)\n    external\n    returns (uint)\n    {\n        _setOracle(_oracle);\n        return OK;\n    }\n\n    /// @notice Updates address of backend provider\n    /// Should be invoked by an issuer.\n    /// Should be called only through delegatecall.\n    /// @param _newBackendProvider address of a new backend provider contract\n    /// @return result of an operation    \n    function updateBackendProvider(address _newBackendProvider)\n    onlyCall\n    onlyIssuer\n    external\n    returns (uint) \n    {\n        require(_newBackendProvider != 0x0, \"Backend should not be 0x0\");\n\n        backendProvider = UserBackendProviderInterface(_newBackendProvider);\n        return OK;\n    }\n\n    /// @notice Updates recovery address\n    /// 2FA protected.\n    /// Should only be invoked by contract owner.\n    /// Should be called only through delegatecall.\n    /// @param _recoveryContract new recovery address\n    /// @return result of an operation\n    function setRecoveryContract(address _recoveryContract) \n    onlyCall\n    onlyMultiowned(contractOwner)\n    public \n    returns (uint) \n    {\n        require(_recoveryContract != 0x0, \"Recovery contract address should not be 0x0\");\n\n        recoveryContract = _recoveryContract;\n        return OK;\n    }\n\n    /// @notice Gets recovery address of a contract\n    /// @return recovery address\n    function getRecoveryContract()\n    public\n    view\n    returns (address)\n    {\n        return recoveryContract;\n    }\n\n    /// @notice Performs user recovery (change of contract owner by any reason)\n    /// Should only be invoked by recovery address.\n    /// Should be called only through delegatecall.\n    /// @param _newAddress new contract owner passed by recovery\n    /// @return result of an operation\n    function recoverUser(address _newAddress) \n    onlyCall\n    onlyRecoveryContract\n    public\n    returns (uint) \n    {\n        require(_newAddress != 0x0, \"Recovered user should not be 0x0\");\n\n        address _oldContractOwner = contractOwner;\n        contractOwner = _newAddress;\n        _userOwnershipChanged(_oldContractOwner);\n\n        return OK;\n    }\n\n    /// @notice Forwards invocations to a user proxy address\n    /// 2FA protected.\n    /// Should only be invoked by contract owner.\n    /// Should be called only through delegatecall.\n    /// @param _destination invocation target\n    /// @param _data encoded data that will passed to _destination\n    /// @param _value amount of Ether passed with call\n    /// @param _throwOnFailedCall if true then revert on unsuccessful call, silently fail otherwise\n    /// @return first 32 bytes of a call result\n    function forward(\n        address _destination,\n        bytes _data,\n        uint _value,\n        bool _throwOnFailedCall\n    )\n    onlyCall\n    onlyMultiowned(contractOwner)\n    public\n    returns (bytes32) \n    {\n        return userProxy.forward(_destination, _data, _value, _throwOnFailedCall);\n    }\n\n    /// @notice Transfers contract ownership to the other owner\n    /// 2FA should be disabled.\n    /// Could be called through delegatecall and also for UserBackend.\n    /// Allowed only for a contract owner.\n    /// @param _newOwner new owner of a contract\n    /// @return true if owner change is successful, false otherwise\n    function transferOwnership(address _newOwner) \n    only2FADisabled\n    public \n    returns (bool _result) \n    {\n        if (!_allowDelegateCall()) {\n            return super.transferOwnership(_newOwner);\n        } \n\n        address _oldContractOwner = contractOwner;\n        _result = super.transferOwnership(_newOwner);\n        if (_result) {\n            _userOwnershipChanged(_oldContractOwner);\n        }\n\n        return _result;\n    }\n\n    /// @notice Prepares ownership pass.\n    /// 2FA should be disabled.\n    /// Could be called through delegatecall and also for UserBackend.\n    /// Allowed only for a contract owner.\n    /// @param _to new owner of a contract\n    /// @return true when successful, false otherwise\n    function changeContractOwnership(address _to)\n    only2FADisabled\n    public\n    returns (bool)\n    {\n        return super.changeContractOwnership(_to);\n    }\n\n    /// @notice Finalize ownership pass.\n    /// 2FA should be disabled.\n    /// Could be called through delegatecall and also for UserBackend.\n    /// Allowed only for a contract owner.\n    /// @return true when owner change is successful, false otherwise\n    function claimContractOwnership()\n    only2FADisabled\n    public\n    returns (bool _result)\n    {\n        if (!_allowDelegateCall()) {\n            return super.claimContractOwnership();\n        }\n\n        address _oldContractOwner = contractOwner;\n        _result = super.claimContractOwnership();\n        if (_result) {\n            _userOwnershipChanged(_oldContractOwner);\n        }\n\n        return _result;\n    }\n\n    /* INTERNAL */\n\n    function _allowDelegateCall() private view returns (bool) {\n        // make sure this is used by delegatecall\n        if (address(backendProvider) == 0x0) {\n            return false;\n        }\n\n        address _backend = backendProvider.getUserBackend();\n        return address(this) != _backend && _backend != 0x0; \n    }\n\n    function _getUserRegistry() private view returns (UserRegistry) {\n        return UserRegistry(backendProvider.getUserRegistry());\n    }\n\n    function _userOwnershipChanged(address _oldContractOwner) private {\n        this.replaceOwner(_oldContractOwner, contractOwner);\n\n        UserRegistry _userRegistry = _getUserRegistry();\n        if (address(_userRegistry) != 0x0) {\n            _userRegistry.userOwnershipChanged(this, _oldContractOwner);\n        }\n    }\n}",
  "sourcePath": "solidity-user-lib/contracts/UserBackend.sol",
  "compiler": {
    "name": "solc",
    "version": "0.4.24+commit.e67f0147.Emscripten.clang"
  },
  "schemaVersion": "2.0.1",
  "updatedAt": "2018-09-18T15:41:20.601Z"
}