{
  "contractName": "UserMock",
  "abi": [
    {
      "constant": true,
      "inputs": [],
      "name": "contractOwner",
      "outputs": [
        {
          "name": "",
          "type": "address"
        }
      ],
      "payable": false,
      "stateMutability": "view",
      "type": "function"
    },
    {
      "constant": true,
      "inputs": [],
      "name": "recoverUserCalls",
      "outputs": [
        {
          "name": "",
          "type": "uint256"
        }
      ],
      "payable": false,
      "stateMutability": "view",
      "type": "function"
    },
    {
      "constant": false,
      "inputs": [
        {
          "name": "_newAddress",
          "type": "address"
        }
      ],
      "name": "recoverUser",
      "outputs": [
        {
          "name": "",
          "type": "bool"
        }
      ],
      "payable": false,
      "stateMutability": "nonpayable",
      "type": "function"
    },
    {
      "constant": false,
      "inputs": [
        {
          "name": "_newOwner",
          "type": "address"
        }
      ],
      "name": "setContractOwner",
      "outputs": [
        {
          "name": "",
          "type": "bool"
        }
      ],
      "payable": false,
      "stateMutability": "nonpayable",
      "type": "function"
    }
  ],
  "bytecode": "0x608060405234801561001057600080fd5b5061020b806100206000396000f3006080604052600436106100615763ffffffff7c010000000000000000000000000000000000000000000000000000000060003504166335f2507f8114610066578063a34d42b8146100a8578063ce606ee0146100d6578063e70d88ca14610114575b600080fd5b34801561007257600080fd5b5061009473ffffffffffffffffffffffffffffffffffffffff6004351661013b565b604080519115158252519081900360200190f35b3480156100b457600080fd5b5061009473ffffffffffffffffffffffffffffffffffffffff6004351661017f565b3480156100e257600080fd5b506100eb6101bd565b6040805173ffffffffffffffffffffffffffffffffffffffff9092168252519081900360200190f35b34801561012057600080fd5b506101296101d9565b60408051918252519081900360200190f35b6000805473ffffffffffffffffffffffffffffffffffffffff831673ffffffffffffffffffffffffffffffffffffffff199091161790556001805481018155919050565b6000805473ffffffffffffffffffffffffffffffffffffffff831673ffffffffffffffffffffffffffffffffffffffff199091161790556001919050565b60005473ffffffffffffffffffffffffffffffffffffffff1681565b600154815600a165627a7a72305820bfe84fc10d634e767c5a3801c91d41fca7e72f6847e7c1c356d8200bce6f84060029",
  "source": "/**\n * Copyright 2017–2018, LaborX PTY\n * Licensed under the AGPL Version 3 license.\n */\n\npragma solidity ^0.4.18;\n\ncontract UserMock {\n\n    address public contractOwner;\n    uint public recoverUserCalls;\n\n    function recoverUser(address _newAddress) external returns (bool) {\n        contractOwner = _newAddress;\n        recoverUserCalls++;\n        return true;\n    }\n\n    function setContractOwner(address _newOwner) external returns (bool){\n        contractOwner = _newOwner;\n        return true;\n    }\n\n}\n",
  "sourcePath": "/Users/alesanro/Documents/Projects/ChronoBank/LX-SC/contracts/helpers/UserMock.sol",
  "compiler": {
    "name": "solc",
    "version": "0.4.24+commit.e67f0147.Emscripten.clang"
  },
  "schemaVersion": "2.0.1",
  "updatedAt": "2018-09-18T15:43:45.583Z"
}