{
  "contractName": "UserRegistry",
  "abi": [
    {
      "constant": false,
      "inputs": [
        {
          "name": "_roles2Library",
          "type": "address"
        }
      ],
      "name": "setRoles2Library",
      "outputs": [
        {
          "name": "",
          "type": "uint256"
        }
      ],
      "payable": false,
      "stateMutability": "nonpayable",
      "type": "function"
    },
    {
      "constant": false,
      "inputs": [
        {
          "name": "_errorCode",
          "type": "uint256"
        }
      ],
      "name": "emitErrorCode",
      "outputs": [],
      "payable": false,
      "stateMutability": "nonpayable",
      "type": "function"
    },
    {
      "constant": true,
      "inputs": [],
      "name": "getEventsHistory",
      "outputs": [
        {
          "name": "",
          "type": "address"
        }
      ],
      "payable": false,
      "stateMutability": "view",
      "type": "function"
    },
    {
      "inputs": [
        {
          "name": "_store",
          "type": "address"
        },
        {
          "name": "_crate",
          "type": "bytes32"
        },
        {
          "name": "_roles2Library",
          "type": "address"
        }
      ],
      "payable": false,
      "stateMutability": "nonpayable",
      "type": "constructor"
    },
    {
      "anonymous": false,
      "inputs": [
        {
          "indexed": true,
          "name": "self",
          "type": "address"
        },
        {
          "indexed": true,
          "name": "userContract",
          "type": "address"
        },
        {
          "indexed": true,
          "name": "owner",
          "type": "address"
        }
      ],
      "name": "UserContractAdded",
      "type": "event"
    },
    {
      "anonymous": false,
      "inputs": [
        {
          "indexed": true,
          "name": "self",
          "type": "address"
        },
        {
          "indexed": true,
          "name": "userContract",
          "type": "address"
        },
        {
          "indexed": true,
          "name": "owner",
          "type": "address"
        }
      ],
      "name": "UserContractRemoved",
      "type": "event"
    },
    {
      "anonymous": false,
      "inputs": [
        {
          "indexed": true,
          "name": "self",
          "type": "address"
        },
        {
          "indexed": true,
          "name": "userContract",
          "type": "address"
        },
        {
          "indexed": false,
          "name": "oldOwner",
          "type": "address"
        },
        {
          "indexed": true,
          "name": "owner",
          "type": "address"
        }
      ],
      "name": "UserContractChanged",
      "type": "event"
    },
    {
      "anonymous": false,
      "inputs": [
        {
          "indexed": true,
          "name": "self",
          "type": "address"
        },
        {
          "indexed": false,
          "name": "errorCode",
          "type": "uint256"
        }
      ],
      "name": "ErrorCode",
      "type": "event"
    },
    {
      "anonymous": false,
      "inputs": [
        {
          "indexed": false,
          "name": "code",
          "type": "address"
        },
        {
          "indexed": false,
          "name": "sender",
          "type": "address"
        },
        {
          "indexed": false,
          "name": "sig",
          "type": "bytes4"
        }
      ],
      "name": "AuthFailedError",
      "type": "event"
    },
    {
      "constant": false,
      "inputs": [
        {
          "name": "_eventsHistory",
          "type": "address"
        }
      ],
      "name": "setupEventsHistory",
      "outputs": [
        {
          "name": "",
          "type": "uint256"
        }
      ],
      "payable": false,
      "stateMutability": "nonpayable",
      "type": "function"
    },
    {
      "constant": true,
      "inputs": [
        {
          "name": "_account",
          "type": "address"
        }
      ],
      "name": "getUserContracts",
      "outputs": [
        {
          "name": "_users",
          "type": "address[]"
        }
      ],
      "payable": false,
      "stateMutability": "view",
      "type": "function"
    },
    {
      "constant": false,
      "inputs": [
        {
          "name": "_contract",
          "type": "address"
        }
      ],
      "name": "addUserContract",
      "outputs": [
        {
          "name": "",
          "type": "uint256"
        }
      ],
      "payable": false,
      "stateMutability": "nonpayable",
      "type": "function"
    },
    {
      "constant": false,
      "inputs": [
        {
          "name": "_contract",
          "type": "address"
        },
        {
          "name": "_from",
          "type": "address"
        }
      ],
      "name": "removeUserContractFrom",
      "outputs": [
        {
          "name": "",
          "type": "uint256"
        }
      ],
      "payable": false,
      "stateMutability": "nonpayable",
      "type": "function"
    },
    {
      "constant": false,
      "inputs": [
        {
          "name": "_contract",
          "type": "address"
        }
      ],
      "name": "removeUserContract",
      "outputs": [
        {
          "name": "",
          "type": "uint256"
        }
      ],
      "payable": false,
      "stateMutability": "nonpayable",
      "type": "function"
    },
    {
      "constant": false,
      "inputs": [
        {
          "name": "_contract",
          "type": "address"
        },
        {
          "name": "_from",
          "type": "address"
        }
      ],
      "name": "userOwnershipChanged",
      "outputs": [],
      "payable": false,
      "stateMutability": "nonpayable",
      "type": "function"
    },
    {
      "constant": false,
      "inputs": [
        {
          "name": "_contract",
          "type": "address"
        },
        {
          "name": "_owner",
          "type": "address"
        }
      ],
      "name": "emitUserContractAdded",
      "outputs": [],
      "payable": false,
      "stateMutability": "nonpayable",
      "type": "function"
    },
    {
      "constant": false,
      "inputs": [
        {
          "name": "_contract",
          "type": "address"
        },
        {
          "name": "_owner",
          "type": "address"
        }
      ],
      "name": "emitUserContractRemoved",
      "outputs": [],
      "payable": false,
      "stateMutability": "nonpayable",
      "type": "function"
    },
    {
      "constant": false,
      "inputs": [
        {
          "name": "_contract",
          "type": "address"
        },
        {
          "name": "_oldOwner",
          "type": "address"
        },
        {
          "name": "_owner",
          "type": "address"
        }
      ],
      "name": "emitUserContractChanged",
      "outputs": [],
      "payable": false,
      "stateMutability": "nonpayable",
      "type": "function"
    }
  ],
  "bytecode": "0x60806040523480156200001157600080fd5b506040516060806200190b8339810160409081528151602083015191909201518083836200005060008383640100000000620013a1620000cc82021704565b5050600160a060020a03811615156200006857600080fd5b60028054600160a060020a031916600160a060020a0392909216919091179055620000c360047f6f776e6564557365727353746f72616765000000000000000000000000000000640100000000620000f28102620013d41704565b50505062000307565b8254600160a060020a031916600160a060020a0392909216919091178255600190910155565b6200010782826401000000006200010b810204565b5050565b62000107828264010000000062000120810204565b6040805160208082018490527f636f756e7400000000000000000000000000000000000000000000000000000082840152825160258184030181526045909201928390528151620001dc93869392909182918401908083835b602083106200019a5780518252601f19909201916020918201910162000179565b6001836020036101000a0380198251168184511680821785525050505050509050019150506040518091039020620002d4640100000000026401000000009004565b6040805160208082018490527f696e64657865730000000000000000000000000000000000000000000000000082840152825160278184030181526047909201928390528151620002589360018701939290918291840190808383602083106200019a5780518252601f19909201916020918201910162000179565b6040805160208082018490527f76616c756573000000000000000000000000000000000000000000000000000082840152825160268184030181526046909201928390528151620001079360028701939290918291840190808383602083106200019a5780518252601f19909201916020918201910162000179565b8154620002eb9082640100000000620002ef810204565b9055565b81151580620002fc575080155b156200010757600080fd5b6115f480620003176000396000f3006080604052600436106100a05763ffffffff60e060020a60003504166302927d2081146100a55780631c1dbe86146100d85780632637cd7d146101075780632b86eadf1461012857806334c925f01461014f5780634ef5129d146101c05780634f3abaf5146101e75780638834277e1461020e5780638c2229be14610226578063c11c061614610247578063e921d7ad14610268578063fff10aba1461028f575b600080fd5b3480156100b157600080fd5b506100c6600160a060020a03600435166102c0565b60408051918252519081900360200190f35b3480156100e457600080fd5b50610105600160a060020a0360043581169060243581169060443516610344565b005b34801561011357600080fd5b506100c6600160a060020a03600435166103a7565b34801561013457600080fd5b50610105600160a060020a0360043581169060243516610434565b34801561015b57600080fd5b50610170600160a060020a0360043516610489565b60408051602080825283518183015283519192839290830191858101910280838360005b838110156101ac578181015183820152602001610194565b505050509050019250505060405180910390f35b3480156101cc57600080fd5b50610105600160a060020a03600435811690602435166104ad565b3480156101f357600080fd5b50610105600160a060020a0360043581169060243516610697565b34801561021a57600080fd5b506101056004356106ec565b34801561023257600080fd5b506100c6600160a060020a0360043516610737565b34801561025357600080fd5b506100c6600160a060020a03600435166108b9565b34801561027457600080fd5b506100c6600160a060020a0360043581169060243516610955565b34801561029b57600080fd5b506102a4610a68565b60408051600160a060020a039092168252519081900360200190f35b60006102d833600035600160e060020a031916610a8c565b151561031b5760408051308152336020820152600160e060020a0319600035168183015290516000805160206115a98339815191529181900360600190a161033f565b600160a060020a038216151561033057600080fd5b61033982610b72565b50600190505b919050565b80600160a060020a031683600160a060020a0316610360610ba3565b60408051600160a060020a038781168252915192909116917f8beef7ee073be53d6d36d09e7d08562480d2017aa3da575f5bdd4b3dc820698d9181900360200190a4505050565b60006103bf33600035600160e060020a031916610a8c565b15156104025760408051308152336020820152600160e060020a0319600035168183015290516000805160206115a98339815191529181900360600190a161033f565b5060028054600160a060020a03831673ffffffffffffffffffffffffffffffffffffffff199091161790556001919050565b80600160a060020a031682600160a060020a0316610450610ba3565b600160a060020a03167fefe29a8e25a0f51e06b1f495775b866d4261a05754e0e67a1f421af79ef1a3e960405160405180910390a45050565b60606104a760006004600160a060020a03851663ffffffff610ba716565b92915050565b600082600160a060020a031663ce606ee06040518163ffffffff1660e060020a028152600401602060405180830381600087803b1580156104ed57600080fd5b505af1158015610501573d6000803e3d6000fd5b505050506040513d602081101561051757600080fd5b50519050600160a060020a0380821690831614156105405761053a617533610bc4565b50610692565b61054a8383610c34565b151561055b5761053a617532610bc4565b6105658382610c7c565b1561060457610572610cbd565b604080517f1c1dbe86000000000000000000000000000000000000000000000000000000008152600160a060020a0386811660048301528581166024830152848116604483015291519290911691631c1dbe869160648082019260009290919082900301818387803b1580156105e757600080fd5b505af11580156105fb573d6000803e3d6000fd5b50505050610692565b61060c610cbd565b604080517f2b86eadf000000000000000000000000000000000000000000000000000000008152600160a060020a038681166004830152858116602483015291519290911691632b86eadf9160448082019260009290919082900301818387803b15801561067957600080fd5b505af115801561068d573d6000803e3d6000fd5b505050505b505050565b80600160a060020a031682600160a060020a03166106b3610ba3565b600160a060020a03167f54845e7437c98cb9e4d6ce78f0adeb57583ea7bc81d7e68044d893ab22677f4a60405160405180910390a45050565b6106f4610ba3565b600160a060020a03167f09e0713b45664e161c202b19bb4574ee83dfa056f9bfdee56847b3971d968221826040518082815260200191505060405180910390a250565b60008061075033600035600160e060020a031916610a8c565b15156107935760408051308152336020820152600160e060020a0319600035168183015290516000805160206115a98339815191529181900360600190a16108b3565b82600160a060020a031663ce606ee06040518163ffffffff1660e060020a028152600401602060405180830381600087803b1580156107d157600080fd5b505af11580156107e5573d6000803e3d6000fd5b505050506040513d60208110156107fb57600080fd5b505190506108098382610c7c565b15156108215761081a617531610bc4565b91506108b3565b610829610cbd565b604080517f4f3abaf5000000000000000000000000000000000000000000000000000000008152600160a060020a038681166004830152848116602483015291519290911691634f3abaf59160448082019260009290919082900301818387803b15801561089657600080fd5b505af11580156108aa573d6000803e3d6000fd5b50505050600191505b50919050565b604080517fe921d7ad000000000000000000000000000000000000000000000000000000008152600160a060020a03831660048201523360248201529051600091309163e921d7ad9160448082019260209290919082900301818787803b15801561092357600080fd5b505af1158015610937573d6000803e3d6000fd5b505050506040513d602081101561094d57600080fd5b505192915050565b600061096d33600035600160e060020a031916610a8c565b15156109b05760408051308152336020820152600160e060020a0319600035168183015290516000805160206115a98339815191529181900360600190a16104a7565b6109ba8383610c34565b15156109d2576109cb617532610bc4565b90506104a7565b6109da610cbd565b604080517f2b86eadf000000000000000000000000000000000000000000000000000000008152600160a060020a038681166004830152858116602483015291519290911691632b86eadf9160448082019260009290919082900301818387803b158015610a4757600080fd5b505af1158015610a5b573d6000803e3d6000fd5b5060019695505050505050565b600354600090600160a060020a0316801515610a845730610a86565b805b91505090565b6000600160a060020a038316301415610aa7575060016104a7565b600254600160a060020a03161515610ac1575060006104a7565b600254604080517fb7009613000000000000000000000000000000000000000000000000000000008152600160a060020a038681166004830152306024830152600160e060020a0319861660448301529151919092169163b70096139160648083019260209291908290030181600087803b158015610b3f57600080fd5b505af1158015610b53573d6000803e3d6000fd5b505050506040513d6020811015610b6957600080fd5b50519392505050565b60038054600160a060020a03831673ffffffffffffffffffffffffffffffffffffffff199091161790556001919050565b3390565b6060610bbc610bb7858585610ccc565b610cd9565b949350505050565b6000610bce610a68565b600160a060020a0316638834277e836040518263ffffffff1660e060020a02815260040180828152602001915050600060405180830381600087803b158015610c1657600080fd5b505af1158015610c2a573d6000803e3d6000fd5b5093949350505050565b6000610c52816004600160a060020a0385168663ffffffff610d6616565b156104a757610c7460006004600160a060020a0385168663ffffffff610d8616565b5060016104a7565b6000610c9a816004600160a060020a0385168663ffffffff610d6616565b15156104a757610c7460006004600160a060020a0385168663ffffffff610da116565b6000610cc7610a68565b905090565b6060610bbc848484610db6565b60608060008351604051908082528060200260200182016040528015610d09578160200160208202803883390190505b509150600090505b8351811015610d5f578381815181101515610d2857fe5b602090810290910101518251839083908110610d4057fe5b600160a060020a03909216602092830290910190910152600101610d11565b5092915050565b6000610d7d858585600160a060020a038616610e37565b95945050505050565b610d9b848484600160a060020a038516610e45565b50505050565b610d9b848484600160a060020a038516610e51565b6060600080610dc6868686610e5d565b915081604051908082528060200260200182016040528015610df2578160200160208202803883390190505b509250600090505b81811015610e2e57610e0e86868684610e6a565b8382815181101515610e1c57fe5b60209081029091010152600101610dfa565b50509392505050565b6000610d7d85858585610e7e565b610d9b84848484610e9a565b610d9b84848484610f3f565b6000610bbc848484610f9a565b6000610d7d856002860185600186016110aa565b6000610e8f858560010185856110aa565b151595945050505050565b6000806000610eab87878787610e7e565b1515610eb65761068d565b610ec1878787610e5d565b9250610ed2876002880187866110aa565b9150610ee3878760010187876110aa565b905082811015610f0d57610efd8760018801878585611138565b610f0d8760028801878486611138565b610f1e876001880187876000611138565b610f2f876002880187866000611138565b61068d87878760001987016111c3565b6000610f4d85858585610e7e565b15610f5757610f93565b610f62858585610e5d565b6001019050610f778560028601858486611138565b610f878560018601858585611138565b610f93858585846111c3565b5050505050565b825460018401548354604080516020808201939093528082018690528151808203830181526060909101918290528051600095600160a060020a0316946353aa3f5e9490939182918401908083835b602083106110085780518252601f199092019160209182019101610fe9565b51815160209384036101000a60001901801990921691161790526040805192909401829003822063ffffffff891660e060020a028352600483019790975260248201969096529151604480840196955090935091839003909101905081600087803b15801561107657600080fd5b505af115801561108a573d6000803e3d6000fd5b505050506040513d60208110156110a057600080fd5b5051949350505050565b6040805160208082018590528183018490528251808303840181526060909201928390528151600093610d7d938993899391929182918401908083835b602083106111065780518252601f1990920191602091820191016110e7565b6001836020036101000a03801982511681845116808217855250505050505090500191505060405180910390206112c6565b6040805160208082018690528183018590528251808303840181526060909201928390528151610f939389938993909282918401908083835b602083106111905780518252601f199092019160209182019101611171565b6001836020036101000a038019825116818451168082178552505050505050905001915050604051809103902084611333565b835460018501548454604080516020808201939093528082018790528151808203830181526060909101918290528051600160a060020a03909516946353e7168b94939192918291908401908083835b602083106112325780518252601f199092019160209182019101611213565b5181516020939093036101000a60001901801990911692169190911790526040805191909301819003812063ffffffff881660e060020a02825260048201969096526024810195909552506044840187905251606480850194600094509192509082900301818387803b1580156112a857600080fd5b505af11580156112bc573d6000803e3d6000fd5b5050505050505050565b825460018401548354604080516020808201939093528082018690528151808203830181526060909101918290528051600095600160a060020a0316946337d9d7fc949093918291840190808383602083106110085780518252601f199092019160209182019101610fe9565b835460018501548454604080516020808201939093528082018790528151808203830181526060909101918290528051600160a060020a039095169463a14ff8579493919291829190840190808383602083106112325780518252601f199092019160209182019101611213565b825473ffffffffffffffffffffffffffffffffffffffff1916600160a060020a0392909216919091178255600190910155565b6113de82826113e2565b5050565b6113de82826040805160208082018490527f636f756e740000000000000000000000000000000000000000000000000000008284015282516025818403018152604590920192839052815161149093869392909182918401908083835b6020831061145e5780518252601f19909201916020918201910161143f565b6001836020036101000a0380198251168184511680821785525050505050509050019150506040518091039020611582565b6040805160208082018490527f696e6465786573000000000000000000000000000000000000000000000000008284015282516027818403018152604790920192839052815161150993600187019392909182918401908083836020831061145e5780518252601f19909201916020918201910161143f565b6040805160208082018490527f76616c7565730000000000000000000000000000000000000000000000000000828401528251602681840301815260469092019283905281516113de93600287019392909182918401908083836020831061145e5780518252601f19909201916020918201910161143f565b815461158e9082611592565b9055565b8115158061159e575080155b156113de57600080fd005133a133185f1023427a2e90f18506b27db994977ce0c0faafd514a7dd109ae0a165627a7a72305820ef02d3cc01bf99fbcaf0ca23ac4bfcfffb148db74f9e0e3ceae89721f71ab52b0029",
  "source": "/**\n* Copyright 2017–2018, LaborX PTY\n* Licensed under the AGPL Version 3 license.\n*/\n\npragma solidity ^0.4.23;\n\n\nimport \"solidity-storage-lib/contracts/StorageAdapter.sol\";\nimport \"solidity-roles-lib/contracts/Roles2LibraryAdapter.sol\";\nimport \"solidity-eventshistory-lib/contracts/MultiEventsHistoryAdapter.sol\";\nimport \"./UserOwnershipListenerInterface.sol\";\n\n\n/// @title Acts like a registry for existed users across a system.\n/// Upgradable (thanks to Storage contract), protected by roles access.\n/// Allows to keep records about who owns which contracts and update these records\n/// accordingly. Contracts should use UserOwnershipListenerInterface to sign about\n/// ownership changes and if this contract was added to the registry then the record\n/// will be updated, otherwise nothing happen.\ncontract UserRegistry is StorageAdapter, Roles2LibraryAdapter, MultiEventsHistoryAdapter, UserOwnershipListenerInterface {\n\n    uint constant USER_REGISTRY_SCOPE = 30000;\n    uint constant USER_REGISTRY_USER_CONTRACT_ALREADY_EXISTS = USER_REGISTRY_SCOPE + 1;\n    uint constant USER_REGISTRY_NO_USER_CONTRACT_FOUND = USER_REGISTRY_SCOPE + 2;\n    uint constant USER_REGISTRY_CANNOT_CHANGE_TO_THE_SAME_OWNER = USER_REGISTRY_SCOPE + 3;\n\n    event UserContractAdded(address indexed self, address indexed userContract, address indexed owner);\n    event UserContractRemoved(address indexed self, address indexed userContract, address indexed owner);\n    event UserContractChanged(address indexed self, address indexed userContract, address oldOwner, address indexed owner);\n\n    /// @dev mapping(owner => (set of user's contracts)\n    StorageInterface.AddressesSetMapping internal ownedUsersStorage;\n\n    constructor(Storage _store, bytes32 _crate, address _roles2Library)\n    StorageAdapter(_store, _crate)\n    Roles2LibraryAdapter(_roles2Library)\n    public \n    {\n        ownedUsersStorage.init(\"ownedUsersStorage\");\n    }\n\n    /// @notice Sets up events history address\n    /// Allowed only for authorized roles.\n    /// @param _eventsHistory address of events history contract\n    /// @return result of an operation\n    function setupEventsHistory(address _eventsHistory) \n    external \n    auth \n    returns (uint) \n    {\n        require(_eventsHistory != 0x0);\n        \n        _setEventsHistory(_eventsHistory);\n        return OK;\n    }\n\n    /// @notice Gets a list of contracts that are associated with provided user\n    /// @param _account user address to seek\n    /// @return array of contracts owned by a user\n    function getUserContracts(address _account)\n    public\n    view\n    returns (address[] _users)\n    {\n        _users = store.get(ownedUsersStorage, bytes32(_account));\n    }\n\n    /// @notice Registers a contract and associate it with its owner. Contract passed\n    /// here should be compatible with Owned contract interface.\n    /// Allowed only for authorized roles.\n    /// Emits UserContractAdded event.\n    /// @param _contract contract address to register; should support Owned interface\n    /// @return result of an operation\n    function addUserContract(address _contract)\n    external\n    auth\n    returns (uint)\n    {\n        address _owner = Owned(_contract).contractOwner();\n        if (!_addUserContract(_contract, _owner)) {\n            return _emitErrorCode(USER_REGISTRY_USER_CONTRACT_ALREADY_EXISTS);\n        }\n        \n        _emitter().emitUserContractAdded(_contract, _owner);\n        return OK;\n    }\n\n    /// @notice Removes a contract from provided user association. \n    /// Mostly used to clean up unrelevant connections.\n    /// Allowed only for authorized roles.\n    /// Emits UserContractRemoved event.\n    /// @param _contract contract address to remove\n    /// @return result of an operation\n    function removeUserContractFrom(address _contract, address _from)\n    external\n    auth\n    returns (uint)\n    {\n        if (!_removeUserContract(_contract, _from)) {\n            return _emitErrorCode(USER_REGISTRY_NO_USER_CONTRACT_FOUND);\n        }\n\n        _emitter().emitUserContractRemoved(_contract, _from);\n        return OK;\n    }\n\n    /// @notice Removes a contract from msg.sender association.\n    /// Not protected by a role auth, so any user who has record with\n    /// his contract could remove his contracts.\n    /// @param _contract contract address to remove\n    /// @return result of an operation\n    function removeUserContract(address _contract)\n    external\n    returns (uint)\n    {\n        return this.removeUserContractFrom(_contract, msg.sender);\n    }\n\n    /// @notice Listener function. Updates records when contract owner changed\n    /// in a stored contract. Does not allow to add a contract record through this function.\n    /// Emits UserContractChanged event.\n    /// @param _contract contract address that have a new owner\n    /// @param _from old contract owner address\n    function userOwnershipChanged(address _contract, address _from) \n    external\n    {\n        address _owner = Owned(_contract).contractOwner();\n        if (_owner == _from) {\n            _emitErrorCode(USER_REGISTRY_CANNOT_CHANGE_TO_THE_SAME_OWNER);\n            return;\n        }\n\n        if (!_removeUserContract(_contract, _from)) {\n            _emitErrorCode(USER_REGISTRY_NO_USER_CONTRACT_FOUND);\n            return;\n        }\n\n        if (_addUserContract(_contract, _owner)) {\n            _emitter().emitUserContractChanged(_contract, _from, _owner);\n        } else {\n            _emitter().emitUserContractRemoved(_contract, _from);\n        }\n    }\n\n    /* EVENTS EMITTING (for events history) */\n\n    function emitUserContractAdded(address _contract, address _owner) external {\n        emit UserContractAdded(_self(), _contract, _owner);\n    }\n\n    function emitUserContractRemoved(address _contract, address _owner) external {\n        emit UserContractRemoved(_self(), _contract, _owner);\n    }\n\n    function emitUserContractChanged(address _contract, address _oldOwner, address _owner) external {\n        emit UserContractChanged(_self(), _contract, _oldOwner, _owner);\n    }\n\n    /* INTERNAL */\n\n    function _addUserContract(address _contract, address _owner) private returns (bool) {\n        if (!store.includes(ownedUsersStorage, bytes32(_owner), _contract)) {\n            store.add(ownedUsersStorage, bytes32(_owner), _contract);\n            return true;\n        }\n    }\n\n    function _removeUserContract(address _contract, address _from) private returns (bool) {\n        if (store.includes(ownedUsersStorage, bytes32(_from), _contract)) {\n            store.remove(ownedUsersStorage, bytes32(_from), _contract);\n            return true;\n        }\n    }\n\n    function _emitter() private view returns (UserRegistry) {\n        return UserRegistry(getEventsHistory());\n    }\n}",
  "sourcePath": "solidity-user-lib/contracts/UserRegistry.sol",
  "compiler": {
    "name": "solc",
    "version": "0.4.24+commit.e67f0147.Emscripten.clang"
  },
  "schemaVersion": "2.0.1",
  "updatedAt": "2018-09-18T15:43:35.421Z"
}