{
  "contractName": "UserLibrary",
  "abi": [
    {
      "constant": false,
      "inputs": [
        {
          "name": "_roles2Library",
          "type": "address"
        }
      ],
      "name": "setRoles2Library",
      "outputs": [
        {
          "name": "",
          "type": "uint256"
        }
      ],
      "payable": false,
      "stateMutability": "nonpayable",
      "type": "function"
    },
    {
      "constant": true,
      "inputs": [],
      "name": "version",
      "outputs": [
        {
          "name": "",
          "type": "string"
        }
      ],
      "payable": false,
      "stateMutability": "view",
      "type": "function"
    },
    {
      "constant": false,
      "inputs": [
        {
          "name": "_errorCode",
          "type": "uint256"
        }
      ],
      "name": "emitErrorCode",
      "outputs": [],
      "payable": false,
      "stateMutability": "nonpayable",
      "type": "function"
    },
    {
      "constant": true,
      "inputs": [],
      "name": "getEventsHistory",
      "outputs": [
        {
          "name": "",
          "type": "address"
        }
      ],
      "payable": false,
      "stateMutability": "view",
      "type": "function"
    },
    {
      "inputs": [
        {
          "name": "_store",
          "type": "address"
        },
        {
          "name": "_crate",
          "type": "bytes32"
        },
        {
          "name": "_roles2Library",
          "type": "address"
        }
      ],
      "payable": false,
      "stateMutability": "nonpayable",
      "type": "constructor"
    },
    {
      "anonymous": false,
      "inputs": [
        {
          "indexed": true,
          "name": "self",
          "type": "address"
        },
        {
          "indexed": true,
          "name": "user",
          "type": "address"
        },
        {
          "indexed": false,
          "name": "areas",
          "type": "uint256"
        }
      ],
      "name": "SkillAreasSet",
      "type": "event"
    },
    {
      "anonymous": false,
      "inputs": [
        {
          "indexed": true,
          "name": "self",
          "type": "address"
        },
        {
          "indexed": true,
          "name": "user",
          "type": "address"
        },
        {
          "indexed": false,
          "name": "area",
          "type": "uint256"
        },
        {
          "indexed": false,
          "name": "categories",
          "type": "uint256"
        }
      ],
      "name": "SkillCategoriesSet",
      "type": "event"
    },
    {
      "anonymous": false,
      "inputs": [
        {
          "indexed": true,
          "name": "self",
          "type": "address"
        },
        {
          "indexed": true,
          "name": "user",
          "type": "address"
        },
        {
          "indexed": false,
          "name": "area",
          "type": "uint256"
        },
        {
          "indexed": false,
          "name": "category",
          "type": "uint256"
        },
        {
          "indexed": false,
          "name": "skills",
          "type": "uint256"
        }
      ],
      "name": "SkillsSet",
      "type": "event"
    },
    {
      "anonymous": false,
      "inputs": [
        {
          "indexed": false,
          "name": "code",
          "type": "address"
        },
        {
          "indexed": false,
          "name": "sender",
          "type": "address"
        },
        {
          "indexed": false,
          "name": "sig",
          "type": "bytes4"
        }
      ],
      "name": "AuthFailedError",
      "type": "event"
    },
    {
      "anonymous": false,
      "inputs": [
        {
          "indexed": true,
          "name": "self",
          "type": "address"
        },
        {
          "indexed": false,
          "name": "errorCode",
          "type": "uint256"
        }
      ],
      "name": "ErrorCode",
      "type": "event"
    },
    {
      "constant": false,
      "inputs": [
        {
          "name": "_eventsHistory",
          "type": "address"
        }
      ],
      "name": "setupEventsHistory",
      "outputs": [
        {
          "name": "",
          "type": "uint256"
        }
      ],
      "payable": false,
      "stateMutability": "nonpayable",
      "type": "function"
    },
    {
      "constant": true,
      "inputs": [
        {
          "name": "_user",
          "type": "address"
        },
        {
          "name": "_area",
          "type": "uint256"
        }
      ],
      "name": "getAreaInfo",
      "outputs": [
        {
          "name": "partialArea",
          "type": "bool"
        },
        {
          "name": "fullArea",
          "type": "bool"
        }
      ],
      "payable": false,
      "stateMutability": "view",
      "type": "function"
    },
    {
      "constant": true,
      "inputs": [
        {
          "name": "_user",
          "type": "address"
        },
        {
          "name": "_area",
          "type": "uint256"
        }
      ],
      "name": "hasArea",
      "outputs": [
        {
          "name": "_partial",
          "type": "bool"
        }
      ],
      "payable": false,
      "stateMutability": "view",
      "type": "function"
    },
    {
      "constant": true,
      "inputs": [
        {
          "name": "_user",
          "type": "address"
        },
        {
          "name": "_area",
          "type": "uint256"
        },
        {
          "name": "_category",
          "type": "uint256"
        }
      ],
      "name": "getCategoryInfo",
      "outputs": [
        {
          "name": "partialCategory",
          "type": "bool"
        },
        {
          "name": "fullCategory",
          "type": "bool"
        }
      ],
      "payable": false,
      "stateMutability": "view",
      "type": "function"
    },
    {
      "constant": true,
      "inputs": [
        {
          "name": "_user",
          "type": "address"
        },
        {
          "name": "_area",
          "type": "uint256"
        },
        {
          "name": "_category",
          "type": "uint256"
        }
      ],
      "name": "hasCategory",
      "outputs": [
        {
          "name": "_partial",
          "type": "bool"
        }
      ],
      "payable": false,
      "stateMutability": "view",
      "type": "function"
    },
    {
      "constant": true,
      "inputs": [
        {
          "name": "_user",
          "type": "address"
        },
        {
          "name": "_area",
          "type": "uint256"
        },
        {
          "name": "_category",
          "type": "uint256"
        },
        {
          "name": "_skill",
          "type": "uint256"
        }
      ],
      "name": "hasSkill",
      "outputs": [
        {
          "name": "",
          "type": "bool"
        }
      ],
      "payable": false,
      "stateMutability": "view",
      "type": "function"
    },
    {
      "constant": true,
      "inputs": [
        {
          "name": "_user",
          "type": "address"
        },
        {
          "name": "_area",
          "type": "uint256"
        },
        {
          "name": "_category",
          "type": "uint256"
        },
        {
          "name": "_skills",
          "type": "uint256"
        }
      ],
      "name": "hasSkills",
      "outputs": [
        {
          "name": "",
          "type": "bool"
        }
      ],
      "payable": false,
      "stateMutability": "view",
      "type": "function"
    },
    {
      "constant": true,
      "inputs": [
        {
          "name": "_user",
          "type": "address"
        }
      ],
      "name": "getUserSkills",
      "outputs": [
        {
          "name": "areas",
          "type": "uint256"
        },
        {
          "name": "_categories",
          "type": "uint256[]"
        },
        {
          "name": "_skills",
          "type": "uint256[]"
        }
      ],
      "payable": false,
      "stateMutability": "view",
      "type": "function"
    },
    {
      "constant": true,
      "inputs": [],
      "name": "getUsersCount",
      "outputs": [
        {
          "name": "",
          "type": "uint256"
        }
      ],
      "payable": false,
      "stateMutability": "view",
      "type": "function"
    },
    {
      "constant": true,
      "inputs": [
        {
          "name": "_area",
          "type": "uint256"
        },
        {
          "name": "_categories",
          "type": "uint256[]"
        },
        {
          "name": "_skills",
          "type": "uint256[]"
        },
        {
          "name": "_fromIdx",
          "type": "uint256"
        },
        {
          "name": "_maxLen",
          "type": "uint256"
        }
      ],
      "name": "getStrictUsersByAreaCount",
      "outputs": [
        {
          "name": "_count",
          "type": "uint256"
        },
        {
          "name": "_userIdx",
          "type": "uint256"
        }
      ],
      "payable": false,
      "stateMutability": "view",
      "type": "function"
    },
    {
      "constant": true,
      "inputs": [
        {
          "name": "_area",
          "type": "uint256"
        },
        {
          "name": "_categories",
          "type": "uint256[]"
        },
        {
          "name": "_skills",
          "type": "uint256[]"
        },
        {
          "name": "_fromIdx",
          "type": "uint256"
        },
        {
          "name": "_maxLen",
          "type": "uint256"
        }
      ],
      "name": "getUsersByAreaCount",
      "outputs": [
        {
          "name": "_count",
          "type": "uint256"
        },
        {
          "name": "_userIdx",
          "type": "uint256"
        }
      ],
      "payable": false,
      "stateMutability": "view",
      "type": "function"
    },
    {
      "constant": false,
      "inputs": [
        {
          "name": "_user",
          "type": "address"
        },
        {
          "name": "_areas",
          "type": "uint256"
        }
      ],
      "name": "setAreas",
      "outputs": [
        {
          "name": "",
          "type": "uint256"
        }
      ],
      "payable": false,
      "stateMutability": "nonpayable",
      "type": "function"
    },
    {
      "constant": false,
      "inputs": [
        {
          "name": "_user",
          "type": "address"
        },
        {
          "name": "_area",
          "type": "uint256"
        },
        {
          "name": "_categories",
          "type": "uint256"
        }
      ],
      "name": "setCategories",
      "outputs": [
        {
          "name": "",
          "type": "uint256"
        }
      ],
      "payable": false,
      "stateMutability": "nonpayable",
      "type": "function"
    },
    {
      "constant": false,
      "inputs": [
        {
          "name": "_user",
          "type": "address"
        },
        {
          "name": "_area",
          "type": "uint256"
        },
        {
          "name": "_category",
          "type": "uint256"
        },
        {
          "name": "_skills",
          "type": "uint256"
        }
      ],
      "name": "setSkills",
      "outputs": [
        {
          "name": "",
          "type": "uint256"
        }
      ],
      "payable": false,
      "stateMutability": "nonpayable",
      "type": "function"
    },
    {
      "constant": false,
      "inputs": [
        {
          "name": "_user",
          "type": "address"
        },
        {
          "name": "_areas",
          "type": "uint256"
        },
        {
          "name": "_categories",
          "type": "uint256[]"
        },
        {
          "name": "_skills",
          "type": "uint256[]"
        }
      ],
      "name": "addMany",
      "outputs": [
        {
          "name": "",
          "type": "uint256"
        }
      ],
      "payable": false,
      "stateMutability": "nonpayable",
      "type": "function"
    },
    {
      "constant": false,
      "inputs": [
        {
          "name": "_user",
          "type": "address"
        },
        {
          "name": "_areas",
          "type": "uint256"
        },
        {
          "name": "_categories",
          "type": "uint256[]"
        },
        {
          "name": "_skills",
          "type": "uint256[]"
        }
      ],
      "name": "setMany",
      "outputs": [
        {
          "name": "",
          "type": "uint256"
        }
      ],
      "payable": false,
      "stateMutability": "nonpayable",
      "type": "function"
    },
    {
      "constant": false,
      "inputs": [
        {
          "name": "_user",
          "type": "address"
        },
        {
          "name": "_areas",
          "type": "uint256"
        }
      ],
      "name": "emitSkillAreasSet",
      "outputs": [],
      "payable": false,
      "stateMutability": "nonpayable",
      "type": "function"
    },
    {
      "constant": false,
      "inputs": [
        {
          "name": "_user",
          "type": "address"
        },
        {
          "name": "_area",
          "type": "uint256"
        },
        {
          "name": "_categories",
          "type": "uint256"
        }
      ],
      "name": "emitSkillCategoriesSet",
      "outputs": [],
      "payable": false,
      "stateMutability": "nonpayable",
      "type": "function"
    },
    {
      "constant": false,
      "inputs": [
        {
          "name": "_user",
          "type": "address"
        },
        {
          "name": "_area",
          "type": "uint256"
        },
        {
          "name": "_category",
          "type": "uint256"
        },
        {
          "name": "_skills",
          "type": "uint256"
        }
      ],
      "name": "emitSkillsSet",
      "outputs": [],
      "payable": false,
      "stateMutability": "nonpayable",
      "type": "function"
    }
  ],
  "bytecode": "0x60c0604052600660808190527f76302e302e31000000000000000000000000000000000000000000000000000060a09081526200004091600a9190620003f5565b503480156200004e57600080fd5b506040516060806200296a8339810160409081528151602083015191909201518083836200008d6000838364010000000062002258620001ba82021704565b5050600160a060020a0381161515620000a557600080fd5b60038054600160a060020a031916600160a060020a03929092169190911790556200010060047f736b696c6c417265617300000000000000000000000000000000000000000000640100000000620001e081026200228b1704565b6200013b60057f736b696c6c43617465676f7269657300000000000000000000000000000000006401000000006200228b620001e082021704565b6200017660067f736b696c6c7300000000000000000000000000000000000000000000000000006401000000006200228b620001e082021704565b620001b160077f7573657273000000000000000000000000000000000000000000000000000000640100000000620022a9620001f982021704565b5050506200049a565b8254600160a060020a031916600160a060020a0392909216919091178255600190910155565b620001f582826401000000006200020e810204565b5050565b620001f5828264010000000062000229810204565b8154620002259082640100000000620003dd810204565b9055565b6040805160208082018490527f636f756e7400000000000000000000000000000000000000000000000000000082840152825160258184030181526045909201928390528151620002e593869392909182918401908083835b60208310620002a35780518252601f19909201916020918201910162000282565b6001836020036101000a03801982511681845116808217855250505050505090500191505060405180910390206200020e640100000000026401000000009004565b6040805160208082018490527f696e6465786573000000000000000000000000000000000000000000000000008284015282516027818403018152604790920192839052815162000361936001870193929091829184019080838360208310620002a35780518252601f19909201916020918201910162000282565b6040805160208082018490527f76616c756573000000000000000000000000000000000000000000000000000082840152825160268184030181526046909201928390528151620001f5936002870193929091829184019080838360208310620002a35780518252601f19909201916020918201910162000282565b81151580620003ea575080155b15620001f557600080fd5b828054600181600116156101000203166002900490600052602060002090601f016020900481019282601f106200043857805160ff191683800117855562000468565b8280016001018555821562000468579182015b82811115620004685782518255916020019190600101906200044b565b50620004769291506200047a565b5090565b6200049791905b8082111562000476576000815560010162000481565b90565b6124c080620004aa6000396000f3006080604052600436106101195763ffffffff60e060020a60003504166302927d20811461011e578063177d8ee4146101515780631e0b8c871461017d5780632637cd7d146101bb5780632984bc4d146101dc5780632cf2b3f21461021b57806352782648146102d057806354fd4d50146102f457806356538c911461037e5780635d15b46a1461041a5780635d201596146104415780635fce627e146104685780637e4410481461048c5780638834277e146104b35780638d5fa05c146104cb578063a3922eac146104ef578063a4a1e26314610516578063bffee6091461052b578063cfba027914610555578063d2886ebc1461057f578063d5a18e4c14610640578063d5f72b2e146106e0578063fff10aba14610780575b600080fd5b34801561012a57600080fd5b5061013f600160a060020a03600435166107b1565b60408051918252519081900360200190f35b34801561015d57600080fd5b5061017b600160a060020a0360043516602435604435606435610835565b005b34801561018957600080fd5b506101a7600160a060020a036004351660243560443560643561089a565b604080519115158252519081900360200190f35b3480156101c757600080fd5b5061013f600160a060020a03600435166108fe565b3480156101e857600080fd5b50610200600160a060020a036004351660243561098b565b60408051921515835290151560208301528051918290030190f35b34801561022757600080fd5b506040805160206004602480358281013584810280870186019097528086526102b796843596369660449591949091019291829185019084908082843750506040805187358901803560208181028481018201909552818452989b9a9989019892975090820195509350839250850190849080828437509497505084359550505060209092013591506109f09050565b6040805192835260208301919091528051918290030190f35b3480156102dc57600080fd5b5061017b600160a060020a0360043516602435610a11565b34801561030057600080fd5b50610309610a67565b6040805160208082528351818301528351919283929083019185019080838360005b8381101561034357818101518382015260200161032b565b50505050905090810190601f1680156103705780820380516001836020036101000a031916815260200191505b509250505060405180910390f35b34801561038a57600080fd5b506040805160206004602480358281013584810280870186019097528086526102b796843596369660449591949091019291829185019084908082843750506040805187358901803560208181028481018201909552818452989b9a998901989297509082019550935083925085019084908082843750949750508435955050506020909201359150610af59050565b34801561042657600080fd5b5061017b600160a060020a0360043516602435604435610b08565b34801561044d57600080fd5b50610200600160a060020a0360043516602435604435610b67565b34801561047457600080fd5b506101a7600160a060020a0360043516602435610c07565b34801561049857600080fd5b506101a7600160a060020a0360043516602435604435610c1b565b3480156104bf57600080fd5b5061017b600435610c31565b3480156104d757600080fd5b5061013f600160a060020a0360043516602435610c7c565b3480156104fb57600080fd5b5061013f600160a060020a0360043516602435604435610d5b565b34801561052257600080fd5b5061013f610e7d565b34801561053757600080fd5b5061013f600160a060020a0360043516602435604435606435610e95565b34801561056157600080fd5b506101a7600160a060020a0360043516602435604435606435610f7b565b34801561058b57600080fd5b506105a0600160a060020a0360043516610fa8565b604051808481526020018060200180602001838103835285818151815260200191508051906020019060200280838360005b838110156105ea5781810151838201526020016105d2565b50505050905001838103825284818151815260200191508051906020019060200280838360005b83811015610629578181015183820152602001610611565b505050509050019550505050505060405180910390f35b34801561064c57600080fd5b50604080516020600460443581810135838102808601850190965280855261013f958335600160a060020a0316956024803596369695606495939492019291829185019084908082843750506040805187358901803560208181028481018201909552818452989b9a9989019892975090820195509350839250850190849080828437509497506110f79650505050505050565b3480156106ec57600080fd5b50604080516020600460443581810135838102808601850190965280855261013f958335600160a060020a0316956024803596369695606495939492019291829185019084908082843750506040805187358901803560208181028481018201909552818452989b9a9989019892975090820195509350839250850190849080828437509497506111699650505050505050565b34801561078c57600080fd5b506107956111d2565b60408051600160a060020a039092168252519081900360200190f35b60006107c933600035600160e060020a0319166111f6565b151561080c5760408051308152336020820152600160e060020a0319600035168183015290516000805160206124758339815191529181900360600190a1610830565b600160a060020a038216151561082157600080fd5b61082a826112de565b50600190505b919050565b83600160a060020a031661084761130f565b60408051868152602081018690528082018590529051600160a060020a0392909216917f62a9bbdf1ffb3a1f0c2b91bd41b4a8aae08756e1db8528adb7ca9cdca58e8bd59181900360600190a350505050565b6000806000806108ab888888610b67565b90935091508215156108c057600093506108f3565b81156108cf57600193506108f3565b6108e4600060068a8a8a63ffffffff61131316565b90506108f0818661132b565b93505b505050949350505050565b600061091633600035600160e060020a0319166111f6565b15156109595760408051308152336020820152600160e060020a0319600035168183015290516000805160206124758339815191529181900360600190a1610830565b5060038054600160a060020a03831673ffffffffffffffffffffffffffffffffffffffff199091161790556001919050565b60008060008361099a81611332565b15806109ac57506109aa81611349565b155b156109b6576109e7565b6109c9600060048863ffffffff61136f16565b91506109d58286611385565b6109e28360028802611385565b935093505b50509250929050565b600080610a03878787878761138b61147c565b915091509550959350505050565b81600160a060020a0316610a2361130f565b600160a060020a03167f47580e361e39c7552c5d1dfe41faf492bf326a9bdbc08095b79cde9418c08371836040518082815260200191505060405180910390a35050565b600a805460408051602060026001851615610100026000190190941693909304601f81018490048402820184019092528181529291830182828015610aed5780601f10610ac257610100808354040283529160200191610aed565b820191906000526020600020905b815481529060010190602001808311610ad057829003601f168201915b505050505081565b600080610a03878787878761159a61147c565b82600160a060020a0316610b1a61130f565b600160a060020a03167ff5bc4555dd344fe149ad54c8a3e1822c64a81f6943c4ca71b8eb64ff9fa582078484604051808381526020018281526020019250505060405180910390a3505050565b600080600080600085610b7981611332565b1580610b8b5750610b8981611349565b155b15610b9557610bfb565b610b9f898961098b565b9094509250831515610bb75760008095509550610bfb565b8215610bc95760018095509550610bfb565b610bdd600060058b8b63ffffffff61167a16565b9150610be98288611385565b610bf68360028a02611385565b955095505b50505050935093915050565b6000610c13838361098b565b509392505050565b6000610c28848484610b67565b50949350505050565b610c3961130f565b600160a060020a03167f09e0713b45664e161c202b19bb4574ee83dfa056f9bfdee56847b3971d968221826040518082815260200191505060405180910390a250565b600080610c9533600035600160e060020a0319166111f6565b1515610cd85760408051308152336020820152600160e060020a0319600035168183015290516000805160206124758339815191529181900360600190a1610d54565b82610ce281611691565b1515610ced57610d52565b600191505b8115610d4357610d0284836116be565b15610d0c57610d38565b610d2060006005878563ffffffff61167a16565b1515610d3857610d316152096116e5565b9250610d52565b600490910290610cf2565b610d4d8585611755565b600192505b505b5092915050565b600080610d7433600035600160e060020a0319166111f6565b1515610db75760408051308152336020820152600160e060020a0319600035168183015290516000805160206124758339815191529181900360600190a1610c13565b83610dc181611332565b1580610dd35750610dd181611349565b155b15610ddd57610e74565b83610de781611691565b1515610df257610e72565b84801515610dff57610e70565b610e09888861178a565b600193505b8315610e6057610e1e86856116be565b15610e2857610e55565b610e3d600060068a8a8863ffffffff61131316565b1515610e5557610e4e61520a6116e5565b9450610e70565b600490930292610e0e565b610e6b8888886117bc565b600194505b505b505b50509392505050565b6000610e9081600763ffffffff6117f416565b905090565b6000610ead33600035600160e060020a0319166111f6565b1515610ef05760408051308152336020820152600160e060020a0319600035168183015290516000805160206124758339815191529181900360600190a1610f73565b83610efa81611332565b1580610f0c5750610f0a81611349565b155b15610f1657610c28565b83610f2081611332565b1580610f325750610f3081611349565b155b15610f3c57610f70565b83801515610f49576108f3565b610f53888861178a565b610f5e888888611800565b610f6a88888888611835565b60019350505b50505b949350505050565b600081610f8781611332565b1515610f9257610c28565b610f9e8686868661089a565b9695505050505050565b600060608060008060008060006080604051908082528060200260200182016040528015610fe0578160200160208202803883390190505b5060408051601e8082526103e08201909252919850602082016103c0803883390190505095506000945084935061101f8460048b63ffffffff61136f16565b9750600192505b82156110eb5761103688846116be565b15611040576110e0565b849150611057600060058b8663ffffffff61167a16565b875160018701968991811061106857fe5b602090810290910101525060015b80156110e05761109d878381518110151561108d57fe5b90602001906020020151826116be565b156110a7576110d8565b6110bc600060068b868563ffffffff61131316565b86516001860195889181106110cd57fe5b602090810290910101525b600402611076565b600490920291611026565b50505050509193909250565b600061110f33600035600160e060020a0319166111f6565b15156111525760408051308152336020820152600160e060020a0319600035168183015290516000805160206124758339815191529181900360600190a1610f73565b611160858585856001611870565b95945050505050565b600061118133600035600160e060020a0319166111f6565b15156111c45760408051308152336020820152600160e060020a0319600035168183015290516000805160206124758339815191529181900360600190a1610f73565b611160858585856000611870565b600254600090600160a060020a03168015156111ee57306111f0565b805b91505090565b6000600160a060020a038316301415611211575060016112d8565b600354600160a060020a0316151561122b575060006112d8565b600354604080517fb7009613000000000000000000000000000000000000000000000000000000008152600160a060020a038681166004830152306024830152600160e060020a0319861660448301529151919092169163b70096139160648083019260209291908290030181600087803b1580156112a957600080fd5b505af11580156112bd573d6000803e3d6000fd5b505050506040513d60208110156112d357600080fd5b505190505b92915050565b60028054600160a060020a03831673ffffffffffffffffffffffffffffffffffffffff199091161790556001919050565b3390565b6000610f9e8686600160a060020a0387168686611a2b565b9081161490565b600081158015906112d85750506000198101161590565b7faaaaaaaaaaaaaaaaaaaaaaaaaaaaaaaaaaaaaaaaaaaaaaaaaaaaaaaaaaaaaaaa161590565b6000610f738484600160a060020a038516611abe565b16151590565b6000808080806113a48160058b8b63ffffffff61167a16565b9350600092505b865183101561146b5786838151811015156113c257fe5b9060200190602002015191506113d782611bce565b15156113e257600080fd5b6113eb82611c05565b841690506113f9818361132b565b15156114085760009450611470565b61141181611332565b151561141c57611460565b611451868481518110151561142d57fe5b6020908102909101015161144c600060068d8d8863ffffffff61131316565b61132b565b15156114605760009450611470565b8260010192506113ab565b600194505b50505050949350505050565b60008060008060008a61148e81611bce565b15156114a05761520960005260206000f35b89518b51146114ae57600080fd5b6114b6610e7d565b93508389106114c457600080fd5b83888a0111156114d6578884036114d8565b875b97508894505b87890185101561158b57620186a05a10156114f85761158b565b61150b600060078763ffffffff611c2316565b9250611520600060048563ffffffff61136f16565b915061152b8c611c05565b82169150611539828d61132b565b151561154457611580565b61154d82611332565b151561155e57600186019550611580565b61156e83838d8d8b63ffffffff16565b151561157957611580565b6001860195505b6001909401936114de565b50505050965096945050505050565b60008060008060008651600014156115b55760019450611470565b6115c9600060058b8b63ffffffff61167a16565b9350600092505b865183101561166b5786838151811015156115e757fe5b9060200190602002015191506115fc82611bce565b151561160757600080fd5b61161082611c05565b8416905061161e818361132b565b151561162957611660565b61163281611332565b15156116415760019450611470565b611652868481518110151561142d57fe5b156116605760019450611470565b8260010192506115d0565b50600098975050505050505050565b60006111608585600160a060020a03861685611c30565b60027faaaaaaaaaaaaaaaaaaaaaaaaaaaaaaaaaaaaaaaaaaaaaaaaaaaaaaaaaaaaaaaa8216049081161490565b60006116ca8383611385565b15806116de57506116de8360028402611385565b9392505050565b60006116ef6111d2565b600160a060020a0316638834277e836040518263ffffffff1660e060020a02815260040180828152602001915050600060405180830381600087803b15801561173757600080fd5b505af115801561174b573d6000803e3d6000fd5b5093949350505050565b611768600060078463ffffffff611c8b16565b61177c60006004848463ffffffff611c9f16565b6117868282611cb4565b5050565b6117948282610c07565b1561179e57611786565b61178682826117b6600060048463ffffffff61136f16565b17611755565b6117cf600060078563ffffffff611c8b16565b6117e46000600585858563ffffffff611d3a16565b6117ef838383611d57565b505050565b60006116de8383611de6565b61180b838383610c1b565b15611815576117ef565b6117ef83838361182f60006005858563ffffffff61167a16565b176117bc565b611848600060078663ffffffff611c8b16565b61185e600060068686868663ffffffff611e1316565b61186a84848484611e2a565b50505050565b60008080808061187f89611691565b1515611897576118906152096116e5565b9450611a1e565b6118c18a876118ba578a6118b4600060048f63ffffffff61136f16565b176118bc565b8a5b611755565b600191505b8115611a19576118d689836116be565b156118e057611a0e565b61190088858151811015156118f157fe5b90602001906020020151611691565b151561190b57600080fd5b878481518110151561191957fe5b60209081029091010151151561192e57600080fd5b61198d8a838861196f578a8781518110151561194657fe5b9060200190602002015161196960058f88600061167a909392919063ffffffff16565b17611988565b8a8781518110151561197d57fe5b906020019060200201515b6117bc565b5060015b8015611a07576119a8888581518110151561108d57fe5b156119b2576119ff565b86838151811015156119c057fe5b6020908102909101015115156119d557600080fd5b6119f88a83838a878151811015156119e957fe5b90602001906020020151611835565b6001830192505b600402611991565b6001840193505b6004909102906118c6565b600194505b5050505095945050505050565b6040805160208082018690528183018590526060808301859052835180840390910181526080909201928390528151600093610f9e938a938a9391929182918401908083835b60208310611a905780518252601f199092019160209182019101611a71565b6001836020036101000a03801982511681845116808217855250505050505090500191505060405180910390205b825460018401548354604080516020808201939093528082018690528151808203830181526060909101918290528051600095600160a060020a0316946337d9d7fc9490939182918401908083835b60208310611b2c5780518252601f199092019160209182019101611b0d565b51815160209384036101000a60001901801990921691161790526040805192909401829003822063ffffffff891660e060020a028352600483019790975260248201969096529151604480840196955090935091839003909101905081600087803b158015611b9a57600080fd5b505af1158015611bae573d6000803e3d6000fd5b505050506040513d6020811015611bc457600080fd5b5051949350505050565b6000611bd982611332565b8015611be95750611be982611349565b80611bf85750611bf882611691565b1561083057506001610830565b6000611c1082611332565b611c1a57816112d8565b50600281021790565b6000610f73848484611ec2565b60408051602080820185905281830184905282518083038401815260609092019283905281516000936111609389938993919291829184019080838360208310611a905780518252601f199092019160209182019101611a71565b6117ef8383600160a060020a038416611ef0565b61186a8484600160a060020a03851684611f1c565b611cbc6111d2565b600160a060020a0316635278264883836040518363ffffffff1660e060020a0281526004018083600160a060020a0316600160a060020a0316815260200182815260200192505050600060405180830381600087803b158015611d1e57600080fd5b505af1158015611d32573d6000803e3d6000fd5b505050505050565b611d508585600160a060020a0386168585612001565b5050505050565b611d5f6111d2565b600160a060020a0316635d15b46a8484846040518463ffffffff1660e060020a0281526004018084600160a060020a0316600160a060020a031681526020018381526020018281526020019350505050600060405180830381600087803b158015611dc957600080fd5b505af1158015611ddd573d6000803e3d6000fd5b50505050505050565b60006116de83837f736574000000000000000000000000000000000000000000000000000000000061208c565b611d328686600160a060020a038716868686612099565b611e326111d2565b600160a060020a031663177d8ee4858585856040518563ffffffff1660e060020a0281526004018085600160a060020a0316600160a060020a03168152602001848152602001838152602001828152602001945050505050600060405180830381600087803b158015611ea457600080fd5b505af1158015611eb8573d6000803e3d6000fd5b5050505050505050565b6000610f7384847f7365740000000000000000000000000000000000000000000000000000000000856120f9565b6117ef83837f73657400000000000000000000000000000000000000000000000000000000008461210d565b835460018501548454604080516020808201939093528082018790528151808203830181526060909101918290528051600160a060020a039095169463a14ff85794939192918291908401908083835b60208310611f8b5780518252601f199092019160209182019101611f6c565b5181516020939093036101000a60001901801990911692169190911790526040805191909301819003812063ffffffff881660e060020a02825260048201969096526024810195909552506044840187905251606480850194600094509192509082900301818387803b158015611ea457600080fd5b6040805160208082018690528183018590528251808303840181526060909201928390528151611d509389938993909282918401908083835b602083106120595780518252601f19909201916020918201910161203a565b6001836020036101000a038019825116818451168082178552505050505050905001915050604051809103902084611f1c565b6000610f73848484612161565b6040805160208082018790528183018690526060808301869052835180840390910181526080909201928390528151611d32938a938a9390928291840190808383602083106120595780518252601f19909201916020918201910161203a565b600061116085600286018560018601611c30565b600061211b858585856121ce565b1561212557611d50565b61213085858561208c565b60010190506121458560028601858486612001565b6121558560018601858585612001565b611d50858585846121ea565b825460018401548354604080516020808201939093528082018690528151808203830181526060909101918290528051600095600160a060020a0316946353aa3f5e94909391829184019080838360208310611b2c5780518252601f199092019160209182019101611b0d565b60006121df85856001018585611c30565b151595945050505050565b835460018501548454604080516020808201939093528082018790528151808203830181526060909101918290528051600160a060020a03909516946353e7168b949391929182919084019080838360208310611f8b5780518252601f199092019160209182019101611f6c565b825473ffffffffffffffffffffffffffffffffffffffff1916600160a060020a0392909216919091178255600190910155565b61178682826122b3565b61178682826122b3565b61178682826122b3565b61178682826122c3565b81546122bf908261245e565b9055565b6040805160208082018490527f636f756e740000000000000000000000000000000000000000000000000000008284015282516025818403018152604590920192839052815161236c93869392909182918401908083835b6020831061233a5780518252601f19909201916020918201910161231b565b6001836020036101000a03801982511681845116808217855250505050505090500191505060405180910390206122b3565b6040805160208082018490527f696e646578657300000000000000000000000000000000000000000000000000828401528251602781840301815260479092019283905281516123e593600187019392909182918401908083836020831061233a5780518252601f19909201916020918201910161231b565b6040805160208082018490527f76616c75657300000000000000000000000000000000000000000000000000008284015282516026818403018152604690920192839052815161178693600287019392909182918401908083836020831061233a5780518252601f19909201916020918201910161231b565b8115158061246a575080155b1561178657600080fd005133a133185f1023427a2e90f18506b27db994977ce0c0faafd514a7dd109ae0a165627a7a72305820dc153fddafdcfec91e639e5c4c2e38c219f98f9aec93d76e07f2be1724c03b4d0029",
  "source": "/**\n * Copyright 20172018, LaborX PTY\n * Licensed under the AGPL Version 3 license.\n */\n\npragma solidity ^0.4.21;\n\n\nimport \"solidity-storage-lib/contracts/StorageAdapter.sol\";\nimport \"solidity-roles-lib/contracts/Roles2LibraryAdapter.sol\";\nimport \"solidity-eventshistory-lib/contracts/MultiEventsHistoryAdapter.sol\";\nimport \"./base/BitOps.sol\";\n\n\n/**\n * @title LaborX User Library.\n *\n * Skills:\n * Here we encode 128 different areas, each with 128 different categories\n * each with 256 different skills, using bit flags starting from the right,\n * for every user.\n * Areas and categories use odd bit flags to indicate that entity is\n * partially filled (area has categories, or category has skills).\n * Areas and categories use even bit flags to indicate that entity is\n * fully filled (area has all categories and skills, or category has all skills).\n * Skill can be repserented with any bit.\n * It results in following:\n *   all the areas for the user are defined using single uint256.\n *     all the categories of a single area of user are defined using single uint256.\n *       all the skills of a single category of user are defined using single uint256.\n *\n * 00000001 is the first partial area.\n * 00000100 is the second partial area.\n * 00000101 is the first and second partial areas.\n * 00001101 is the first partial and second full areas.\n * 00000010 is invalid, because in order to be full area also should be partial.\n * Same encoding is used for categories.\n *\n * For skills:\n * 00000001 is the first skill.\n * 00000010 is the second skill.\n * 01000011 is the first, second and seventh skill.\n *\n * Example skills structure for some user:\n * 00110001 - Partial first area, and full third area.\n *   01001101 - First area: partial first and fourth category, full second category.\n *     11100000 - First category: sixth, senventh and eighth skills.\n *     10001001 - Fourth category: first, fourth and eighth skills.\n */\ncontract UserLibrary is StorageAdapter, MultiEventsHistoryAdapter, Roles2LibraryAdapter, BitOps {\n\n    uint constant USER_LIBRARY_SCOPE = 21000;\n    uint constant USER_LIBRARY_INVALID_AREA = USER_LIBRARY_SCOPE + 1;\n    uint constant USER_LIBRARY_INVALID_CATEGORY = USER_LIBRARY_SCOPE + 2;\n\n    event SkillAreasSet(address indexed self, address indexed user, uint areas);\n    event SkillCategoriesSet(address indexed self, address indexed user, uint area, uint categories);\n    event SkillsSet(address indexed self, address indexed user, uint area, uint category, uint skills);\n\n    StorageInterface.AddressUIntMapping skillAreas;\n    StorageInterface.AddressUIntUIntMapping skillCategories;\n    StorageInterface.AddressUIntUIntUIntMapping skills;\n    StorageInterface.AddressesSet users;\n\n    string public version = \"v0.0.1\";\n\n    modifier onlyValidArea(uint _value) {\n        if (!_isValidAreaOrCategory(_value)) {\n            assembly {\n                mstore(0, 21001) // USER_LIBRARY_INVALID_AREA\n                return(0, 32)\n            }\n        }\n        _;\n    }\n\n    modifier onlyValidCategory(uint _value) {\n        if (!_isValidAreaOrCategory(_value)) {\n            assembly {\n                mstore(0, 21002) // USER_LIBRARY_INVALID_CATEGORY\n                return(0, 32)\n            }\n        }\n        _;\n    }\n\n    constructor(\n        Storage _store, \n        bytes32 _crate, \n        address _roles2Library\n    )\n    StorageAdapter(_store, _crate)\n    Roles2LibraryAdapter(_roles2Library)\n    public\n    {\n        skillAreas.init(\"skillAreas\");\n        skillCategories.init(\"skillCategories\");\n        skills.init(\"skills\");\n        users.init(\"users\");\n    }\n\n    function setupEventsHistory(address _eventsHistory) auth external returns (uint) {\n        require(_eventsHistory != 0x0);\n\n        _setEventsHistory(_eventsHistory);\n        return OK;\n    }\n\n    function getAreaInfo(\n        address _user, \n        uint _area\n    )\n    singleOddFlag(_area)\n    public view\n    returns (bool partialArea, bool fullArea) \n    {\n        uint areas = store.get(skillAreas, _user);\n        return (_hasFlag(areas, _area), _hasFlag(areas, _area << 1));\n    }\n\n    function hasArea(address _user, uint _area) public view returns (bool _partial) {\n        (_partial, ) = getAreaInfo(_user, _area);\n    }\n\n    function getCategoryInfo(address _user, uint _area, uint _category)\n    singleOddFlag(_category)\n    public view\n    returns (bool partialCategory, bool fullCategory) \n    {\n        bool partialArea;\n        bool fullArea;\n        (partialArea, fullArea) = getAreaInfo(_user, _area);\n        if (!partialArea) {\n            return (false, false);\n        }\n        if (fullArea) {\n            return (true, true);\n        }\n\n        uint categories = store.get(skillCategories, _user, _area);\n        return (_hasFlag(categories, _category), _hasFlag(categories, _category << 1));\n    }\n\n    function hasCategory(address _user, uint _area, uint _category) public view returns (bool _partial) {\n        (_partial,) = getCategoryInfo(_user, _area, _category);\n    }\n\n    function hasSkill(\n        address _user, \n        uint _area, \n        uint _category, \n        uint _skill\n    ) \n    singleFlag(_skill) \n    public view \n    returns (bool) \n    {\n        return hasSkills(_user, _area, _category, _skill);\n    }\n\n    function hasSkills(\n        address _user, \n        uint _area, \n        uint _category, \n        uint _skills\n    ) \n    public view \n    returns (bool) \n    {\n        bool partialCategory;\n        bool fullCategory;\n        (partialCategory, fullCategory) = getCategoryInfo(_user, _area, _category);\n        if (!partialCategory) {\n            return false;\n        }\n        if (fullCategory) {\n            return true;\n        }\n        \n        uint userSkills = store.get(skills, _user, _area, _category);\n        return _hasFlags(userSkills, _skills);\n    }\n\n    // If some area of category is full, then we are not looking into it cause observer can safely\n    // assume that everything inside is filled.\n    function getUserSkills(address _user) \n    public view \n    returns (\n        uint areas, \n        uint[] _categories, \n        uint[] _skills\n    ) {\n        _categories = new uint[](2**7);\n        _skills = new uint[](2*15);\n        uint categoriesPointer = 0;\n        uint skillsPointer = 0;\n\n        areas = store.get(skillAreas, _user);\n        for (uint area = 1; area != 0; area = area << 2) {\n            if (_isFullOrNull(areas, area)) {\n                continue;\n            }\n\n            uint _categoriesPointer = categoriesPointer;\n            _categories[categoriesPointer++] = store.get(skillCategories, _user, area);\n            for (uint category = 1; category != 0; category = category << 2) {\n                if (_isFullOrNull(_categories[_categoriesPointer], category)) {\n                    continue;\n                }\n                _skills[skillsPointer++] = store.get(skills, _user, area, category);\n            }\n        }\n    }\n\n    function getUsersCount() public view returns (uint) {\n        return store.count(users);\n    }\n\n    /// @notice Gets a number of users that fulfill all requirements: area, all categories and masked skills.\n    /// (similar to AND search)\n    /// @param _area single area to query\n    /// @param _categories list of categories that should be included in provided area\n    /// @param _skills list of skills for each provided categories\n    /// @param _fromIdx pagination param; should be 0 at the beginning, then the latest userIdx that comes from return\n    /// @param _maxLen pagination param; could be getUsersCount() number\n    /// @return {\n    ///     \"_count\": \"amount of found users by provided criterias\",\n    ///     \"_userIdx\": user index where query has stopped, pass to the next query\n    /// }\n    function getStrictUsersByAreaCount(\n        uint _area, \n        uint[] _categories,\n        uint[] _skills,\n        uint _fromIdx,\n        uint _maxLen\n    ) \n    public \n    view \n    returns (uint _count, uint _userIdx) \n    {\n        return _getUsersByAreaCount(\n            _area,\n            _categories,\n            _skills,\n            _fromIdx,\n            _maxLen,\n            _hasStrictSubsequenceOfSkillsInArea\n        );\n    }\n\n    /// @notice Gets a number of users that fulfill any requirements: area, any category and masked skills.\n    /// (similar to OR search)\n    /// @param _area single area to query\n    /// @param _categories list of categories that could be included in provided area\n    /// @param _skills list of skills for each provided categories\n    /// @param _fromIdx pagination param; should be 0 at the beginning, then the latest userIdx that comes from return\n    /// @param _maxLen pagination param; could be getUsersCount() number\n    /// @return {\n    ///     \"_count\": \"amount of found users by provided criterias\",\n    ///     \"_userIdx\": user index where query has stopped, pass to the next query\n    /// }\n    function getUsersByAreaCount(\n        uint _area, \n        uint[] _categories,\n        uint[] _skills,\n        uint _fromIdx,\n        uint _maxLen\n    )\n    public \n    view \n    returns (uint _count, uint _userIdx) \n    {\n        return _getUsersByAreaCount(\n            _area,\n            _categories,\n            _skills,\n            _fromIdx,\n            _maxLen,\n            _hasAnySubsequenceOfSkillsInArea\n        );\n    }\n\n    function _getUsersByAreaCount(\n        uint _area, \n        uint[] _categories,\n        uint[] _skills,\n        uint _fromIdx,\n        uint _maxLen,\n        function(address, uint, uint[] memory, uint[] memory) internal view returns (bool) _hasSubsequeceOfSkills\n    )\n    onlyValidArea(_area)\n    private\n    view \n    returns (uint _count, uint _userIdx)\n    {\n        require(_categories.length == _skills.length);\n\n        uint _usersCount = getUsersCount();\n        require(_fromIdx < _usersCount);\n\n        _maxLen = (_fromIdx + _maxLen <= _usersCount) ? _maxLen : (_usersCount - _fromIdx);\n\n        for (_userIdx = _fromIdx; _userIdx < _fromIdx + _maxLen; _userIdx++) {\n            if (gasleft() < 100000) {\n                return (_count, _userIdx);\n            }\n\n            address _user = store.get(users, _userIdx);\n            \n            uint _userAreas = store.get(skillAreas, _user);\n            _userAreas = _userAreas & _getAreaOrCategoryBits(_area);\n\n            // NOTE: user has less covered areas than input (10 - user, 11 - input)\n            if (!_hasFlags(_userAreas, _area)) { \n                continue;\n            }\n\n            // NOTE: user has all categories for this area and we can count '+1'\n            if (!_isSingleFlag(_userAreas)) { \n                _count += 1;\n                continue;\n            }\n\n            // NOTE: all skills and categories should fit, otherwise skip this user\n            if (!_hasSubsequeceOfSkills(_user, _userAreas, _categories, _skills)) {\n                continue;\n            }\n\n            _count += 1;\n        }\n    }\n\n    function _hasStrictSubsequenceOfSkillsInArea(\n        address _user, \n        uint _area, \n        uint[] _categories, \n        uint[] _skills\n    ) \n    internal \n    view \n    returns (bool) \n    {\n        uint _userCategories = store.get(skillCategories, _user, _area);\n        for (uint _categoryIdx = 0; _categoryIdx < _categories.length; ++_categoryIdx) {\n            uint _category = _categories[_categoryIdx];\n            require(_isValidAreaOrCategory(_category));\n            \n            uint _userCategory = _userCategories & _getAreaOrCategoryBits(_category);\n\n            // NOTE: user has less covered categories than input (10 - user, 11 - input)\n            if (!_hasFlags(_userCategory, _category)) { \n                return false;\n            }\n\n            // NOTE: user has all skills in this category and we can count '+1'\n            if (!_isSingleFlag(_userCategory)) { \n                continue;\n            }\n            \n            // NOTE: skills could be passed as 111111 mask to get categories with any skills\n            if (!_hasFlags(_skills[_categoryIdx], store.get(skills, _user, _area, _category))) { \n                return false;\n            }\n        }\n\n        return true;\n    }\n\n    function _hasAnySubsequenceOfSkillsInArea(\n        address _user, \n        uint _area, \n        uint[] _categories, \n        uint[] _skills\n    ) \n    internal \n    view \n    returns (bool) \n    {\n        if (_categories.length == 0) {\n            return true;\n        }\n\n        uint _userCategories = store.get(skillCategories, _user, _area);\n        for (uint _categoryIdx = 0; _categoryIdx < _categories.length; ++_categoryIdx) {\n            uint _category = _categories[_categoryIdx];\n            require(_isValidAreaOrCategory(_category));\n            \n            uint _userCategory = _userCategories & _getAreaOrCategoryBits(_category);\n\n            // NOTE: allow to have another check if a category doesn't fit\n            if (!_hasFlags(_userCategory, _category)) { \n                continue;\n            }\n\n            // NOTE: user has all skills in this category and we can count '+1'\n            if (!_isSingleFlag(_userCategory)) { \n                return true;\n            }\n            \n            // NOTE: skills could pass at least one check to be successfull\n            if (_hasFlags(_skills[_categoryIdx], store.get(skills, _user, _area, _category))) { \n                return true;\n            }\n        }\n\n        return false;\n    }\n\n    function setAreas(\n        address _user, \n        uint _areas\n    )\n    auth\n    ifEvenThenOddTooFlags(_areas)\n    public\n    returns (uint) \n    {\n        for (uint area = 1; area != 0; area = area << 2) {\n            if (_isFullOrNull(_areas, area)) {\n                continue;\n            }\n            if (store.get(skillCategories, _user, area) == 0) {\n                return _emitErrorCode(USER_LIBRARY_INVALID_AREA);\n            }\n        }\n\n        _setAreas(_user, _areas);\n\n        return OK;\n    }\n\n    function setCategories(\n        address _user, \n        uint _area, \n        uint _categories\n    )\n    auth\n    singleOddFlag(_area)\n    ifEvenThenOddTooFlags(_categories)\n    hasFlags(_categories)\n    public\n    returns (uint) \n    {\n        _addArea(_user, _area);\n        \n        for (uint category = 1; category != 0; category = category << 2) {\n            if (_isFullOrNull(_categories, category)) {\n                continue;\n            }\n            if (store.get(skills, _user, _area, category) == 0) {\n                return _emitErrorCode(USER_LIBRARY_INVALID_CATEGORY);\n            }\n        }\n\n        _setCategories(_user, _area, _categories);\n\n        return OK;\n    }\n\n    function setSkills(\n        address _user, \n        uint _area, \n        uint _category, \n        uint _skills\n    )\n    auth\n    singleOddFlag(_area)\n    singleOddFlag(_category)\n    hasFlags(_skills)\n    public\n    returns (uint)\n     {\n        _addArea(_user, _area);\n        _addCategory(_user, _area, _category);\n        _setSkills(_user, _area, _category, _skills);\n        return OK;\n    }\n\n    function addMany(address _user, uint _areas, uint[] _categories, uint[] _skills) auth public returns (uint) {\n        return _setMany(_user, _areas, _categories, _skills, false);\n    }\n\n    function setMany(address _user, uint _areas, uint[] _categories, uint[] _skills) auth public returns (uint) {\n        return _setMany(_user, _areas, _categories, _skills, true);\n    }\n\n    function _setMany(\n        address _user, \n        uint _areas, \n        uint[] _categories, \n        uint[] _skills, \n        bool _overwrite\n    )\n    internal\n    returns (uint) \n    {\n        uint categoriesCounter = 0;\n        uint skillsCounter = 0;\n        if (!_ifEvenThenOddTooFlags(_areas)) {\n            return _emitErrorCode(USER_LIBRARY_INVALID_AREA);\n        }\n        \n        _setAreas(_user, _overwrite ? _areas : (store.get(skillAreas, _user) | _areas));\n        \n        for (uint area = 1; area != 0; area = area << 2) {\n            if (_isFullOrNull(_areas, area)) {\n                // Nothing should be put inside full or empty area.\n                continue;\n            }\n\n            require(_ifEvenThenOddTooFlags(_categories[categoriesCounter]));\n            require(_categories[categoriesCounter] != 0);\n\n            // Set categories for current partial area.\n            _setCategories(_user, area, _overwrite ? _categories[categoriesCounter] : (store.get(skillCategories, _user, area) | _categories[categoriesCounter]));\n            \n            for (uint category = 1; category != 0; category = category << 2) {\n                if (_isFullOrNull(_categories[categoriesCounter], category)) {\n                    // Nothing should be put inside full or empty category.\n                    continue;\n                }\n                require(_skills[skillsCounter] != 0);\n                // Set skills for current partial category.\n                _setSkills(_user, area, category, _skills[skillsCounter]);\n                // Move to next skills.\n                skillsCounter += 1;\n            }\n            // Move to next categories.\n            categoriesCounter += 1;\n        }\n        return OK;\n    }\n\n\n    function _addArea(address _user, uint _area) internal {\n        if (hasArea(_user, _area)) {\n            return;\n        }\n\n        _setAreas(_user, store.get(skillAreas, _user) | _area);\n    }\n\n    function _addCategory(address _user, uint _area, uint _category) internal {\n        if (hasCategory(_user, _area, _category)) {\n            return;\n        }\n        _setCategories(_user, _area, store.get(skillCategories, _user, _area) | _category);\n    }\n\n    function _setAreas(address _user, uint _areas) internal {\n        store.add(users, _user);\n        store.set(skillAreas, _user, _areas);\n        _emitSkillAreasSet(_user, _areas);\n    }\n\n    function _setCategories(address _user, uint _area, uint _categories) internal {\n        store.add(users, _user);\n        store.set(skillCategories, _user, _area, _categories);\n        _emitSkillCategoriesSet(_user, _area, _categories);\n    }\n\n    function _setSkills(address _user, uint _area, uint _category, uint _skills) internal {\n        store.add(users, _user);\n        store.set(skills, _user, _area, _category, _skills);\n        _emitSkillsSet(_user, _area, _category, _skills);\n    }\n\n    function _isValidAreaOrCategory(uint _value) private pure returns (bool) {\n        if ((_isSingleFlag(_value) && _isOddFlag(_value)) ||\n            (_ifEvenThenOddTooFlags(_value))\n        ) {\n            return true;\n        }\n    }\n\n    function _getAreaOrCategoryBits(uint _value) private pure returns (uint) {\n        return _isSingleFlag(_value) ? (_value | (_value << 1)) : _value; \n    }\n\n    function _emitSkillAreasSet(address _user, uint _areas) internal {\n        UserLibrary(getEventsHistory()).emitSkillAreasSet(_user, _areas);\n    }\n\n    function _emitSkillCategoriesSet(address _user, uint _area, uint _categories) internal {\n        UserLibrary(getEventsHistory()).emitSkillCategoriesSet(_user, _area, _categories);\n    }\n\n    function _emitSkillsSet(address _user, uint _area, uint _category, uint _skills) internal {\n        UserLibrary(getEventsHistory()).emitSkillsSet(_user, _area, _category, _skills);\n    }\n\n    function emitSkillAreasSet(address _user, uint _areas) public {\n        emit SkillAreasSet(_self(), _user, _areas);\n    }\n\n    function emitSkillCategoriesSet(address _user, uint _area, uint _categories) public {\n        emit SkillCategoriesSet(_self(), _user, _area, _categories);\n    }\n\n    function emitSkillsSet(address _user, uint _area, uint _category, uint _skills) public {\n        emit SkillsSet(_self(), _user, _area, _category, _skills);\n    }\n\n}\n",
  "sourcePath": "/Users/alesanro/Documents/Projects/ChronoBank/LX-SC/contracts/UserLibrary.sol",
  "compiler": {
    "name": "solc",
    "version": "0.4.24+commit.e67f0147.Emscripten.clang"
  },
  "schemaVersion": "2.0.1",
  "updatedAt": "2018-07-20T10:51:35.385Z"
}