{
  "contractName": "UserBase",
  "abi": [
    {
      "constant": true,
      "inputs": [],
      "name": "backendProvider",
      "outputs": [
        {
          "name": "",
          "type": "address"
        }
      ],
      "payable": false,
      "stateMutability": "view",
      "type": "function"
    },
    {
      "constant": true,
      "inputs": [],
      "name": "issuer",
      "outputs": [
        {
          "name": "",
          "type": "address"
        }
      ],
      "payable": false,
      "stateMutability": "view",
      "type": "function"
    },
    {
      "constant": true,
      "inputs": [],
      "name": "use2FA",
      "outputs": [
        {
          "name": "",
          "type": "bool"
        }
      ],
      "payable": false,
      "stateMutability": "view",
      "type": "function"
    }
  ],
  "bytecode": "0x608060405234801561001057600080fd5b5061015c806100206000396000f3006080604052600436106100565763ffffffff7c0100000000000000000000000000000000000000000000000000000000600035041663094780e6811461005b5780631d143848146100995780639d2a43ad146100ae575b600080fd5b34801561006757600080fd5b506100706100d7565b6040805173ffffffffffffffffffffffffffffffffffffffff9092168252519081900360200190f35b3480156100a557600080fd5b506100706100f3565b3480156100ba57600080fd5b506100c361010f565b604080519115158252519081900360200190f35b60005473ffffffffffffffffffffffffffffffffffffffff1681565b60015473ffffffffffffffffffffffffffffffffffffffff1681565b60035474010000000000000000000000000000000000000000900460ff16815600a165627a7a7230582075af8c321684fca11c715eddb41921fad91d094e884a628029b845d20fcf87d90029",
  "source": "/**\n* Copyright 2017–2018, LaborX PTY\n* Licensed under the AGPL Version 3 license.\n*/\n\npragma solidity ^0.4.21;\n\n\nimport \"./UserProxy.sol\";\nimport \"./UserBackendProviderInterface.sol\";\n\n\n/// @title Duplicates structure of Owned contract in order to save memory layout for\n/// UserRouter and other delegatecall-based contracts (BaseByzantiumRouter)\ncontract UserOwned {\n    address internal contractOwner;\n    address internal pendingContractOwner;\n}\n\n\n/// @title Used to provide memory layout for UserRouter \n/// and book an order of properties and an ability to combine with UserOwned contract\ncontract UserBase {\n    UserBackendProviderInterface public backendProvider;\n    // @dev address of a creater of the contract\n    address public issuer;\n    UserProxy internal userProxy;\n    address internal recoveryContract;\n    bool public use2FA;\n}",
  "sourcePath": "solidity-user-lib/contracts/UserBase.sol",
  "compiler": {
    "name": "solc",
    "version": "0.4.24+commit.e67f0147.Emscripten.clang"
  },
  "schemaVersion": "2.0.1",
  "updatedAt": "2018-09-18T15:37:37.884Z"
}