{
  "contractName": "UserFactory",
  "abi": [
    {
      "constant": false,
      "inputs": [
        {
          "name": "_roles2Library",
          "type": "address"
        }
      ],
      "name": "setRoles2Library",
      "outputs": [
        {
          "name": "",
          "type": "uint256"
        }
      ],
      "payable": false,
      "stateMutability": "nonpayable",
      "type": "function"
    },
    {
      "constant": true,
      "inputs": [],
      "name": "oracle",
      "outputs": [
        {
          "name": "",
          "type": "address"
        }
      ],
      "payable": false,
      "stateMutability": "view",
      "type": "function"
    },
    {
      "constant": false,
      "inputs": [
        {
          "name": "_errorCode",
          "type": "uint256"
        }
      ],
      "name": "emitErrorCode",
      "outputs": [],
      "payable": false,
      "stateMutability": "nonpayable",
      "type": "function"
    },
    {
      "constant": true,
      "inputs": [],
      "name": "userRecoveryAddress",
      "outputs": [
        {
          "name": "",
          "type": "address"
        }
      ],
      "payable": false,
      "stateMutability": "view",
      "type": "function"
    },
    {
      "constant": true,
      "inputs": [],
      "name": "userBackendProvider",
      "outputs": [
        {
          "name": "",
          "type": "address"
        }
      ],
      "payable": false,
      "stateMutability": "view",
      "type": "function"
    },
    {
      "constant": true,
      "inputs": [],
      "name": "getEventsHistory",
      "outputs": [
        {
          "name": "",
          "type": "address"
        }
      ],
      "payable": false,
      "stateMutability": "view",
      "type": "function"
    },
    {
      "inputs": [
        {
          "name": "_roles2Library",
          "type": "address"
        }
      ],
      "payable": false,
      "stateMutability": "nonpayable",
      "type": "constructor"
    },
    {
      "anonymous": false,
      "inputs": [
        {
          "indexed": true,
          "name": "self",
          "type": "address"
        },
        {
          "indexed": true,
          "name": "user",
          "type": "address"
        },
        {
          "indexed": false,
          "name": "proxy",
          "type": "address"
        },
        {
          "indexed": false,
          "name": "recoveryContract",
          "type": "address"
        },
        {
          "indexed": false,
          "name": "owner",
          "type": "address"
        }
      ],
      "name": "UserCreated",
      "type": "event"
    },
    {
      "anonymous": false,
      "inputs": [
        {
          "indexed": true,
          "name": "self",
          "type": "address"
        },
        {
          "indexed": false,
          "name": "errorCode",
          "type": "uint256"
        }
      ],
      "name": "ErrorCode",
      "type": "event"
    },
    {
      "anonymous": false,
      "inputs": [
        {
          "indexed": false,
          "name": "code",
          "type": "address"
        },
        {
          "indexed": false,
          "name": "sender",
          "type": "address"
        },
        {
          "indexed": false,
          "name": "sig",
          "type": "bytes4"
        }
      ],
      "name": "AuthFailedError",
      "type": "event"
    },
    {
      "constant": false,
      "inputs": [
        {
          "name": "_eventsHistory",
          "type": "address"
        }
      ],
      "name": "setupEventsHistory",
      "outputs": [
        {
          "name": "",
          "type": "uint256"
        }
      ],
      "payable": false,
      "stateMutability": "nonpayable",
      "type": "function"
    },
    {
      "constant": false,
      "inputs": [
        {
          "name": "_newUserBackendProvider",
          "type": "address"
        }
      ],
      "name": "setUserBackendProvider",
      "outputs": [
        {
          "name": "",
          "type": "uint256"
        }
      ],
      "payable": false,
      "stateMutability": "nonpayable",
      "type": "function"
    },
    {
      "constant": false,
      "inputs": [
        {
          "name": "_userRecoveryAddress",
          "type": "address"
        }
      ],
      "name": "setUserRecoveryAddress",
      "outputs": [
        {
          "name": "",
          "type": "uint256"
        }
      ],
      "payable": false,
      "stateMutability": "nonpayable",
      "type": "function"
    },
    {
      "constant": false,
      "inputs": [
        {
          "name": "_oracle",
          "type": "address"
        }
      ],
      "name": "setOracleAddress",
      "outputs": [
        {
          "name": "",
          "type": "uint256"
        }
      ],
      "payable": false,
      "stateMutability": "nonpayable",
      "type": "function"
    },
    {
      "constant": false,
      "inputs": [
        {
          "name": "_owner",
          "type": "address"
        },
        {
          "name": "_use2FA",
          "type": "bool"
        }
      ],
      "name": "createUserWithProxyAndRecovery",
      "outputs": [
        {
          "name": "",
          "type": "uint256"
        }
      ],
      "payable": false,
      "stateMutability": "nonpayable",
      "type": "function"
    },
    {
      "constant": false,
      "inputs": [
        {
          "name": "_user",
          "type": "address"
        }
      ],
      "name": "updateBackendProviderForUser",
      "outputs": [
        {
          "name": "",
          "type": "uint256"
        }
      ],
      "payable": false,
      "stateMutability": "nonpayable",
      "type": "function"
    },
    {
      "constant": false,
      "inputs": [
        {
          "name": "_user",
          "type": "address"
        },
        {
          "name": "_proxy",
          "type": "address"
        },
        {
          "name": "_recoveryContract",
          "type": "address"
        },
        {
          "name": "_owner",
          "type": "address"
        }
      ],
      "name": "emitUserCreated",
      "outputs": [],
      "payable": false,
      "stateMutability": "nonpayable",
      "type": "function"
    }
  ],
  "bytecode": "0x608060405234801561001057600080fd5b5060405160208061192f833981016040525180600160a060020a038116151561003857600080fd5b60008054600160a060020a031916600160a060020a039290921691909117905561006a30640100000000610071810204565b5050610093565b60018054600160a060020a038316600160a060020a0319909116178155919050565b61188d806100a26000396000f3006080604052600436106100ab5763ffffffff60e060020a60003504166302927d2081146100b05780632637cd7d146100e3578063473b56d8146101045780634ad45afe146101255780634c69c00f14610146578063723d21b5146101675780637dc0d1d0146101885780638834277e146101b9578063bb13202d146101d3578063bb521c0e146101e8578063f3a8f7dd1461020e578063ff55c4f914610241578063fff10aba14610256575b600080fd5b3480156100bc57600080fd5b506100d1600160a060020a036004351661026b565b60408051918252519081900360200190f35b3480156100ef57600080fd5b506100d1600160a060020a03600435166102ef565b34801561011057600080fd5b506100d1600160a060020a036004351661037c565b34801561013157600080fd5b506100d1600160a060020a036004351661041e565b34801561015257600080fd5b506100d1600160a060020a03600435166104ab565b34801561017357600080fd5b506100d1600160a060020a03600435166105d5565b34801561019457600080fd5b5061019d6106ca565b60408051600160a060020a039092168252519081900360200190f35b3480156101c557600080fd5b506101d16004356106d9565b005b3480156101df57600080fd5b5061019d610724565b3480156101f457600080fd5b506100d1600160a060020a03600435166024351515610733565b34801561021a57600080fd5b506101d1600160a060020a0360043581169060243581169060443581169060643516610958565b34801561024d57600080fd5b5061019d6109b1565b34801561026257600080fd5b5061019d6109c0565b600061028333600035600160e060020a0319166109e4565b15156102c65760408051308152336020820152600160e060020a0319600035168183015290516000805160206118428339815191529181900360600190a16102ea565b600160a060020a03821615156102db57600080fd5b6102e482610acf565b50600190505b919050565b600061030733600035600160e060020a0319166109e4565b151561034a5760408051308152336020820152600160e060020a0319600035168183015290516000805160206118428339815191529181900360600190a16102ea565b5060008054600160a060020a03831673ffffffffffffffffffffffffffffffffffffffff199091161790556001919050565b600061039433600035600160e060020a0319166109e4565b15156103d75760408051308152336020820152600160e060020a0319600035168183015290516000805160206118428339815191529181900360600190a16102ea565b600160a060020a03821615156103ec57600080fd5b5060028054600160a060020a03831673ffffffffffffffffffffffffffffffffffffffff199091161790556001919050565b600061043633600035600160e060020a0319166109e4565b15156104795760408051308152336020820152600160e060020a0319600035168183015290516000805160206118428339815191529181900360600190a16102ea565b5060038054600160a060020a03831673ffffffffffffffffffffffffffffffffffffffff199091161790556001919050565b60006104c333600035600160e060020a0319166109e4565b15156105065760408051308152336020820152600160e060020a0319600035168183015290516000805160206118428339815191529181900360600190a16102ea565b600160a060020a03821615156105a357604080517f08c379a000000000000000000000000000000000000000000000000000000000815260206004820152602160248201527f4f7261636c652073686f756c64206e6f7420626520657175616c20746f20307860448201527f3000000000000000000000000000000000000000000000000000000000000000606482015290519081900360840190fd5b5060048054600160a060020a03831673ffffffffffffffffffffffffffffffffffffffff199091161790556001919050565b60006105ed33600035600160e060020a0319166109e4565b15156106305760408051308152336020820152600160e060020a0319600035168183015290516000805160206118428339815191529181900360600190a16102ea565b600254604080517f2f71ed9c000000000000000000000000000000000000000000000000000000008152600160a060020a039283166004820152905191841691632f71ed9c916024808201926020929091908290030181600087803b15801561069857600080fd5b505af11580156106ac573d6000803e3d6000fd5b505050506040513d60208110156106c257600080fd5b505192915050565b600454600160a060020a031681565b6106e1610afe565b600160a060020a03167f09e0713b45664e161c202b19bb4574ee83dfa056f9bfdee56847b3971d968221826040518082815260200191505060405180910390a250565b600354600160a060020a031681565b600354600254600091829182918691600160a060020a039182169116610757610c39565b600160a060020a03938416815291831660208301529091166040808301919091525190819003606001906000f080158015610796573d6000803e3d6000fd5b5060048054604080517fcb9fa366000000000000000000000000000000000000000000000000000000008152600160a060020a039283169381019390935287151560248401525192945084169163cb9fa366916044808201926020929091908290030181600087803b15801561080b57600080fd5b505af115801561081f573d6000803e3d6000fd5b505050506040513d602081101561083557600080fd5b50610841905082610b02565b81600160a060020a03166389f4fd576040518163ffffffff1660e060020a028152600401602060405180830381600087803b15801561087f57600080fd5b505af1158015610893573d6000803e3d6000fd5b505050506040513d60208110156108a957600080fd5b505190506108b56109c0565b600354604080517ff3a8f7dd000000000000000000000000000000000000000000000000000000008152600160a060020a0386811660048301528581166024830152928316604482015288831660648201529051929091169163f3a8f7dd9160848082019260009290919082900301818387803b15801561093557600080fd5b505af1158015610949573d6000803e3d6000fd5b50600198975050505050505050565b60408051600160a060020a03858116825284811660208301528381168284015291519186169133917f3e4421caa3c2c904474750d7351099afa13fa389bfabba41d91731f64b629587919081900360600190a350505050565b600254600160a060020a031681565b600154600090600160a060020a03168015156109dc57306109de565b805b91505090565b6000600160a060020a0383163014156109ff57506001610ac9565b600054600160a060020a03161515610a1957506000610ac9565b60008054604080517fb7009613000000000000000000000000000000000000000000000000000000008152600160a060020a038781166004830152306024830152600160e060020a0319871660448301529151919092169263b700961392606480820193602093909283900390910190829087803b158015610a9a57600080fd5b505af1158015610aae573d6000803e3d6000fd5b505050506040513d6020811015610ac457600080fd5b505190505b92915050565b60018054600160a060020a03831673ffffffffffffffffffffffffffffffffffffffff19909116178155919050565b3390565b6000610b0c610ba9565b9050600160a060020a03811615610ba55780600160a060020a0316638c2229be836040518263ffffffff1660e060020a0281526004018082600160a060020a0316600160a060020a03168152602001915050602060405180830381600087803b158015610b7857600080fd5b505af1158015610b8c573d6000803e3d6000fd5b505050506040513d6020811015610ba257600080fd5b50505b5050565b600254604080517f5724e81f0000000000000000000000000000000000000000000000000000000081529051600092600160a060020a031691635724e81f91600480830192602092919082900301818787803b158015610c0857600080fd5b505af1158015610c1c573d6000803e3d6000fd5b505050506040513d6020811015610c3257600080fd5b5051905090565b604051610bf880610c4a833901905600608060405234801561001057600080fd5b50604051606080610bf8833981016040908152815160208301519190920151600160a060020a03831615156100a657604080517f08c379a000000000000000000000000000000000000000000000000000000000815260206004820181905260248201527f4f776e65722073686f756c64206e6f7420626520657175616c20746f20307830604482015290519081900360640190fd5b600160a060020a038116151561014357604080517f08c379a000000000000000000000000000000000000000000000000000000000815260206004820152602b60248201527f4261636b656e642070726f76696465722073686f756c64206e6f74206265206560448201527f7175616c20746f20307830000000000000000000000000000000000000000000606482015290519081900360840190fd5b61014b6101c3565b604051809103906000f080158015610167573d6000803e3d6000fd5b5060048054600160a060020a0319908116600160a060020a0393841617909155600080548216958316959095179094556003805433908616179055600580548516938216939093179092556002805490931691161790556101d3565b6040516107dc8061041c83390190565b61023a806101e26000396000f3006080604052600436106100565763ffffffff7c0100000000000000000000000000000000000000000000000000000000600035041663094780e6811461009c5780631d143848146100da5780639d2a43ad146100ef575b6000610060610118565b905060405136810160405236600082376000803683856127105a03f46040513d81016040523d6000823e816001811461009857600080fd5b3d82f35b3480156100a857600080fd5b506100b16101b5565b6040805173ffffffffffffffffffffffffffffffffffffffff9092168252519081900360200190f35b3480156100e657600080fd5b506100b16101d1565b3480156100fb57600080fd5b506101046101ed565b604080519115158252519081900360200190f35b600254604080517f59b804aa000000000000000000000000000000000000000000000000000000008152905160009273ffffffffffffffffffffffffffffffffffffffff16916359b804aa91600480830192602092919082900301818787803b15801561018457600080fd5b505af1158015610198573d6000803e3d6000fd5b505050506040513d60208110156101ae57600080fd5b5051905090565b60025473ffffffffffffffffffffffffffffffffffffffff1681565b60035473ffffffffffffffffffffffffffffffffffffffff1681565b60055474010000000000000000000000000000000000000000900460ff16815600a165627a7a72305820ffc245411b263daeab7363d802dea2ae038f576f28a3308984f35eec4434c0060029608060405260008054600160a060020a031916331790556107b7806100256000396000f30060806040526004361061008d5763ffffffff7c01000000000000000000000000000000000000000000000000000000006000350416634592cd1d81146100c5578063557f4bc9146100ee5780635aa77d3c1461010f5780635ecb16cd146101405780637362377b14610197578063ce606ee0146101ac578063dffdc75d146101c1578063f2fde38b14610241575b60408051348152905133917f88a5966d370b9919b20f3e2c13ff65706f196a4e32cc2c12bf57088f88525874919081900360200190a2005b3480156100d157600080fd5b506100da610262565b604080519115158252519081900360200190f35b3480156100fa57600080fd5b506100da600160a060020a03600435166102f3565b34801561011b57600080fd5b5061012461034e565b60408051600160a060020a039092168252519081900360200190f35b34801561014c57600080fd5b50604080516020600480358082013583810280860185019096528085526101959536959394602494938501929182918501908490808284375094975061035d9650505050505050565b005b3480156101a357600080fd5b506101956104fc565b3480156101b857600080fd5b5061012461055a565b3480156101cd57600080fd5b5060408051602060046024803582810135601f810185900485028601850190965285855261022f958335600160a060020a0316953695604494919390910191908190840183828082843750949750508435955050505050602001351515610569565b60408051918252519081900360200190f35b34801561024d57600080fd5b506100da600160a060020a03600435166106ec565b600154600090600160a060020a0316331461027f575060006102f0565b60015460008054604051600160a060020a0393841693909116917f8be0079c531659141344cd1fd0a4f28419497f9722a3daafe3b4186f6b6457e091a350600180546000805473ffffffffffffffffffffffffffffffffffffffff19908116600160a060020a038416179091551681555b90565b60008054600160a060020a031633141561034957600160a060020a038216151561031f57506000610349565b506001805473ffffffffffffffffffffffffffffffffffffffff1916600160a060020a0383161781555b919050565b600154600160a060020a031681565b60008054819081908190600160a060020a03163314156104f55760008054600160a060020a0316945092505b84518310156104f55784838151811015156103a057fe5b6020908102909101810151604080517f70a082310000000000000000000000000000000000000000000000000000000081523060048201529051919450600160a060020a038516926370a08231926024808401938290030181600087803b15801561040a57600080fd5b505af115801561041e573d6000803e3d6000fd5b505050506040513d602081101561043457600080fd5b5051905060008111156104ea5781600160a060020a031663a9059cbb85836040518363ffffffff167c01000000000000000000000000000000000000000000000000000000000281526004018083600160a060020a0316600160a060020a0316815260200182815260200192505050602060405180830381600087803b1580156104bd57600080fd5b505af11580156104d1573d6000803e3d6000fd5b505050506040513d60208110156104e757600080fd5b50505b600190920191610389565b5050505050565b60008054600160a060020a03163314156105575750303160008111156105575760008054604051600160a060020a039091169183156108fc02918491818181858888f19350505050158015610555573d6000803e3d6000fd5b505b50565b600054600160a060020a031681565b600080548190600160a060020a03163314156106e35760206000865160208801878a6040603f5a0204f19050600051915080806105a4575082155b151561063757604080517f08c379a000000000000000000000000000000000000000000000000000000000815260206004820152602160248201527f5468726f77206f6e206661696c65642063616c6c20696e205573657250726f7860448201527f7900000000000000000000000000000000000000000000000000000000000000606482015290519081900360840190fd5b85600160a060020a03167fc1de93dfa06362c6a616cde73ec17d116c0d588dd1df70f27f91b500de207c4185876040518083815260200180602001828103825283818151815260200191508051906020019080838360005b838110156106a757818101518382015260200161068f565b50505050905090810190601f1680156106d45780820380516001836020036101000a031916815260200191505b50935050505060405180910390a25b50949350505050565b60008054600160a060020a031633141561034957600160a060020a038216151561071857506000610349565b60008054604051600160a060020a03808616939216917f8be0079c531659141344cd1fd0a4f28419497f9722a3daafe3b4186f6b6457e091a35060008054600160a060020a03831673ffffffffffffffffffffffffffffffffffffffff19918216179091556001805490911681559190505600a165627a7a72305820b7d85b64c7799ab0aa38a9a47c66fbe9bd076d55ef319afd6a98aae8bfc98cd600295133a133185f1023427a2e90f18506b27db994977ce0c0faafd514a7dd109ae0a165627a7a72305820ab5d24f7d56a11307c42f157c90e445cddc44fe5d47fa89d01fe6bcdf30701250029",
  "source": "/**\n * Copyright 2017–2018, LaborX PTY\n * Licensed under the AGPL Version 3 license.\n */\n\npragma solidity ^0.4.21;\n\n\nimport \"solidity-shared-lib/contracts/Owned.sol\";\nimport \"solidity-eventshistory-lib/contracts/MultiEventsHistoryAdapter.sol\";\nimport \"solidity-roles-lib/contracts/Roles2LibraryAdapter.sol\";\nimport \"./UserRouter.sol\";\nimport \"./UserBackendProviderInterface.sol\";\nimport \"./UserRegistry.sol\";\nimport \"./UserInterface.sol\";\n\n\n/// @title Creates new users for a system and registers them in UserRegistry contract.\ncontract UserFactory is Roles2LibraryAdapter, MultiEventsHistoryAdapter {\n\n    uint constant USER_FACTORY_SCOPE = 21000;\n\n    event UserCreated(\n        address indexed self,\n        address indexed user,\n        address proxy,\n        address recoveryContract,\n        address owner\n    );\n\n    address public userBackendProvider;\n    address public userRecoveryAddress;\n    address public oracle;\n\n    constructor(address _roles2Library) Roles2LibraryAdapter(_roles2Library) public {\n        _setEventsHistory(this);\n    }\n\n    /// @notice Sets up events history address\n    /// Allowed only for authorized roles\n    /// @param _eventsHistory address of events history contract\n    /// @return result of an operation\n    function setupEventsHistory(address _eventsHistory) \n    auth \n    external \n    returns (uint) \n    {\n        require(_eventsHistory != 0x0);\n        \n        _setEventsHistory(_eventsHistory);\n        return OK;\n    }\n\n    /// @notice Sets up user backend provider address\n    /// Allowed only for authorized roles\n    /// @param _newUserBackendProvider address of user backend provider contract\n    /// @return result of an operation\n    function setUserBackendProvider(address _newUserBackendProvider)\n    auth\n    external\n    returns (uint)\n    {\n        require(_newUserBackendProvider != 0x0);\n\n        userBackendProvider = _newUserBackendProvider;\n        return OK;\n    }\n\n    /// @notice Sets up user recovery address address\n    /// Allowed only for authorized roles\n    /// @param _userRecoveryAddress address of user recovery contract\n    /// @return result of an operation\n    function setUserRecoveryAddress(address _userRecoveryAddress)\n    auth\n    external\n    returns (uint)\n    {\n        userRecoveryAddress = _userRecoveryAddress;\n        return OK;\n    }\n\n    /// @notice Sets up 2FA oracle address\n    /// Allowed only for authorized roles\n    /// @param _oracle address of 2FA oracle\n    /// @return result of an operation\n    function setOracleAddress(address _oracle)\n    auth\n    external\n    returns (uint)\n    {\n        require(_oracle != 0x0, \"Oracle should not be equal to 0x0\");\n\n        oracle = _oracle;\n        return OK;\n    }\n\n    /// @notice Creates brand new user in a system with passed owner and\n    /// could setup default mode of 2FA.\n    /// Allowed for any caller.\n    /// Emits UserCreated event.\n    /// @param _owner address of an owner of a user\n    /// @param _use2FA if true then 2FA will be enabled\n    /// @return result of an operation\n    function createUserWithProxyAndRecovery(\n        address _owner,\n        bool _use2FA\n    )\n    public\n    returns (uint) \n    {\n        UserInterface user = UserInterface(new UserRouter(_owner, userRecoveryAddress, userBackendProvider));\n        user.init(oracle, _use2FA);\n\n        _addUserToRegistry(address(user));\n\n        address proxy = user.getUserProxy();\n        UserFactory(getEventsHistory()).emitUserCreated(\n            user,\n            proxy,\n            userRecoveryAddress,\n            _owner\n        );\n        return OK;\n    }\n\n    /// @notice Sets up new backend provider for a user\n    /// Allowed only for authorized roles\n    /// @param _user user that wants to have a new version of backend provider\n    /// @return result of an operation\n    function updateBackendProviderForUser(UserInterface _user) \n    auth\n    external\n    returns (uint) \n    {\n        return _user.updateBackendProvider(userBackendProvider);\n    }\n\n    function emitUserCreated(\n        address _user,\n        address _proxy,\n        address _recoveryContract,\n        address _owner\n    ) \n    external \n    {\n        emit UserCreated(\n            msg.sender,\n            _user,\n            _proxy,\n            _recoveryContract,\n            _owner\n        );\n    }\n\n    /* INTERNAL */\n\n    function _getUserRegistry() private view returns (UserRegistry) {\n        return UserRegistry(UserBackendProviderInterface(userBackendProvider).getUserRegistry());\n    }\n\n    function _addUserToRegistry(address _user) private {\n        UserRegistry _userRegistry = _getUserRegistry();\n        if (address(_userRegistry) != 0x0) {\n            _userRegistry.addUserContract(_user);\n        }\n    }\n}\n",
  "sourcePath": "solidity-user-lib/contracts/UserFactory.sol",
  "compiler": {
    "name": "solc",
    "version": "0.4.24+commit.e67f0147.Emscripten.clang"
  },
  "schemaVersion": "2.0.1",
  "updatedAt": "2018-07-20T10:51:35.316Z"
}